:10539500FF02F6FF0316FF05B6FF0036FF0036FFD6
:1053A50002F6FF0316FF0036FF0036FF0036657272
:0253B500720084
:103C0F00E4F5B175B201C2B01218001251D11253BE
:103C1F00361253F69000E612136400000000900075
:103C2F007CE0701490008EE004F0E0D39406400323
:103C3F007406F01253D78005E490008EF090008E3A
:103C4F00E0B406147430123D287BFF7A5379B37DAC
:103C5F00017F061227C480FE7440123D2890008D0C
:103C6F00E0B410004002A107903C7D25E073819DD8
:103C7F0081A281A781AC81B181B681BB81C081C591
:103C8F0081CA81CF81D481D981DEA10781FC1246FF
:103C9F002B8065124EE58060123000805B12336E10
:103CAF008056124A718051124717804C1235058089
:103CBF0047121F288042123E53803D122DCC803870
:103CCF00123F6E8033124000802E1231BD80297B4F
:103CDF00FF7A5379A47DF0124229BF010990007C2D
:103CEF007401F01253D7E490008DF0800B7BFF7AB4
:103CFF005379957D0512422990007CE0B4010D9017
:103D0F00008DE0640D60028167F0816790008DE0A7
:093D1F00640E60028167F0816707
:0F3D2800900061F0C2007B80E4FDFF124DC122CC
:1053F60043891175B802758DEC758B77758C64755C
:0D5406008A64D2AFD2A9D28CD2ABD28E2252
:03001B0002443666
:10443600C0E0C0F0C083C082C0D075D000C000C04C
:1044460001C002C003C004C005C006C007758D3C8C
:10445600758BAF900098E004F07006900097E0042A
:10446600F0C3900098E0947E900097E09404400B8F
:104476007404F0A3747EF0D2B08002C2B090007BC8
:10448600E004F0700690007AE004F0D390007BE040
:1044960094E890007AE0940340077403F0A37484D0
:1044A600F09000A3E004F070069000A2E004F0D3C0
:1044B6009000A3E094159000A2E094004026E4F05A
:1044C600A304F0900090E004F0700690008FE004E2
:1044D600F090008FE0B40D0CA3E0B4630790008F5A
:1044E600E4F0A3F0900072E004F0E0B43C0674013E
:1044F600F01254E9900072E0B4150312549375E17A
:104506003C9000A2E0FEA3E0FF7C007D0A1211F3BE
:10451600ED4C7002B2B1D007D006D005D004D0035E
:10452600D002D001D000D0D0D082D083D0F0D0E05D
:014536003252
:03000B0002544953
:10544900C0E0C083C082900078E0F58CA3E0F58AC3
:09545900B2B5D082D083D0E0325C
:030033000252F680
:1052F600C0E0C083C082C0D075D000C006C007C25F
:10530600D89000F2E0FEA3E0F5EAEEF5FA90007E12
:10531600E0FEA3E0FF9000F3E02FF09000F2E03E05
:10532600F0B2B7D007D006D0D0D082D083D0E0324A
:0300030002541391
:10541300C0E0C083C08290009AE004F07006900060
:0B54230099E004F0D082D083D0E0328A
:03000000024E5954
:0C4E5900787FE4F6D8FD758120024EA0A1
:10526B00C283C294AF068FA0D29512550CC295C2C1
:10527B0082C292227A002FFFEA35F0FED3EF9440E0
:10528B00EE64809480222FFFEA33FED3EF9480EEFE
:10529B006480948022121294A9F0FA021167F582AD
:0852AB0074053EF583E4932233
:1054AA00EF1FAA0670011E4A600BE4FDEDC3947D4E
:0554BA0050EE0D80F72B
:0154BF0022CA
:0F550C00E4FF00000000000000000FEFB403F305
:01551B00226D
:0F542E00E0FF12000EED2440FF12000EA3E0FF7E
:0C543D00D282C292D283C2941252712219
:0D546200E0FF12553BAF0512553BA3E0FFE4
:0C546F00C282D292D283C29412527122E7
:0D000E00AE0712550CD282C29212526B2224
:0D553B00AE0712550CC282D29212526B22A2
:0A4BE000900064EFF0900066EBF027
:104BEA00ED75F008A4FFA3E0FC12527F4002818217
:104BFA00900066E0FF900064E0F91252915079EC5F
:104C0A0054077074ED24B890006BF0AD01E4FC9089
:104C1A000067E0131313541FFFECC39F505A900010
:104C2A0064E0FFC3ED9FFF900066E0FEEFC39E5075
:104C3A0039900068E0FBA3E475F0013000061252D7
:104C4A00A0F480031252A090006CF0EDC394407F50
:104C5A00C0500B12000E90006B12542E8009125590
:104C6A003B90006B1254620D80B4900064E0FD909A
:084C7A00006BE004F00C81194D
:014C8200220F
:0A4DC10090005FEDF0A3EBF0AC07EB
:104DCB0090005FE075F008A4FF900061E0FD1252C7
:104DDB007F507A900060E0FFEC125291506FED54CF
:104DEB0007706A90005FE024B8FDAB04E4FA900012
:104DFB0061E0131313541FFFEAC39F5050C3EB9C86
:104E0B00FF900060E0FEEFC39E503C30000479FF42
:104E1B008002E4F9EBC394407FC0501612000EAF32
:104E2B000512000EEB2440FF12000EAF0112543D91
:104E3B00801212553BAF0512553BAF0312553BAFDA
:0D4E4B000112546F0B80B6AB040D0A80A15C
:014E58002237
:074C8300900064EBF0A907AB
:104C8A00ED75F008A42410FFE41252844002A12515
:104C9A00E92408FFE41252944002A125ED24B890B9
:104CAA000065F0AD01E4FCE4900067F0C3ED99C340
:104CBA0094085059EC75F008A4FBAAF0900064E03F
:104CCA0075F010A42BFFE5F03AFE900067E07A0039
:104CDA002FFFEA3EFE74562F3000061252A9F480C6
:104CEA00031252A9900066F0EDC394407FC0500BA6
:104CFA0012000E90006512542E800912553B900046
:104D0A0065125462900067E004F00D81B6AD01901F
:0B4D1A000065E004F00CEC6402708CFB
:014D2500226B
:1051D1007F647E001254AAC29312550CD2937F3E73
:1051E10012000E7F3E12553B7FC012000E7FC0128F
:1051F100553B7FB812000E7FB812553B7F4012001D
:105201000E7F4012553B7F3F12000E7F3F12553BF0
:105211009000617440F0C2007B80E4FDFF024DC14B
:1000360000000000000000000000000000000000BA
:1000460000000000000000000000000000000000AA
:100056000000FE020A126282621A02FF020000001B
:1000660080403F20100806010618003F4080E0004F
:10007600202020BEAAAAAAAAAAAAAABF2230200085
:10008600008080AFAAAAAAFFAAAAAAAF8080000011
:10009600100C04555555857F8555555504140C008F
:1000A6000404020209092A4CA819090202040400E0
:1000B600404244CC00F4949494FF949494F6040043
:1000C6000040201F20514844427F42444C6120009A
:1000D6001010D0FF90108848A8090A08A84CC8003C
:1000E600040300FF808140402116081661C04000CD
:1000F600000204EC4020F84F4849FE48684C0800CE
:1001060002027F000000FF2222223F22233220002B
:10011600202424A4FE232200FC04040404FE04007C
:1001260010080601FF0142201B110101093360007E
:100136000080402098868080838C9020C08080003C
:1001460001008040201F004080403F000001000069
:1001560000022222322EA262222291090100000010
:10016600000042221A43827E02020A136600000041
:1001760010925430FF509432D8171010F018100017
:1001860002824E3322528E402314081661C040006C
:10019600101494F494DF94D4907F901214101000ED
:1001A6000201FF4A4A7F4A4A60100F3442817000BA
:1001B60002F2121212FA969292F2121212FB120026
:1001C60000FF4040407F4848487F404040FF0000D5
:1001D6000000FE0282828282FE828282C382000048
:1001E60040300F40404040407F4042444C60400019
:1001F600001010101010FF1010101010F810000052
:100206000080808060180700204080403F0000008A
:100216000000F8494A4C48F8484C4A49FC08000096
:1002260010101712121212FF1212121213181000C7
:10023600804020F80710D01011161010D8100000BA
:10024600000000FF202020232C203827203020000B
:10025600807000FF102808E81F08E808088C0800CE
:10026600000000FF2018878041320F3241C1400054
:1002760020100C03FAAAAAAAAAAAAAFA0302000044
:100286000020908886472A12122A464280808000E3
:10029600404042CC0040A09F8181819FA020200049
:1002A6000000007FA09040432C10282641C040004B
:1002B600001017D55557557D555755D517100000C1
:1002C6004040407F555555555555557F4060400037
:1002D6002424A4FEA322207E42424242427F020000
:1002E600080601FF0043414949497F494D694100DC
:1002F600104C2404F4844D562424148424540C00F5
:100306000001FD414041417F41414141FC00000067
:100316000282F24E43E242FA020202FF028000002B
:1003260001007F20207F080909090D49817F01000E
:100336000000C04040407F48484848E84C0800005C
:1003460080403704146404142464041720C0000099
:10035600101091D63098000808F8080808FC080024
:10036600020100FF0182402018074080403F000044
:10037600242820FF3028445454547F5454D6440033
:10038600080403FF010200FF1515151595FF01006E
:100396000000FC242424FCA5A6A4FC243426040086
:1003A60040209F804242262A122A264240C0400010
:1003B6001010F01F10F04060584740405060C000D9
:1003C60040221508166100FE4242424242FF0200E8
:1003D600804020F80704E4A4A4BFA4A4F6240000E7
:1003E600000000FF40407F4A4A4A4A4A7F40400098
:1003F6000000FE02E2A2B2AEA2A2A2A2F322000076
:1004060040300F40231A42827E02020A1360000027
:1004160040445465C664D64440FC4442C36240002E
:10042600201149817F01052918070000FF000000FF
:100436001022640CC0445454547F5454D644400093
:100446000404FE010000FF15151555957F010000F7
:100456000010E1CE0C8044E4F45DCF46D474E6444B
:10046600000438FC6780603F1F00FF007FFFC070FC
:10047600002020FFBFB5B5B5B5B5B5BFFFA030208C
:100486000080809FAFAAAAFFFFAAAABF8FC08000E4
:100496000000C4743C14FCFD0706FCFC9424E644EE
:1004A600000180808143452D39192D6743C1C04025
:1004B600004046DCE84080898A8EF8FC8F8AC88036
:1004C6000040E03F1F3060E0D8CEC7C1C6DCF85020
:1004D6000080BF9E9292BEDFC2BF9EF2D2BEDF8276
:1004E6000004FC7C4A4AF97D08FC79494AFA7E0AEE
:1004F60000000000008080000000000000000000F6
:100506000000000000313100000000000000000083
:100516001022640C80444464554E445466C4000062
:100526000404FE010080403F00FF003F4040700091
:1005360010101011D630980000FF40800000000017
:1005460008040201FF01020000FF00000103000091
:10055600804020F847309294909F90D4925030007B
:10056600000000FF04044464544C445464C6040070
:100576001022640C8000FE9292929292FF0200007A
:100586000404FE01407E42427E427E42427E40009C
:100596000000FC242424FCA5A6A4FC243426040084
:1005A60040209F804242262A122A264240C040000E
:1005B60080808080808080808080808080C0800075
:1005C6000000000000000000000000000000000025
:1005D60000000808080808080808080C08000000B9
:1005E600101010101010101010101010101810000D
:1005F6000000FE22222222FE22222222FF020000E8
:1006060000000702020202FF0202020207000000C7
:10061600807000FF10081C2424252634A4140C0026
:100626004020180708B041310F01013F41417000D9
:10063600000000F112141010101412F9100000003E
:100646002018003B4141454959414173000830009B
:100656002030AC633008E80808FF0808E80C0800FA
:100666002267221212000702023F424247407000F0
:100676001021620680FE929292929292FF020000F0
:100686000404FE0100FE8444207F88848680E00006
:1006960080804020504844434448502040C0400099
:1006A600000000FE42424242424242FF0200000077
:1006B60000101012945010FF105094921810000061
:1006C6000484844524140C070C142445C4460400F1
:1006D600202222FE2222FE232200FC0000FF000030
:1006E600404C4A4948484B7E4848484A4C6B400073
:1006F60000040404040404FC0404040406040000C6
:10070600202020202020203F2020202020302000D4
:100716000002048C407EC24242C2427F02000000B8
:100726000202FF8040300F00003F40404040700012
:100736001010D0FF9050444444C4444644604000E6
:10074600040300FF00110846807F00020C18000019
:100756000000000000000000000000000000000093
:10076600000038FCFC3800000000000D0D00000001
:1007760000003C24243C00000000000000000000B3
:1007860020F8F820F8F82000020F0F020F0F0200E1
:10079600387C444747CC98000306041C1C0703001A
:1007A60030300080C06030000C060301000C0C00E5
:1007B60080D87CE4BCD84000070F0808070F080063
:1007C60000101E0E000000000000000000000000E7
:1007D6000000F0F80C040000000003070C080000FD
:1007E6000000040CF8F000000000080C07030000ED
:1007F60080A0E0C0C0E0A080000203010103020067
:10080600008080E0E080800000000003030000001C
:1008160000000000000000000000101E0E00000096
:100826008080808080808000000000000000000042
:1008360000000000000000000000000C0C0000009A
:1008460000000080C06030000C06030100000000BC
:10085600F8FC04C424FCF800070F0908080F070079
:10086600001018FCFC0000000008080F0F08080024
:10087600080C84C4643C18000E0F0908080C0C0010
:10088600080C444444FCB800040C0808080F070090
:10089600C0E0B098FCFC8000000000080F0F0800C4
:1008A6007C7C4444C4C48400040C0808080F070078
:1008B600F0F84C4444C08000070F0808080F0700F2
:1008C6000C0C0484C47C3C0000000F0F00000000E8
:1008D600B8FC444444FCB800070F0808080F07009A
:1008E600387C444444FCF800000808080C07030060
:1008F6000000003030000000000000060600000086
:100906004848B0000000000002020100000000009C
:10091600C8A89000000000000000000000000000D1
:1009260040404040404040000202020202020200F3
:100936000008183060C0800000080C0603010000A3
:10094600181C04C4E43C18000000000D0D00000053
:10095600F0F808C8C8F8F000070F080B0B0B0100E9
:10096600E0F0988C98F0E0000F0F0000000F0F00E9
:1009760004FCFC4444FCB800080F0F08080F0700ED
:10098600F0F80C04040C180003070C08080C060009
:1009960004FCFC040CF8F000080F0F080C07030019
:1009A60004FCFC44E40C1C00080F0F08080C0E00A5
:1009B60004FCFC44E40C1C00080F0F0800000000B7
:1009C600F0F80C84848C980003070C0808070F00C5
:1009D600FCFC404040FCFC000F0F0000000F0F0025
:1009E600000004FCFC0400000000080F0F080000D3
:1009F60000000004FCFC0400070F08080F070000B5
:100A060004FCFCC0F03C0C00080F0F00010F0E00A8
:100A160004FCFC0400000000080F0F08080C0E0080
:100A2600FCFC387038FCFC000F0F0000000F0F00B4
:100A3600FCFC3870E0FCFC000F0F0000000F0F00FC
:100A4600F0F80C040CF8F00003070C080C07030080
:100A560004FCFC44447C3800080F0F08000000002A
:100A6600F8FC040404FCF800070F080E3C3F2700BE
:100A760004FCFC44C4FC3800080F0F00000F0F00F4
:100A8600183C6444C49C1800060E0808080F0700AA
:100A9600001C0CFCFC0C1C000000080F0F080000DA
:100AA600FCFC000000FCFC00070F0808080F07000C
:100AB600FCFC000000FCFC000103060C0603010020
:100AC600FCFC008000FCFC00030F0E030E0F03006D
:100AD6000C3CF0C0F03C0C000C0F0300030F0C00A4
:100AE600003C7CC0C07C3C000000080F0F080000E2
:100AF6001C0C84C4643C1C000E0F0908080C0E0074
:100B06000000FCFC0404000000000F0F08080000B1
:100B16003870E0C0800000000000000103070E00EE
:100B260000000404FCFC0000000008080F0F000091
:100B3600080C0603060C0800000000000000000078
:100B4600000000000000000020202020202020209F
:100B56000000030704000000000000000000000081
:100B660000A0A0A0E0C00000070F0808070F0800BB
:100B760004FCFC2060C08000080F0708080F07006F
:100B8600C0E0202020604000070F0808080C040081
:100B960080C06024FCFC0000070F0808070F08004F
:100BA600C0E0A0A0A0E0C000070F0808080C0400E1
:100BB60040F8FC440C180000080F0F080000000065
:100BC600C0E02020C0E02000276F48487F3F00009B
:100BD60004FCFC4020E0C000080F0F00000F0F00CF
:100BE600000020ECEC0000000000080F0F080000D9
:100BF6000000000020ECEC0000307040407F3F0019
:100C060004FCFC80C0602000080F0F01030E0C00DE
:100C1600000004FCFC0000000000080F0F080000A4
:100C2600E0E060C060E0C0000F0F000F000F0F0093
:100C360020E0C02020E0C000000F0F00000F0F00D2
:100C4600C0E0202020E0C000070F0808080F0700BA
:100C560020E0C02020E0C000407F7F48080F07004A
:100C6600C0E02020C0E02000070F08487F7F40003A
:100C760020E0C0602060C000080F0F0800000000E0
:100C860040E0A02020604000040C09090B0E04007F
:102B2500000000000000000000000000000000FFA1
:102B350001D6FF01F6FF0036FF0036FF0036706153
:102B450000FF0196FF01B6FF0116FF0036FF0036B4
:102B5500FF0036FF02F6FF0316FF05D6FF0036FF1E
:102B65000036636D3C00FF06F6FF0716FF0036FFD3
:102B75000036FF0036FF0736FF0716FF0036FF0059
:102B850036FF0036FF01D6FF01F6FF04F6FF0036DB
:102B9500FF0036FF05F6FF0616FF04F6FF0036FFB9
:102BA5000036FF0576FF0596FF0036FF0036FF006D
:102BB500363A006D3B2F73006D3B2F6D696E004BF0
:102BC5005061002500224300202D2D2020202000CB
:102BD5003A00FF0636FF0076FF0036FF0036FF009D
:102BE50036FF06F6FF0716FF0036FF0036FF0036F4
:102BF500FF0736FF0716FF0036FF0036FF0036FFDA
:102C05000736FF0656FF0036FF0036FF0036FF0485
:102C150036FF0096FF0036FF0036FF00364F46466A
:102C250020004F4E2020006D3B003A00FF0516FFA7
:102C350000B6FF0036FF0036FF00366D2F7300FF2C
:102C45000096FF0336FF00D6FF00F6FF0036FF02B1
:102C5500F6FF0316FF05D6FF0036FF00366D2F730E
:102C650000FF0376FF0396FF00D6FF00F6FF003650
:102C7500FF02F6FF0316FF05D6FF0036FF00366D8F
:102C85002F7300FF0536FF0556FF0156FF0176FF3E
:102C95000036FF02F6FF0316FF05D6FF0036FF00DC
:102CA50036FF0116FF0136FF0156FF0176FF00369C
:102CB500FF02F6FF0316FF05D6FF0036FF0036FFBD
:102CC5000256FF0276FF0356FF03B6FF03D6FF0346
:102CD500F6FF03D6FF0036FF0036FF0036FF041669
:102CE500FF03D6FF0036FF0036FF0036FF02F6FF72
:102CF5000316FF05D6FF0036FF0036FF0216FF025A
:102D050036FF0036FF0036FF0036FF02F6FF0316DA
:102D1500FF05D6FF0036FF00366D3B2F73202000E0
:102D25006D3B2F6D696E00FF0516FF0076FF06B639
:102D3500FF06D6FF0036FF02F6FF0316FF05D6FF96
:102D45000036FF0036FF06F6FF0716FF0516FF00E3
:102D550076FF0036FF0736FF0716FF0516FF0076DC
:102D6500FF0036FF0436FF0096FF0036FF0036FFF2
:102D75000036FF02F6FF0316FF05D6FF0036FF00FB
:102D8500364F464620004F4E202000FF0076FF02BA
:102D9500D6FF0036FF0036FF0036FF02F6FF0316AA
:102DA500FF05D6FF0036FF00366D3B2F7320200050
:102DB5006D3B2F6D696E004F4B202020004E4F203C
:072DC500202000657272007E
:1047F9004100DA004100DB004400DC000000004415
:0E48090000E0000000004100E4004100E50076
:102800007FCD7ECC7DCC900001E0F8A3E0F9A3E081
:10281000FAA3E0FB120C9D900001E0F8A3E0F9A3FD
:10282000E0FAA3E0FB120E97900082E0F8A3E0F933
:10283000A3E0FAA3E0FB120D8E9000821213587DE4
:10284000A0900082E4FFFE7C41E0F8A3E0F9A3E061
:10285000FAA3E0FB227B667AA679CA784290001A36
:10286000E0FCA3E0FDA3E0FEA3E0FF22CFF0A3EF96
:10287000F09000617440F0C2007B80E4FDFF221202
:102880000D8E120FF0900005EEF0A3EFF090001AFD
:102890007401F0E4FB22120D8EE4FBFA79487843D0
:1028A000120C9DA804A905AA06AB077F007E247D13
:1028B000F47C48120E97A804A905AA06AB0722E4E7
:1028C00090007AF0A3F02290009BE0FCA3E0FDE4EE
:1028D000020FB7900001121358E4FFFE7D207C41E7
:1028E00022900016E0FEA3E0FF7C000211F39000AE
:1028F00014E0FBA3E0FAA3E0F922D39000A3E09454
:10290000059000A2E09400227D017BFF7E007F0FF6
:10291000021141120FF09000177405F0A3227D39C7
:1029200090008FE0FEA3E0FF7C000211F3122FBBAA
:10293000AC00AD01AE02AF0322120D8E7B007A40D7
:10294000791C7846020E977F007E807D927C430240
:102950000E97120D8E020FF0240475F008A4FFA349
:10296000E025E0FD2290008DE004F022E4FFFE7DF2
:10297000487C44120E97900008227C277D1090001E
:1029800016E0FEA3E0FF0211F37F807E017D807CD4
:1029900047120C9979807843E4FBFA020E97E4FA27
:1029A000F9F8122FBBEF2430227F007E807D887CD7
:1029B0004390002222900001EEF0A3EFF022742059
:1029C0002FF582E43400F58322EFF0A3EDF0A3EBC2
:1029D000F0A3EAF0A3E9F0227E00CFCDCFCECCCE9B
:1029E0001211F3EF243022E4FFFE7DC87C4222E482
:1029F000FFFE7D707C42900016229000A2E0FEA3B4
:102A0000E0FF7C007D0A1211F3ED4C22900001EEF4
:102A1000F0A3EFF022E0FEA3E0FF90000B7401F0C2
:102A2000A322120C9D90009E22E014F0E0C364806B
:102A30009480221212CE7B667AA679CA7842020E60
:102A4000971212CE7B007A8079887843020C9D7DA4
:102A5000017BFF7E00021141900001EEF0A3EFF038
:102A60002279C87842E4FBFA020E977A0079047B57
:102A700001E4FD7F0722900080F0A3EFF022900098
:102A80007BE0948490007AE0940322900090E0949C
:102A90000A90008FE0940022120C9D9000A812135F
:102AA000589000A422120C9D9000A412135890007C
:102AB00093227BFF7D017F06227B007AE179F57806
:102AC00005900013221213587F6F7E127D837C3A8B
:102AD000227FCD7ECC7DCC7C3D900082227F0A7E01
:102AE000D77D237C3C90006D227FA47E707D7D7C11
:102AF0003F900082227FAE7E477D817C3F900082A6
:102B00002274192FF58274003EF58322C3ED9414CC
:102B1000EC9400229000D9E0D36480948A227BFF59
:052B2000E4FD7F04222A
:1053B700D3EF9400EE6480948040147D647C00ED0C
:0F53C7001D70011CED4C70F7EF1F70E41E80E1AC
:0153D60022B4
:1052B300124FD9EF60259000D9E004F0E0D3648069
:1052C30094944003740BF0122B1440067F017E006C
:1052D30080047F2C7E011253B78005E49000D9F03F
:1052E300122B1440067F0A7E0080047FE87E03129F
:0252F30053B7AF
:0152F5002296
:1054FB00D3122A7E4008E490008DF07F01227F00BA
:01550B00227D
:0E369500900016EEF0A3EFF0A3EDF0A3EBF023
:1036A30078207C007A2B79257F06122A4FE4FB12BF
:1036B300297AEF243090001BF012297A7E037FE8E9
:1036C3001229DA90001CF07C037DE812297E7F64C6
:1036D3001229D890001DF07D641228E17F0A122977
:1036E300D890001EF07D0A1228E1ED243090001FCF
:1036F300F0900018E0FF3395E0FEC374059FFFE4EC
:103703009EFE74202FF58274003EF583742EF0E440
:10371300FF1229BEE07012741B2BF582E43400F50E
:1037230083E0FE1229BEEEF00B0FEFB406E3E4FFD5
:10373300900018E0FEC374049EC36480F8EF6480B5
:103743009850101229BEE0B430091229BE7420F03B
:103753000F80DDD3EE64809480900019E075F0084B
:10376300401E123794122958900024E0FBC2001225
:103773004C83900019E0240512295A9000258009F2
:10378300123794122958900024E0FBC200124C8394
:1037930022A4FFA3E025E0FD900020E0FBC200127D
:1037A3004C83900019E00475F008A4FFA3E025E022
:1037B300FD900021E0FBC200124C83900019E0242D
:1037C3000275F008A4FFA3E025E0FD900022E0FBD2
:1037D300C200124C83900019E0240375F008A4FF83
:1037E300A3E025E0FD900023E0FBC200124C839090
:0437F3000019E022B7
:0627C40090005E1229C91D
:1027CA00E4A3F09000601228F1121167FB602490D4
:1027DA000063E0FF90005EE02F12295AC200124CFB
:1027EA0083900063E004F0900061E475F001121236
:0327FA007E80D00E
:0127FD0022B9
:06512C0090005E1229C98B
:10513200E4A3F0F0900063E0FFC39405503FEFC496
:1051420054F0FF90005EE075F008A42F12295E90E3
:1051520000677410F09000601228F11213AF9000F3
:10516200681229CFC2007B10124BE0900061E475F7
:0D517200F00312127E900063E004F080B79D
:01517F00220D
:06380000900013121358A2
:1038060078197C007A2B792B7F09122A4F7FFF7E4D
:10381600C97D9A7C3B900013122849D31212B840F6
:103826000A9000131213643B9AC9FF122AB9122890
:10383600601229A2900019F0122AB91228601229E2
:103846002D7B807A96799878001229A290001AF03A
:103856007B807A9679987800900013122860122956
:103866002D7B407A42790F78001229A290001BF036
:103876007B407A42790F7800900013122860122953
:103886002D7BA07A86790178001229A290001CF07F
:103896007BA07A867901780090001312286012299D
:1038A6002DE47B107A271229A090001DF0E47B10EE
:1038B6007A27F9F890001312286012292DE47BE884
:1038C6007A031229A090001EF0E47BE87A03F9F847
:1038D60090001312286012292D7B6412299E9000F5
:1038E6001FF0E47B64FAF9F890001312286012299D
:1038F6002D7B0A12299E900020F0E47B0AFAF9F843
:10390600900013122860122FBBEB2430900021F098
:10391600E4A3F0900022E0FFC364809488501AEF7D
:103926003395E0FE122B01E0B4300E122B01742009
:10393600F0900022E004F080DAE4900022F090009B
:1039460022E0FE900017E02E12295AEEFB3395E096
:10395600FA74192BF58274003AF583E0FBC2001263
:103966004C83900022E004F0E0C36480948940CE4A
:01397600222E
:063977009000141229CF9C
:10397D009000251213640000000090001A122860B8
:10398D00900021122AC5900021122849120F34509F
:10399D000A9000211213640000000090001E1228EE
:1039AD00F112411B9000171228F11212EE123AE398
:1039BD0090002512135890009DE06002414D90003B
:1039CD007DE090008BB4010E1228CA9000251228BC
:1039DD0049122939412D1228CA9000251228491261
:1039ED002939C004C005C006C0079000171228F180
:1039FD00122A33D003D002D001D000120D8EC00494
:103A0D00C005C006C00790001E1228F1122A4112EF
:103A1D0028B6122947D003D002D001D000120D8E46
:103A2D001228EE1212EE9000801228CA1228EE1201
:103A3D001338120F346002500241E290008041D9D8
:103A4D0090007DE090008BB401151228CA900025DE
:103A5D00122849122939E4FBFA7970784241BD12D6
:103A6D0028CA900025122849122939E4FBFA7970E9
:103A7D007842120D8EC004C005C006C00790001715
:103A8D001228F1122A33D003D002D001D000120D2A
:103A9D008EC004C005C006C00790001E1228F1128A
:103AAD002A411228B6122947D003D002D001D000E6
:103ABD00120D8E1228EE1212EE1228C71228EE12D7
:103ACD001338120F34600E400C90009B1228CA124E
:053ADD0028EE1212EEBC
:013AE20022C1
:10156C00C3122A8B501B9000DBE07015900073E0C7
:10157C00FF6003B402031220009000DB7401F080C2
:10158C000BD3122A8B4005E49000DBF012291E12BB
:10159C002B0C4002E1759000DAE06002E17504F07A
:1015AC001250D390001E122AC590001E1228491208
:1015BC000F34500A90001E121364000000007B01CF
:1015CC007A00792212411B90001A121358123AE336
:1015DC00C004C005C006C00790008B1228CAD003F7
:1015EC00D002D001D0001229399000161213589055
:1015FC00009DE09000A86002C18C1228609000163B
:10160C00122849122A98122849C000C001C002C0F1
:10161C00031229A9122849120C9D1228B612294727
:10162C00C004C005C006C007122855120E979000C2
:10163C0016122849120D8ED003D002D001D0001200
:10164C000D8ED003D002D001D000122AA512284949
:10165C00C000C001C002C0031229A9122849120CF3
:10166C009D1228B6122947C004C005C006C0071237
:10167C002855120E97900016122849120D8EE1492A
:10168C00122849C000C001C002C0031229EF122861
:10169C0049120D8ED003D002D001D000122A98121C
:1016AC002849C000C001C002C003122855120E9771
:1016BC00C004C005C006C0071229EF122849120D3C
:1016CC008ED003D002D001D000120D8EC004C00504
:1016DC00C006C0071229A9122849120C9D1228B65F
:1016EC00122947D003D002D001D000120D8ED003A6
:1016FC00D002D001D000122AA5122849C000C00186
:10170C00C002C003122855120E97C004C005C006B3
:10171C00C0071229EF122849120D8ED003D002D027
:10172C0001D000120D8EC004C005C006C0071229DE
:10173C00A9122849120C9D1228B6122947D003D0A1
:10174C0002D001D000120D8E90001E122849120DED
:10175C008E79C87842122998D003D002D001D000DB
:10176C00120C9D90009302135812291ED3122B0DAC
:07177C004005E49000DAF0E3
:011783002243
:103F6E00E4900002123FF1EEF0A3EFF07BFF7A2B0C
:103F7E007934E4FDFF12512C7A2B7943122AB212B6
:103F8E0027C4900000E0FEA3E0FF12288DFD12363C
:103F9E0095900073E0FF6003B4020312156C124F8C
:103FAE00D9EFB4010C1228BF1229651254C07F003C
:103FBE0022900002E070161228FA5011900002743E
:103FCE0001123FF1122888FD123695800A1228FA46
:103FDE004005E4900002F01252B31254FBEF60B1B0
:023FEE007F0052
:0C3FF00022F0124537120FF09000002262
:101F280090008BE0FEA3E0FF1229B5A3EEF0A3EF2B
:101F3800F0121FDC12288DFD123695900073E0FF19
:101F48006003B4020312156C124FD9900000EFF031
:101F5800BF010C1228BF1229651254C07F002290BD
:101F68000001122A157427F0A37410F0E4FBFD1287
:101F78004D261229B5900000E0640270491228C06D
:101F8800900001E0FFA3E090008B12286C124DC175
:101F98007BFF7A2B79587D0A124229EF7015900041
:101FA80003E0FEA3E0FF90008BEEF0A3EFF0122910
:101FB800B58003122000122871124DC1121FDC12C5
:101FC800288DFD1236951252B31254FBEF7002E1C0
:031FD800437F0044
:101FDB00227BFF7A2B7946E4FDFF12512C7BFF7A93
:101FEB002B79677D017F051227C4900001E0FEA3CA
:031FFB00E0FF22E2
:1049AD0078037C007A2B796B12290878127C007AB7
:1049BD002B797A12290890007DE07B01B401067AEB
:1049CD0000790380047A007912E4FDFF12512C90D6
:1049DD00009DE07BFF70097A2B79B8FD7F0C800874
:1049ED007A2B79BDE4FD7F0A1227C47A2B79B61292
:1049FD002B1E1227C47A2B79897D01124A697D01FC
:104A0D00124A5B7A2B79C47D017F0D1227C47A2B54
:104A1D0079987D02124A697D02124A5B7A2B79C818
:104A2D007D027F0F1227C47BFF7A2B79A77D03E4CC
:104A3D00FF12512C7BFF7A2B79B67D037F04122751
:0E4A4D00C47BFF7A2B79CA7D037F0E0227C43B
:104A5B007BFF7A2B79B67F041227C47BFF227BFF67
:064A6B00E4FF12512C22B1
:0524FC00900003EFF069
:102501001250D390000C1213589000177401F0A3CD
:102511007400F0A37404F090000C12286090001A6B
:1025210012135890001E7401F0A37400F0A37410EC
:10253100F07B017A0079081239777D209000101222
:10254100284412295290001A7403F07B087D01126D
:102551003695E4FFFE7D807C3F90000412284912ED
:102561000F34500D7D011227B8C2DEC2AED2B78042
:10257100251228D990000412284912295290001AD4
:102581007401F07B07FD123695D2DED2AE900004C5
:10259100122860125180E4FFFEFDFC90000C12280D
:1025A10049120F34402E7F837E007DC87C4290000B
:1025B1000C122849120F34501B1228D990000C120A
:1025C100284912295290001A7402F07B097D0112E8
:1025D100369580057D021227B8900003E0701B90AC
:1025E10000E4E004F09000DC12286090000812285A
:1025F10049120C9D9000DC1213589000E4E0640A2B
:10260100600A900003E064016002E1B7900003E01A
:10261100B4010E9000E01228609000081213588057
:102621002DE49000E4F0FBFA792078419000DC126F
:102631002860122973121358900008122860900024
:10264100E01213589000DC121364000000009000A7
:10265100E5E004F0E06404600A900003E0640160D6
:1026610002E1B7E4900003F09000E5F090009DE0F6
:102671006002C1FC1229E89000081228491229526F
:10268100E490001AF07B067D0212369590008012CC
:1026910028CA1228B612296C122849122896122922
:1026A10089120FF0900078EFF09000801228CA1282
:1026B10028B612296C122849120D8EE4FBFA7948CA
:1026C1007843120C9D120FF0AB07AA06EA3395E08E
:1026D100F9F87F207EA17D077C00122FBBC3740314
:1026E1009FFFE49EFE74019DFDE49CFCE4FB7A01E6
:1026F100F9F8122FBB900079EBF0221228C7900055
:1027010008122849120F34600B40091228C79000A3
:10271100081213581229E7900008122849120F34A1
:1027210050171229E7900008122849122952E49003
:10273100001AF07B047D0280347F9A7EF97D797CDA
:1027410044900008122849120F34600C400A90008E
:10275100081213644479F99A1228D99000081228B2
:1027610049122952E490001AF07B047D011236953A
:102771007A2B79D5122B1E1227C41228C71228B61C
:1027810012296C122849122896122989120FF090E9
:102791000078EFF01228C71228B612296C122849C6
:1027A1001228967F807E017D807C47120C99120F42
:0627B100F0900079EFF04A
:0D27B700227BFF7A2B79CD7F051227C422EB
:1043330078137C007D017BFF7A2B79D712290C78C7
:10434300227C007D017BFF7A2B79E612290C7831E0
:104353007C007D017BFF7A2B79F512290C78407C58
:10436300007D017BFF7A2C790412290C784F7C00A5
:104373007D017BFF7A2C791312290C122871124DBF
:10438300C17B017A007913E4FDFF12512C7BFF7A84
:104393002C792FE4FD7F041227C4900073E0B4014D
:1043A300097BFF7A2C7922E4800C900073E0700E75
:1043B3007BFF7A2C7927FD7F071227C4800A7A00B6
:1043C300794F122A6F12512C7A0079227D011244FF
:1043D3002E7D0112441C7D017F041227C47A0079CB
:1043E300317D0212442E7D0212441C7D027F041291
:1043F30027C47B017A0079407D03E4FF12512C7BB3
:10440300FF7A2C792C7D037F0E1227C47BFF7A2C35
:09441300792F7D037F040227C408
:10441C007BFF7A2C792C7F0E1227C47BFF7A2C79A8
:0A442C002F227B01E4FF12512C2225
:10462B00E4900000F0A304F0A3F01249AD7F01C1A8
:10463B00A4900073E0FF6003B4020312156C124FD9
:10464B00D9EFB4011AC3122A7E90008D4005740F66
:10465B00F08003E004F01228BF1254C07F00227DCB
:10466B001E122920122B0C503C900001E0B4010EBD
:10467B00122871124DC11249AD7F011224FCE49036
:10468B000001F0A304F0900000E070121228FA5021
:10469B000D9000007401F0E4FF1224FCC13C1228C1
:1046AB00FA408EE110900002E0B401091228711259
:1046BB004DC11243339000017401F0E4A3F090005C
:1046CB0000E0703A1228FA50359000007401F09017
:1046DB0000A81228601229137401F0123800900000
:1046EB00A41228601229137402F012380090009360
:1046FB001228601229137403F0123800C13C1228DF
:0C470B00FA5002C13CE4900000F0C13CF8
:104EE5007BFF7A2C7931E4FDFF12512C7A2C794025
:104EF500122AB21227C4123AE39000001228D69063
:104F050000001228491229529000041228887D01B8
:104F1500123695900073E0FF6003B4020312156C1E
:104F2500124FD9EFB4010C1228BF1229651254C0D3
:104F35007F00221229FA701D123AE3900000122810
:104F4500D690000012284912295290000412288890
:104F55007D011236951252B31254FBEF60B57F00F6
:014F65002229
:10300000E4900006F0A3F090000A121364000000A0
:103010000012319D1228D69000021228491229521E
:1030200090000E1228887D01123695900073E0FF03
:103030006003B4020312156C124FD9900001EFF037
:10304000BF010C1228BF1229651254C07F002290C4
:103050000001E064026002216D1228C01254C01207
:103060002871124DC17BFF7A2C79537D0A124229B7
:10307000EF64016002214D900000F0900000E0C379
:10308000648094854002210C9000587401F0A37470
:1030900000F0A37408F07B017A007906124F66EF06
:1030A0007061900000E004F0D3900007E094669017
:1030B0000006E06480948650077406F0A37466F0FE
:1030C000C3900007E0949A900006E0648094B940B1
:1030D000077439F0A3749AF090000A122849C000CE
:1030E000C001C002C003900006E0FCA3E0FDEC12AA
:1030F0000FB7D003D002D001D000120C9D90000A6F
:103100001213587FF47E011253B7017B90000A120C
:10311000286079A07840122A6590000A1213587F1F
:103120007B7EC27D9E7C3D90000A122849120D8E46
:103130007B007AC0791E78C4122A2212135890009C
:103140009E12286090006D121358122000122871F0
:10315000124DC112319D1228D69000021228491238
:10316000295290000E1228887D011236951229FAF4
:10317000701D123AE39000021228D6900002122825
:103180004912295290000E1228887D01123695129C
:0C31900052B31254FBEF7002012B7F00C1
:10319C00227BFF7A2C7944E4FDFF12512C7BFF7AC1
:1031AC002C79627D017F061227C4123AE39000024B
:0131BC0022F0
:10336E009000821228609000071213581234EE7BE0
:10337E00FF7A2C79847D017F061227C4123AE3125C
:10338E0028D390000112284912287F7D011236950C
:10339E00900073E0FF6003B4020312156C124FD954
:1033AE00900000EFF0BF01181228BF12296590009F
:1033BE00071228609000821213581254C07F002208
:1033CE00900000E0640470451228C01234FB7C3D6E
:1033DE00122800120F34400A90008212136441A08A
:1033EE000000122AD1122849120F346002500A909E
:1033FE0000821213643DCCCCCD123AE31228D39046
:10340E00000112284912287F7D0112369590000086
:10341E00E0640570451228C01234FB7CBD122800F2
:10342E00120F34400A90008212136441A000001261
:10343E002AD1122849120F346002500A90008212CB
:10344E0013643DCCCCCD123AE31228D39000011276
:10345E00284912287F7D01123695900000E0640203
:10346E00705090007AF0A3122870124DC17BFF7A33
:10347E002C79757D0A124229EF700B9000071228E5
:10348E0060900082800C12200090008212286090C2
:10349E000007121358122871124DC11234EE123A4F
:1034AE00E31228D390000112284912287F7D0112C1
:1034BE0036959000A2E07004A3E064017014123AF5
:1034CE00E31228D390000112284912287F7D0112A1
:0F34DE0036951252B31254FBEF7002619E7F00BD
:1034ED00227BFF7A2C7966E4FDFF12512C22123AD1
:0834FD00E390000112135822B4
:104717001229E7900086122849122952122A589026
:1047270000861228609000031213581247E41228DB
:104737008D7D02123695900073E0FF6003B402038B
:1047470012156C124FD9900000EFF0BF010C122820
:10475700BF1229651254C07F0022900001122A154A
:10476700E4F0A374C8F0E4FB7D02124D26122A5828
:10477700900000E0640270571228C09000011228D0
:10478700CA122A61900086121358122871124DC15D
:104797007BFF7A2C79977D0A124229EF701D9000D2
:1047A700031228609000861213581229E79000869A
:1047B700122849122952122A58800312200012285F
:1047C70071124DC11247E412288D7D0212369512DF
:0C47D70052B31254FBEF7002E13D7F0072
:1047E300227BFF7A2C7988E4FDFF12512C90000183
:0647F300E0FEA3E0FF223E
:104A71009000AEE0900001F0A3F0124B279000AE41
:104A8100E0FF7E0012288DFD123695900073E0FF45
:104A91006003B4020312156C124FD9900000EFF0BD
:104AA100BF010C1228BF1229651254C07F00229049
:104AB1000001E0FF7E00122A1AE4F0A37413F0E46F
:104AC100FBFD124D26900001EFF0900000E0640222
:104AD10070461228C0900001E09000AE12287012BA
:104AE1004DC17BFF7A2C79B57D0A124229EF700EF8
:104AF100900002E09000AEF0900001F080031220DF
:104B010000122871124DC1124B27900001E0FF7E67
:104B11000012288DFD1236951252B31254FBEF701C
:054B210002418C7F0041
:0E4B2600227BFF7A2C79A6E4FDFF12512C228F
:1035050090008212286090000112135890009E12BC
:10351500286090000512135812367D122849122A88
:1035250022122849120F3460334031122ADD122845
:1035350049122A22122849120F345020122AE91260
:103545002849120F3460154013122AF51228491222
:103555000F3450087BFF7A2C79D380067BFF7A2CB9
:1035650079E27D01E4FF12512C900073E0FF6003C6
:10357500B4020312156C124FD9900000EFF0BF0191
:103585000C1228BF1229651254C07F00229000003A
:10359500E064026002C16F7FE17E6F12551C9000EE
:1035A50009EFF07FE27E6F12551CAD07900009E030
:1035B50075F064A47C002DFDEC35F0FCE4120FB72A
:1035C500122A6190006D1213581228BF90008212C2
:1035D50013643F80000090006D12286090009E12D9
:1035E5001358122871124DC17BFF7A2C79F17D0A8F
:1035F500124229EF701A9000011228609000821281
:10360500135890000512286090009E1213588003ED
:10361500122000122871124DC112367D122849124E
:103625002A22122849120F3460334031122ADD1242
:103635002849122A22122849120F345020122AE949
:10364500122849120F3460154013122AF512284921
:10365500120F3450087BFF7A2C79D380067BFF7AD2
:103665002C79E27D01E4FF12512C1252B31254FB66
:07367500EF7002A16E7F005F
:10367C00227BFF7A2C79C4E4FDFF12512C7F0A7E49
:09368C00D77D237CBC90006D2267
:103E530090009DE0900001F0A3F0123F53B40106DF
:103E63007A2D792580047A2D791E123F669000738E
:103E7300E0FF6003B4020312156C124FD9900000E7
:103E8300EFF0BF010C1228BF1229651254C07F0046
:103E930022900000E0640470251228C0900001E025
:103EA30004F0E0B40202E4F0900001E07BFFB4010F
:103EB300067A2D792580047A2D791E123F669000AB
:103EC30000E0640570281228C0900001122A2950CE
:103ED300037401F0900001E07BFFB401067A2D79B1
:103EE3002580047A2D791E7D017F031227C490005B
:103EF30000E06402704C1228C0900001E090009D25
:103F0300122870124DC17BFF7A2D790F7D0A124260
:103F130029EF700E900002E090009DF0900001F0F8
:103F23008003122000122871124DC1123F53B401B5
:103F3300067A2D792580047A2D791E7D017F03125F
:0F3F430027C41252B31254FBEF7002C1707F00FB
:103F5200227BFF7A2D7900E4FDFF12512C900001A3
:0C3F6200E07BFF227D017F031227C422B8
:1040000090007DE0900001F0A3F0124100B40106A1
:104010007A2D794A80047A2D7959124113900073D0
:10402000E0FF6003B4020312156C124FD990000038
:10403000EFF0BF010C1228BF1229651254C07F0097
:1040400022900000E0640470251228C0900001E076
:1040500004F0E0B40202E4F0900001E07BFFB40160
:10406000067A2D794A80047A2D79591241139000ED
:1040700000E0640570281228C0900001122A29501F
:10408000037401F0900001E07BFFB401067A2D7902
:104090004A80047A2D79597D01E4FF12512C900059
:1040A00000E06402704C1228C0900001E090007D96
:1040B000122870124DC17BFF7A2D793B7D0A124286
:1040C00029EF700E900002E090007DF0900001F06A
:1040D0008003122000122871124DC1124100B40158
:1040E000067A2D794A80047A2D79597D01E4FF12F0
:0F40F000512C1252B31254FBEF7002011D7F00CE
:1040FF00227BFF7A2D792CE4FDFF12512C900001C9
:0C410F00E07BFF227D01E4FF12512C2216
:1031BD00E4900003F078047C007D017BFF7A2D798B
:1031CD0068FE7F0F121141900073E0900001F0A393
:1031DD00F0124333900001E0FF6003B402031215B7
:1031ED006C900003E0702E1228FA502990000374A1
:1031FD0001F09000A812286012291312335A1228D8
:10320D00601229131233641228601229137403F00B
:10321D00123800800A1228FA4005E4900003F012DB
:10322D004FD9900000EFF0BF010C1228BF12296595
:10323D001254C07F0022900000E0640470391228FF
:10324D00C0900001E004F0E0B40302E4F09000014E
:10325D00E0B401097BFF7A2D7986E4800C900001A2
:10326D00E0700E7BFF7A2D798BFD7F071227C480CE
:10327D0006122A6B12512C900000E0640570381272
:10328D0028C0900001122A2950037402F090000109
:10329D00E0B401097BFF7A2D7986E4800C90000162
:1032AD00E0700E7BFF7A2D798BFD7F071227C4808E
:1032BD0006122A6B12512C900000E064026002612C
:1032CD004C1228C0900001E0900073122870124D2E
:1032DD00C17BFF7A2D79777D0A124229EF700E900E
:1032ED000002E0900073F0900001F0802890000142
:1032FD00E0B4021E9000A8121364000000009000BC
:10330D00A4121364000000009000931213640000D7
:10331D000000122000122871124DC112433390008B
:10332D00A812286012291312335A12286012291379
:10333D001233641228601229137403F0123800122C
:0C334D0052B31254FBEF700221E17F002C
:10335900227401F01238009000A4227402F012388D
:0533690000900093221A
:102DCC00900080E0FEA3E0FF122A0C900005EEF0CC
:102DDC00A3EFF090009BE0FEA3E0FF900003EEF069
:102DEC00A3EFF0900007EEF0A3EFF0122F9970080C
:102DFC00122F8D9000018003122FACE0FEA3E0FF98
:102E0C0012288DFD123695900073E0FF6003B4021A
:102E1C000312156C124FD9900000EFF0BF010C1289
:102E2C0028BF1229651254C07F0022900000E06474
:102E3C000470621228C090009DE07028900002E09F
:102E4C0004F07006900001E004F0D3900002E094CE
:102E5C000A900001E094004006E4F0A3740AF0909C
:102E6C0000018025900004E02405F0900003E0347C
:102E7C0000F0D3A3E094E8900003E09403400774BF
:102E8C0003F0A374E8F0900003E0FEA3E0FF122827
:102E9C008DFD123695900000E0640570561228C026
:102EAC0090009DE07021900002E024FFF090000162
:102EBC00E034FFF0E07002A3E07007900001F0A393
:102ECC0004F09000018020900004E024FBF09000BE
:102EDC0003E034FFF0E07002A3E07008900003F010
:102EEC00A37405F0900003E0FEA3E0FF12288DFD13
:102EFC00123695900000E0640270781228C09000A1
:102F0C0001E0FFA3E0CF122A76900003E0FFA3E0DC
:102F1C0090009B12286C124DC17BFF7A2D799F7DFE
:102F2C000A124229EF7027900005E0FEA3E0FFEEA5
:102F3C00122A76900007E0FCA3E0FD90009BECF0D9
:102F4C00A3EDF0122A0CA3ECF0A3EDF080031220F9
:102F5C0000122871124DC1122F997008122F8D90EA
:102F6C0000018003122FACE0FEA3E0FF12288DFDC0
:102F7C001236951252B31254FBEF7002C1137F003C
:102F8C00227A2D79AE7D017F051227C4227BFF7A30
:102F9C002D7990E4FDFF12512C90009DE07BFF22D7
:0F2FAC007A2D79B57D017F051227C4900003228D
:05422900900013EDF010
:10422E00E4900015F0FDFF12512C900015E0FF7E7A
:10423E000012288DFD1236951254C0900073E0FFC7
:10424E006003B4020312156C124FD9900014EFF0F4
:10425E00BF04141228BF900015E004F0E0FF7E00AA
:10426E0012288DFD123695900014E0B40514122814
:10427E00BF900015E014F0E0FF7E0012288DFD12B5
:10428E003695900014E06402706C1254C01228BF70
:10429E00900013E0FF900015E0B5070F7A2D79BC62
:1042AE0012432290008D7401F0FF227A2D79C212F2
:1042BE004322900015E0FF7E0012288DFD123695E8
:1042CE0090008DE0640D702E90008AE004F0E0B452
:1042DE0005037404F012200090008AE0C39403409A
:1042EE0015122871124DC17BFF7A2D79C87D017F81
:1042FE00061227C480FE900014E0B401091228BFF4
:10430E001254C07F00221252B31254FBEF700241BE
:03431E00497F00D4
:10432100227BFF7D01E4FF1227C47FE87E03125345
:02433100B722B1
:1048170041008D0042007A03844100AE0541007CCF
:104827000041008A0041008E0042008B00324100A7
:104837009D0141007D00410073004400A800000075
:104847000044009E0000000044006D00000000448A
:1048570000823F800000420080000142009B00640C
:1048670042007800004400863F8000004200AC0010
:1048770000420099000041007101410072004200AE
:0F4887008F0000420097000044009300000000E3
:1054D600E4900097F0A3F02290007AF0A3F09000F9
:0354E60008E022B9
:104FD900E4FF3080051254D77F043081051254D67E
:104FE9007F0530B3051254D67F0230B4051254D66A
:024FF9007F0136
:014FFB002293
:104D2600900007EEF0A3EFF0A3EDF0A3EBF0124F27
:104D3600D9EF640470291254DE04F070069000075F
:104D4600E004F090000CE0FEA3E0FFD3900008E042
:104D56009F900007E09E4004E4F0A3F0124DA912D4
:104D66004FD9EF640570331254DE24FFF09000072C
:104D7600E034FFF0E0FEA3E0FFE4FCFD7BFF7AFFFA
:104D8600F9F8C31212B8700F90000CE0FFA3E09080
:104D96000007CFF0A3EFF0124DA9900007E0FEA3A5
:104DA600E0FF22900007E0FEA3E0FFA3E0FDA3E002
:0B4DB600FBA3E090001AF012369522DB
:1054C00020800920B40620B303308109E490007ADB
:0654D000F0A3F080EB22C6
:10178400900002E0FBA3E0FAA3E0F922FDEE3CFCAA
:10179400120FB779C87842E4FBFA020E979000035F
:1017A400EF1211BF9000027401F0A322900001EF28
:1017B4000211BF900002EF0211BF90008BFFEE3CBC
:1017C400F0A3EFF0229000010211809000020211B8
:1017D40080900003021180900086E0FCA3E0FDA34A
:1017E400E0FEA3E0FF229000860213587400F0A3E9
:0617F40074A8F07FEE2254
:101800007E6A121E647FF17E6A12551C900001EF01
:10181000F0900000E0640A60022179A3E0640A60AD
:101820000221797E6F121E6F7FFA121D9F1217BE62
:101830007E6F121F127E6F121E647FF1121D9F12A7
:10184000179090009E1213587E6F121EA97E6F1281
:101850001DC312179090006D1213587E6F121EB4A4
:101860007E6F121DF8FDEE3CFC120FB7797A7844BA
:1018700012179B9000821213587E6F121EE37E6F28
:10188000121E1C1217901217EA7E6F121F1D7E6F18
:10189000121EF9EFF07E6F121EEE7E6F121E409048
:1018A000009B1217C17F007E6812551C90007CEFD0
:1018B000F07E6F121F057E6F12551C900073EFF0C3
:1018C0007F017E6812551C90008EEFF01217A8124F
:1018D00017F0121DE7EF1211AD7FED121DE7121781
:1018E000B07FEC7E6F12551C1217841217B77FEB76
:1018F0007E6F12551C1217841217A17400F0A37486
:10190000A4F07FE57E6F12551C121784EF1211AD03
:101910007FE67E6F12551C1217841217B07FE77E88
:101920006F12551C1217841217B77FE87E6F12557D
:101930001C1217841217A17400F0A37493F07FD1C6
:101940007E6F12551C121784EF1211AD7FD27E6F7D
:1019500012551C1217841217B07FD37E6F12551CBC
:101960001217841217B77FD47E6F12551C1217847A
:10197000900003EF1211BF410E90008B7427F0A36B
:101980007410F0E49000AEF090009E12136400001A
:10199000000090006D12136441100000900082124C
:1019A00013643F8000009000861213643F800000A3
:1019B00090009D7401F0900080E4F0A304F090008A
:1019C0009BE4F0A37464F0E490007CF090008EF04F
:1019D00090008AF090007DF09000A812136400003F
:1019E00000009000A4121364000000009000931205
:1019F000136400000000E4900073F0C2AF7FF07E3B
:101A00006F1255557F017E68121BBB121E7A900023
:101A10008BE0F47003A3E0F4600261B89000AEE0E4
:101A2000F4600261B890009DE0FF3395E0FEEFF4B2
:101A30004E600261B8900080E0F47003A3E0F460AF
:101A40000261B890009BE0F47003A3E0F4600261CF
:101A5000B890007CE0F4600261B87E64121E6F7F73
:101A6000FA121EBF1217BE7E64121F127FF07E6430
:101A700012551C900000EFF07FF1121EBF1217905C
:101A800090009E1213587E64121EA97E64121DC31C
:101A900012179090006D1213587E64121EB47E646B
:101AA000121DF8FDEE3CFC120FB7E4FBFA797A78D0
:101AB00044120E979000821213587E64121EE37E29
:101AC00064121E1C1217901217EA7E64121F1D7EEC
:101AD00064121EF9EFF07E64121EEE7E64121E4048
:101AE000FFEE3C90009BF0A3EFF07E64121F057E9A
:101AF0006412551C900073EFF01217A81217F07EB5
:101B00006412551C121784EF1211AD7FED7E641222
:101B1000551C1217841217B07FEC7E6412551C12EC
:101B200017841217B77FEB7E6412551C12178412AC
:101B300017A17400F0A374A4F07FE67E6412551C14
:101B4000121784EF1211AD7FE77E6412551C121735
:101B5000841217B07FE87E6412551C121784121786
:101B6000B77FE97E6412551C1217841217A1740006
:101B7000F0A37493F07FE57E6412551C121784EF76
:101B80001211AD7FE47E6412551C1217841217B037
:101B90007FE37E6412551C1217841217B77FE07E14
:101BA0006412551C121784900003EF1211BF7FF0CE
:0A1BB0007E6F121BBB121E7AD2AF2B
:101BBA00221255557F017E681255557D007C68E4D6
:101BCA00FF12547B7D017C68E4FF12547B7DF07C1C
:101BDA006FE4FF12547B7DF17C6FE4FF12547B7D2E
:101BEA00E17C6F7F0912547B7DE27C6FE4FF125423
:101BFA007B7DFB7C6F7F0A12547B7DFC7C6FE4FF4C
:101C0A0012547B7DF27C6F7F0112547B7DF37C6FD3
:101C1A00E4FF12547B9000AEE0FF7DF47C6F125417
:101C2A007B7DF97C6F7F6412547B7DFA7C6FE4FFC5
:101C3A0012547B900080A3E0FF7DF87C6F12547BE6
:101C4A007DF57C6F7F0112547B7DF67C6FE4FF1279
:101C5A00547B7DF77C6FE4FF12547B7DEF7C6FE44D
:101C6A00FF12547B7DEA7C6FE4FF12547B7B017A7E
:101C7A000079A8900002EBF0A3EAF0A3E9F01211B0
:101C8A0067FF7DEE7C6F12547B900002E0FBA3E0BD
:101C9A00FAA3E0F9900001121180FF7DED7C6F122A
:101CAA00547B900002E0FBA3E0FAA3E0F990000263
:101CBA00121180FF7DEC7C6F12547B900002E0FBD6
:101CCA00A3E0FAA3E0F9900003121180FF7DEB7CF8
:101CDA006F12547B7B017A0079A4900002EBF0A387
:101CEA00EAF0A3E9F0121167FF7DE57C6F12547BDD
:101CFA00900002E0FBA3E0FAA3E0F99000011211C0
:101D0A0080FF7DE67C6F12547B900002E0FBA3E02B
:101D1A00FAA3E0F9900002121180FF7DE77C6F12AE
:101D2A00547B900002E0FBA3E0FAA3E0F9900003E1
:101D3A00121180FF7DE87C6F12547B7B017A007957
:101D4A0093900002EBF0A3EAF0A3E9F0121167FF07
:101D5A007DD17C6F12547B900002E0FBA3E0FAA3D2
:101D6A00E0F9900001121180FF7DD27C6F12547B42
:101D7A00900002E0FBA3E0FAA3E0F990000212113E
:101D8A0080FF7DD37C6F12547B900002E0FBA3E0BE
:101D9A00FAA3E0F9227E6F12551C900001EFF0FBC6
:101DAA00900000E0FF3395E0FE7C007D641211E1B3
:101DBA00EBFD3395E0FCEF2D227FE212551C9000DB
:101DCA0001EFF0FB900000E0FF3395E0FE7C007D20
:101DDA00641211E1EBFD3395E0FCEF2D227E6F12C8
:101DEA00551C900002E0FBA3E0FAA3E0F9227FFC75
:101DFA0012551C900001EFF0FB900000E0FF3395B4
:101E0A00E0FE7C007D641211E1EBFD3395E0FCEF0E
:101E1A002D227FF312551C900001EFF0FB90000079
:101E2A00E0FF3395E0FE7C007D641211E1EBFD33A7
:101E3A0095E0FCEF2D227FF612551C900001EFF081
:101E4A00FB900000E0FF3395E0FE7C007D641211F8
:101E5A00E1EBFD3395E0FCEF2D227FF012551C904B
:101E6A000000EFF0227FF912551C900000EFF022DB
:101E7A00900003121180FF7DD47C6F12547B7FF097
:101E8A007E6A1255557FF17E6A1255557DF07C6A3D
:101E9A007F0A12547B7DF17C6A7F0A12547B227F6F
:101EAA00E112551C900000EFF0227FFB12551C90A6
:101EBA000000EFF0227E6412551C900001EFF0FB47
:101ECA00900000E0FF3395E0FE7C007D641211E192
:101EDA00EBFD3395E0FCEF2D227FF212551C9000AA
:101EEA0000EFF0227FF512551C900000EFF0227FE0
:101EFA00F812551C900080E4F0A3227FEF12551CC3
:101F0A0090007DEFF07FEA227FF412551C9000AE1C
:0E1F1A00EFF0227FF712551C90009DEFF02291
:1053D7007F007E6812555590007CE0FF7D007C6859
:0F53E70012547B90008EE0FF7D017C6802547BA6
:102000007E6F122457A3EDF07C6F1224077C6F12B1
:102010002382121248A3EDF07C6F1224317C6F12E0
:1020200021DB7DE11224EC1222567DFB1224EC12FE
:1020300022D17DF27C6F12547B7C6F122412121716
:10204000DB1217971217EA7C6F1224897C6F122318
:102050004C7DF57C6F12547B7C6F1224947C6F1244
:1020600024A97C6F1224BE7C6F1223DE7DEE122326
:10207000D41217871217C97DED1223D412178712B5
:1020800017CF7C6F1223FD1217871217D57C6F12A2
:10209000243C7C6F12247F1217871217C97C6F12A1
:1020A000241D1217871217CF7C6F1224271217874F
:1020B0001217D57DE87C6F1224C97DD11224B41289
:1020C00017871217C97DD21224B41217871217CF9F
:1020D000FF7DD37C6F12547B900028121787121754
:1020E000D5FF7DD47C6F12547B90007CE060022190
:1020F000DA7E64122457A3EDF07C641224077C641A
:10210000122382121248A3EDF07C641224317C6405
:102110001221DB7DE11224F41222567DFB1224F4FD
:102120001222D17DF27C6412547B7C641224121240
:1021300017DB1217971217EA7C641224897C641249
:10214000234C7DF57C6412547B7C641224947C6463
:102150001224A97C641224BE7C641223DE7DEE125C
:10216000249F1217871217C97DED12249F1217871B
:102170001217CF7C641223FD1217871217D57C64C7
:1021800012243C7C6412241D1217871217C97C6428
:102190001224271217871217CF7DE81224E2121794
:1021A000871217D57DE97C641224C97C6412247FD0
:1021B0001217871217C97DE41224E212178712172B
:1021C000CFFF7DE37C6412547B90002812178712A6
:0A21D00017D5FF7DE07C6412547BFC
:1021DA0022900027E0FF7DF112547B90009EE0FCE4
:1021EA00A3E0FDA3E0FEA3E0FFE4FBFA79C878428E
:1021FA00120E9790009E12135890006DE0FCA3E017
:10220A00FDA3E0FEA3E0FFE4FBFA79C87842120DD1
:10221A008E90006D12135890006DE0FCA3E0FDA3B0
:10222A00E0FEA3E0FF120FF0AB07AA067C007D6474
:10223A00121248900026EFF07C007D64AF03AE02D4
:10224A00121248A3EDF0900026E0FF22900027E04A
:10225A00FF7DE212547B90006DE0FCA3E0FDA3E059
:10226A00FEA3E0FFE4FBFA79C87842120E979000C9
:10227A006D121358900082E0FCA3E0FDA3E0FEA3D8
:10228A00E0FFE4FBFA797A7844120D8E900082120C
:10229A001358900082E0FCA3E0FDA3E0FEA3E0FF58
:1022AA00120FF0AB07AA067C007D64121248900058
:1022BA0026EFF07C007D64AF03AE02121248A3ED54
:1022CA00F0900026E0FF22900027E0FF7DFC1254E8
:1022DA007B900082E0FCA3E0FDA3E0FEA3E0FFE424
:1022EA00FBFA797A7844120E97900082121358906A
:1022FA000086E0FCA3E0FDA3E0FEA3E0FFE4FBFA16
:10230A0079C87842120D8E90008612135890008672
:10231A00E0FCA3E0FDA3E0FEA3E0FF120FF0AB0791
:10232A00AA067C007D64121248900026EFF07C0019
:10233A007D64AF03AE02121248A3EDF0900026E0CE
:10234A00FF22900080A3E0FF7DF812547B90009B4F
:10235A00E0FAA3E0FB7C007D64FFAE021211F39069
:10236A000026EFF07C007D64AF03AE021211F3A3E6
:10237A00EDF0900026E0FF22900027E0FF7DFA12A0
:10238A00547B90009EE0FCA3E0FDA3E0FEA3E0FFE7
:10239A00E4FBFA79C87842120D8E90009E12135807
:1023AA0090009EE0FCA3E0FDA3E0FEA3E0FF120F75
:1023BA00F0AB07AA067C007D64121248900026EF53
:1023CA00F07C007D64AF03AE0222FF7C6F12547B67
:1023DA0090002822900073E0FF7DEA12547B7B0173
:1023EA007A0079A8900028EBF0A3EAF0A3E9F012AA
:1023FA00116722FF7DEC12547B9000282290002660
:10240A00E0FF7DF912547B22900027E0FF7DF31252
:10241A00547B22FF7DE612547B90002822FF7DE741
:10242A0012547B90002822900026E0FF7DF012547F
:10243A007B22FF7DEB12547B7B017A0079A490000A
:10244A0028EBF0A3EAF0A3E9F0121167227FEF125A
:10245A00555590008BE0FAA3E0FB7C007D64FFAE4B
:10246A00021211F3900026EFF07C007D64AF03AEF8
:10247A00021211F322FF7DE512547B90002822906C
:10248A0000AEE0FF7DF412547B22900027E0FF7D2E
:10249A00F612547B22FF7C6412547B90002822900F
:1024AA00009DE0FF7DF712547B22FF7C6F12547B64
:1024BA009000282290007DE0FF7DEF12547B22FFDE
:1024CA0012547B7B017A007993900028EBF0A3EAFF
:1024DA00F0A3E9F012116722FF7C6412547B90008A
:1024EA0028227C6F12547B7C6F227C6412547B7C82
:0224FA0064225A
:0C5562008FE4EEF5E375E64675E6B9222D
:0D554800E4F5E7F5E5F5E675E380F5E4220E
:0F551C0075E78275E50112556200AFE21255483E
:01552B00225D
:10547B00AB0775E78275E5028DE4ECF5E3AF038FBF
:08548B00E212556700025548CA
:0D55550075E78275E50312556200025548A6
:104896004C00C800000000000000000000000044BA
:0A48A60000D4000000004100D8001B
:1050730090004EE0FBA3E0FAA3E0F91212EE9000D9
:105083004EE0FBA3E0FAA3E0F92290002FE0F8A39F
:10509300E0F9A3E0FAA3E0FB2212135890003DE0ED
:1050A300FCA3E0FDA3E0FEA3E0FF22EBF0A3EAF004
:1050B300A3E9F022E4FBFA7841020E97E0FF33956F
:1050C300E0FEEF78022224C8F58274003EF58322C5
:10001E00E4FFFE00000000000FBF00010EEF640CB5
:03002E004E70F021
:0100310022AC
:10536700E4FDD29012001E7C80ECD394004019C259
:105377009012001E12001E309103ED4CFDD29012C8
:0D538700001EECC313FC80E112001EAF05F8
:0153940022F6
:064F66009000551250AE50
:104F6C00E490005BF0C296D29012536790005512F9
:104F7C005084EF1211AD125367900055125084906B
:104F8C000001EF1211BF125367900058125084EFBA
:104F9C001211AD125367900058125084900001EF1B
:104FAC001211BFD296900055125084121167FF5403
:104FBC00C064C06004EF30E60690005B7401F01230
:0C4FCC001167543F1211AD90005BE0FF34
:014FD80022B6
:063D370090004E1250AE98
:103D3D00900053E0FEA3E0AA06F9900058E412505B
:103D4D00AF7B017A007951124F66EF6002C152D3F9
:103D5D00900052E09466900051E064809486500784
:103D6D007406F0A37466F0C3900052E0949A90002C
:103D7D0051E0648094B940077439F0A3749AF090BF
:103D8D000051E0FCA3E0FDEC120FB77B7B7AC2790A
:103D9D009E783D120D8E7B007AC0791E78C4120C70
:103DAD009D90009E125090120C991250731212CECB
:103DBD00E4FBFA79207841120D8E120FF07C007D14
:103DCD000A121248AC06AD07EC120FB7125073125F
:103DDD0012CE7BCD7ACC79CC783D120F34600C406D
:103DED000A12508112139500000000125081121218
:103DFD00CEE4FBFA79FE7843120F34500A1250814B
:103E0D0012139543FE0000900053E0FEA3E07805E9
:103E1D00CEC313CE13D8F9FF900053EEF0A3EFF0FD
:103E2D00FDAC06E4120FB77BF07A1679C8783D1217
:103E3D000D8EE4FBFA794878C2120C9D12508190D8
:053E4D0000041213083F
:013E5200224D
:1045370090004112136400000000E4900045F07BF6
:10454700017A007946123D379000461250A2C00406
:10455700C005C006C0079000D81250BFC333CE3382
:10456700CED8F91250C9D007D006D005D0041213FF
:10457700589000D8E004F0E0B40302E4F0E49000BF
:1045870045F09000411250A2C004C005C006C00704
:10459700A31250BFC333CE33CED8F91250C912502D
:1045A70090D007D006D005D004120C9D9000411280
:1045B7001358900045E004F0E0B403C690004112A0
:1045C70050A2E4FBFA79407840120E97900041120E
:1045D70013589000AEE0FFC374149FFDE49400FCF1
:1045E700E4120FB7900041125090120D8EC004C014
:1045F70005C006C0079000AEE0FCE4120FBC9000B7
:10460700D4125090120D8ED003D002D001D00012D8
:104617000C9D79A01250B790003D12509C9000D489
:0346270012509C92
:01462A00226D
:103AE300E490003BF0A3F0124537120FF090002D45
:103AF300EEF0A3EFF01250D390002F1213587F6F04
:103B03007E127D837C3A12508D120F34500A90003E
:103B13002F121364000000007B017A0079331241F5
:103B23001B9000371213587FAE7E2A7D7B7C3C129C
:103B3300508D120D8EA804A905AA06AB077FDF7E60
:103B43004F7D5D7C40120C99900037125090120DFE
:103B53008EC004C005C006C0077F337E937D887C7A
:103B630043900033125090120C9DA804A905AA0695
:103B7300AB07D007D006D005D004120E97C004C0FF
:103B830005C006C00790002EE025E0FD90002DE063
:103B930033FC120FB7D003D002D001D000120E971E
:103BA300124B38900082125090120D8E90008612A4
:103BB3005090120D8E900029121358E4FFFE7D20C1
:103BC3007C41900029125090120D8E120FF090003C
:103BD3003BEEF0A3EFF0FDAC06EC120FB779201229
:103BE30050B79000291213587F0A7ED77D237C3C5F
:103BF300900029125090120F34500A90002912138A
:0B3C030064000000009000291250A295
:013C0E002293
:10533600E4F5D8F5E9F5F9F5D99000F2E0FEA3E039
:10534600F5EAEEF5FA90007EE0FEA3E0FF9000F3AA
:10535600E02FF09000F2E03EF075DA49D2DED2AEF0
:015366002224
:10518000900014121358E4FFFE7D487C44900014F4
:10519000E0F8A3E0F9A3E0FAA3E0FB120D8EE4FB34
:1051A000FA79C87842120E97E4FBFA7948784312EC
:1051B0000C9DA804A905AA06AB077F007E247DF4F8
:1051C0007C48120E97120FF090007EEEF0A3EFF0E5
:0151D00022BC
:1048B0005400AF00000000000000000000000000F5
:1048C000000000000000004400C3000000004100A0
:0248D000C7001F
:10522100120C9D900051E0FBA3E0FAA3E0F92212D9
:105231001358900044E0FCA3E0FDA3E0FEA3E0FFCF
:1052410022E0F8A3E0F9A3E0FAA3E0FB22EBF0A34C
:10525100EAF0A3E9F022E0FF3395E0FEEF780222C5
:0A52610024AFF58274003EF58322AD
:0650000090005812524E10
:10500600E490005EF0C297D2901253679000581257
:105016005227EF1211AD1253679000581252279083
:105026000001EF1211BF12536790005B125227EF77
:105036001211AD12536790005B125227900001EFD8
:105046001211BFD297900058125227121167FF54BF
:10505600C064C06004EF30E60690005E7401F01292
:0C5066001167543F1211AD90005EE0FF96
:01507200221B
:0648DA0090005112524E45
:1048E00090005B7401F0A37400F0A37456F07B0198
:1048F0007A007954125000EF600221ACD390005539
:10490000E09466900054E06480948650077406F04A
:10491000A37466F0C3900055E0949A900054E0644C
:104920008094B940077439F0A3749AF0900054E071
:10493000FCA3E0FDEC120FB77B0F7A457901783CC0
:10494000120D8E7B177AD9794E78C112522112122C
:10495000EE1252241212CEE4FBFAF9F8120F346070
:1049600011400F1252241212CE120FA11252241211
:1049700012EE900056E0FEA3E07805CEC313CE13EE
:10498000D8F9F0EE900056F0E0FCA3E0FDE4120F41
:10499000B77BF07A1679C8783D120D8EE4FBFA7970
:0C49A0004878C212522190000412130843
:0149AC0022E8
:06411B0090003D12524E1F
:10412100A312136400000000E4900048F07B017AC0
:104131000079491248DA90004D12523690003D1232
:1041410052271212EE900049125236C004C005C027
:1041510006C0079000C7125257C333CE33CED8F9E9
:10416100125261D007D006D005D004121358900026
:10417100C7E004F0E0B40502E4F0E4900048F090F8
:104181000040125236C004C005C006C00790004866
:10419100125257C333CE33CED8F912526112524262
:1041A100D007D006D005D004120C9D900040121308
:1041B10058900048E004F0E0B405C4900040125269
:1041C10036E4FBFA79A07840120E97900040121362
:1041D100589000AEE0FFC374149FFDE49400FCE42A
:1041E100120FB7900040125242120D8EC004C0054A
:1041F100C006C0079000AEE0FCE4120FBC9000C303
:10420100125242120D8ED003D002D001D000120CF6
:104211009DE4FBFA79A07841120E97900044125266
:07422100309000C31252307F
:014228002273
:0748D2004400EE42F000007B
:0F552C0090003DE0FCA3E0FDA3E0FEA3E0FF2222
:1054E9009000717401F0E4900099F0A3F0D288D291
:0254F900A822E7
:10549300900099E0FFA3E09000ACCFF0A3EFF0E41D
:0754A300900071F0C2A82285
:1050D300900071E07043D39000ADE094E99000AC90
:1050E300E0940340077403F0A374E9F09000ACE08C
:1050F300FCA3E0FDE4120FB7E4FBFA794978C3128D
:105103000C9DE4FBFAF97841120E9790003D1213BF
:105113005812552C9000EE80099000EE12552F90F6
:08512300003D12135812552C37
:01512B002261
:100C960002105CE86480F8E933E83360110460F020
:100CA600ED33EC337009E8FCE9FDEAFEEBFF2204C4
:100CB60060DED3EB9FEA9EE99DE8C2E78CF0C2F7BF
:100CC60095F0400CE8CCF8E9CDF9EACEFAEBCFFB8B
:100CD60012102785D0F05804700320D5B3E80470AD
:100CE600075002B2D502106692D5EC0460F7E4CC48
:100CF600C0E0C398F8603B94186008400DD0E0FB54
:100D060002103EE4FBFAC9FC8028E830E406E4C998
:100D1600FBE4CAFCE830E305E4C9CACBFCE85407A7
:100D26006010F8C3E913F9EA13FAEB13FBEC13FCB2
:100D3600D8F130F52FC3E49CFCEF9BFFEE9AFEED55
:100D460099FDD0E0FBEF4E4D4C701222DB030210F2
:100D560063EC2CFCEF33FFEE33FEED33FDED30E7B5
:100D6600EB02103EEF2BFFEE3AFEED39FDD0E0FB35
:100D760050130BBB0003021066ED13FDEE13FEEFDE
:080D860013FFEC13FC02103E08
:100D8E00EC4D6011E8497017ED33EC3304600DE45F
:100D9E00FCFFFEFD22E933E8330470F802105C120A
:100DAE00102758046009E4CC24815006285009020B
:100DBE001066284003021063C0E0EB4A7044B9800D
:100DCE0006D0E0FB021052EF4E701CBD8008EBFF08
:100DDE00EAFEE9FD80EBE98DF0A4FEE5F0020E7768
:100DEE00E9CDF9EAFEEBFFEF89F0A4FCE5F0CE8940
:100DFE00F0A42EFFE435F0CD89F0A42DFEE435F0FD
:100E0E008067EF4E7005BD80D780C3EF8BF0A4AC2A
:100E1E00F0EE8BF0A42CFCE435F0F8EF8AF0A42C65
:100E2E00E5F038FCE433CB8DF0A42CFCE5F03BF878
:100E3E00EE8AF0A42CFCE5F038F8E433CF89F0A468
:100E4E002CFCE5F038CF3400CE89F0A42FFFE5F06E
:100E5E003EFEE433C98DF0A42EFEE5F039CD8AF0C6
:100E6E00A42FFFE5F03EFEE43DFD33D0E0FB50073E
:100E7E000BBB000F021066EC2CFCEF33FFEE33FEC3
:060E8E00ED33FD02103EF1
:100E9400021066EC5D046005E85904700302105CFE
:100EA400121027580460F6EC4860F2EC7004FDFE62
:100EB400FF22C860DB2481C85009C3986002500631
:100EC4000210639850CAF582E9294B4A7005AB8237
:100ED40002105275F0007C1A7880C3EF9BEE9AEDF5
:100EE40099400DC3EF9BFFEE9AFEED99FDE842F0A9
:100EF400DC23ACF0D0E0FFD0E0FED0E0FDAB8220FC
:100F0400E7101BEB60BAEC2CFCEF33FFEE33FEED85
:100F140033FD02103EE803F830E705C0F075F00039
:100F2400EF2FFFEE33FEED33FD40B830E7C280AA69
:100F340074F8CC6480CCC86480C8F582046043C370
:100F4400EB9FF5F0EA9E42F0E99D42F0E89C45F003
:100F540060305018E5825FFFE582F42B5582FB5028
:100F6400210ABA001D09B90019088016E5825BFB45
:100F7400E582F42F5582FF50090EBE00050DBD0019
:100F8400010CC3EB9FF5F0EA9E42F0E99D42F0E8C4
:0D0F94009C45F06007CC4820E701B3EC223B
:100FA100ED33EC33600A047003BD8004ECB2E7FC5E
:010FB100221D
:100FB20075F020800E75F010800575F0087D007EBA
:100FC200007F003392D530D5031212AAEC334010C1
:100FD200EF33FFEE33FEED33FDEC33FCD5F0ED22C3
:0E0FE200E5F0247EA2D513CC92E7CDCEFF22FF
:100FF000EDD2E7CD33EC3392D524814006E4FFFEF9
:10100000FDFC22FCE4CFCECDCC24E0501174FF8057
:10101000EDC3CC13CCCD13CDCE13CECF13CF0470F4
:07102000F030D5DE0212AA38
:104B340002105C22EDA2E7D2E7F9EC3340F260F315
:104B4400B4FF08ED547F70E8021066F82481C2E0D7
:104B5400C0E0F40428FAC313FCED92E7FD90003D95
:104B6400121358EEA2E7E9BA7F02C313340094008B
:104B7400FA75F091A4E5F013F494FE8AF0A433E5F9
:104B8400F033248CD313FDE492E7FE7F007C3F7561
:104B94008302ECC0E0F8EDC0E0F9EEC0E0FAEFC04B
:104BA400E0FB8583F090003D12132C85F083120EF8
:104BB40097D0E0FBD0E0FAD0E0F9D0E0F8120C9DF9
:104BC400ED6480FD30E7011CD583C7ED33CC33F8A9
:0C4BD400D0E0A2E71328C313CC13FD228D
:10102700E9D2E7C933E833F892D5EDD2E7CD33EC0F
:0710370033FC5002B2D52288
:10103E00EC30E7100FBF000C0EBE00080DBD000413
:10104E000BEB6014A2D5EB13FCED92E7FD2274FFBF
:10105E00FCFDFEFF22E480F8A2D574FF13FC7D8018
:03106E00E480EF2C
:104E6500023C0FE493A3F8E493A34003F68001F218
:104E750008DFF48029E493A3F85407240CC8C3334E
:104E8500C4540F4420C8834004F456800146F6DF1D
:104E9500E4800B01020408102040809047F9E47E6D
:104EA500019360BCA3FF543F30E509541FFEE49312
:104EB500A360010ECF54C025E060A840B8E493A3D9
:104EC500FAE493A3F8E493A3C8C582C8CAC583CA04
:104ED500F0A3C8C582C8CAC583CADFE9DEE780BEBC
:0148D90000DE
:10107100E709F608DFFA8046E709F208DFFA803E61
:1010810088828C83E709F0A3DFFA8032E309F6084E
:10109100DFFA8078E309F208DFFA807088828C83B6
:1010A100E309F0A3DFFA806489828A83E0A3F6086A
:1010B100DFFA805889828A83E0A3F208DFFA804C44
:1010C10080D280FA80C680D4806980F2803380101B
:1010D10080A680EA809A80A880DA80E280CA803384
:1010E10089828A83ECFAE493A3C8C582C8CCC583FC
:1010F100CCF0A3C8C582C8CCC583CCDFE9DEE780CC
:101101000D89828A83E493A3F608DFF9ECFAA9F04A
:10111100EDFB2289828A83ECFAE0A3C8C582C8CCA0
:10112100C583CCF0A3C8C582C8CCC583CCDFEADEB9
:10113100E880DB89828A83E493A3F208DFF980CC1B
:1011410088F0EF60010E4E60C388F0ED2402B40414
:101151000050B9F582EB2402B4040050AF232345BB
:0611610082239010C1730F
:10116700BB010689828A83E0225002E722BBFE0286
:09117700E32289828A83E49322B9
:10118000BB010CE58229F582E5833AF583E0225024
:1011900006E92582F8E622BBFE06E92582F8E2226E
:0D11A000E58229F582E5833AF583E4932288
:1011AD00BB010689828A83F0225002F722BBFE0121
:0211BD00F3221B
:1011BF00F8BB010DE58229F582E5833AF583E8F066
:1011CF00225006E92582C8F622BBFE05E92582C812
:0211DF00F222FA
:1011E100EF8DF0A4A8F0CF8CF0A428CE8DF0A42E22
:0211F100FE22DC
:1011F300BC000BBE0029EF8DF084FFADF022E4CCE0
:10120300F875F008EF2FFFEE33FEEC33FCEE9DECA8
:10121300984005FCEE9DFE0FD5F0E9E4CEFD22EDEE
:10122300F8F5F0EE8420D21CFEADF075F008EF2F38
:10123300FFED33FD4007985006D5F0F222C398FD29
:051243000FD5F0EA22C6
:10124800C2D5EC30E709B2D5E4C39DFDE49CFCEEC1
:1012580030E715B2D5E4C39FFFE49EFE1211F3C335
:10126800E49DFDE49CFC80031211F330D507C3E430
:061278009FFFE49EFE2230
:10127E00C5F0F8A3E028F0C5F0F8E58215827002FB
:06128E001583E038F02298
:10129400A3F8E0C5F025F0F0E5821582700215830D
:0612A400E0C838F0E8226A
:102FBB00C2D5E830E70FB2D5E4C39BFBE49AFAE441
:102FCB0099F9E498F8EC30E717B2D5122FF11214F7
:102FDB000BE4C39BFBE49AFAE499F9E498F88003B9
:102FEB0012140B30D50DE4C39FFFE49EFEE49DFD50
:042FFB00E49CFC2234
:0E12AA00C3E49FFFE49EFEE49DFDE49CFC2255
:1012B800EB9FF5F0EA9E42F0E99D42F0EC6480C8AD
:0612C80064809845F0224D
:1012CE00BB010789828A8302132C5005E9F80214A8
:1012DE009DBBFE05E9F80214A989828A830214B522
:1012EE00BB010789828A830213585005E9F802145C
:0A12FE00FBBBFE05E9F8021507220C
:10130800BB010DE58229F582E5833AF5830213587E
:101318005007E92582F80214FBBBFE07E92582F88D
:041328000215072281
:0C132C00E0FCA3E0FDA3E0FEA3E0FF2234
:10133800BB010789828A830214D25005E9F8021496
:10134800C5BBFE05E9F80214DE89828A830214EB24
:0C135800ECF0A3EDF0A3EEF0A3EFF02208
:10136400A8828583F0D083D08212137B12137B1260
:10137400137B12137BE473E493A3C583C5F0C58385
:10138400C8C582C8F0A3C583C5F0C583C8C582C8D3
:011394002236
:10139500BB010789828A830213645005E9F80215A7
:0A13A50013BBFE05E9F802152C2227
:1013AF00BB010789828A8302154E5005E9F80215A1
:1013BF0045BBFE05E9F802155789828A830215603D
:1013CF0075F008758200EF2FFFEE33FECD33CDCCD5
:1013DF0033CCC58233C5829BED9AEC99E582984058
:1013EF000CF582EE9BFEED9AFDEC99FC0FD5F0D635
:1013FF00E4CEFBE4CDFAE4CCF9A88222B800C1B95F
:10140F000059BA002DEC8BF084CFCECDFCE5F0CB9C
:10141F00F97818EF2FFFEE33FEED33FDEC33FCEBD5
:10142F0033FB10D703994004EB99FB0FD8E5E4F990
:10143F00FA227818EF2FFFEE33FEED33FDEC33FC7D
:10144F00C933C910D7059BE99A4007EC9BFCE99A71
:10145F00F90FD8E0E4C9FAE4CCFB2275F010EF2FB6
:10146F00FFEE33FEED33FDCC33CCC833C810D707B6
:10147F009BEC9AE899400AED9BFDEC9AFCE899F8F1
:0E148F000FD5F0DAE4CDFBE4CCFAE4C8F92284
:0C149D00E6FC08E6FD08E6FE08E6FF227B
:0C14A900E2FC08E2FD08E2FE08E2FF227F
:1014B500E493FC740193FD740293FE740393FF227D
:0D14C500E6FB08E6F908E6FA08E6CBF82297
:0C14D200E0F8A3E0F9A3E0FAA3E0FB229D
:0D14DE00E2FB08E2F908E2FA08E2CBF8228E
:1014EB00E493F8740193F9740293FA740393FB2257
:0C14FB00ECF608EDF608EEF608EFF6221D
:0C150700ECF208EDF208EEF208EFF22220
:10151300D083D082E493F608740193F6087402939F
:09152300F608740393F6740473D6
:10152C00D083D082E493F208740193F2087402938E
:09153C00F208740393F2740473C5
:09154500E6FB08E6FA08E6F922CB
:09154E00E0FBA3E0FAA3E0F9229E
:09155700E2FB08E2FA08E2F922C5
:0C156000E493FB740193FA740293F922E7
:00000001FF
