:1050E300FF02F6FF0316FF05B6FF0036FF0036FF8B
:1050F30002F6FF0316FF0036FF0036FF0036657227
:02510300720038
:0A52B400E22401F218E23400F222B5
:1038BB00E4F5B175B201C2B0121513124E191250C4
:1038CB006D1251447800121348000000009000C1A3
:1038DB00E070149000D1E004F0E0D3940640037440
:1038EB0006F01251258005E49000D1F09000D1E054
:1038FB00B4061474301239E97BFF7A5179017D01DA
:10390B007F0612501180FE74401239E99000D0E00E
:10391B00B4100040030239C490392AF828287302E6
:10392B00395A02395F02396402396902396E023938
:10393B007302397802397D02398202398702398C58
:10394B0002399102399602399B0239C40239B912F4
:10395B0041078065124B508060122FFD805B122E49
:10396B005B80561245CA80511241E7804C12361DBE
:10397B0080471244518042123D1C803D122CA9807D
:10398B0038124C368033123C15802E123328802986
:10399B007BFF7A5079F27DF0123F24BF0109900032
:1039AB00C17401F0125125E49000D0F0800B7BFF25
:1039BB007A5079E37D05123F249000C1E0B4010FEA
:1039CB009000D0E0640D6003023912F002391290BE
:0E39DB0000D0E0640E6003023912F0023912CF
:0E39E90078A9F2C2007B80E4FDFF124A35226D
:1051440043891175B802758DEC758B77758C647510
:0D5154008A64D2AFD2A9D28CD2ABD28E2207
:03001B000240217F
:10402100C0E0C0F0C083C082C0D075D000C000C065
:1040310001C002C003C004C005C006C007758D3CA5
:10404100758BAF78221252B4C308E2947E18E294C1
:1040510004400B7404F208747EF2D2B08002C2B044
:104061009000C0E004F070069000BFE004F0D3902F
:1040710000C0E094E89000BFE0940340077403F0AF
:10408100A37484F09000DCE004F070069000DBE0A3
:1040910004F0D39000DCE094159000DBE094004044
:1040A10018E4F0A304F0781A1252B408E2B46309D8
:1040B10018E2B40D04E4F208F29000BAE004F0E072
:1040C100B43C067401F01252219000BAE0B4150319
:1040D1001251F975E13C9000DBE0FEA3E0FF7C00AA
:1040E1007D0A1211C6ED4C7002B2B1D007D006D0D4
:1040F10005D004D003D002D001D000D0D0D082D0DE
:0641010083D0F0D0E03293
:03000B000251613E
:10516100C0E0C0D075D000C0007815E2F58C08E22F
:0B517100F58AB2B5D000D0D0D0E032FB
:03003300024FDA9F
:104FDA00C0E0C0D075D000C000C006C007C2D878F3
:104FEA002DE2FE08E2F5EAEEF5FA7817E2FE08E2AB
:104FFA00FF782EE22FF218E23EF2B2B7D007D006BF
:07500A00D000D0D0D0E0324D
:0300030002517C2B
:10517C00C0E0C083C0829000D3E004F070069000C1
:0B518C00D2E004F0D082D083D0E032EB
:03000000024AC4ED
:0C4AC400787FE4F6D8FD758120024B0BD2
:104F4D00C283C294AF068FA0D295125244C295C2AD
:104F5D0082C292227A002FFFEA35F0FED3EF944001
:104F6D00EE64809480222FFFEA33FED3EF9480EE1F
:104F7D006480948022F218E2FA3400F2021167F58F
:094F8D008274053EF583E49322D1
:1051E300EF1FAA0670011E4A600BE4FDEDC3947D18
:0551F30050EE0D80F7F5
:0151F8002294
:0F524400E4FF00000000000000000FEFB403F3D0
:015253002238
:0F519700E2FF12000EED2440FF12000E08E2FFAF
:0C51A600D282C292D283C294124F5322D4
:0D51B200E2FF125281AF0512528108E2FFA8
:0C51BF00C282D292D283C294124F5322BB
:0D000E00AE07125244D282C292124F4D2210
:0D528100AE07125244C282D292124F4D224B
:0849090078ACEFF278AEEBF29E
:10491100ED75F008A4FF08E2FC124F614003024963
:104921009F18E2FF78ACE2F9124F735071EC540713
:10493100706CED24B878B3F2AD01E4FC78AFE2130A
:104941001313541FFFECC39F505478ACE2FFC3ED27
:104951009FFF78AEE2FEEFC39E503678B0E2FB08CF
:1049610008E2F92401300006124F82F48003124F4D
:104971008278B4F2EDC394407FC0500A12000E78E1
:10498100B3125197800812528178B31251B20D803F
:0E499100B978ACE2FD78B3E204F20C02493DC5
:01499F0022F5
:094A350078A7EDF208EBF2AC07E2
:104A3E0018E275F008A4FF78A9E2FD124F615075D7
:104A4E0018E2FFEC124F73506CED5407706778A7A5
:104A5E00E224B8FDAB04E4FA78A9E2131313541F51
:104A6E00FFEAC39F504FC3EB9CFF78A8E2FEEFC353
:104A7E009E503C30000479FF8002E4F9EBC3944071
:104A8E007FC0501612000EAF0512000EEB2440FF31
:104A9E0012000EAF011251A68012125281AF0512F2
:104AAE005281AF03125281AF011251BF0B80B7ABCF
:054ABE00040D0A80A3B5
:014AC30022D0
:06486F0078ACEBF2A90792
:10487500ED75F008A42410FFE4124F6640030249C9
:1048850008E92408FFE4124F765078ED24B878AD96
:10489500F2AD01E4FCE478AFF2C3ED99C39408509E
:1048A50055EC75F008A4FBAAF078ACE275F010A4FD
:1048B5002BFFE5F03AFE78AFE27A002FFFEA3EFEE5
:1048C50074562F300008124F8CF418F28005124FE1
:1048D5008C18F2EDC394407FC0500A12000E78ADDB
:1048E500125197800812528178AD1251B278AFE219
:1048F50004F20D02489EAD0178ADE204F20CEC64C1
:03490500027092AB
:01490800228C
:104E19007F647E001251E3C293125244D2937F3EC3
:104E290012000E7F3E1252817FC012000E7FC01207
:104E390052817FB812000E7FB81252817F40120052
:104E49000E7F401252817F3F12000E7F3F12528126
:0F4E590078A97440F2C2007B80E4FDFF024A3565
:1000360000000000000000000000000000000000BA
:1000460000000000000000000000000000000000AA
:100056000000FE020A126282621A02FF020000001B
:1000660080403F20100806010618003F4080E0004F
:10007600202020BEAAAAAAAAAAAAAABF2230200085
:10008600008080AFAAAAAAFFAAAAAAAF8080000011
:10009600100C04555555857F8555555504140C008F
:1000A6000404020209092A4CA819090202040400E0
:1000B600404244CC00F4949494FF949494F6040043
:1000C6000040201F20514844427F42444C6120009A
:1000D6001010D0FF90108848A8090A08A84CC8003C
:1000E600040300FF808140402116081661C04000CD
:1000F600000204EC4020F84F4849FE48684C0800CE
:1001060002027F000000FF2222223F22233220002B
:10011600202424A4FE232200FC04040404FE04007C
:1001260010080601FF0142201B110101093360007E
:100136000080402098868080838C9020C08080003C
:1001460001008040201F004080403F000001000069
:1001560000022222322EA262222291090100000010
:10016600000042221A43827E02020A136600000041
:1001760010925430FF509432D8171010F018100017
:1001860002824E3322528E402314081661C040006C
:10019600101494F494DF94D4907F901214101000ED
:1001A6000201FF4A4A7F4A4A60100F3442817000BA
:1001B60002F2121212FA969292F2121212FB120026
:1001C60000FF4040407F4848487F404040FF0000D5
:1001D6000000FE0282828282FE828282C382000048
:1001E60040300F40404040407F4042444C60400019
:1001F600001010101010FF1010101010F810000052
:100206000080808060180700204080403F0000008A
:100216000000F8494A4C48F8484C4A49FC08000096
:1002260010101712121212FF1212121213181000C7
:10023600804020F80710D01011161010D8100000BA
:10024600000000FF202020232C203827203020000B
:10025600807000FF102808E81F08E808088C0800CE
:10026600000000FF2018878041320F3241C1400054
:1002760020100C03FAAAAAAAAAAAAAFA0302000044
:100286000020908886472A12122A464280808000E3
:10029600404042CC0040A09F8181819FA020200049
:1002A6000000007FA09040432C10282641C040004B
:1002B600001017D55557557D555755D517100000C1
:1002C6004040407F555555555555557F4060400037
:1002D6002424A4FEA322207E42424242427F020000
:1002E600080601FF0043414949497F494D694100DC
:1002F600104C2404F4844D562424148424540C00F5
:100306000001FD414041417F41414141FC00000067
:100316000282F24E43E242FA020202FF028000002B
:1003260001007F20207F080909090D49817F01000E
:100336000000C04040407F48484848E84C0800005C
:1003460080403704146404142464041720C0000099
:10035600101091D63098000808F8080808FC080024
:10036600020100FF0182402018074080403F000044
:10037600242820FF3028445454547F5454D6440033
:10038600080403FF010200FF1515151595FF01006E
:100396000000FC242424FCA5A6A4FC243426040086
:1003A60040209F804242262A122A264240C0400010
:1003B6001010F01F10F04060584740405060C000D9
:1003C60040221508166100FE4242424242FF0200E8
:1003D600804020F80704E4A4A4BFA4A4F6240000E7
:1003E600000000FF40407F4A4A4A4A4A7F40400098
:1003F6000000FE02E2A2B2AEA2A2A2A2F322000076
:1004060040300F40231A42827E02020A1360000027
:1004160040445465C664D64440FC4442C36240002E
:10042600201149817F01052918070000FF000000FF
:100436001022640CC0445454547F5454D644400093
:100446000404FE010000FF15151555957F010000F7
:100456000010E1CE0C8044E4F45DCF46D474E6444B
:10046600000438FC6780603F1F00FF007FFFC070FC
:10047600002020FFBFB5B5B5B5B5B5BFFFA030208C
:100486000080809FAFAAAAFFFFAAAABF8FC08000E4
:100496000000C4743C14FCFD0706FCFC9424E644EE
:1004A600000180808143452D39192D6743C1C04025
:1004B600004046DCE84080898A8EF8FC8F8AC88036
:1004C6000040E03F1F3060E0D8CEC7C1C6DCF85020
:1004D6000080BF9E9292BEDFC2BF9EF2D2BEDF8276
:1004E6000004FC7C4A4AF97D08FC79494AFA7E0AEE
:1004F60000000000008080000000000000000000F6
:100506000000000000313100000000000000000083
:100516001022640C80444464554E445466C4000062
:100526000404FE010080403F00FF003F4040700091
:1005360010101011D630980000FF40800000000017
:1005460008040201FF01020000FF00000103000091
:10055600804020F847309294909F90D4925030007B
:10056600000000FF04044464544C445464C6040070
:100576001022640C8000FE9292929292FF0200007A
:100586000404FE01407E42427E427E42427E40009C
:100596000000FC242424FCA5A6A4FC243426040084
:1005A60040209F804242262A122A264240C040000E
:1005B60080808080808080808080808080C0800075
:1005C6000000000000000000000000000000000025
:1005D60000000808080808080808080C08000000B9
:1005E600101010101010101010101010101810000D
:1005F6000000FE22222222FE22222222FF020000E8
:1006060000000702020202FF0202020207000000C7
:10061600807000FF10081C2424252634A4140C0026
:100626004020180708B041310F01013F41417000D9
:10063600000000F112141010101412F9100000003E
:100646002018003B4141454959414173000830009B
:100656002030AC633008E80808FF0808E80C0800FA
:100666002267221212000702023F424247407000F0
:100676001021620680FE929292929292FF020000F0
:100686000404FE0100FE8444207F88848680E00006
:1006960080804020504844434448502040C0400099
:1006A600000000FE42424242424242FF0200000077
:1006B60000101012945010FF105094921810000061
:1006C6000484844524140C070C142445C4460400F1
:1006D600202222FE2222FE232200FC0000FF000030
:1006E600404C4A4948484B7E4848484A4C6B400073
:1006F60000040404040404FC0404040406040000C6
:10070600202020202020203F2020202020302000D4
:100716000002048C407EC24242C2427F02000000B8
:100726000202FF8040300F00003F40404040700012
:100736001010D0FF9050444444C4444644604000E6
:10074600040300FF00110846807F00020C18000019
:100756000000000000000000000000000000000093
:10076600000038FCFC3800000000000D0D00000001
:1007760000003C24243C00000000000000000000B3
:1007860020F8F820F8F82000020F0F020F0F0200E1
:10079600387C444747CC98000306041C1C0703001A
:1007A60030300080C06030000C060301000C0C00E5
:1007B60080D87CE4BCD84000070F0808070F080063
:1007C60000101E0E000000000000000000000000E7
:1007D6000000F0F80C040000000003070C080000FD
:1007E6000000040CF8F000000000080C07030000ED
:1007F60080A0E0C0C0E0A080000203010103020067
:10080600008080E0E080800000000003030000001C
:1008160000000000000000000000101E0E00000096
:100826008080808080808000000000000000000042
:1008360000000000000000000000000C0C0000009A
:1008460000000080C06030000C06030100000000BC
:10085600F8FC04C424FCF800070F0908080F070079
:10086600001018FCFC0000000008080F0F08080024
:10087600080C84C4643C18000E0F0908080C0C0010
:10088600080C444444FCB800040C0808080F070090
:10089600C0E0B098FCFC8000000000080F0F0800C4
:1008A6007C7C4444C4C48400040C0808080F070078
:1008B600F0F84C4444C08000070F0808080F0700F2
:1008C6000C0C0484C47C3C0000000F0F00000000E8
:1008D600B8FC444444FCB800070F0808080F07009A
:1008E600387C444444FCF800000808080C07030060
:1008F6000000003030000000000000060600000086
:100906004848B0000000000002020100000000009C
:10091600C8A89000000000000000000000000000D1
:1009260040404040404040000202020202020200F3
:100936000008183060C0800000080C0603010000A3
:10094600181C04C4E43C18000000000D0D00000053
:10095600F0F808C8C8F8F000070F080B0B0B0100E9
:10096600E0F0988C98F0E0000F0F0000000F0F00E9
:1009760004FCFC4444FCB800080F0F08080F0700ED
:10098600F0F80C04040C180003070C08080C060009
:1009960004FCFC040CF8F000080F0F080C07030019
:1009A60004FCFC44E40C1C00080F0F08080C0E00A5
:1009B60004FCFC44E40C1C00080F0F0800000000B7
:1009C600F0F80C84848C980003070C0808070F00C5
:1009D600FCFC404040FCFC000F0F0000000F0F0025
:1009E600000004FCFC0400000000080F0F080000D3
:1009F60000000004FCFC0400070F08080F070000B5
:100A060004FCFCC0F03C0C00080F0F00010F0E00A8
:100A160004FCFC0400000000080F0F08080C0E0080
:100A2600FCFC387038FCFC000F0F0000000F0F00B4
:100A3600FCFC3870E0FCFC000F0F0000000F0F00FC
:100A4600F0F80C040CF8F00003070C080C07030080
:100A560004FCFC44447C3800080F0F08000000002A
:100A6600F8FC040404FCF800070F080E3C3F2700BE
:100A760004FCFC44C4FC3800080F0F00000F0F00F4
:100A8600183C6444C49C1800060E0808080F0700AA
:100A9600001C0CFCFC0C1C000000080F0F080000DA
:100AA600FCFC000000FCFC00070F0808080F07000C
:100AB600FCFC000000FCFC000103060C0603010020
:100AC600FCFC008000FCFC00030F0E030E0F03006D
:100AD6000C3CF0C0F03C0C000C0F0300030F0C00A4
:100AE600003C7CC0C07C3C000000080F0F080000E2
:100AF6001C0C84C4643C1C000E0F0908080C0E0074
:100B06000000FCFC0404000000000F0F08080000B1
:100B16003870E0C0800000000000000103070E00EE
:100B260000000404FCFC0000000008080F0F000091
:100B3600080C0603060C0800000000000000000078
:100B4600000000000000000020202020202020209F
:100B56000000030704000000000000000000000081
:100B660000A0A0A0E0C00000070F0808070F0800BB
:100B760004FCFC2060C08000080F0708080F07006F
:100B8600C0E0202020604000070F0808080C040081
:100B960080C06024FCFC0000070F0808070F08004F
:100BA600C0E0A0A0A0E0C000070F0808080C0400E1
:100BB60040F8FC440C180000080F0F080000000065
:100BC600C0E02020C0E02000276F48487F3F00009B
:100BD60004FCFC4020E0C000080F0F00000F0F00CF
:100BE600000020ECEC0000000000080F0F080000D9
:100BF6000000000020ECEC0000307040407F3F0019
:100C060004FCFC80C0602000080F0F01030E0C00DE
:100C1600000004FCFC0000000000080F0F080000A4
:100C2600E0E060C060E0C0000F0F000F000F0F0093
:100C360020E0C02020E0C000000F0F00000F0F00D2
:100C4600C0E0202020E0C000070F0808080F0700BA
:100C560020E0C02020E0C000407F7F48080F07004A
:100C6600C0E02020C0E02000070F08487F7F40003A
:100C760020E0C0602060C000080F0F0800000000E0
:100C860040E0A02020604000040C09090B0E04007F
:10254400000000000000000000000000000000FF88
:1025540001D6FF01F6FF0036FF0036FF003670613A
:1025640000FF0196FF01B6FF0116FF0036FF00369B
:10257400FF0036FF02F6FF0316FF05D6FF0036FF05
:102584000036636D3C00FF06F6FF0716FF0036FFBA
:102594000036FF0036FF0736FF0716FF0036FF0040
:1025A40036FF0036FF01D6FF01F6FF04F6FF0036C2
:1025B400FF0036FF05F6FF0616FF04F6FF0036FFA0
:1025C4000036FF0576FF0596FF0036FF0036FF0054
:1025D400363A006D3B2F73006D3B2F6D696E004BD7
:1025E4005061002500224300202D2D2020202000B2
:1025F4003A00FF0636FF0076FF0036FF0036FF0084
:1026040036FF06F6FF0716FF0036FF0036FF0036DA
:10261400FF0736FF0716FF0036FF0036FF0036FFC0
:102624000736FF0656FF0036FF0036FF0036FF046C
:1026340036FF0096FF0036FF0036FF00364F464651
:1026440020004F4E2020006D3B003A00FF0516FF8E
:1026540000B6FF0036FF0036FF00366D2F7300FF13
:102664000096FF0336FF00D6FF00F6FF0036FF0298
:10267400F6FF0316FF05D6FF0036FF00366D2F73F5
:1026840000FF0376FF0396FF00D6FF00F6FF003637
:10269400FF02F6FF0316FF05D6FF0036FF00366D76
:1026A4002F7300FF0536FF0556FF0156FF0176FF25
:1026B4000036FF02F6FF0316FF05D6FF0036FF00C3
:1026C40036FF0116FF0136FF0156FF0176FF003683
:1026D400FF02F6FF0316FF05D6FF0036FF0036FFA4
:1026E4000256FF0276FF0356FF03B6FF03D6FF032D
:1026F400F6FF03D6FF0036FF0036FF0036FF041650
:10270400FF03D6FF0036FF0036FF0036FF02F6FF58
:102714000316FF05D6FF0036FF0036FF0216FF0240
:1027240036FF0036FF0036FF0036FF02F6FF0316C1
:10273400FF05D6FF0036FF00366D3B2F73202000C7
:102744006D3B2F6D696E00FF0516FF0076FF06B620
:10275400FF06D6FF0036FF02F6FF0316FF05D6FF7D
:102764000036FF0036FF06F6FF0716FF0516FF00CA
:1027740076FF0036FF0736FF0716FF0516FF0076C3
:10278400FF0036FF0436FF0096FF0036FF0036FFD9
:102794000036FF02F6FF0316FF05D6FF0036FF00E2
:1027A400364F464620004F4E202000FF0076FF02A1
:1027B400D6FF0036FF0036FF0036FF02F6FF031691
:1027C400FF05D6FF0036FF00366D3B2F7320200037
:1027D4006D3B2F6D696E004F4B202020004E4F2023
:0727E4002020006572720065
:10451600810900810A00840B00000000840F00005E
:054526000000811300FC
:10224E00784912130B7849E4FFFE7D207C41E2FBB6
:10225E0008E2F908E2FA08E2CBF822785BE2FC0821
:10226E00E2FD08E2FE08E2FF227CBC7F0A7ED77DFB
:10227E00239000B5E0F8A3E0F9A3E0FAA3E0FB1287
:10228E000C9D9000D7E0F8A3E0F9A3E0FAA3E0FBE1
:10229E002208E2FF08E2CFF0A3EFF0743078A9F243
:1022AE00C2007B80E4FDFF22120D8E120FF0784DDE
:1022BE00EEF208EFF278627401F2E4FB22120D8E58
:1022CE00E4FBFA79487843120C9DA804A905AA06E6
:1022DE00AB077F007E247DF47C48120E97A804A9DC
:1022EE0005AA06AB07229000CEE0FCA3E0FDE402B7
:1022FE000FB77401F29000DDE0FCA3E0FDA3E0FE59
:10230E00A3E0FF22785CE2FB08E2FA08E2F9227809
:10231E005EE2FE08E2FF7C000211C67DFE7BFF7EC0
:10232E00007F0F021141E49000BFF0A3F022D39082
:10233E0000DCE094059000DBE0940022124F96AC96
:10234E0000AD01AE02AF0322120FF0785F7405F2FA
:10235E000822120D8E7B007A40791C7846020E9769
:10236E007D397819E2FE08E2FF7C000211C67F007B
:10237E007E807D927C43020E97120D8E020FF0240A
:10238E000475F008A4FF08E225E0FD229000D0E0DD
:10239E0004F0227F807E017D807C47120C9979802B
:1023AE007843E4FBFA020E97E4FAF9F8124F96EF2F
:1023BE002430221212757B667AA679CA7842229050
:1023CE0000DBE0FEA3E0FF7C007D0A1211C6ED4C9F
:1023DE0022784812130BE4FFFE7D207C4122E4FF9D
:1023EE00FE7D487C44120E977850227E00CFCDCFD2
:1023FE00CECCCE1211C6EF243022EFF208EDF20849
:10240E00EBF208EAF208E9F2227F007E807D887CFA
:10241E0043786A22E0FEA3E0FFEEF2FE08EFF2FF41
:10242E0022120D8E9000C51212FFE4FFFE7DA07CDD
:10243E00419000C522E0FFF208EFF27BFF22E4FF9D
:10244E00FE7DC87C4222E4120FB779C87842E4FBC5
:10245E00FA020E9708E214F2E2C36480948022E23C
:10246E002401F218E23400F222E4FFFE7D707C4279
:10247E00785E221212757B007A8079887843020C7E
:10248E009D781AE2940A18E2940022E2FE08E2FF16
:10249E0078537401F20822E2FE08E2FFEEF0A3EF99
:1024AE00F0227DFE7BFF7E000211417A00794C7B8B
:1024BE00FEE4FD7F07229000C0E094849000BFE010
:1024CE00940322F2785EE2FE08E2FF227BFF7D019A
:1024DE007F062212130B7F6F7E127D837C3A2212AF
:1024EE000C9D9000DD1212FF7823227FCD7ECC7DD5
:1024FE00CC7C3D9000C5227849EEF208EFF2227FA7
:10250E00A47E707D7D7C3F9000C5227FAE7E477D90
:10251E00817C3F9000C522C3ED9414EC94002212EE
:10252E000C9D782312130B781D229000D70212FFF8
:06253E009000C50212FF2F
:10510500D3EF9400EE6480948040147D647C00EDC0
:0F5115001D70011CED4C70F7EF1F70E41E80E160
:015124002268
:104EB700125099EF60297808E204F2E2D3648094F3
:104EC700944003740BF27808E2D36480948A400616
:104ED7007F017E0080047F2C7E011251058004E44F
:104EE7007808F27808E2D36480948A40067F0A7EC5
:0A4EF7000080047FE87E03125105DD
:014F0100228D
:10523300D31224C44008E49000D0F07F01227F0001
:015243002248
:0D377700785EEEF208EFF208EDF208EBF2DA
:1037840078687C007A2579447F061224B0E4FB1221
:1037940024D27C277D1012240178631224D17C2743
:1037A4007D101211C67E037FE81223FB7864122475
:1037B400D17C037DE81211C67F641223F97865F287
:1037C4007D6412231D7F0A1223F97866F27D0A12A2
:1037D400231DED24307867F27860E2FFC374059FFF
:1037E4002468F8742EF2E4FF74682FF8E2700D7404
:1037F400632BF8E2FE74682FF8EEF20B0FEFB406B9
:10380400E7E4FF7860E2FEC374049EC36480F8EFCB
:10381400648098500E74682FF8E2B430067420F275
:103824000F80E0D3EE648094807861E275F0084004
:103834001B12386012238D786CE2FBC20012486FB1
:103844007861E2240512238F786D800812386012A3
:0B385400238D786CE2FBC20012486F6D
:10385F0022A4FF08E225E0FD7868E2FBC2001248CF
:10386F006F7861E20475F008A4FF08E225E0FD78A7
:10387F0069E2FBC20012486F7861E2240275F0081A
:10388F00A4FF08E225E0FD786AE2FBC20012486F50
:10389F007861E2240375F008A4FF08E225E0FD78C3
:0C38AF006BE2FBC20012486F7861E2225D
:0550110078A61224083E
:10501600E408F278A8122314121167FB601A08E25A
:10502600FF78A6E22F12238FC20012486F78ABE2F8
:0850360004F21812246D80DB66
:01503E00224F
:054F020078A61224084E
:104F0700E408F2F278ABE2FFC394055038EFC454DB
:104F1700F0FF78A6E275F008A42F12239378AF74F8
:104F270010F278A812231412137B78B012240EC241
:104F3700007B1012490978AAE2240312247078AB87
:054F4700E204F280BF4E
:014F4C002242
:0534B200785B12130B12
:1034B70078617C007A25794A7F091224B07FFF7EE4
:1034C700C97D9A7C3B785B12225CD312125F40095C
:1034D700785B1213483B9AC9FF7B007AE179F5784C
:1034E70005C000122269D0001223BA7861F27B006E
:1034F7007AE179F57805C000122269D00012234AD3
:103507007B807A96799878001223BA7862F27B806A
:103517007A9679987800C000122269D00012234A5F
:103527007B407A42790F78001223BA7863F27B40A6
:103537007A42790F7800C000122269D00012234A1C
:103547007BA07A86790178001223BA7864F27BA08F
:103557007A8679017800C000122269D00012234AC6
:10356700E47B107A271223B87865F2E47B107A2778
:10357700F9F8C000122269D00012234AE47BE87AE6
:10358700031223B87866F2E47BE87A03F9F8C000FF
:10359700122269D00012234A7B641223B67867F29D
:1035A700E47B64FAF9F8C000122269D00012234ABA
:1035B7007B0A1223B67868F2E47B0AFAF9F8C000AE
:1035C700122269D000124F96EB24307869F2E40892
:1035D700F2786AE2FFC364809488501274612FF80E
:1035E700E2B4300A7420F2786AE204F280E3E47805
:1035F7006AF2786AE2FE785FE22E12238F74612EF8
:10360700F8E2FBC20012486F786AE204F2E2C36490
:0536170080948940DDF4
:01361C00228B
:05319E00785C12240E14
:1031A300786212226B78691224E1786912225C1228
:1031B3000F34500978691213480000000078661232
:1031C30023141249A0785F1223141212959000D68B
:1031D300E060030232769000C2E0B4011C12438B1C
:1031E300C004C005C006C0071222F4D003D002D029
:1031F30001D00012236002325412438BC004C00575
:10320300C006C0071222F4D003D002D001D00012AE
:103213002360C004C005C006C007785F12231412E0
:1032230023C1120E97D003D002D001D000120D8E0D
:10323300C004C005C006C007786612231412248197
:103243001222EB12237CD003D002D001D000120D46
:103253008E1223121212959000C31222F712231218
:103263001212DF120F34600250030233279000C39F
:1032730002331E9000C2E0B4012312438BC004C08A
:1032830005C006C0071222F4D003D002D001D0003B
:10329300122360E4FBFA797078420232FF12438B07
:1032A300C004C005C006C0071222F4D003D002D068
:1032B30001D000122360E4FBFA79707842120D8E7C
:1032C300C004C005C006C007785F1223141223C1CF
:1032D300120E97D003D002D001D000120D8EC0047D
:1032E300C005C006C0077866122314122481122277
:1032F300EB12237CD003D002D001D000120D8E122A
:1033030023121212959000D41222F71223121212D2
:10331300DF120F34600E400C9000D41222F71223F8
:0433230012121295DB
:013327002283
:102A7C00C312248F5018780AE270137814E2FF60A6
:102A8C0003B40203121C66780A7401F2800AD31292
:102A9C00248F4004E4780AF212236E122525400399
:102AAC00022C9B7809E26003022C9B04F2124DC8A5
:102ABC0078661224E1786612225C120F3450097881
:102ACC0066121348000000007BFE7A00796A1249F6
:102ADC00A0786212130B12438BC004C005C006C051
:102AEC00071222F4D003D002D001D0001223607858
:102AFC005E12130B9000D6E09000DD6003022BA257
:102B0C00122306785E12225C1224ED12225CC000A5
:102B1C00C001C002C00312241712225C120C9D12B9
:102B2C0022EB12237CC004C005C006C0071223C4CC
:102B3C00C000786212226BD000120E97785E1222BF
:102B4C005C120D8ED003D002D001D000120D8ED0AD
:102B5C0003D002D001D00012252D12225CC000C07F
:102B6C0001C002C00312241712225C120C9D122207
:102B7C00EB12237CC004C005C006C0071223C4C0DE
:102B8C0000786212226BD000120E97785E12225CD3
:102B9C00120D8E022C71122293C000C001C002C013
:102BAC000312247712225C120D8ED003D002D001B6
:102BBC00D0001224ED12225CC000C001C002C00380
:102BCC001223C4C000786212226BD000120E97C080
:102BDC0004C005C006C00712247712225C120D8EA9
:102BEC00D003D002D001D000120D8EC004C005C09D
:102BFC0006C00712241712225C120C9D1222EB1233
:102C0C00237CD003D002D001D000120D8ED003D083
:102C1C0002D001D00012252D12225CC000C001C0D0
:102C2C0002C0031223C4C000786212226BD00012BF
:102C3C000E97C004C005C006C00712247712225C90
:102C4C00120D8ED003D002D001D000120D8EC00414
:102C5C00C005C006C00712241712225C120C9D126C
:102C6C0022EB12237CD003D002D001D000120D8EA7
:102C7C00786612225C120D8E79C878421223B0D07D
:102C8C0003D002D001D000120C9D781D02130B1240
:0C2C9C00236ED31225264004E47809F2D0
:012CA8002209
:104C3600124BC3120FF07848EE1224457A257953A9
:104C4600E4FDFF124F027A2579621224DA1250111E
:104C56007848E2FE08E2FF1222C3FD123777781485
:104C6600E2FF6003B40203122A7C125099EFB401EA
:104C76000912239A12520F7F00221223CD700F12AF
:104C86004BC3120FF078481222BEFD123777124E30
:094C9600B7125233EF60C77F0032
:014C9F0022F2
:104451009000CE784912242208EEF208EFF21244BD
:10446100F51222C3FD1237777814E2FF6003B4021C
:1044710003122A7C1250997848EFF2BF01091223E6
:104481009A12520F7F002278491224997427F20858
:104491007410F2E4FBFD1247257849EEF208EFF2C1
:1044A1007848E26402703E1223359000CE12229FBA
:1044B100124A357BFF7A2579777D0A123F24EF7006
:1044C10011784B9000CE1224A57849EEF208EFF254
:1044D1008003121C661222A9124A351244F51222D7
:1044E100C3FD123777124EB7125233EF70030244F5
:0344F100697F00E0
:1044F400227BFF7A257965E4FDFF124F027BFF7A68
:104504002579867D017F051250117849E2FE08E283
:02451400FF2284
:1047CB00784B7C007A25798A122329785A7C007AD7
:1047DB002579991223299000C2E07BFEB401067A59
:1047EB0000794B80047A00795AE4FDFF124F029056
:1047FB0000D6E07BFF70097A2579D7FD7F0C800806
:10480B007A2579DCE4FD7F0A1250117A2579A87D8F
:10481B00011248657A2579E37D017F0D1250117ADB
:10482B002579B77D021248657A2579E77D027F0FDE
:10483B001250117BFF7A2579C67D03E4FF124F02DC
:10484B007BFF7A2579D57D037F041250117BFF7A8C
:0A485B002579E97D037F0E0250115C
:0A4865007BFFE4FF124F027BFF22ED
:0427EB00784BEFF246
:1027EF00124DC8785412130B785F74FEF208740000
:1027FF00F208744CF2785412226B786212130B7831
:10280F006674FEF2087400F2087458F27BFE7A00C8
:10281F00795012319E78581222551223877862749C
:10282F0003F27B087D01123777E4FFFE7D807C3F4A
:10283F00784C12225C120F34500D7D01122A70C297
:10284F00DEC2AED2B780221223E4784C12225C1281
:10285F00238778627401F27B07FD123777D2DED2BD
:10286F00AE784C12226B124E68E4FFFEFDFC7854DA
:10287F0012225C120F34402B7F837E007DC87C4276
:10288F00785412225C120F3450191223E478541228
:10289F00225C12238778627402F27B097D01123762
:1028AF007780057D02122A70784BE270177813E259
:1028BF0004F2780B12226B785012225C120C9D7866
:1028CF000B12130B7813E26428600A784BE2640151
:1028DF006003022A6F784BE2B4010C780F12226B5F
:1028EF00785012130B802EE47813F2FBFA792078CC
:1028FF0042C000780B12226BD000120E9778501244
:10290F00130B785012226B780F12130B780B1213D4
:10291F0048000000009000D6E060030229B01224A6
:10292F004D785012225C122387E47862F27B067D89
:10293F00021237779000C31222F71222EB1223EC08
:10294F0012225C1222CB1223A1120FF07815EFF294
:10295F009000C31222F71222EB1223EC12225C1208
:10296F000D8EE4FBFA79487843120C9D120FF0ABF1
:10297F0007AA06EA3395E0F9F87F207EA17D077C50
:10298F0000124F96C374039FFFE49EFE74019DFDDA
:10299F00E49CFCE4FB7A01F9F8124F967816EBF2FF
:1029AF00229000D41222F7785012225C120F34605A
:1029BF000D400B9000D41222F7785012130B1224F3
:1029CF004C785012225C120F34501512244C785050
:1029DF0012225C122387E47862F27B047D0280303E
:1029EF007F9A7EF97D797C44785012225C120F34E5
:1029FF00600B400978501213484479F99A1223E476
:102A0F00785012225C122387E47862F27B047D01F6
:102A1F001237777BFF7A2579F4E4FD7F041250118A
:102A2F009000D41222F71222EB1223EC12225C1226
:102A3F0022CB1223A1120FF07815EFF29000D412CF
:102A4F0022F71222EB1223EC12225C1222CB7F8090
:102A5F007E017D807C47120C99120FF07816EFF2F1
:0D2A6F00227BFF7A2579EC7F0512501122A1
:103E2100785B7C007DFE7BFF7A2579F612232D7865
:103E31006A7C007DFE7BFF7A26790512232D787935
:103E41007C007DFE7BFF7A26791412232D78887CF5
:103E5100007DFE7BFF7A26792312232D78977C0043
:103E61007DFE7BFF7A26793212232D74401222AB1C
:103E7100124A357BFE7A00795BE4FDFF124F027B2B
:103E8100FF7A26794EE4FD7F041250117814E2B4D2
:103E910001097BFF7A267941E4800B7814E2700EE8
:103EA1007BFF7A267946FD7F07125011800A7A003E
:103EB10079971224BD124F027A00796A7D01123F6F
:103EC1001C7D01123F0A7D017F041250117A007995
:103ED100797D02123F1C7D02123F0A7D027F04128E
:103EE10050117BFE7A0079887D03E4FF124F027B3B
:103EF100FF7A26794B7D037F0E1250117BFF7A26C4
:093F0100794E7D037F040250118A
:103F0A007BFF7A26794B7F0E1250117BFF7A267936
:0A3F1A004E227BFEE4FF124F02224C
:10410700E47848F20804F208F21247CB7F01024133
:104117007A7814E2FF6003B40203122A7C125099E2
:10412700EFB40117C31224C49000D04005740FF0F8
:104137008003E004F012520F7F00227D1E122370CD
:10414700122525503C7849E2B4011278A97440122F
:1041570022AD124A351247CB7F011227EBE478498B
:10416700F20804F27848E2701012233C500B7401F5
:10417700F2E4FF1227EB02411812233C409302415D
:10418700E0784AE2B4010D78A974401222AD124AD0
:1041970035123E2178497401F2E408F27848E2705A
:1041A7003012233C502B1223001223567401F212B3
:1041B70034B2782312226B1223567402F21234B2ED
:1041C700781D12226B1223567403F21234B2024185
:1041D7001812233C5003024118E47848F2024118B0
:104B50007BFF7A267950E4FDFF124F027A26795FB7
:104B60001224DA12501112438B1223DF78481222DA
:104B70005C122387784C1222BE7D0112377778149D
:104B8000E2FF6003B40203122A7C125099EFB401D1
:104B90000912239A12520F7F00221223CD7018128D
:104BA000438B1223DF784812225C122387784C1241
:104BB00022BE7D01123777124EB7125233EF60BE1C
:024BC0007F0074
:014BC20022D0
:102FFD00E4784EF208F278521213480000000012E5
:10300D00317312225C12238778561222BE7D011273
:10301D0037777814E2FF6003B40203122A7C125052
:10302D00997849EFF2BF010912239A12520F7F00CE
:10303D00227849E2640260030231451223351252AF
:10304D000F1222A9124A357BFF7A2679727D0A1258
:10305D003F24EF6401600302312C7848F27848E296
:10306D00C364809485507A789774FEF2087400F2E8
:10307D00087450F27BFE7A00794E124CA0EF705717
:10308D007848E204F2D3784FE2946618E2648094B3
:10309D008650077406F2087466F2C3784FE2949A6C
:1030AD0018E2648094B940077439F208749AF27882
:1030BD005212225CC000C001C002C003784EE2FC77
:1030CD0008E2FDEC120FB7D003D002D001D00012F0
:1030DD000C9D785212130B7FF47E011251050230B4
:1030ED006A785212226B79A0784012245C785212C1
:1030FD00130B7F7B7EC27D9E7C3D785212225C122B
:10310D000D8E7B007AC0791E78C4120C9D12253865
:10311D009000D71223069000B51212FF121C6612F2
:10312D0022A9124A3512317312225C122387785666
:10313D001222BE7D011237771223CD701A12438BE6
:10314D00784A1223E1784A12225C122387785612AC
:10315D0022BE7D01123777124EB7125233EF700334
:05316D0002301F7F008D
:10317200227BFF7A267963E4FDFF124F027BFF7AFE
:103182002679817D017F0612501112438B784A12F3
:0C319200130BE4FFFE7D207C41784A22F4
:102E5B009000C5122306784F12130B122FF07BFF35
:102E6B007A2679A37D017F0612501112438B122211
:102E7B004E1222B67D011237777814E2FF6003B44D
:102E8B000203122A7C1250997848EFF2BF011112FB
:102E9B00239A784F12226B12253E12520F7F00227B
:102EAB007848E264047058122335122FE17C3D7888
:102EBB004912225C120C9D784912225C120E9790DB
:102ECB0000C512229312242F122293120F34400AA0
:102EDB009000C512131741A000001224F91222937F
:102EEB00120F346002500A9000C51213173DCCCC60
:102EFB00CD12438B12224E1222B67D0112377778F8
:102F0B0048E264057058122335122FE17CBD7849D5
:102F1B0012225C120C9D784912225C120E979000C3
:102F2B00C512229312242F122293120F34400A90AF
:102F3B0000C512131741A000001224F9122293129C
:102F4B000F346002500A9000C51213173DCCCCCD44
:102F5B0012438B12224E1222B67D0112377778481C
:102F6B00E2640270489000BFF0A31222A8124A3507
:102F7B007BFF7A2679947D0A123F24EF700A784FF3
:102F8B0012226B12253E800E121C669000C5122376
:102F9B0006784F12130B1222A9124A35122FF01278
:102FAB00438B12224E1222B67D011237779000DB33
:102FBB00E07004A3E06401700E12438B12224E12D8
:102FCB0022B67D01123777124EB7125233EF7003D0
:052FDB00022E847F00BE
:102FE0002212438B784912130B7FCD7ECC7DCC22ED
:0D2FF0007BFF7A267985E4FDFF124F022257
:1041E70012244C9000C9122293122387122505909E
:1041F70000C91223060812130B1242AB1222C37D09
:10420700021237777814E2FF6003B40203122A7CA4
:104217001250997848EFF2BF010912239A12520FF0
:104227007F00227849122499E4F20874C8F2E4FB6B
:104237007D021247251225057848E264027056125E
:10424700233508E2FC08E2FD1224549000C912123B
:10425700FF1222A9124A357BFF7A2679B67D0A1208
:104267003F24EF701C784B12226B9000C91212FF8B
:1042770012244C9000C9122293122387122505801D
:1042870003121C661222A9124A351242AB1222C32C
:104297007D02123777124EB7125233EF7003024284
:0342A7000B7F008A
:1042AA00227BFF7A2679A7E4FDFF124F027849E2C2
:0542BA00FE08E2FF22F6
:1045CA009000E178491224431246729000E1E0FF1C
:1045DA007E001222C3FD1237777814E2FF6003B41B
:1045EA000203122A7C1250997848EFF2BF0109128D
:1045FA00239A12520F7F00227849E2FF7E0012248A
:10460A009EE4F2087413F2E4FBFD1247257849EFA1
:10461A00F218E26402704212233508E29000E112B5
:10462A0022A8124A357BFF7A2679D47D0A123F24C2
:10463A00EF700B784AE29000E1F018F28003121C46
:10464A00661222A9124A357BFF1246727849E2FFA6
:10465A007E001222C3FD123777124EB7125233EF81
:07466A0070030245E37F002D
:0C467100227A2679C5E4FDFF124F0222D8
:10361D009000C5122306784912130B9000D7122380
:10362D0006784D12130B12376A122277120F34607F
:10363D002C402A7C3C122279120F34502012250D79
:10364D00122293120F346015401312251912229372
:10365D00120F3450087BFF7A2679F280067BFF7AB1
:10366D002779017D01E4FF124F027814E2FF600318
:10367D00B40203122A7C1250997848EFF2BF010967
:10368D0012239A12520F7F00227848E264026003DF
:10369D0002375B7FE17E6F1252547851EFF27FE279
:1036AD007E6F125254AD077851E275F064A47C0020
:1036BD002DFDEC35F0FC1224549000B51212FF12C2
:1036CD0023349000C51213173F8000009000B512EF
:1036DD0023061225381222A9124A357BFF7A277943
:1036ED00107D0A123F24EF7012784912226B1225B9
:1036FD003E784D12226B1225388003121C66122261
:10370D00A9124A3512376A122277120F34603240ED
:10371D00307F0A7ED77D237C3C12227F120F3450DE
:10372D002012250D122293120F346015401312250D
:10373D0019122293120F3450087BFF7A2679F280EA
:10374D00067BFF7A2779017D01E4FF124F02124EAD
:0C375D00B7125233EF70030236777F0082
:0E376900227BFF7A2679E3E4FDFF124F022255
:103D1C009000D67849122443123E09B401067A2742
:103D2C00794480047A27793D123E197814E2FF60B9
:103D3C0003B40203122A7C1250997848EFF2BF01A7
:103D4C000912239A12520F7F00227848E264047001
:103D5C002212233508E204F2E2B40202E4F27849BA
:103D6C00E27BFFB401067A27794480047A27793DF7
:103D7C00123E197848E2640570241223351224622D
:103D8C0050037401F27849E27BFFB401067A27797B
:103D9C004480047A27793D7D017F031250117848C5
:103DAC00E26402704912233508E29000D61222A870
:103DBC00124A357BFF7A27792E7D0A123F24EF7049
:103DCC000B784AE29000D6F018F28003121C6612AF
:103DDC0022A9124A357BFF123E09B401067A2779D3
:103DEC004480047A27793D7D017F03125011124ED5
:0C3DFC00B7125233EF7003023D377F0016
:103E0800227A27791FE4FDFF124F027849E27BFFEF
:093E1800227D017F0312501122EA
:103C15009000C2E0FF7849122445123D04B4010624
:103C25007A27796980047A277978123D147814E225
:103C3500FF6003B40203122A7C1250997848EFF210
:103C4500BF010912239A12520F7F00227848E264BD
:103C550004702212233508E204F2E2B40202E4F20F
:103C65007849E27BFFB401067A27796980047A27CF
:103C75007978123D147848E26405702412233512D0
:103C8500246250037401F27849E27BFFB401067A9D
:103C950027796980047A2779787D01E4FF124F023C
:103CA5007848E26402704912233508E29000C21296
:103CB50022A8124A357BFF7A27795A7D0A123F24BA
:103CC500EF700B784AE29000C2F018F28003121CE4
:103CD500661222A9124A357BFF123D04B401067A09
:103CE50027796980047A2779787D01E4FF124F02EC
:0E3CF500124EB7125233EF7003023C327F00C2
:103D0300227A27794BE4FDFF124F027849E27BFFC9
:093D1300227D01E4FF124F02229F
:10332800E4784BF2087C007DFE7BFF7A277987FEE4
:103338007F0F1211417814E2FF7849F208EFF21278
:103348003E217849E2FF6003B40203122A7C784BDD
:10335800E2702F12233C502A1223001223567401C4
:10336800F21234B2782312226B1223567402F2122C
:1033780034B2781D12226B1223567403F21234B23F
:10338800800912233C4004E4784BF21250997848A3
:10339800EFF2BF010912239A12520F7F00227848D8
:1033A800E26404703512233508E204F2E2B4030241
:1033B800E4F27849E2B401097BFF7A2779A5E48031
:1033C8000B7849E2700E7BFF7A2779AAFD7F0712F6
:1033D800501180061224B9124F027848E264057031
:1033E8003312233512246250037402F27849E2B48E
:1033F80001097BFF7A2779A5E4800B7849E2700EF2
:103408007BFF7A2779AAFD7F0712501180061224C4
:10341800B9124F027848E2640260030234A312230F
:103428003508E27814F21222A9124A357BFF7A276E
:1034380079967D0A123F24EF700B784AE27814F2ED
:103448007849F280257849E2B4021C9000DD121315
:103458001700000000782312134800000000781DB0
:1034680012134800000000121C661222A9124A35E5
:10347800123E211223031223567401F21234B27839
:103488002312226B1223567402F21234B2781D12E0
:10349800226B1223567403F21234B2124EB7125230
:0934A80033EF700302334A7F0088
:0134B10022F8
:102CA9009000C37849122422784DEEF208EFF29091
:102CB90000D4E0FEA3E0FF784B122427784FEE12F0
:102CC9002445122E3C7007122E3078498003122EAB
:102CD9004DE2FE08E2FF1222C3FD1237777814E2B3
:102CE900FF6003B40203122A7C1250997848EFF26C
:102CF900BF010912239A12520F7F00227848E26419
:102D09000470471223359000D6E07016784A1224D1
:102D19006DD3081224914006E4F208740AF2784946
:102D2900801C784CE22405122470D308E294E81838
:102D3900E2940340077403F20874E8F2784BE2FE68
:102D490008E2FF1222C3FD1237777848E264057062
:102D59004E1223359000D6E0701D784AE224FFF226
:102D690018E234FFF208E2700218E270067849F2BC
:102D79000804F27849801C784CE224FBF218E2340A
:102D8900FFF208E2700218E27007784BF208740546
:102D9900F2784BE2FE08E2FF1222C3FD1237777880
:102DA90048E26402707212233508E2FF08E29000DB
:102DB900C3CFF0A3EFF09000D412229F124A357BC3
:102DC900FF7A2779BE7D0A123F24EF7025784D904E
:102DD90000C31224A508E2FC08E2FD9000D4ECF03F
:102DE900A3EDF07849EEF208EFF208ECF208EDF203
:102DF9008003121C661222A9124A357BFF122E3C4F
:102E09007007122E3078498003122E4DE2FE08E237
:102E1900FF1222C3FD123777124EB7125233EF70E9
:062E290003022CE67F000D
:102E2F00227A2779CD7D017F05125011227A2779D9
:102E3F00AFE4FDFF124F029000D6E07BFF227A270E
:0C2E4F0079D47D017F05125011784B22D0
:043F2400785BEDF2E7
:103F2800E4785DF2FDFF124F02785DE2FF7E001239
:103F380022C3FD12377712520F7814E2FF6003B4E0
:103F48000203122A7C125099785CEFF2BF04121215
:103F5800233408E204F2E2FF7E001222C3FD123786
:103F680077785CE2B4051212233408E214F2E2FF17
:103F78007E001222C3FD123777785CE26402706D0E
:103F880012520F122334785BE2FF785DE2B5070F17
:103F98007A2779DB1240109000D07401F0FF227A62
:103FA8002779E1124010785DE2FF7E001222C3FDFE
:103FB8001237779000D0E0640D70329000CDE004A5
:103FC800F0E0B405037404F0121C669000CDE0C361
:103FD8009403401978A974401222AD124A357BFF28
:103FE8007A2779E77D017F0612501180FE785CE21E
:103FF800B4010612520F7F0022124EB7125233EF4D
:074008007003023F417F003D
:10400F00227BFF7D01E4FF1250117FE87E031251E6
:02401F00052278
:10452B004100D0004200BF03844100E1054100C1BE
:10453B00004100CD004100D1004200CE00324100CD
:10454B00D6014100C2008114004400DD00000000D0
:10455B004400D7000000004400B5000000004400F8
:10456B00C53F8000004200C300014200D4006482BA
:10457B001500004400C93F80000082270000420064
:10458B00D200004100B9014100BA0082190000823B
:09459B00210000841D0000000055
:0F526400E49000BFF0A3F022E47821F208F222D8
:10509900E4FF3080077821F208F27F04308105129D
:1050A900526C7F0530B30512526C7F0230B4051281
:0450B900526C7F01B5
:0150BD0022D0
:10472500784FEEF208EFF208EDF208EBF21250992D
:10473500EF640470261252657850E22401F218E203
:104745003400F27854E2FE08E2FFD37850E29F1875
:10475500E29E4004E4F208F21247B5125099EF6464
:104765000570457850E224FFF218E234FFF2125248
:10477500649000D0E064056016E2FE08E2FFE4FC08
:10478500FD7BFF7AFFF9F8C312125F701880097874
:1047950050E2700218E2700D7854E2FF08E2784F9B
:1047A500CFF208EFF21247B5784FE2FE08E2FF229A
:1047B500784FE2FE08E2FF08E2FD08E2FB08E27836
:0647C50062F212377722B8
:10520F0020800920B40620B3033081051252648038
:02521F00EF227C
:1039F7007849EFF2FB18E2FF3395E0FE7C007D6427
:103A07001211B4EBFD3395E0FCEF2DFDEE3CFC12FB
:103A17000FB7E4FBFA79C8784222120D8E9000D7CF
:103A27001212FF9000D7E0FCA3E0FDA3E0FEA3E0A5
:103A3700FF120FF0AB07AA067C007D6412121B78F9
:103A47006EEFF27C007D64AF03AE0212121B786F3B
:103A5700EDF218E2FF22784AE2FC120FBC7B007AF3
:103A670040791C7846020D8E784BE2FC120FBC7B26
:103A7700007A2479747849020D8E120FF07B007A50
:103A8700E179F57805124F96AC00AD01AE02AF03B0
:103A97007B407A42790F7800124F967871EFF2786F
:103AA7006EE2FF7DEE229000D7E0FCA3E0FDA3E0ED
:103AB700FEA3E0FF22FDEE3CFC120FB7E4FBFA7910
:103AC7007A7844120E979000C50212FF7848E2FCFC
:103AD700020FBC120E979000C90212FFFFEE3C9036
:103AE70000CEF0A3EFF07FF422120E979000D702DA
:103AF70012FF120E979000B50212FF120C9D900054
:043B0700DD0212FFCA
:101513007E6A121B407FF17E6A1252547849EFF2C1
:1015230018E2640A60030216FD08E2640A6003021B
:1015330016FD7E6F121B4A7FFA121ADD123AE37E02
:101543006F1252549000E1EFF07E6F121B407FF157
:10155300121ADD123A12123AF07E6F121B547E6F8A
:10156300121AFE123A12123AF97E6F121B827E6F22
:10157300121B1F123ABC7E6F121B9D7FF37E6F12EC
:1015830052541239F7123ADA7E6F121C5B7E6F12D5
:101593001C29EFF07E6F121BA77E6F121B5E90005B
:1015A300D4F0A3EFF07F007E681252549000C1EF95
:1015B300F07E6F121C4E7E6F1252547814EFF27F3E
:1015C300017E681252549000D1EFF07E6F121BED32
:1015D3007E6F121BE37FEC121BF77FEB121B8C1247
:1015E3003A19120D8EC004C005C006C007123AD3C3
:1015F300D003D002D001D000120C9DC004C005C09E
:1016030006C007123A5DD003D002D001D000120CFD
:101613009DC004C005C006C007123A6FD003D002B4
:10162300D001D000123B027E6F121C0B7FE6121C0E
:101633001F7FE7121BF77FE8121B8C123A19120D5A
:101643008EC004C005C006C007123AD3D003D0022F
:10165300D001D000120C9DC004C005C006C0071203
:101663003A5DD003D002D001D000120C9DC004C05B
:1016730005C006C007123A6FD003D002D001D000D4
:10168300120C9D782312130B7FD17E6F1252547864
:1016930048EFF27FD2121C1F7FD37E6F1252547811
:1016A3004AEFF27FD47E6F121C35123A19120D8E57
:1016B300C004C005C006C007123AD3D003D002D07D
:1016C30001D000120C9DC004C005C006C007123A29
:1016D3005DD003D002D001D000120C9DC004C00520
:1016E300C006C007123A6FD003D002D001D0001257
:1016F3000C9D781D12130B02178F9000CE7427F0E8
:10170300A37410F0E49000E1F09000D712131700D7
:101713000000009000B5121317411000009000C59F
:101723001213173F8000009000C91213173F800067
:10173300009000D67401F09000C3E4F0A304F0908D
:1017430000D4E4F0A37464F0E49000C1F09000D1FD
:10175300F09000CDF09000C2F09000DD121317005E
:10176300000000782312134800000000781D1213B4
:101773004800000000E47814F2C2AF7FF07E6F12DD
:10178300529B7F017E681219B4121BB19000CEE008
:10179300F47003A3E0F460030219B19000E1E0F4F4
:1017A30060030219B19000D6E0FF3395E0FEEFF439
:1017B3004E60030219B19000C3E0F47003A3E0F498
:1017C30060030219B19000D4E0F47003A3E0F46065
:1017D300030219B19000C1E0F460030219B17E6401
:1017E300121B4A7FFA121C01FB18E2FF3395E0FE3D
:1017F3007C007D641211B4EBFD3395E0FCEF2D12F8
:101803003AE37E641252549000E1EFF07FF0121C31
:10181300447FF17E641252541239F7123AF07E6417
:10182300121B547E64121AFE123A12123AF97E64A3
:10183300121B827E64121B1F123ABC7E64121B9D14
:101843007FF37E641252541239F7123ADA7E64122D
:101853001C5B7E64121C29EFF07E64121BA77E645E
:10186300121B5E9000D4F0A3EFF07E64121C4E7E38
:10187300641252547814EFF27E64121BED7E6412EC
:101883001BE37FEC121C157FEB121BD2123A1912C9
:101893000D8EC004C005C006C007123AD3D003D0D2
:1018A30002D001D000120C9DC004C005C006C007C1
:1018B300123A5DD003D002D001D000120C9DC004B7
:1018C300C005C006C007123A6FD003D002D001D0C2
:1018D30000123B027FE6121C447FE7121C017FE8E3
:1018E300121C157FE9121BD2123A19120D8EC00475
:1018F300C005C006C007123AD3D003D002D001D02E
:1019030000120C9DC004C005C006C007123A5DD08A
:1019130003D002D001D000120C9DC004C005C00644
:10192300C007123A6FD003D002D001D000120C9D31
:10193300782312130B7E64121C0B7FE47E64125215
:10194300547849EFF27FE37E64125254784AEFF2FF
:101953007FE07E64121C35123A19120D8EC004C04A
:1019630005C006C007123AD3D003D002D001D0007D
:10197300120C9DC004C005C006C007123A5DD00317
:10198300D002D001D000120C9DC004C005C006C017
:1019930007123A6FD003D002D001D000120C9D7809
:1019A3001D12130B7FF07E6F1219B4121BB1D2AF4D
:1019B3002212529B7F017E6812529B7D007C68E459
:1019C300FF1251CB7D017C68E4FF1251CB7DF07C8B
:1019D3006FE4FF1251CB7DF17C6FE4FF1251CB7D9D
:1019E300E17C6F7F091251CB7DE27C6FE4FF1251E2
:1019F300CB7DFB7C6F7F0A1251CB7DFC7C6FE4FFB8
:101A03001251CB7DF27C6F7F011251CB7DF37C6F42
:101A1300E4FF1251CB9000E1E0FF7DF47C6F1251A3
:101A2300CB7DF97C6F7F641251CB7DFA7C6FE4FF31
:101A33001251CB9000C3A3E0FF7DF87C6F1251CB12
:101A43007DF57C6F7F011251CB7DF67C6FE4FF1235
:101A530051CB7DF77C6FE4FF1251CB7DEF7C6FE4BC
:101A6300FF1251CB7DEA7C6FE4FF1251CB7DEE7CFC
:101A73006FE4FF1251CB7DED7C6FE4FF1251CB7D00
:101A8300EC7C6FE4FF1251CB7DEB7C6FE4FF1251D2
:101A9300CB7DE57C6FE4FF1251CB7DE67C6FE4FFE9
:101AA3001251CB7DE77C6FE4FF1251CB7DE87C6F55
:101AB300E4FF1251CB7DD17C6FE4FF1251CB7DD279
:101AC3007C6FE4FF1251CB7DD37C6FE4FF1251CBCB
:101AD3007DD47C6FE4FF1251CB227E6F1252547877
:101AE30049EFF2FB18E2FF3395E0FE7C007D6412C0
:101AF30011B4EBFD3395E0FCEF2D227FE21252543B
:101B03007849EFF2FB18E2FF3395E0FE7C007D6439
:101B13001211B4EBFD3395E0FCEF2D227FFC125242
:101B2300547849EFF2FB18E2FF3395E0FE7C007D29
:101B3300641211B4EBFD3395E0FCEF2D227FF0121C
:101B430052547848EFF2227FF91252547848EFF258
:101B5300227FE11252547848EFF2227FF612525458
:101B63007849EFF2FB18E2FF3395E0FE7C007D64D9
:101B73001211B4EBFD3395E0FCEF2DFFEE3C227F19
:101B8300FB1252547848EFF2227E6F125254784B74
:101B9300EFF27849E2FC120FBC227FF21252547822
:101BA30048EFF2227FF51252547848EFF2227FF089
:101BB3007E6A12529B7FF17E6A12529B7DF07C6A91
:101BC3007F0A1251CB7DF17C6A7F0A1251CB227EB0
:101BD30064125254784BEFF27849E2FC120FBC22A4
:101BE3007FED1252547849EFF2227FEE125254786D
:101BF30048EFF2227E6F125254784AEFF2227E644B
:101C03001252547849EFF2227FE51252547848EF8A
:101C1300F2227E64125254784AEFF2227E6F1252FD
:101C2300547849EFF2227FF81252549000C3E4F043
:101C3300A322125254784BEFF27849E2FC120FBC04
:101C4300227E641252547848EFF2227FEF125254EC
:101C53009000C2EFF07FEA227FF71252549000D631
:031C6300EFF0227D
:105125007F007E6812529B9000C1E0FF7D007C6885
:0F5135001251CB9000D1E0FF7D017C680251CB7D
:101C66007E6F1221D0123A557DF97C6F1251CB7DD1
:101C7600FA1221A8123AAD123A19123A217DF0123F
:101C86002246121E947DE1122246121FC97DFB7C5C
:101C96006F1251CB7C6F1220FC123A527DF27C6F90
:101CA6001251CB7DF31221A89000C9123AB0123A14
:101CB60019123ADA7C6F12220B7C6F12216A7DF5BB
:101CC6007C6F1251CB7DF61221B27C6F1222167CEC
:101CD6006F1222217C6F121DFC123A817C6F125109
:101CE600CB7DED1221B27C6F1221BC7C6F121F0CD2
:101CF6007DE57C6F1251CB7DE61221F778707DE78A
:101D060012222C7DE87C6F1220417DD17C6F12510E
:101D1600CB7DD21221F77870E2FF7DD37C6F125112
:101D2600CB78717DD412222C9000C1E06003021D95
:101D3600FB7E641221D0123A557DF97C641251CB98
:101D46007DFA12219E123AAD123A19123A217DF00D
:101D5600122234121E947DE1122234121FC97DFB19
:101D66007C641251CB7C641220FC123A527DF27CC8
:101D7600641251CB7DF31221C69000C9123AB012FB
:101D86003A19123ADA7C6412220B7C6412216A7DBB
:101D9600F57C641251CB7DF61221C67C64122216A4
:101DA6007C641222217C64121DFC123A817C64122E
:101DB60051CB7DED12223C7C641221BC7C64121F47
:101DC6000C7DE67C641251CB7DE712219E7DE812E4
:101DD60022017DE97C641220417DE57C641251CBB1
:101DE6007DE412223C7DE31222017871E2FF7DE060
:051DF6007C641251CBDA
:101DFB00227814E2FF7DEA1251CB9000DDE0FCA3C8
:101E0B00E0FDA3E0FEA3E0FF120FF0E47B64FAF920
:101E1B00F8124F96786EEBF29000DDE0FCA3E0FD3C
:101E2B00A3E0FEA3E0FF120FF0E47B107A27F9F892
:101E3B00124F96AC00AD01AE02AF03E47B64FAF92E
:101E4B00F8124F96786FEFF29000DDE0FCA3E0FD07
:101E5B00A3E0FEA3E0FF120FF07B407A42790F78EC
:101E6B0000124F96AC00AD01AE02AF03E47B107ACB
:101E7B0027F9F8124F967870EFF29000DDE0FCA393
:101E8B00E0FDA3E0FEA3E0FF22786FE2FF7DF112FD
:101E9B0051CB9000D7E0FCA3E0FDA3E0FEA3E0FF55
:101EAB00E4FBFA79C87842120E979000D71212FF12
:101EBB009000B5E0FCA3E0FDA3E0FEA3E0FFE4FB94
:101ECB00FA79C87842120D8E9000B51212FF90006D
:101EDB00B5E0FCA3E0FDA3E0FEA3E0FF120FF0AB27
:101EEB0007AA067C007D6412121B786EEFF27C0051
:101EFB007D64AF03AE0212121B786FEDF218E2FF96
:101F0B00227871E2FF7DEB1251CB7823E2FC08E2E1
:101F1B00FD08E2FE08E2FF120FF0E47B64FAF9F829
:101F2B00124F96786EEBF27823E2FC08E2FD08E2A2
:101F3B00FE08E2FF120FF0E47B107A27F9F8124F3C
:101F4B0096AC00AD01AE02AF03E47B64FAF9F81274
:101F5B004F96786FEFF27823E2FC08E2FD08E2FE81
:101F6B0008E2FF120FF07B407A42790F7800124F94
:101F7B0096AC00AD01AE02AF03E47B107A27F9F803
:101F8B00124F967870EFF27823E2FC08E2FD08E23C
:101F9B00FE08E2FF120FF07B007AE179F57805126B
:101FAB004F96AC00AD01AE02AF037B407A42790F86
:101FBB007800124F967871EFF2786EE2FF22786F0D
:101FCB00E2FF7DE21251CB9000B5E0FCA3E0FDA354
:101FDB00E0FEA3E0FFE4FBFA79C87842120E97907B
:101FEB0000B51212FF9000C5E0FCA3E0FDA3E0FEDC
:101FFB00A3E0FFE4FBFA797A7844120D8E9000C5CA
:10200B001212FF9000C5E0FCA3E0FDA3E0FEA3E0ED
:10201B00FF120FF0AB07AA067C007D6412121B782F
:10202B006EEFF27C007D64AF03AE0212121B786F71
:10203B00EDF218E2FF227871E2FF1251CB781DE22C
:10204B00FC08E2FD08E2FE08E2FF120FF0E47B64FD
:10205B00FAF9F8124F96786EEBF2781DE2FC08E273
:10206B00FD08E2FE08E2FF120FF0E47B107A27F97D
:10207B00F8124F96AC00AD01AE02AF03E47B64FAED
:10208B00F9F8124F96786FEFF2781DE2FC08E2FD3B
:10209B0008E2FE08E2FF120FF07B407A42790F78DC
:1020AB0000124F96AC00AD01AE02AF03E47B107A89
:1020BB0027F9F8124F967870EFF2781DE2FC08E2E0
:1020CB00FD08E2FE08E2FF120FF07B007AE179F5E2
:1020DB007805124F96AC00AD01AE02AF037B407A90
:1020EB0042790F7800124F967871EFF2786EE2FF1B
:1020FB0022786FE2FF7DFC1251CB9000C5E0FCA370
:10210B00E0FDA3E0FEA3E0FFE4FBFA797A7844124A
:10211B000E979000C51212FF9000C9E0FCA3E0FDE2
:10212B00A3E0FEA3E0FFE4FBFA79C87842120D8E20
:10213B009000C91212FF9000C9E0FCA3E0FDA3E0E0
:10214B00FEA3E0FF120FF0AB07AA067C007D641222
:10215B00121B786EEFF27C007D64AF03AE0222900F
:10216B0000C3A3E0FF7DF81251CB9000D4E0FAA39B
:10217B00E0FB7C007D64FFAE021211C6786EEFF2BD
:10218B007C007D64AF03AE021211C6786FEDF218BE
:10219B00E2FF22786FE2FF7C641251CB22786FE270
:1021AB00FF7C6F1251CB22786FE2FF7C6F1251CB09
:1021BB00227870E2FF7DEC1251CB22786FE2FF7C2C
:1021CB00641251CB227FEF12529B9000CEE0FAA308
:1021DB00E0FB7C007D64FFAE021211C6786EEFF25D
:1021EB007C007D64AF03AE021211C622786FE2FF52
:1021FB007C6F1251CB227870E2FF7C641251CB22A0
:10220B009000E1E0FF7DF41251CB229000D6E0FF6D
:10221B007DF71251CB229000C2E0FF7DEF1251CB24
:10222B0022E2FF7C6F1251CB227C641251CB7C6477
:10223B0022786FE2FF7C641251CB227C6F1251CB60
:03224B007C6F2283
:0C52A8008FE4EEF5E375E64675E6B922EA
:0D528E00E4F5E7F5E5F5E675E380F5E422CB
:0F52540075E78275E5011252A800AFE212528E83
:015263002228
:1051CB00AB0775E78275E5028DE4ECF5E3AF038F72
:0851DB00E21252AD0002528EF7
:0D529B0075E78275E5031252A80002528EDD
:0645A40084290000000064
:104D7400788DE2FB08E2FA08E2F9121295788DE2E6
:104D8400FB08E2FA08E2F9227870E2FB08E2F9088B
:104D9400E2FA08E2CBF82212130B787CE2FC08E278
:104DA400FD08E2FE08E2FF22E0F8A3E0F9A3E0FA3E
:104DB400A3E0FB22EBF208EAF208E9F222121275F0
:044DC400E4FBFA22F0
:10001E00E4FFFE00000000000FBF00010EEF640CB5
:03002E004E70F021
:0100310022AC
:10503F00E4FDD29012001E7C80ECD394004019C284
:10504F009012001E12001E309103ED4CFDD29012F3
:0D505F00001EECC313FC80E112001EAF0523
:01506C002221
:054CA0007894124DB8EC
:104CA500E4789AF2C296D29012503F7894124D83CE
:104CB500EF12118012503F7894124D83900001EF4E
:104CC50012119212503F7897124D83EF12118012F4
:104CD500503F7897124D83900001EF121192D296B2
:104CE5007894124D83121167FF54C064C06004EFBD
:104CF50030E605789A7401F2121167543F1211805B
:044D0500789AE2FFB7
:014D09002287
:053B0B00788D124DB899
:103B10007892E2FE08E2AA06F97897E4124DB97BA2
:103B2000FE7A007990124CA0EF6003023C14D37827
:103B300091E2946618E26480948650077406F20855
:103B40007466F2C37891E2949A18E2648094B94062
:103B5000077439F208749AF27890E2FC08E2FDECFE
:103B6000120FB77B7B7AC2799E783D120D8E7B0057
:103B70007AC0791E78C4120C9D9000D7124DAC12F9
:103B80000C99124D74124DC179207841120D8E128C
:103B90000FF07C007D0A12121BAC06AD07EC120F71
:103BA000B7124D74124DC1F9F8120F346011400F65
:103BB000124D81121275120FA1124D81121295121F
:103BC0004D81124DC179FE7843120F34500A124DC7
:103BD0008112136143FE00007892E2FE08E278054C
:103BE000CEC313CE13D8F9FF7892EEF208EFF2FDB0
:103BF000AC06E4120FB77BF07A1679C8783D120D47
:103C00008EE4FBFA794878C2120C9D124D81900027
:043C1000041212AFD9
:013C1400228D
:104BC300788012134800000000E47884F27BFE7AB8
:104BD300007985123B0B7885124DA0788012130B58
:104BE3009000E1E0FFC374149FFDE49400FCE41221
:104BF3000FB77880124D8E120D8EC004C005C0060B
:104C0300C0079000E1E0FCE4120FBC7829124D8E3E
:104C1300120D8ED003D002D001D000120C9DE4FB04
:104C2300FA79A07841120E97787C124D9B7829125D
:024C33004D9B97
:014C3500225C
:10438B00124BC3120FF0786EEEF208EFF2124DC81B
:10439B00787012130B7F6F7E127D837C3A124D8CDB
:1043AB00120F3450097870121348000000007BFE86
:1043BB007A0079741249A0787812130B7FAE7E2A9B
:1043CB007D7B7C3C124D8C120D8EA804A905AA0690
:1043DB00AB077FDF7E4F7D5D7C40120C99787812A6
:1043EB004D8E120D8EC004C005C006C0077F337EF4
:1043FB00937D887C437874124D8E120C9DA804A972
:10440B0005AA06AB07D007D006D005D004120E972D
:10441B00C004C005C006C007786FE225E0FD18E2B6
:10442B0033FC120FB7D003D002D001D000120E977D
:10443B001246819000C5124DAC120D8E9000C91220
:05444B004DAC120D8EC6
:014450002249
:10506D00E4F5D8F5E9F5F9F5D9782DE2FE08E2F584
:10507D00EAEEF5FA7817E2FE08E2FF782EE22FF25B
:0C508D0018E23EF275DA49D2DED2AE2203
:104E6800785C12130BE4FFFE7D487C44785CE2FB1F
:104E780008E2F908E2FA08E2CBF8120D8EE4FBFA30
:104E880079C87842120E97E4FBFA79487843120CF5
:104E98009DA804A905AA06AB077F007E247DF47CA3
:0F4EA80048120E97120FF07817EEF208EFF22271
:1045AA00942F00000000000000000000000000003E
:0945BA0000000000000081430034
:1050BE00120C9D788CE2FB08E2FA08E2F922787F66
:1050CE00E2FC08E2FD08E2FE08E2FF22EBF208EA4B
:0550DE00F208E9F222D6
:054D0A0078931250DA5D
:104D0F00E47899F2C297D29012503F78931250C321
:104D1F00EF12118012503F78931250C3900001EFA1
:104D2F0012119212503F78961250C3EF1211801247
:104D3F00503F78961250C3900001EF121192D29704
:104D4F0078931250C3121167FF54C064C06004EF10
:104D5F0030E60578997401F2121167543F121180F1
:044D6F007899E2FF4E
:014D7300221D
:0542BF00788C1250DABA
:1042C400789674FEF2087400F2087491F27BFE7A18
:1042D40000798F124D0AEF600302438AD37890E28B
:1042E400946618E26480948650077406F208746633
:1042F400F2C37890E2949A18E2648094B940077407
:1043040039F208749AF2788FE2FC08E2FDEC120F9D
:10431400B77B0F7A457901783C120D8E7B177AD9D9
:10432400794E78C11250BE1212951250C1121275F4
:10433400E4FBFAF9F8120F346011400F1250C11265
:104344001275120FA11250C11212957891E2FE0853
:10435400E27805CEC313CE13D8F97992F3EE19F3AC
:104364007891E2FC08E2FDE4120FB77BF07A16794B
:10437400C8783D120D8EE4FBFA794878C21250BE1B
:064384009000041212AFCC
:01438A002210
:0549A000787C1250DAE2
:1049A5000812134800000000E47883F27BFE7A00C9
:1049B50079841242BF78881250CE787C1250C31287
:1049C500129578841250CE7843E225E025E0242F15
:1049D500F812130B7843E204F2E2B40502E4F2E4C0
:1049E5007883F27883E2FFC364809485502C787FC6
:1049F500E2FB08E2F908E2FA08E2CBF8C000EF258D
:104A0500E025E0242FF81250CED000120C9D787FBF
:104A150012130B7883E204F280C91250CCE4FBFA3E
:0F4A250079A07840120E97787F12130B1250CCA5
:014A3400225F
:0645C300844442F00000F8
:0E527300787CE2FC08E2FD08E2FE08E2FF2281
:105221009000B97401F0E49000D2F0A3F0D288D2DA
:02523100A822B1
:1051F9009000D2E0FFA3E07827CFF208EFF2E49025
:0652090000B9F0C2A8226A
:104DC8009000B9E0703DD37828E294E918E29403A2
:104DD80040077403F20874E9F27827E2FC08E2FD60
:104DE800E4120FB7E4FBFA794978C3120C9DE4FB8F
:104DF800FAF97841120E97787C12130B12527378D5
:104E08004480077844125275787C12130B1252733F
:014E18002277
:100C960002105CE86480F8E933E83360110460F020
:100CA600ED33EC337009E8FCE9FDEAFEEBFF2204C4
:100CB60060DED3EB9FEA9EE99DE8C2E78CF0C2F7BF
:100CC60095F0400CE8CCF8E9CDF9EACEFAEBCFFB8B
:100CD60012102785D0F05804700320D5B3E80470AD
:100CE600075002B2D502106692D5EC0460F7E4CC48
:100CF600C0E0C398F8603B94186008400DD0E0FB54
:100D060002103EE4FBFAC9FC8028E830E406E4C998
:100D1600FBE4CAFCE830E305E4C9CACBFCE85407A7
:100D26006010F8C3E913F9EA13FAEB13FBEC13FCB2
:100D3600D8F130F52FC3E49CFCEF9BFFEE9AFEED55
:100D460099FDD0E0FBEF4E4D4C701222DB030210F2
:100D560063EC2CFCEF33FFEE33FEED33FDED30E7B5
:100D6600EB02103EEF2BFFEE3AFEED39FDD0E0FB35
:100D760050130BBB0003021066ED13FDEE13FEEFDE
:080D860013FFEC13FC02103E08
:100D8E00EC4D6011E8497017ED33EC3304600DE45F
:100D9E00FCFFFEFD22E933E8330470F802105C120A
:100DAE00102758046009E4CC24815006285009020B
:100DBE001066284003021063C0E0EB4A7044B9800D
:100DCE0006D0E0FB021052EF4E701CBD8008EBFF08
:100DDE00EAFEE9FD80EBE98DF0A4FEE5F0020E7768
:100DEE00E9CDF9EAFEEBFFEF89F0A4FCE5F0CE8940
:100DFE00F0A42EFFE435F0CD89F0A42DFEE435F0FD
:100E0E008067EF4E7005BD80D780C3EF8BF0A4AC2A
:100E1E00F0EE8BF0A42CFCE435F0F8EF8AF0A42C65
:100E2E00E5F038FCE433CB8DF0A42CFCE5F03BF878
:100E3E00EE8AF0A42CFCE5F038F8E433CF89F0A468
:100E4E002CFCE5F038CF3400CE89F0A42FFFE5F06E
:100E5E003EFEE433C98DF0A42EFEE5F039CD8AF0C6
:100E6E00A42FFFE5F03EFEE43DFD33D0E0FB50073E
:100E7E000BBB000F021066EC2CFCEF33FFEE33FEC3
:060E8E00ED33FD02103EF1
:100E9400021066EC5D046005E85904700302105CFE
:100EA400121027580460F6EC4860F2EC7004FDFE62
:100EB400FF22C860DB2481C85009C3986002500631
:100EC4000210639850CAF582E9294B4A7005AB8237
:100ED40002105275F0007C1A7880C3EF9BEE9AEDF5
:100EE40099400DC3EF9BFFEE9AFEED99FDE842F0A9
:100EF400DC23ACF0D0E0FFD0E0FED0E0FDAB8220FC
:100F0400E7101BEB60BAEC2CFCEF33FFEE33FEED85
:100F140033FD02103EE803F830E705C0F075F00039
:100F2400EF2FFFEE33FEED33FD40B830E7C280AA69
:100F340074F8CC6480CCC86480C8F582046043C370
:100F4400EB9FF5F0EA9E42F0E99D42F0E89C45F003
:100F540060305018E5825FFFE582F42B5582FB5028
:100F6400210ABA001D09B90019088016E5825BFB45
:100F7400E582F42F5582FF50090EBE00050DBD0019
:100F8400010CC3EB9FF5F0EA9E42F0E99D42F0E8C4
:0D0F94009C45F06007CC4820E701B3EC223B
:100FA100ED33EC33600A047003BD8004ECB2E7FC5E
:010FB100221D
:100FB20075F020800E75F010800575F0087D007EBA
:100FC200007F003392D530D503121251EC3340101A
:100FD200EF33FFEE33FEED33FDEC33FCD5F0ED22C3
:0E0FE200E5F0247EA2D513CC92E7CDCEFF22FF
:100FF000EDD2E7CD33EC3392D524814006E4FFFEF9
:10100000FDFC22FCE4CFCECDCC24E0501174FF8057
:10101000EDC3CC13CCCD13CDCE13CECF13CF0470F4
:07102000F030D5DE02125191
:10467D0002105C22EDA2E7D2E7F9EC3340F260F3D1
:10468D00B4FF08ED547F70E8021066F82481C2E093
:10469D00C0E0F40428FAC313FCED92E7FD787C1218
:1046AD00130BEEA2E7E9BA7F02C31334009400FAAC
:1046BD0075F091A4E5F013F494FE8AF0A433E5F0BF
:1046CD0033248CD313FDE492E7FE7F007C3F75838A
:1046DD0002ECC0E0F8EDC0E0F9EEC0E0FAEFC0E0AA
:1046ED00FB88F0787C1212D3A8F0120E97D0E0FB65
:1046FD00D0E0FAD0E0F9D0E0F8120C9DED6480FD29
:10470D0030E7011CD583CAED33CC33F8D0E0A2E7F6
:08471D001328C313CC13FD2285
:10102700E9D2E7C933E833F892D5EDD2E7CD33EC0F
:0710370033FC5002B2D52288
:10103E00EC30E7100FBF000C0EBE00080DBD000413
:10104E000BEB6014A2D5EB13FCED92E7FD2274FFBF
:10105E00FCFDFEFF22E480F8A2D574FF13FC7D8018
:03106E00E480EF2C
:104AD0000238BBE493A3F8E493A34003F68001F209
:104AE00008DFF48029E493A3F85407240CC8C333E7
:104AF000C4540F4420C8834004F456800146F6DFB6
:104B0000E4800B0102040810204080904516E47EEA
:104B1000019360BCA3FF543F30E509541FFEE493AA
:104B2000A360010ECF54C025E060A840B8E493A371
:104B3000FAE493A3F8E493A3C8C582C8CAC583CA9C
:104B4000F0A3C8C582C8CAC583CADFE9DEE780BE54
:0145C90000F1
:10107100E709F608DFFA8046E709F208DFFA803E61
:1010810088828C83E709F0A3DFFA8032E309F6084E
:10109100DFFA8078E309F208DFFA807088828C83B6
:1010A100E309F0A3DFFA806489828A83E0A3F6086A
:1010B100DFFA805889828A83E0A3F208DFFA804C44
:1010C10080D280FA80C680D4806980F2803380101B
:1010D10080A680EA809A80A880DA80E280CA803384
:1010E10089828A83ECFAE493A3C8C582C8CCC583FC
:1010F100CCF0A3C8C582C8CCC583CCDFE9DEE780CC
:101101000D89828A83E493A3F608DFF9ECFAA9F04A
:10111100EDFB2289828A83ECFAE0A3C8C582C8CCA0
:10112100C583CCF0A3C8C582C8CCC583CCDFEADEB9
:10113100E880DB89828A83E493A3F208DFF980CC1B
:1011410088F0EF60010E4E60C388F0ED2402B40414
:101151000050B9F582EB2402B4040050AF232345BB
:0611610082239010C1730F
:10116700BB010689828A83E0225002E722BBFE0286
:09117700E32289828A83E49322B9
:10118000BB010689828A83F0225002F722BBFE014E
:02119000F32248
:10119200F8BB010DE58229F582E5833AF583E8F093
:1011A200225006E92582C8F622BBFE05E92582C83F
:0211B200F22227
:1011B400EF8DF0A4A8F0CF8CF0A428CE8DF0A42E4F
:0211C400FE2209
:1011C600BC000BBE0029EF8DF084FFADF022E4CC0D
:1011D600F875F008EF2FFFEE33FEEC33FCEE9DECD6
:1011E600984005FCEE9DFE0FD5F0E9E4CEFD22ED1C
:1011F600F8F5F0EE8420D21CFEADF075F008EF2F66
:10120600FFED33FD4007985006D5F0F222C398FD56
:051216000FD5F0EA22F3
:10121B00C2D5EC30E709B2D5E4C39DFDE49CFCEEEE
:10122B0030E715B2D5E4C39FFFE49EFE1211C6C38F
:10123B00E49DFDE49CFC80031211C630D507C3E48A
:06124B009FFFE49EFE225D
:104F9600C2D5E830E70FB2D5E4C39BFBE49AFAE446
:104FA60099F9E498F8EC30E717B2D5124FCC121302
:104FB600D7E4C39BFBE49AFAE499F9E498F88003F2
:104FC6001213D730D50DE4C39FFFE49EFEE49DFD8A
:044FD600E49CFC2239
:0E125100C3E49FFFE49EFEE49DFDE49CFC22AE
:10125F00EB9FF5F0EA9E42F0E99D42F0EC6480C806
:06126F0064809845F022A6
:10127500BB010789828A830214755005E9F80214B7
:1012850069BBFE05E9F80212D389828A83021481BB
:10129500BB010789828A830212FF5005E9F802140F
:0A12A500C7BBFE05E9F802130B2297
:1012AF00BB010DE58229F582E5833AF5830212FF32
:1012BF005007E92582F80214C7BBFE07E92582F81B
:0412CF0002130B22D9
:0C12D300E2FC08E2FD08E2FE08E2FF2257
:1012DF00BB010789828A8302149E5005E9F8021424
:1012EF0091BBFE05E9F80214AA89828A830214B71A
:0C12FF00ECF0A3EDF0A3EEF0A3EFF02262
:0C130B00ECF208EDF208EEF208EFF2221E
:10131700A8828583F0D083D08212132E12132E1247
:10132700132E12132EE473E493A3C583C5F0C5836C
:10133700C8C582C8F0A3C583C5F0C583C8C582C820
:011347002283
:10134800D083D082E493F208740193F20874029374
:09135800F208740393F2740473AB
:10136100BB010789828A830213175005E9F8021429
:0A137100D3BBFE05E9F80213482281
:10137B00BB010789828A830214F55005E9F8021430
:10138B00ECBBFE05E9F80214FE89828A830215077D
:10139B0075F008758200EF2FFFEE33FECD33CDCC09
:1013AB0033CCC58233C5829BED9AEC99E58298408C
:1013BB000CF582EE9BFEED9AFDEC99FC0FD5F0D669
:1013CB00E4CEFBE4CDFAE4CCF9A88222B800C1B993
:1013DB000059BA002DEC8BF084CFCECDFCE5F0CBD1
:1013EB00F97818EF2FFFEE33FEED33FDEC33FCEB0A
:1013FB0033FB10D703994004EB99FB0FD8E5E4F9C5
:10140B00FA227818EF2FFFEE33FEED33FDEC33FCB1
:10141B00C933C910D7059BE99A4007EC9BFCE99AA5
:10142B00F90FD8E0E4C9FAE4CCFB2275F010EF2FEA
:10143B00FFEE33FEED33FDCC33CCC833C810D707EA
:10144B009BEC9AE899400AED9BFDEC9AFCE899F825
:0E145B000FD5F0DAE4CDFBE4CCFAE4C8F922B8
:0C146900E6FC08E6FD08E6FE08E6FF22AF
:0C147500E0FCA3E0FDA3E0FEA3E0FF22EA
:10148100E493FC740193FD740293FE740393FF22B1
:0D149100E6FB08E6F908E6FA08E6CBF822CB
:0C149E00E0F8A3E0F9A3E0FAA3E0FB22D1
:0D14AA00E2FB08E2F908E2FA08E2CBF822C2
:1014B700E493F8740193F9740293FA740393FB228B
:0C14C700ECF608EDF608EEF608EFF62251
:1014D300D083D082E493F608740193F608740293E0
:0914E300F608740393F674047317
:0914EC00E6FB08E6FA08E6F92225
:0914F500E0FBA3E0FAA3E0F922F8
:0914FE00E2FB08E2FA08E2F9221F
:0C150700E493FB740193FA740293F92240
:00000001FF
