:1052E800FF02F6FF0316FF04F6FF0036FF0036FF45
:1052F80002F6FF0316FF0036FF0036FF0036657220
:02530800720031
:103A9800E4F5B175B201C2B01218001250B1125259
:103AA800941253499000E61212A4000000009000FE
:103AB8007CE0701490008EE004F0E0D3940640039C
:103AC8007406F012532A8005E490008EF090008E60
:103AD800E0B406147430123BB17BFF7A5379067D4B
:103AE800017F0612525A80FE7440123BB190008D3D
:103AF800E0B4100040026190903B0625E073612617
:103B0800612B61306135613A613F61446149614EC1
:103B180061536158615D6162616761906185123FBF
:103B2800128065124DC68060123000805B12336EC1
:103B380080561248C48051124510804C12350580B9
:103B480047121F288042123CDC803D122C838038AB
:103B5800124CAC8033123DF7802E1231BD80297B88
:103B6800FF7A5279F77DF012410EBF010990007C6F
:103B78007401F012532AE490008DF0800B7BFF7AD9
:103B88005279E87D0512410E90007CE0B4010D9059
:103B9800008DE0640D600241F0F041F090008DE08E
:093BA800640E600241F0F041F0EE
:0F3BB100900061F0C2007B80E4FDFF124C1422F3
:1053490043891175B802758DEC758B77758C647509
:0D5359008A64D2AFD2A9D28CD2ABD28E2200
:03001B0002431B82
:10431B00C0E0C0F0C083C082C0D075D000C000C068
:10432B0001C002C003C004C005C006C007758D3CA8
:10433B00758BAF900098E004F07006900097E00446
:10434B00F0C3900098E0947E900097E09404400BAB
:10435B007404F0A3747EF0D2B08002C2B090007BE4
:10436B00E004F0700690007AE004F0D390007BE05C
:10437B0094E890007AE0940340077403F0A37484EC
:10438B00F09000A3E004F070069000A2E004F0D3DC
:10439B009000A3E094159000A2E094004026E4F076
:1043AB00A304F0900090E004F0700690008FE004FE
:1043BB00F090008FE0B40D0CA3E0B4630790008F76
:1043CB00E4F0A3F0900072E004F0E0B43C0674015A
:1043DB00F0125425900072E0B41503122FE975E129
:1043EB003C9000A2E0FEA3E0FF7C007D0A1211339B
:1043FB00ED4C7002B2B1D007D006D005D004D0037B
:10440B00D002D001D000D0D0D082D083D0F0D0E079
:01441B00326E
:03000B0002539C01
:10539C00C0E0C083C082900078E0F58CA3E0F58A71
:0953AC00B2B5D082D083D0E0320A
:0300330002521A5C
:10521A00C0E0C083C082C0D075D000C006C007C23B
:10522A00D89000F2E0FEA3E0F5EAEEF5FA90007EEF
:10523A00E0FEA3E0FF9000F3E02FF09000F2E03EE2
:10524A00F0B2B7D007D006D0D0D082D083D0E03227
:030003000253663F
:10536600C0E0C083C08290009AE004F0700690000E
:0B53760099E004F0D082D083D0E03238
:03000000024D3A74
:0C4D3A00787FE4F6D8FD758120024D81E1
:10514B00C283C294AF068FA0D295125448C295C2A7
:10515B0082C292227A002FFFEA35F0FED3EF944001
:10516B00EE64809480222FFFEA33FED3EF9480EE1F
:10517B0064809480221211D4A9F0FA0210A7F58250
:08518B0074043EF583E4932255
:1053E600EF1FAA0670011E4A600BE4FDEDC3947818
:0553F60050EE0D80F7F0
:0153FB00228F
:0F544800E4FF00000000000000000FEFB402F3CB
:015457002232
:0F538100E0FF12000EED2440FF12000EA3E0FF2C
:0C539000D282C292D283C29412515122E8
:0D53B500E0FF125477AF05125477A3E0FF1C
:0C53C200C282D292D283C29412515122B6
:0D000E00AE07125448D282C29212514B220A
:0D547700AE07125448C282D29212514B224D
:0A4A3300900064EFF0900066EBF0D5
:104A3D00ED75F008A4FFA3E0FC12515F400241D5D3
:104A4D00900066E0FF900064E0F91251715079EC2E
:104A5D0054077074ED24B890006BF0AD01E4FC9038
:104A6D000067E0131313541FFFECC39F505A9000BF
:104A7D0064E0FFC3ED9FFF900066E0FEEFC39E5024
:104A8D0039900068E0FBA3E475F001300006125187
:104A9D0080F4800312518090006CF0EDC394407F40
:104AAD00C0500B12000E90006B12538180091254EE
:104ABD007790006B1253B50D80B4900064E0FD90BB
:084ACD00006BE004F00C416CE9
:014AD50022BE
:0A4C140090005FEDF0A3EBF0AC0799
:104C1E0090005FE075F008A4FF900061E0FD125176
:104C2E005F507A900060E0FFEC125171506FED54BE
:104C3E0007706A90005FE024B8FDAB04E4FA9000C0
:104C4E0061E0131313541FFFEAC39F5050C3EB9C34
:104C5E00FF900060E0FEEFC39E503C30000479FFF1
:104C6E008002E4F9EBC394407FC0501612000EAFE1
:104C7E000512000EEB2440FF12000EAF01125390EE
:104C8E008012125477AF05125477AF03125477AFD8
:0D4C9E00011253C20B80B6AB040D0A80A1B9
:014CAB0022E6
:074AD600900064EBF0A9075A
:104ADD00ED75F008A42410FFE412516440026178D2
:104AED00E92408FFE412517440026178ED24B89076
:104AFD000065F0AD01E4FCE4900067F0C3ED99C3EF
:104B0D0094085059EC75F008A4FBAAF0900064E0ED
:104B1D0075F010A42BFFE5F03AFE900067E07A00E7
:104B2D002FFFEA3EFE74962F300006125189F48055
:104B3D0003125189900066F0EDC394407FC0500B75
:104B4D0012000E9000651253818009125477900067
:104B5D00651253B5900067E004F00D6109AD019049
:0B4B6D000065E004F00CEC6402708CAA
:014B7800221A
:1050B1007F647E001253E6C293125448D2937F3E1E
:1050C10012000E7F3E1254777FC012000E7FC01275
:1050D10054777FB812000E7FB81254777F401200C8
:1050E1000E7F401254777F3F12000E7F3F1254779C
:1050F1009000617440F0C2007B80E4FDFF024C141B
:1000360000000000000000000000000000000000BA
:1000460000000000000000000000000000000000AA
:100056000000FE020A126282621A02FF020000001B
:1000660080403F20100806010618003F4080E0004F
:10007600202020BEAAAAAAAAAAAAAABF2230200085
:10008600008080AFAAAAAAFFAAAAAAAF8080000011
:10009600100C04555555857F8555555504140C008F
:1000A6000404020209092A4CA819090202040400E0
:1000B600404244CC00F4949494FF949494F6040043
:1000C6000040201F20514844427F42444C6120009A
:1000D6001010D0FF90108848A8090A08A84CC8003C
:1000E600040300FF808140402116081661C04000CD
:1000F600000204EC4020F84F4849FE48684C0800CE
:1001060002027F000000FF2222223F22233220002B
:10011600202424A4FE232200FC04040404FE04007C
:1001260010080601FF0142201B110101093360007E
:100136000080402098868080838C9020C08080003C
:1001460001008040201F004080403F000001000069
:1001560000022222322EA262222291090100000010
:10016600000042221A43827E02020A136600000041
:1001760010925430FF509432D8171010F018100017
:1001860002824E3322528E402314081661C040006C
:10019600101494F494DF94D4907F901214101000ED
:1001A6000201FF4A4A7F4A4A60100F3442817000BA
:1001B60002F2121212FA969292F2121212FB120026
:1001C60000FF4040407F4848487F404040FF0000D5
:1001D6000000FE0282828282FE828282C382000048
:1001E60040300F40404040407F4042444C60400019
:1001F600001010101010FF1010101010F810000052
:100206000080808060180700204080403F0000008A
:100216000000F8494A4C48F8484C4A49FC08000096
:1002260010101712121212FF1212121213181000C7
:10023600804020F80710D01011161010D8100000BA
:10024600000000FF202020232C203827203020000B
:10025600807000FF102808E81F08E808088C0800CE
:10026600000000FF2018878041320F3241C1400054
:1002760020100C03FAAAAAAAAAAAAAFA0302000044
:100286000020908886472A12122A464280808000E3
:10029600404042CC0040A09F8181819FA020200049
:1002A6000000007FA09040432C10282641C040004B
:1002B600001017D55557557D555755D517100000C1
:1002C6004040407F555555555555557F4060400037
:1002D6002424A4FEA322207E42424242427F020000
:1002E600080601FF0043414949497F494D694100DC
:1002F600104C2404F4844D562424148424540C00F5
:100306000001FD414041417F41414141FC00000067
:100316000282F24E43E242FA020202FF028000002B
:1003260001007F20207F080909090D49817F01000E
:100336000000C04040407F48484848E84C0800005C
:1003460080403704146404142464041720C0000099
:10035600101091D63098000808F8080808FC080024
:10036600020100FF0182402018074080403F000044
:10037600242820FF3028445454547F5454D6440033
:10038600080403FF010200FF1515151595FF01006E
:100396000000FC242424FCA5A6A4FC243426040086
:1003A60040209F804242262A122A264240C0400010
:1003B6001010F01F10F04060584740405060C000D9
:1003C60040221508166100FE4242424242FF0200E8
:1003D600804020F80704E4A4A4BFA4A4F6240000E7
:1003E600000000FF40407F4A4A4A4A4A7F40400098
:1003F6000000FE02E2A2B2AEA2A2A2A2F322000076
:1004060040300F40231A42827E02020A1360000027
:1004160040445465C664D64440FC4442C36240002E
:10042600201149817F01052918070000FF000000FF
:100436001022640CC0445454547F5454D644400093
:100446000404FE010000FF15151555957F010000F7
:100456001022640C80444464554E445466C4000023
:100466000404FE010080403F00FF003F4040700052
:1004760010101011D630980000FF408000000000D8
:1004860008040201FF01020000FF00000103000052
:10049600804020F847309294909F90D4925030003C
:1004A600000000FF04044464544C445464C6040031
:1004B6001022640C8000FE9292929292FF0200003B
:1004C6000404FE01407E42427E427E42427E40005D
:1004D6000000FC242424FCA5A6A4FC243426040045
:1004E60040209F804242262A122A264240C04000CF
:1004F60080808080808080808080808080C0800036
:1005060000000000000000000000000000000000E5
:1005160000000808080808080808080C0800000079
:1005260010101010101010101010101010181000CD
:100536000000FE22222222FE22222222FF020000A8
:1005460000000702020202FF020202020700000088
:10055600807000FF10081C2424252634A4140C00E7
:100566004020180708B041310F01013F414170009A
:10057600000000F112141010101412F910000000FF
:100586002018003B4141454959414173000830005C
:100596002030AC633008E80808FF0808E80C0800BB
:1005A6002267221212000702023F424247407000B1
:1005B6001021620680FE929292929292FF020000B1
:1005C6000404FE0100FE8444207F88848680E000C7
:1005D60080804020504844434448502040C040005A
:1005E600000000FE42424242424242FF0200000038
:1005F60000101012945010FF105094921810000022
:100606000484844524140C070C142445C4460400B1
:10061600202222FE2222FE232200FC0000FF0000F0
:10062600404C4A4948484B7E4848484A4C6B400033
:1006360000040404040404FC040404040604000086
:10064600202020202020203F202020202030200095
:100656000002048C407EC24242C2427F0200000079
:100666000202FF8040300F00003F404040407000D3
:100676001010D0FF9050444444C4444644604000A7
:10068600040300FF00110846807F00020C180000DA
:100696000000000000000000000000000000000054
:1006A600000038FCFC3800000000000D0D000000C2
:1006B60000003C24243C0000000000000000000074
:1006C60020F8F820F8F82000020F0F020F0F0200A2
:1006D600387C444747CC98000306041C1C070300DB
:1006E60030300080C06030000C060301000C0C00A6
:1006F60080D87CE4BCD84000070F0808070F080024
:1007060000101E0E000000000000000000000000A7
:100716000000F0F80C040000000003070C080000BD
:100726000000040CF8F000000000080C07030000AD
:1007360080A0E0C0C0E0A080000203010103020027
:10074600008080E0E08080000000000303000000DD
:1007560000000000000000000000101E0E00000057
:100766008080808080808000000000000000000003
:1007760000000000000000000000000C0C0000005B
:1007860000000080C06030000C060301000000007D
:10079600F8FC04C424FCF800070F0908080F07003A
:1007A600001018FCFC0000000008080F0F080800E5
:1007B600080C84C4643C18000E0F0908080C0C00D1
:1007C600080C444444FCB800040C0808080F070051
:1007D600C0E0B098FCFC8000000000080F0F080085
:1007E6007C7C4444C4C48400040C0808080F070039
:1007F600F0F84C4444C08000070F0808080F0700B3
:100806000C0C0484C47C3C0000000F0F00000000A8
:10081600B8FC444444FCB800070F0808080F07005A
:10082600387C444444FCF800000808080C07030020
:100836000000003030000000000000060600000046
:100846004848B0000000000002020100000000005D
:10085600C8A8900000000000000000000000000092
:1008660040404040404040000202020202020200B4
:100876000008183060C0800000080C060301000064
:10088600181C04C4E43C18000000000D0D00000014
:10089600F0F808C8C8F8F000070F080B0B0B0100AA
:1008A600E0F0988C98F0E0000F0F0000000F0F00AA
:1008B60004FCFC4444FCB800080F0F08080F0700AE
:1008C600F0F80C04040C180003070C08080C0600CA
:1008D60004FCFC040CF8F000080F0F080C070300DA
:1008E60004FCFC44E40C1C00080F0F08080C0E0066
:1008F60004FCFC44E40C1C00080F0F080000000078
:10090600F0F80C84848C980003070C0808070F0085
:10091600FCFC404040FCFC000F0F0000000F0F00E5
:10092600000004FCFC0400000000080F0F08000093
:1009360000000004FCFC0400070F08080F07000075
:1009460004FCFCC0F03C0C00080F0F00010F0E0069
:1009560004FCFC0400000000080F0F08080C0E0041
:10096600FCFC387038FCFC000F0F0000000F0F0075
:10097600FCFC3870E0FCFC000F0F0000000F0F00BD
:10098600F0F80C040CF8F00003070C080C07030041
:1009960004FCFC44447C3800080F0F0800000000EB
:1009A600F8FC040404FCF800070F080E3C3F27007F
:1009B60004FCFC44C4FC3800080F0F00000F0F00B5
:1009C600183C6444C49C1800060E0808080F07006B
:1009D600001C0CFCFC0C1C000000080F0F0800009B
:1009E600FCFC000000FCFC00070F0808080F0700CD
:1009F600FCFC000000FCFC000103060C06030100E1
:100A0600FCFC008000FCFC00030F0E030E0F03002D
:100A16000C3CF0C0F03C0C000C0F0300030F0C0064
:100A2600003C7CC0C07C3C000000080F0F080000A2
:100A36001C0C84C4643C1C000E0F0908080C0E0034
:100A46000000FCFC0404000000000F0F0808000072
:100A56003870E0C0800000000000000103070E00AF
:100A660000000404FCFC0000000008080F0F000052
:100A7600080C0603060C0800000000000000000039
:100A86000000000000000000202020202020202060
:100A96000000030704000000000000000000000042
:100AA60000A0A0A0E0C00000070F0808070F08007C
:100AB60004FCFC2060C08000080F0708080F070030
:100AC600C0E0202020604000070F0808080C040042
:100AD60080C06024FCFC0000070F0808070F080010
:100AE600C0E0A0A0A0E0C000070F0808080C0400A2
:100AF60040F8FC440C180000080F0F080000000026
:100B0600C0E02020C0E02000276F48487F3F00005B
:100B160004FCFC4020E0C000080F0F00000F0F008F
:100B2600000020ECEC0000000000080F0F08000099
:100B36000000000020ECEC0000307040407F3F00D9
:100B460004FCFC80C0602000080F0F01030E0C009F
:100B5600000004FCFC0000000000080F0F08000065
:100B6600E0E060C060E0C0000F0F000F000F0F0054
:100B760020E0C02020E0C000000F0F00000F0F0093
:100B8600C0E0202020E0C000070F0808080F07007B
:100B960020E0C02020E0C000407F7F48080F07000B
:100BA600C0E02020C0E02000070F08487F7F4000FB
:100BB60020E0C0602060C000080F0F0800000000A1
:100BC60040E0A02020604000040C09090B0E040040
:1027C400000000000000000000000000000000FF06
:1027D40001D6FF01F6FF0036FF0036FF00367061B8
:1027E40000FF0196FF01B6FF0116FF0036FF003619
:1027F400FF0036FF02F6FF0316FF0516FF0036FF43
:102804000036636D3C00FF0636FF0656FF0036FFB8
:102814000036FF0036FF0676FF0656FF0036FF003F
:1028240036FF0036FF01D6FF01F6FF0036FF003603
:10283400FF0036FF0536FF0556FF0036FF0036FF62
:102844000036FF04B6FF04D6FF0036FF0036FF0053
:10285400363A006D3B2F73006D3B2F6D696E004B54
:102864005061002500224300202D2D20202020002F
:102874003A00FF0576FF0076FF0036FF0036FF00C2
:1028840036FF0636FF0656FF0036FF0036FF0036D9
:10289400FF0676FF0656FF0036FF0036FF0036FFC0
:1028A4000676FF0596FF0036FF0036FF0036FF046C
:1028B40036FF0096FF0036FF0036FF00364F4646CF
:1028C40020004F4E2020006D3B003A00FF0456FFCD
:1028D40000B6FF0036FF0036FF00366D2F7300FF91
:1028E4000096FF0336FF00D6FF00F6FF0036FF0216
:1028F400F6FF0316FF0516FF0036FF00366D2F7333
:1029040000FF0376FF0396FF00D6FF00F6FF0036B4
:10291400FF02F6FF0316FF0516FF0036FF00366DB3
:102924002F7300FF0476FF0496FF0156FF0176FF24
:102934000036FF02F6FF0316FF0516FF0036FF0000
:1029440036FF0116FF0136FF0156FF0176FF003600
:10295400FF02F6FF0316FF0516FF0036FF0036FFE1
:102964000256FF0276FF0356FF03B6FF03D6FF03AA
:10297400F6FF03D6FF0036FF0036FF0036FF0416CD
:10298400FF03D6FF0036FF0036FF0036FF02F6FFD6
:102994000316FF0516FF0036FF0036FF0216FF027E
:1029A40036FF0036FF0036FF0036FF02F6FF03163F
:1029B400FF0516FF0036FF00366D3B2F7320200005
:1029C4006D3B2F6D696E00FF0456FF0076FF05F620
:1029D400FF0616FF0036FF02F6FF0316FF0516FF7B
:1029E4000036FF0036FF0636FF0656FF0456FF008A
:1029F40076FF0036FF0676FF0656FF0456FF007684
:102A0400FF0036FF0436FF0096FF0036FF0036FF56
:102A14000036FF02F6FF0316FF0516FF0036FF001F
:102A2400364F464620004F4E202000FF0076FF021E
:102A3400D6FF0036FF0036FF0036FF02F6FF03160E
:102A4400FF0516FF0036FF00366D3B2F7320200074
:102A54006D3B2F6D696E004F4B202020004E4F20A0
:072A640020200065727200E2
:1045F2004100DA004100DB004400DC00000000441E
:0E46020000E0000000004100E4004100E5007F
:1014AC007FCD7ECC7DCC900001E0F8A3E0F9A3E0E9
:1014BC00FAA3E0FB120BDD900001E0F8A3E0F9A326
:1014CC00E0FAA3E0FB120DD7900082E0F8A3E0F95C
:1014DC00A3E0FAA3E0FB120CCE9000821212987DCE
:1014EC00A0900082E4FFFE7C41E0F8A3E0F9A3E0C9
:1014FC00FAA3E0FB227B667AA679CA784290001A9E
:10150C00E0FCA3E0FDA3E0FEA3E0FF22CFF0A3EFFD
:10151C00F09000617440F0C2007B80E4FDFF221269
:10152C000CCE120F30900005EEF0A3EFF090001AE5
:10153C007401F0E4FB22120CCEE4FBFA79487843F8
:10154C00120BDDA804A905AA06AB077F007E247D3B
:10155C00F47C48120DD7A804A905AA06AB0722E40F
:10156C0090007AF0A3F02290009BE0FCA3E0FDE455
:10157C00020EF7900001121298E4FFFE7D207C41D0
:10158C0022900016E0FEA3E0FF7C000211339000D5
:10159C0014E0FBA3E0FAA3E0F922D39000A3E094BB
:1015AC00059000A2E09400227D017BFF7E007F0F5E
:1015BC00021081120F309000177405F0A3227D39B0
:1015CC0090008FE0FEA3E0FF7C00021133125193D8
:1015DC00AC00AD01AE02AF0322120CCE7B007A4000
:1015EC00791C7846020DD77F007E807D927C430269
:1015FC000DD7120CCE020F30240475F008A4FFA3F3
:10160C00E025E0FD2290008DE004F022E4FFFE7D59
:10161C00487C44120DD7900008227C277D10900046
:10162C0016E0FEA3E0FF0211337F807E017D807CFB
:10163C0047120BD979807843E4FBFA020DD7E4FA10
:10164C00F9F8125193EF2430227F007E807D887C44
:10165C004390002222900001EEF0A3EFF0227420C0
:10166C002FF582E43400F58322EFF0A3EDF0A3EB29
:10167C00F0A3EAF0A3E9F0227E00CFCDCFCECCCE02
:10168C00121133EF243022E4FFFE7DC87C4222E4A9
:10169C00FFFE7D707C42900016229000A2E0FEA31B
:1016AC00E0FF7C007D0A121133ED4C22900001EE1C
:1016BC00F0A3EFF022E0FEA3E0FF90000B7401F02A
:1016CC00A322120BDD90009E22E014F0E0C3648094
:1016DC0094802212120E7B667AA679CA7842020D89
:1016EC00D712120E7B007A8079887843020BDD7D4D
:1016FC00017BFF7E00021081900001EEF0A3EFF061
:10170C002279C87842E4FBFA020DD77A0079047B7F
:10171C0001E4FD7F0722900080F0A3EFF0229000FF
:10172C007BE0948490007AE0940322900090E09403
:10173C000A90008FE0940022120BDD9000A8121288
:10174C00989000A422120BDD9000A4121298900025
:10175C0093227BFF7D017F06227B007AE179F5786D
:10176C0005900013221212987F6F7E127D837C3AB3
:10177C00227FCD7ECC7DCC7C3D900082227F0A7E68
:10178C00D77D237C3C90006D227FA47E707D7D7C78
:10179C003F900082227FAE7E477D817C3F9000820D
:1017AC002274192FF58274003EF58322C3ED941434
:1017BC00EC9400229000D9E0D36480948A227BFFC1
:0517CC00E4FD7F042292
:10530A00D3EF9400EE6480948040147D647C00EDB9
:0F531A001D70011CED4C70F7EF1F70E41E80E159
:015329002261
:1051D7001252C5EF60259000D9E004F0E0D3648057
:1051E70094944003740BF01217C040067F017E00B1
:1051F70080047F2C7E0112530A8005E49000D9F0C9
:105207001217C040067F0A7E0080047FE87E0312E3
:02521700530A38
:015219002272
:10543700D312172A4008E490008DF07F01227F00E5
:015447002242
:0E369500900016EEF0A3EFF0A3EDF0A3EBF023
:1036A30078207C007A2779C47F061216FBE4FB128C
:1036B3001626EF243090001BF01216267E037FE8B7
:1036C30012168690001CF07C037DE812162A7F6494
:1036D30012168490001DF07D6412158D7F0A121658
:1036E3008490001EF07D0A12158DED243090001F8A
:1036F300F0900018E0FF3395E0FEC374059FFFE4EC
:103703009EFE74202FF58274003EF583742EF0E440
:10371300FF12166AE07012741B2BF582E43400F575
:1037230083E0FE12166AEEF00B0FEFB406E3E4FF3C
:10373300900018E0FEC374049EC36480F8EF6480B5
:1037430098501012166AE0B4300912166A7420F009
:103753000F80DDD3EE64809480900019E075F0084B
:10376300401E123794121604900024E0FBC200128C
:103773004AD6900019E02405121606900025800908
:10378300123794121604900024E0FBC200124AD6AA
:1037930022A4FFA3E025E0FD900020E0FBC200127D
:1037A3004AD6900019E00475F008A4FFA3E025E0D1
:1037B300FD900021E0FBC200124AD6900019E024DC
:1037C3000275F008A4FFA3E025E0FD900022E0FBD2
:1037D300C200124AD6900019E0240375F008A4FF32
:1037E300A3E025E0FD900023E0FBC200124AD6903F
:0437F3000019E022B7
:06525A0090005E121675C3
:10526000E4A3F090006012159D1210A7FB6024903B
:105270000063E0FF90005EE02F121606C200124AA3
:10528000D6900063E004F0900061E475F001121123
:03529000BE80D00D
:0152930022F8
:064FA30090005E1216757D
:104FA900E4A3F0F0900063E0FFC39405503FEFC421
:104FB90054F0FF90005EE075F008A42F12160A90D5
:104FC90000677410F090006012159D1212EF9000A6
:104FD9006812167BC2007B10124A33900061E47597
:0D4FE900F0031211BE900063E004F080B7E9
:014FF6002298
:062E7200900013121298FB
:102E780078197C007A2779CA7F091216FB7FFF7EB2
:102E8800C97D9A7C3B9000131214F5D31211F840B7
:102E98000A9000131212A43B9AC9FF121765121563
:102EA8000C12164E900019F012176512150C121517
:102EB800D97B807A967998780012164E90001AF08D
:102EC8007B807A967998780090001312150C121569
:102ED800D97B407A42790F780012164E90001BF089
:102EE8007B407A42790F780090001312150C121566
:102EF800D97BA07A867901780012164E90001CF0D2
:102F08007BA07A867901780090001312150C1215AF
:102F1800D9E47B107A2712164C90001DF0E47B1040
:102F28007A27F9F890001312150C1215D9E47BE8EA
:102F38007A0312164C90001EF0E47BE87A03F9F845
:102F480090001312150C1215D97B6412164A9000C2
:102F58001FF0E47B64FAF9F890001312150C1215AF
:102F6800D97B0A12164A900020F0E47B0AFAF9F895
:102F780090001312150C125193EB2430900021F09D
:102F8800E4A3F0900022E0FFC364809488501AEF15
:102F98003395E0FE1217ADE0B4300E1217AD742071
:102FA800F0900022E004F080DAE4900022F0900033
:102FB80022E0FE900017E02E121606EEFB3395E095
:102FC800FA74192BF58274003AF583E0FBC20012FB
:102FD8004AD6900022E004F0E0C36480948940CE91
:012FE80022C6
:0638000090001412167B7B
:103806009000251212A40000000090001A12150C58
:103816009000211217719000211214F5120E7450A7
:103826000A9000211212A40000000090001E12153A
:103836009D12400090001712159D12122E12396C1F
:1038460090002512129890009DE0600201D690002B
:103856007DE090008BB4010E1215769000251214AF
:10386600F51215E501B61215769000251214F5121B
:1038760015E5C004C005C006C00790001712159DC7
:103886001216DFD003D002D001D000120CCEC00435
:10389600C005C006C00790001E12159D1216ED1237
:1038A60015621215F3D003D002D001D000120CCE4F
:1038B60012159A12122E90008012157612159A126F
:1038C6001278120E7460025002216B900080216201
:1038D60090007DE090008BB40115121576900025BE
:1038E6001214F51215E5E4FBFA79707842214612B6
:1038F60015769000251214F51215E5E4FBFA797099
:103906007842120CCEC004C005C006C0079000174E
:1039160012159D1216DFD003D002D001D000120C72
:10392600CEC004C005C006C00790001E12159D1229
:1039360016ED1215621215F3D003D002D001D00095
:10394600120CCE12159A12122E12157312159A1205
:103956001278120E74600E400C90009B12157612AF
:05396600159A12122E5B
:01396B002239
:102A6B00C3121737501B9000DBE07015900073E01A
:102A7B00FF6003B402031220009000DB7401F080AE
:102A8B000BD31217374005E49000DBF01215CA1276
:102A9B0017B8400281749000DAE06002817404F090
:102AAB001247A690001E12177190001E1214F512F9
:102ABB000E74500A90001E1212A4000000007B013D
:102ACB007A00792212400090001A12129812396C77
:102ADB00C004C005C006C00790008B121576D0034A
:102AEB00D002D001D0001215E5900016121298906A
:102AFB00009DE09000A86002618B12150C900016EF
:102B0B001214F51217441214F5C000C001C002C014
:102B1B00031216551214F5120BDD1215621215F372
:102B2B00C004C005C006C007121501120DD79000D6
:102B3B00161214F5120CCED003D002D001D0001215
:102B4B000CCED003D002D001D0001217511214F5C5
:102B5B00C000C001C002C0031216551214F5120BAF
:102B6B00DD1215621215F3C004C005C006C00712B2
:102B7B001501120DD79000161214F5120CCE8148C8
:102B8B001214F5C000C001C002C00312169B121430
:102B9B00F5120CCED003D002D001D0001217441284
:102BAB0014F5C000C001C002C003121501120DD7ED
:102BBB00C004C005C006C00712169B1214F5120CF8
:102BCB00CED003D002D001D000120CCEC004C00571
:102BDB00C006C0071216551214F5120BDD12156242
:102BEB001215F3D003D002D001D000120CCED003BB
:102BFB00D002D001D0001217511214F5C000C00141
:102C0B00C002C003121501120DD7C004C005C006C7
:102C1B00C00712169B1214F5120CCED003D002D0A3
:102C2B0001D000120CCEC004C005C006C00712169E
:102C3B00551214F5120BDD1215621215F3D003D0D9
:102C4B0002D001D000120CCE90001E1214F5120C03
:102C5B00CE79C87842121644D003D002D001D000EE
:102C6B00120BDD9000930212981215CAD31217B9EA
:072C7B004005E49000DAF0CF
:012C8200222F
:104CAC00E4900002124D2FEEF0A3EFF07BFF7A2779
:104CBC0079D3E4FDFF124FA37A2779E212175E1223
:104CCC00525A900000E0FEA3E0FF121539FD123697
:104CDC0095900073E0FF6003B40203122A6B12522A
:104CEC00C5EFB4010C12156B1216111253FC7F0098
:104CFC0022900002E070161215A65011900002745A
:104D0C0001124D2F121534FD123695800A1215A67C
:104D1C004005E4900002F01251D7125437EF60B105
:024D2C007F0006
:0C4D2E0022F012441C120F3090000022F2
:101F280090008BE0FEA3E0FF121661A3EEF0A3EF92
:101F3800F0121FDC121539FD123695900073E0FF80
:101F48006003B40203122A6B1252C5900000EFF02E
:101F5800BF010C12156B1216111253FC7F00229050
:101F680000011216C17427F0A37410F0E4FBFD12EF
:101F78004B79121661900000E06402704912156CEA
:101F8800900001E0FFA3E090008B121518124C148A
:101F98007BFF7A2779F77D0A12410EEF70159000C2
:101FA80003E0FEA3E0FF90008BEEF0A3EFF0121623
:101FB80061800312200012151D124C14121FDC122E
:101FC8001539FD1236951251D7125437EF7002E1C8
:031FD800437F0044
:101FDB00227BFF7A2779E5E4FDFF124FA37BFF7A83
:101FEB002879067D017F0512525A900001E0FEA36D
:031FFB00E0FF22E2
:1048000078037C007A28790A1215B478127C007A31
:104810002879191215B490007DE07B01B401067A65
:1048200000790380047A007912E4FDFF124FA3900F
:10483000009DE07BFF70097A287957FD7F0C800886
:104840007A28795CE4FD7F0A12525A7A2879551247
:1048500017CA12525A7A2879287D011248BC7D0164
:104860001248AE7A2879637D017F0D12525A7A2858
:1048700079377D021248BC7D021248AE7A287967EA
:104880007D027F0F12525A7BFF7A2879467D03E41E
:10489000FF124FA37BFF7A2879557D037F041252C4
:0E48A0005A7BFF7A2879697D037F0E02525AF7
:1048AE007BFF7A2879557F0412525A7BFF227BFFB9
:0648BE00E4FF124FA322EB
:0524FC00900003EFF069
:102501001247A690000C1212989000177401F0A3C4
:102511007400F0A37404F090000C12150C90001AD2
:1025210012129890001E7401F0A37400F0A37410AD
:10253100F07B017A0079081238007D20900010129A
:1025410014F01215FE90001A7403F07B087D01123D
:102551003695E4FFFE7D807C3F9000041214F51255
:102561000E74500D7D011227B8C2DEC2AED2B78003
:10257100251215859000041214F51215FE90001A0B
:102581007401F07B07FD123695D2DED2AE900004C5
:1025910012150C125060E4FFFEFDFC90000C1214A9
:1025A100F5120E74402E7F837E007DC87C42900020
:1025B1000C1214F5120E74501B12158590000C129A
:1025C10014F51215FE90001A7402F07B097D0112B8
:1025D100369580057D021227B8900003E0701B90AC
:1025E10000E4E004F09000DC12150C9000081214D5
:1025F100F5120BDD9000DC1212989000E4E0640A01
:10260100600A900003E064016002E1B7900003E01A
:10261100B4010E9000E012150C900008121298807F
:102621002DE49000E4F0FBFA792078419000DC126F
:10263100150C12161F12129890000812150C90001A
:10264100E01212989000DC1212A400000000900029
:10265100E5E004F0E06404600A900003E0640160D6
:1026610002E1B7E4900003F09000E5F090009DE0F6
:102671006002C1FC1216949000081214F51215FEA6
:10268100E490001AF07B067D0212369590008012CC
:1026910015761215621216181214F5121542121639
:1026A10035120F30900078EFF090008012157612FD
:1026B10015621216181214F5120CCEE4FBFA7948C1
:1026C1007843120BDD120F30AB07AA06EA3395E00F
:1026D100F9F87F207EA17D077C00125193C374031A
:1026E1009FFFE49EFE74019DFDE49CFCE4FB7A01E6
:1026F100F9F8125193900079EBF0221215739000C2
:10270100081214F5120E74600B4009121573900033
:10271100081212981216939000081214F5120E74F2
:1027210050171216939000081214F51215FEE4903A
:10273100001AF07B047D0280347F9A7EF97D797CDA
:10274100449000081214F5120E74600C400A9000B7
:10275100081212A44479F99A1215859000081214EE
:10276100F51215FEE490001AF07B047D01123695F6
:102771007A2879741217CA12525A121573121562F5
:102781001216181214F5121542121635120F309046
:102791000078EFF01215731215621216181214F563
:1027A1001215427F807E017D807C47120BD9120F6A
:0627B10030900079EFF00A
:0D27B700227BFF7A28796C7F0512525A228E
:1042180078137C007D017BFF7A2879761215B878AF
:10422800227C007D017BFF7A2879851215B87831C8
:104238007C007D017BFF7A2879941215B878407C40
:10424800007D017BFF7A2879A31215B8784F7C008E
:104258007D017BFF7A2879B21215B812151D124C10
:10426800147B017A007913E4FDFF124FA37BFF7AD8
:104278002879CEE4FD7F0412525A900073E0B4010D
:10428800097BFF7A2879C1E4800C900073E0700EF6
:104298007BFF7A2879C6FD7F0712525A800A7A0076
:1042A800794F12171B124FA37A0079227D0112430E
:1042B800137D011243017D017F0412525A7A00795D
:1042C800317D021243137D021243017D027F0412E5
:1042D800525A7B017A0079407D03E4FF124FA37B99
:1042E800FF7A2879CB7D037F0E12525A7BFF7A28FA
:0942F80079CE7D037F0402525AC5
:104301007BFF7A2879CB7F0E12525A7BFF7A28796C
:0A431100CE227B01E4FF124FA3222D
:103F1200E4900000F0A304F0A3F01248007F01E156
:103F22008B900073E0FF6003B40203122A6B1252FB
:103F3200C5EFB4011AC312172A90008D4005740F01
:103F4200F08003E004F012156B1253FC7F00227D17
:103F52001E1215CC1217B8503C900001E0B4010EAD
:103F620012151D124C141248007F011224FCE49019
:103F72000001F0A304F0900000E070121215A650A8
:103F82000D9000007401F0E4FF1224FCE1231215ED
:103F9200A6408EE1F7900002E0B4010912151D124D
:103FA2004C141242189000017401F0E4A3F0900046
:103FB20000E0703A1215A650359000007401F0909E
:103FC20000A812150C1215BF7401F0122E72900087
:103FD200A412150C1215BF7402F0122E72900093E7
:103FE20012150C1215BF7403F0122E72E123121572
:0C3FF200A65002E123E4900000F0E1235F
:104DC6007BFF7A2879D0E4FDFF124FA37A2879DF9A
:104DD60012175E12525A12396C9000001215829008
:104DE60000001214F51215FE9000041215347D0110
:104DF600123695900073E0FF6003B40203122A6B2B
:104E06001252C5EFB4010C12156B1216111253FC97
:104E16007F00221216A6701D12396C900000121522
:104E2600829000001214F51215FE9000041215343B
:104E36007D011236951251D7125437EF60B57F00B7
:014E46002249
:10300000E4900006F0A3F090000A1212A400000061
:103010000012319D1215829000021214F51215FE55
:1030200090000E1215347D01123695900073E0FF6A
:103030006003B40203122A6B1252C5900001EFF034
:10304000BF010C12156B1216111253FC7F00229057
:103050000001E064026002216D12156C1253FC1233
:10306000151D124C147BFF7A2879F27D0A12410E4D
:10307000EF64016002214D900000F0900000E0C379
:10308000648094854002210C9000587401F0A37470
:1030900000F0A37408F07B017A007906124EBDEFB0
:1030A0007061900000E004F0D3900007E094669017
:1030B0000006E06480948650077406F0A37466F0FE
:1030C000C3900007E0949A900006E0648094B940B1
:1030D000077439F0A3749AF090000A1214F5C00036
:1030E000C001C002C003900006E0FCA3E0FDEC12AA
:1030F0000EF7D003D002D001D000120BDD90000AF1
:103100001212987FF47E0112530A017B90000A127A
:10311000150C79A0784012171190000A1212987FAE
:103120007B7EC27D9E7C3D90000A1214F5120CCE6F
:103130007B007AC0791E78C41216CE1212989000C5
:103140009E12150C90006D12129812200012151D7F
:10315000124C1412319D1215829000021214F512B5
:1031600015FE90000E1215347D011236951216A62A
:10317000701D12396C900002121582900002121418
:10318000F51215FE90000E1215347D0112369512BF
:0C31900051D7125437EF7002012B7F0062
:10319C00227BFF7A2879E3E4FDFF124FA37BFF7AB1
:1031AC002979017D017F0612525A12396C90000266
:0131BC0022F0
:10336E0090008212150C9000071212981234EE7B08
:10337E00FF7A2979237D017F0612525A12396C1277
:10338E00157F9000011214F512152B7D0112369542
:10339E00900073E0FF6003B40203122A6B1252C551
:1033AE00900000EFF0BF011812156B12161190006D
:1033BE000712150C9000821212981253FC7F0022F5
:1033CE00900000E06404704512156C1234FB7C3DD5
:1033DE001214AC120E74400A9000821212A441A074
:1033EE00000012177D1214F5120E746002500A902E
:1033FE0000821212A43DCCCCCD12396C12157F90E6
:10340E0000011214F512152B7D0112369590000055
:10341E00E06405704512156C1234FB7CBD1214ACC1
:10342E00120E74400A9000821212A441A0000012E3
:10343E00177D1214F5120E746002500A900082125B
:10344E0012A43DCCCCCD12396C12157F9000011216
:10345E0014F512152B7D01123695900000E06402D2
:10346E00705090007AF0A312151C124C147BFF7A48
:10347E002979147D0A12410EEF700B900007121578
:10348E000C900082800C12200090008212150C907D
:10349E00000712129812151D124C141234EE123926
:1034AE006C12157F9000011214F512152B7D01126E
:1034BE0036959000A2E07004A3E0640170141239F6
:1034CE006C12157F9000011214F512152B7D01124E
:0F34DE0036951251D7125437EF7002619E7F005E
:1034ED00227BFF7A297905E4FDFF124FA3221239C1
:0834FD006C90000112129822EC
:104510001216939000861214F51215FE12170490CD
:10452000008612150C9000031212981245DD121528
:10453000397D02123695900073E0FF6003B40203E8
:10454000122A6B1252C5900000EFF0BF010C121539
:104550006B1216111253FC7F00229000011216C13B
:10456000E4F0A374C8F0E4FB7D02124B7912170447
:10457000900000E06402705712156C900001121553
:104580007612170D90008612129812151D124C14F7
:104590007BFF7A2979367D0A12410EEF701D90005B
:1045A0000312150C90008612129812169390008632
:1045B0001214F51215FE12170480031220001215B2
:1045C0001D124C141245DD1215397D02123695125A
:0C45D00051D7125437EF7002A1367F0063
:1045DC00227BFF7A297927E4FDFF124FA39000017B
:0645EC00E0FEA3E0FF2247
:1048C4009000AEE0900001F0A3F012497A9000AE9F
:1048D400E0FF7E00121539FD123695900073E0FF5B
:1048E4006003B40203122A6B1252C5900000EFF069
:1048F400BF010C12156B1216111253FC7F0022908B
:104904000001E0FF7E001216C6E4F0A37413F0E485
:10491400FBFD124B79900001EFF0900000E064027F
:10492400704612156C900001E09000AE12151C1236
:104934004C147BFF7A2979547D0A12410EEF700ED4
:10494400900002E09000AEF0900001F0800312208D
:104954000012151D124C1412497A900001E0FF7EDA
:1049640000121539FD1236951251D7125437EF70D3
:054974000201DF7F00DD
:0E497900227BFF7A297945E4FDFF124FA3222D
:1035050090008212150C90000112129890009E12E4
:10351500150C90000512129812367D1214F512162C
:10352500CE1214F5120E746033403112178912143D
:10353500F51216CE1214F5120E74502012179512AC
:1035450014F5120E74601540131217A11214F5121A
:103555000E7450087BFF7A29797280067BFF7A29E1
:1035650079817D01E4FF124FA3900073E0FF6003B2
:10357500B40203122A6B1252C5900000EFF0BF018E
:103585000C12156B1216111253FC7F0022900000CD
:10359500E064026002C16F7FE17E6F1254589000B3
:1035A50009EFF07FE27E6F125458AD07900009E0F5
:1035B50075F064A47C002DFDEC35F0FCE4120EF7EB
:1035C50012170D90006D12129812156B9000821251
:1035D50012A43F80000090006D12150C90009E1201
:1035E500129812151D124C147BFF7A2979907D0AC9
:1035F50012410EEF701A90000112150C9000821204
:10360500129890000512150C90009E1212988003D6
:1036150012200012151D124C1412367D1214F512CB
:1036250016CE1214F5120E7460334031121789123A
:1036350014F51216CE1214F5120E745020121795A9
:103645001214F5120E74601540131217A11214F519
:10365500120E7450087BFF7A29797280067BFF7AF7
:103665002979817D01E4FF124FA31251D7125437F6
:07367500EF7002A16E7F005F
:10367C00227BFF7A297963E4FDFF124FA37F0A7E38
:09368C00D77D237CBC90006D2267
:103CDC0090009DE0900001F0A3F0123DDCB40106D1
:103CEC007A2979C480047A2979BD123DEF9000734A
:103CFC00E0FF6003B40203122A6B1252C59000005D
:103D0C00EFF0BF010C12156B1216111253FC7F0051
:103D1C0022900000E06404702512156C900001E004
:103D2C0004F0E0B40202E4F0900001E07BFFB40187
:103D3C00067A2979C480047A2979BD123DEF900066
:103D4C0000E06405702812156C9000011216D55015
:103D5C00037401F0900001E07BFFB401067A29792D
:103D6C00C480047A2979BD7D017F0312525A9000D8
:103D7C0000E06402704C12156C900001E090009D04
:103D8C0012151C124C147BFF7A2979AE7D0A124154
:103D9C000EEF700E900002E090009DF0900001F08C
:103DAC00800312200012151D124C14123DDCB401BC
:103DBC00067A2979C480047A2979BD7D017F0312A2
:0F3DCC00525A1251D7125437EF700281F97F000B
:103DDB00227BFF7A29799FE4FDFF124FA39000010C
:0C3DEB00E07BFF227D017F0312525A2270
:103DF70090007DE0900001F0A3F0123EF7B40106B9
:103E07007A2979E980047A2979F8123F0A900073B0
:103E1700E0FF6003B40203122A6B1252C590000040
:103E2700EFF0BF010C12156B1216111253FC7F0035
:103E370022900000E06404702512156C900001E0E8
:103E470004F0E0B40202E4F0900001E07BFFB4016B
:103E5700067A2979E980047A2979F8123F0A9000CD
:103E670000E06405702812156C9000011216D550F9
:103E7700037401F0900001E07BFFB401067A297911
:103E8700E980047A2979F87D01E4FF124FA39000B5
:103E970000E06402704C12156C900001E090007D08
:103EA70012151C124C147BFF7A2979DA7D0A12410C
:103EB7000EEF700E900002E090007DF0900001F090
:103EC700800312200012151D124C14123EF7B40184
:103ED700067A2979E980047A2979F87D01E4FF12C5
:0F3EE7004FA31251D7125437EF7002C1147F004E
:103EF600227BFF7A2979CBE4FDFF124FA3900001C4
:0C3F0600E07BFF227D01E4FF124FA322AC
:1031BD00E4900003F078047C007D017BFF7A2A798E
:1031CD0007FE7F0F121081900073E0900001F0A3B5
:1031DD00F0124218900001E0FF6003B40203122ABE
:1031ED006B900003E0702E1215A650299000037409
:1031FD0001F09000A812150C1215BF12335A1215BA
:10320D000C1215BF12336412150C1215BF7403F096
:10321D00122E72800A1215A64005E4900003F012DA
:10322D0052C5900000EFF0BF010C12156B12161174
:10323D001253FC7F0022900000E0640470391215D7
:10324D006C900001E004F0E0B40302E4F0900001A2
:10325D00E0B401097BFF7A2A7925E4800C90000106
:10326D00E0700E7BFF7A2A792AFD7F0712525A8071
:10327D0006121717124FA3900000E0640570381264
:10328D00156C9000011216D550037402F0900001D8
:10329D00E0B401097BFF7A2A7925E4800C900001C6
:1032AD00E0700E7BFF7A2A792AFD7F0712525A8031
:1032BD0006121717124FA3900000E064026002611E
:1032CD004C12156C900001E090007312151C124CFD
:1032DD00147BFF7A2A79167D0A12410EEF700E903B
:1032ED000002E0900073F0900001F0802890000142
:1032FD00E0B4021E9000A81212A40000000090007D
:10330D00A41212A4000000009000931212A4000059
:10331D00000012200012151D124C141242189000BC
:10332D00A812150C1215BF12335A12150C1215BF17
:10333D0012336412150C1215BF7403F0122E721293
:0C334D0051D7125437EF700221E17F00CD
:10335900227401F0122E729000A4227402F0122E2F
:053369007290009322A8
:102C8300900080E0FEA3E0FF1216B8900005EEF07E
:102C9300A3EFF090009BE0FEA3E0FF900003EEF0B3
:102CA300A3EFF0900007EEF0A3EFF0122E507008A0
:102CB300122E449000018003122E63E0FEA3E0FF76
:102CC300121539FD123695900073E0FF6003B402CC
:102CD30003122A6B1252C5900000EFF0BF010C12D1
:102CE300156B1216111253FC7F0022900000E06452
:102CF30004706212156C90009DE07028900002E051
:102D030004F07006900001E004F0D3900002E09418
:102D13000A900001E094004006E4F0A3740AF090E6
:102D230000018025900004E02405F0900003E034C6
:102D330000F0D3A3E094E8900003E0940340077409
:102D430003F0A374E8F0900003E0FEA3E0FF121584
:102D530039FD123695900000E06405705612156C2B
:102D630090009DE07021900002E024FFF0900001AC
:102D7300E034FFF0E07002A3E07007900001F0A3DD
:102D830004F09000018020900004E024FBF0900008
:102D930003E034FFF0E07002A3E07008900003F05A
:102DA300A37405F0900003E0FEA3E0FF121539FDC4
:102DB300123695900000E06402707812156C900052
:102DC30001E0FFA3E0CF121722900003E0FFA3E08E
:102DD30090009B121518124C147BFF7A2A793E7DC2
:102DE3000A12410EEF7027900005E0FEA3E0FFEE0C
:102DF300121722900007E0FCA3E0FD90009BECF08B
:102E0300A3EDF01216B8A3ECF0A3EDF080031220AB
:102E13000012151D124C14122E507008122E4490DD
:102E230000018003122E63E0FEA3E0FF121539FDBB
:102E33001236951251D7125437EF700281CA7F00B0
:102E4300227A2A794D7D017F0512525A227BFF7A1D
:102E53002A792FE4FDFF124FA390009DE07BFF2210
:0F2E63007A2A79547D017F0512525A900003227A
:05410E00900013EDF02C
:10411300E4900015F0FDFF124FA3900015E0FF7E21
:1041230000121539FD1236951253FC900073E0FF0F
:104133006003B40203122A6B1252C5900014EFF00D
:10414300BF041412156B900015E004F0E0FF7E002D
:10415300121539FD123695900014E0B405141215AA
:104163006B900015E014F0E0FF7E00121539FD128C
:104173003695900014E06402706C1253FC12156BB8
:10418300900013E0FF900015E0B5070F7A2A795BE2
:1041930012420790008D7401F0FF227A2A7961128E
:1041A3004207900015E0FF7E00121539FD12369587
:1041B30090008DE0640D702E90008AE004F0E0B46E
:1041C30005037404F012200090008AE0C3940340B6
:1041D3001512151D124C147BFF7A2A79677D017F16
:1041E3000612525A80FE900014E0B4010912156BB6
:1041F3001253FC7F00221251D7125437EF70022161
:034203002E7F000B
:10420600227BFF7D01E4FF12525A7FE87E031253A0
:024216000A227A
:1046100041008D0042007A03844100AE0541007CD8
:104620000041008A0041008E0042008B00324100B0
:104630009D0141007D00410073004400A80000007E
:104640000044009E0000000044006D000000004493
:1046500000823F800000420080000142009B006415
:1046600042007800004400863F8000004200AC0019
:1046700000420099000041007101410072004200B7
:0F4680008F0000420097000044009300000000EC
:10541200E4900097F0A3F02290007AF0A3F09000BD
:0354220008E0227D
:1052C500E4FF3080051254137F0430810512541217
:1052D5007F0530B3051254127F0230B40512541203
:0252E5007F0147
:0152E70022A4
:104B7900900007EEF0A3EFF0A3EDF0A3EBF01252D3
:104B8900C5EF6404702912541A04F07006900007E6
:104B9900E004F090000CE0FEA3E0FFD3900008E0F1
:104BA9009F900007E09E4004E4F0A3F0124BFC1232
:104BB90052C5EF6405703312541A24FFF0900007B0
:104BC900E034FFF0E0FEA3E0FFE4FCFD7BFF7AFFA9
:104BD900F9F8C31211F8700F90000CE0FFA3E090F0
:104BE9000007CFF0A3EFF0124BFC900007E0FEA303
:104BF900E0FF22900007E0FEA3E0FFA3E0FDA3E0B1
:0B4C0900FBA3E090001AF01236952289
:1053FC0020800920B40620B303308109E490007AA0
:06540C00F0A3F080EB228A
:104E4700900002E0FBA3E0FAA3E0F922FDEE3CFCB0
:104E5700120EF779C87842E4FBFA020DD7900003E7
:104E6700EF1210FF9000027401F0A322900001EFEF
:104E77000210FF900002EF0210FF90008BFFEE3C44
:104E8700F0A3EFF0229000010210C0900002021080
:104E9700C09000030210C0900086E0FCA3E0FDA3D1
:104EA700E0FEA3E0FF229000860212987400F0A3B0
:064EB70074A8F07FEE225A
:101800007E6C121E647FF17E6C125458900001EFC2
:10181000F0900000E0640A60022179A3E0640A60AD
:101820000221797E6F121E6F7FFA121D9F124E8168
:101830007E6F121F127E6F121E647FF1121D9F12A7
:101840004E5390009E1212987E6F121EA97E6F1248
:101850001DC3124E5390006D1212987E6F121EB46B
:101860007E6F121DF8FDEE3CFC120EF7797A78447B
:10187000124E5E9000821212987E6F121EE37E6FEF
:10188000121E1C124E53124EAD7E6F121F1D7E6F24
:10189000121EF9EFF07E6F121EEE7E6F121E409048
:1018A000009B124E847F007E6A12545890007CEF99
:1018B000F07E6F121F057E6F125458900073EFF088
:1018C0007F017E6A12545890008EEFF0124E6B1218
:1018D0004EB3121DE7EF1210ED7FED121DE7124E11
:1018E000737FEC7E6F125458124E47124E7A7FEB84
:1018F0007E6F125458124E47124E647400F0A37457
:10190000A4F07FE57E6F125458124E47EF1210ED8F
:101910007FE67E6F125458124E47124E737FE77E59
:101920006F125458124E47124E7A7FE87E6F12544F
:1019300058124E47124E647400F0A37493F07FD196
:101940007E6F125458124E47EF1210ED7FD27E6F09
:10195000125458124E47124E737FD37E6F12545852
:10196000124E47124E7A7FD47E6F125458124E4751
:10197000900003EF1210FF410E90008B7427F0A32C
:101980007410F0E49000AEF090009E1212A40000DB
:10199000000090006D1212A441100000900082120D
:1019A00012A43F8000009000861212A43F80000025
:1019B00090009D7401F0900080E4F0A304F090008A
:1019C0009BE4F0A37464F0E490007CF090008EF04F
:1019D00090008AF090007DF09000A81212A4000000
:1019E00000009000A41212A40000000090009312C6
:1019F00012A400000000E4900073F0C2AF7FF07EFC
:101A00006F1254917F017E6A121BBB121E7A9000E6
:101A10008BE0F47003A3E0F4600261B89000AEE0E4
:101A2000F4600261B890009DE0FF3395E0FEEFF4B2
:101A30004E600261B8900080E0F47003A3E0F460AF
:101A40000261B890009BE0F47003A3E0F4600261CF
:101A5000B890007CE0F4600261B87E68121E6F7F6F
:101A6000FA121EBF124E817E68121F127FF07E682E
:101A7000125458900000EFF07FF1121EBF124E5327
:101A800090009E1212987E68121EA97E68121DC3D5
:101A9000124E5390006D1212987E68121EB47E682A
:101AA000121DF8FDEE3CFC120EF7E4FBFA797A7891
:101AB00044120DD79000821212987E68121EE37EA7
:101AC00068121E1C124E53124EAD7E68121F1D7EF0
:101AD00068121EF9EFF07E68121EEE7E68121E403C
:101AE000FFEE3C90009BF0A3EFF07E68121F057E96
:101AF00068125458900073EFF0124E6B124EB37E82
:101B000068125458124E47EF1210ED7FED7E6812A6
:101B10005458124E47124E737FEC7E68125458127E
:101B20004E47124E7A7FEB7E68125458124E47127F
:101B30004E647400F0A374A4F07FE67E68125458DB
:101B4000124E47EF1210ED7FE77E68125458124E86
:101B500047124E737FE87E68125458124E47124E59
:101B60007A7FE97E68125458124E47124E64740010
:101B7000F0A37493F07FE57E68125458124E47EF3D
:101B80001210ED7FE47E68125458124E47124E73C5
:101B90007FE37E68125458124E47124E7A7FE07EE1
:101BA00068125458124E47900003EF1210FF7FF056
:0A1BB0007E6F121BBB121E7AD2AF2B
:101BBA00221254917F017E6A1254917D007C6AE45C
:101BCA00FF1253CE7D017C6AE4FF1253CE7DF07C76
:101BDA006FE4FF1253CE7DF17C6FE4FF1253CE7D8A
:101BEA00E17C6F7F091253CE7DE27C6FE4FF1253D2
:101BFA00CE7DFB7C6F7F0A1253CE7DFC7C6FE4FFA7
:101C0A001253CE7DF27C6F7F011253CE7DF37C6F2F
:101C1A00E4FF1253CE9000AEE0FF7DF47C6F1253C6
:101C2A00CE7DF97C6F7F641253CE7DFA7C6FE4FF20
:101C3A001253CE900080A3E0FF7DF87C6F1253CE42
:101C4A007DF57C6F7F011253CE7DF67C6FE4FF1227
:101C5A0053CE7DF77C6FE4FF1253CE7DEF7C6FE4A9
:101C6A00FF1253CE7DEA7C6FE4FF1253CE7B017ADA
:101C7A000079A8900002EBF0A3EAF0A3E9F01210B1
:101C8A00A7FF7DEE7C6F1253CE900002E0FBA3E02B
:101C9A00FAA3E0F99000011210C0FF7DED7C6F12EB
:101CAA0053CE900002E0FBA3E0FAA3E0F990000211
:101CBA001210C0FF7DEC7C6F1253CE900002E0FB45
:101CCA00A3E0FAA3E0F99000031210C0FF7DEB7CB9
:101CDA006F1253CE7B017A0079A4900002EBF0A335
:101CEA00EAF0A3E9F01210A7FF7DE57C6F1253CE4C
:101CFA00900002E0FBA3E0FAA3E0F99000011210C1
:101D0A00C0FF7DE67C6F1253CE900002E0FBA3E099
:101D1A00FAA3E0F99000021210C0FF7DE77C6F126F
:101D2A0053CE900002E0FBA3E0FAA3E0F99000038F
:101D3A001210C0FF7DE87C6F1253CE7B017A0079C6
:101D4A0093900002EBF0A3EAF0A3E9F01210A7FFC8
:101D5A007DD17C6F1253CE900002E0FBA3E0FAA380
:101D6A00E0F99000011210C0FF7DD27C6F1253CEB1
:101D7A00900002E0FBA3E0FAA3E0F990000212103F
:101D8A00C0FF7DD37C6F1253CE900002E0FBA3E02C
:101D9A00FAA3E0F9227E6F125458900001EFF0FB8B
:101DAA00900000E0FF3395E0FE7C007D6412112173
:101DBA00EBFD3395E0FCEF2D227FE21254589000A0
:101DCA0001EFF0FB900000E0FF3395E0FE7C007D20
:101DDA0064121121EBFD3395E0FCEF2D227E6F1288
:101DEA005458900002E0FBA3E0FAA3E0F9227FFC3A
:101DFA00125458900001EFF0FB900000E0FF339579
:101E0A00E0FE7C007D64121121EBFD3395E0FCEFCE
:101E1A002D227FF3125458900001EFF0FB9000003E
:101E2A00E0FF3395E0FE7C007D64121121EBFD3367
:101E3A0095E0FCEF2D227FF6125458900001EFF046
:101E4A00FB900000E0FF3395E0FE7C007D641211F8
:101E5A0021EBFD3395E0FCEF2D227FF012545890D0
:101E6A000000EFF0227FF9125458900000EFF022A0
:101E7A009000031210C0FF7DD47C6F1253CE7FF006
:101E8A007E6C1254917FF17E6C1254917DF07C6CC1
:101E9A007F0A1253CE7DF17C6C7F0A1253CE227FC9
:101EAA00E1125458900000EFF0227FFB1254589030
:101EBA000000EFF0227E68125458900001EFF0FB08
:101ECA00900000E0FF3395E0FE7C007D6412112152
:101EDA00EBFD3395E0FCEF2D227FF212545890006F
:101EEA0000EFF0227FF5125458900000EFF0227FA5
:101EFA00F8125458900080E4F0A3227FEF1254584D
:101F0A0090007DEFF07FEA227FF41254589000AEE1
:0E1F1A00EFF0227FF712545890009DEFF02256
:10532A007F007E6A12549190007CE0FF7D007C6AC7
:0F533A001253CE90008EE0FF7D017C6A0253CEAD
:102000007E6F122457A3EDF07C6F1224077C6F12B1
:102010002382121188A3EDF07C6F1224317C6F12A1
:1020200021DB7DE11224EC1222567DFB1224EC12FE
:1020300022D17DF27C6F1253CE7C6F122412124E8D
:102040009E124E5A124EAD7C6F1224897C6F122361
:102050004C7DF57C6F1253CE7C6F1224947C6F12F2
:1020600024A97C6F1224BE7C6F1223DE7DEE122326
:10207000D4124E4A124E8C7DED1223D4124E4A12C7
:102080004E927C6F1223FD124E4A124E987C6F12B4
:10209000243C7C6F12247F124E4A124E8C7C6F12AD
:1020A000241D124E4A124E927C6F122427124E4A61
:1020B000124E987DE87C6F1224C97DD11224B4128F
:1020C0004E4A124E8C7DD21224B4124E4A124E92B7
:1020D000FF7DD37C6F1253CE900028124E4A124ED1
:1020E00098FF7DD47C6F1253CE90007CE06002217B
:1020F000DA7E68122457A3EDF07C681224077C680E
:10210000122382121188A3EDF07C681224317C68BE
:102110001221DB7DE11224F41222567DFB1224F4FD
:102120001222D17DF27C681253CE7C6812241212E6
:102130004E9E124E5A124EAD7C681224897C681253
:10214000234C7DF57C681253CE7C681224947C6805
:102150001224A97C681224BE7C681223DE7DEE1254
:10216000249F124E4A124E8C7DED12249F124E4A2D
:10217000124E927C681223FD124E4A124E987C68D1
:1021800012243C7C6812241D124E4A124E8C7C682C
:10219000122427124E4A124E927DE81224E2124E69
:1021A0004A124E987DE97C681224C97C6812247F0B
:1021B000124E4A124E8C7DE41224E2124E4A124E06
:1021C00092FF7DE37C681253CE900028124E4A1293
:0A21D0004E98FF7DE07C681253CEAC
:1021DA0022900027E0FF7DF11253CE90009EE0FC92
:1021EA00A3E0FDA3E0FEA3E0FFE4FBFA79C878428E
:1021FA00120DD790009E12129890006DE0FCA3E099
:10220A00FDA3E0FEA3E0FFE4FBFA79C87842120CD2
:10221A00CE90006D12129890006DE0FCA3E0FDA331
:10222A00E0FEA3E0FF120F30AB07AA067C007D6434
:10223A00121188900026EFF07C007D64AF03AE0295
:10224A00121188A3EDF0900026E0FF22900027E00B
:10225A00FF7DE21253CE90006DE0FCA3E0FDA3E007
:10226A00FEA3E0FFE4FBFA79C87842120DD790008A
:10227A006D121298900082E0FCA3E0FDA3E0FEA399
:10228A00E0FFE4FBFA797A7844120CCE90008212CD
:10229A001298900082E0FCA3E0FDA3E0FEA3E0FF19
:1022AA00120F30AB07AA067C007D641211889000D9
:1022BA0026EFF07C007D64AF03AE02121188A3ED15
:1022CA00F0900026E0FF22900027E0FF7DFC1253E9
:1022DA00CE900082E0FCA3E0FDA3E0FEA3E0FFE4D1
:1022EA00FBFA797A7844120DD790008212129890EC
:1022FA000086E0FCA3E0FDA3E0FEA3E0FFE4FBFA16
:10230A0079C87842120CCE900086121298900086F4
:10231A00E0FCA3E0FDA3E0FEA3E0FF120F30AB0751
:10232A00AA067C007D64121188900026EFF07C00DA
:10233A007D64AF03AE02121188A3EDF0900026E08F
:10234A00FF22900080A3E0FF7DF81253CE90009BFD
:10235A00E0FAA3E0FB7C007D64FFAE021211339029
:10236A000026EFF07C007D64AF03AE02121133A3A6
:10237A00EDF0900026E0FF22900027E0FF7DFA12A0
:10238A0053CE90009EE0FCA3E0FDA3E0FEA3E0FF95
:10239A00E4FBFA79C87842120CCE90009E12129889
:1023AA0090009EE0FCA3E0FDA3E0FEA3E0FF120F75
:1023BA0030AB07AA067C007D64121188900026EFD4
:1023CA00F07C007D64AF03AE0222FF7C6F1253CE15
:1023DA0090002822900073E0FF7DEA1253CE7B0121
:1023EA007A0079A8900028EBF0A3EAF0A3E9F012AA
:1023FA0010A722FF7DEC1253CE90002822900026CF
:10240A00E0FF7DF91253CE22900027E0FF7DF31200
:10241A0053CE22FF7DE61253CE90002822FF7DE79D
:10242A001253CE90002822900026E0FF7DF012532E
:10243A00CE22FF7DEB1253CE7B017A0079A4900065
:10244A0028EBF0A3EAF0A3E9F01210A7227FEF121B
:10245A00549190008BE0FAA3E0FB7C007D64FFAE10
:10246A0002121133900026EFF07C007D64AF03AEB8
:10247A000212113322FF7DE51253CE9000282290DA
:10248A0000AEE0FF7DF41253CE22900027E0FF7DDC
:10249A00F61253CE22FF7C681253CE900028229067
:1024AA00009DE0FF7DF71253CE22FF7C6F1253CEC0
:1024BA009000282290007DE0FF7DEF1253CE22FF8C
:1024CA001253CE7B017A007993900028EBF0A3EAAD
:1024DA00F0A3E9F01210A722FF7C681253CE9000F5
:1024EA0028227C6F1253CE7C6F227C681253CE7CDA
:0224FA00682256
:0C549E008FE4EEF5E375E64675E6B922F2
:0D548400E4F5E7F5E5F5E675E380F5E422D3
:0F54580075E78275E50112549E00AFE21254848D
:015467002222
:1053CE00AB0775E78275E5028DE4ECF5E3AF038F6D
:0853DE00E21254A30002548402
:0D54910075E78275E50312549E00025484F5
:10468F004C00C800000000000000000000000044C3
:0A469F0000D4000000004100D80024
:1050000090004EE0FBA3E0FAA3E0F912122E90000C
:105010004EE0FBA3E0FAA3E0F92290002FE0F8A312
:10502000E0F9A3E0FAA3E0FB2212129890003DE021
:10503000FCA3E0FDA3E0FEA3E0FF22EBF0A3EAF077
:10504000A3E9F022E4FBFA7841020DD7E0FF3395A3
:10505000E0FEEF78022224C8F58274003EF5832238
:10001E00E4FFFE00000000000FBF00010EEF640CB5
:03002E004E70F021
:0100310022AC
:1017D100E4FDD29012001E7C80ECD394004019C22B
:1017E1009012001E12001E309103ED4CFDD290129A
:0D17F100001EECC313FC80E112001EAF05CA
:0117FE0022C8
:064EBD0090005512503B6D
:104EC300E490005BF0C296D2901217D19000551275
:104ED3005011EF1210ED1217D1900055125011908E
:104EE3000001EF1210FF1217D1900058125011EF6A
:104EF3001210ED1217D1900058125011900001EFCB
:104F03001210FFD2969000551250111210A7FF54A1
:104F1300C064C06004EF30E60690005B7401F012D9
:0C4F230010A7543F1210ED90005BE0FF5F
:014F2F00225F
:063BC00090004E12503B84
:103BC600900053E0FEA3E0AA06F9900058E41250D4
:103BD6003C7B017A007951124EBDEF600281DBD346
:103BE600900052E09466900051E0648094865007FD
:103BF6007406F0A37466F0C3900052E0949A9000A5
:103C060051E0648094B940077439F0A3749AF09037
:103C16000051E0FCA3E0FDEC120EF77B7B7AC27943
:103C26009E783D120CCE7B007AC0791E78C4120BAA
:103C3600DD90009E12501D120BD912500012120E6A
:103C4600E4FBFA79207841120CCE120F307C007D0D
:103C56000A121188AC06AD07EC120EF712500012CC
:103C6600120E7BCD7ACC79CC783D120E74600C4066
:103C76000A12500E1212D50000000012500E121237
:103C86000EE4FBFA79FE7843120E74500A12500EB7
:103C96001212D543FE0000900053E0FEA3E0780523
:103CA600CEC313CE13D8F9FF900053EEF0A3EFF076
:103CB600FDAC06E4120EF77BF07A1679C8783D1251
:103CC6000CCEE4FBFA794878C2120BDD12500E9046
:053CD600000412124879
:013CDB0022C6
:10441C009000411212A400000000E4900045F07BD3
:10442C00017A007946123BC090004612502FC0040E
:10443C00C005C006C0079000D812504CC333CE3311
:10444C00CED8F9125056D007D006D005D00412128F
:10445C00989000D8E004F0E0B40302E4F0E490009B
:10446C0045F090004112502FC004C005C006C00793
:10447C00A312504CC333CE33CED8F912505612502F
:10448C001DD007D006D005D004120BDD90004112D0
:10449C001298900045E004F0E0B403C6900041127D
:1044AC00502FE4FBFA79407840120DD7900041125E
:1044BC0012989000AEE0FFC374149FFDE49400FCCE
:1044CC00E4120EF790004112501D120CCEC004C025
:1044DC0005C006C0079000AEE0FCE4120EFC900094
:1044EC00D412501D120CCED003D002D001D0001229
:1044FC000BDD79A012504490003D1250299000D44D
:03450C0012502921
:01450F002289
:10396C00E490003BF0A3F012441C120F3090002D99
:10397C00EEF0A3EFF01247A690002F1212987F6F73
:10398C007E127D837C3A12501A120E74500A9000EB
:10399C002F1212A4000000007B017A007933124030
:1039AC00009000371212987FAE7E2A7D7B7C3C12F1
:1039BC00501A120CCEA804A905AA06AB077FDF7E0D
:1039CC004F7D5D7C40120BD990003712501D120CAC
:1039DC00CEC004C005C006C0077F337E937D887CB3
:1039EC004390003312501D120BDDA804A905AA0642
:1039FC00AB07D007D006D005D004120DD7C004C039
:103A0C0005C006C00790002EE025E0FD90002DE0DB
:103A1C0033FC120EF7D003D002D001D000120DD718
:103A2C0012498B90008212501D120CCE90008612FF
:103A3C00501D120CCE900029121298E4FFFE7D202E
:103A4C007C4190002912501D120CCE120F309000A8
:103A5C003BEEF0A3EFF0FDAC06EC120EF779201262
:103A6C0050449000291212987F0A7ED77D237C3C0B
:103A7C0090002912501D120E74500A900029121237
:0B3A8C00A40000000090002912502F41
:013A9700220C
:10529400E4F5D8F5E9F5F9F5D99000F2E0FEA3E0DC
:1052A400F5EAEEF5FA90007EE0FEA3E0FF9000F34D
:1052B400E02FF09000F2E03EF075DA49D2DED2AE93
:0152C40022C7
:10506000900014121298E4FFFE7D487C44900014D6
:10507000E0F8A3E0F9A3E0FAA3E0FB120CCEE4FB16
:10508000FA79C87842120DD7E4FBFA7948784312CE
:105090000BDDA804A905AA06AB077F007E247DF4DA
:1050A0007C48120DD7120F3090007EEEF0A3EFF087
:0150B00022DD
:1046A9005400AF00000000000000000000000000FE
:1046B900000000000000004400C3000000004100A9
:0246C900C70028
:10510100120BDD900051E0FBA3E0FAA3E0F92212BB
:105111001298900044E0FCA3E0FDA3E0FEA3E0FFB1
:1051210022E0F8A3E0F9A3E0FAA3E0FB22EBF0A36D
:10513100EAF0A3E9F022E0FF3395E0FEEF780222E6
:0A51410024AFF58274003EF58322CE
:064F300090005812512E02
:104F3600E490005EF0C297D2901217D190005812FA
:104F46005107EF1210ED1217D19000581251079029
:104F56000001EF1210FF1217D190005B125107EFFC
:104F66001210ED1217D190005B125107900001EF5D
:104F76001210FFD2979000581251071210A7FF5433
:104F8600C064C06004EF30E60690005E7401F01263
:0C4F960010A7543F1210ED90005EE0FFE9
:014FA20022EC
:0646D30090005112512E6F
:1046D90090005B7401F0A37400F0A37456F07B01A1
:1046E9007A007954124F30EF6002E1A5D39000555A
:1046F900E09466900054E06480948650077406F054
:10470900A37466F0C3900055E0949A900054E06455
:104719008094B940077439F0A3749AF0900054E07A
:10472900FCA3E0FDEC120EF77B0F7A457901783C8A
:10473900120CCE7B177AD9794E78C1125101121217
:104749002E12510412120EE4FBFAF9F8120E7460DB
:1047590011400F12510412120E120EE112510412DD
:10476900122E900056E0FEA3E07805CEC313CE13B7
:10477900D8F9F0EE900056F0E0FCA3E0FDE4120E4B
:10478900F77BF07A1679C8783D120CCEE4FBFA79FA
:0C4799004878C21251019000041212482E
:0147A50022F1
:0640000090003D12512E5C
:10400600A31212A400000000E4900048F07B017A9D
:104016000079491246D390004D12511690003D1278
:10402600510712122E900049125116C004C005C045
:1040360006C0079000C7125137C333CE33CED8F926
:10404600125141D007D006D005D004121298900024
:10405600C7E004F0E0B40502E4F0E4900048F09014
:104066000040125116C004C005C006C007900048A3
:10407600125137C333CE33CED8F9125141125122E1
:10408600D007D006D005D004120BDD9000401212E6
:1040960098900048E004F0E0B405C4900040125146
:1040A60016E4FBFA79A07840120DD7900040121260
:1040B600989000AEE0FFC374149FFDE49400FCE406
:1040C600120EF7900040125122120CCEC004C00509
:1040D600C006C0079000AEE0FCE4120EFC9000C3E0
:1040E600125122120CCED003D002D001D000120BF6
:1040F600DDE4FBFA79A07841120DD7900044125105
:07410600109000C3125110DC
:01410D00228F
:0746CB004400EE42F0000084
:0F54680090003DE0FCA3E0FDA3E0FEA3E0FF22E7
:105425009000717401F0E4900099F0A3F0D288D255
:02543500A822AB
:102FE900900099E0FFA3E09000ACCFF0A3EFF0E4EC
:072FF900900071F0C2A82254
:1047A600900071E07043D39000ADE094E99000ACC6
:1047B600E0940340077403F0A374E9F09000ACE0C2
:1047C600FCA3E0FDE4120EF7E4FBFA794978C31284
:1047D6000BDDE4FBFAF97841120DD790003D121279
:1047E600981254689000EE80099000EE12546B9077
:0847F600003D121298125468F4
:0147FE002298
:100BD600020F9CE86480F8E933E83360110460F0A2
:100BE600ED33EC337009E8FCE9FDEAFEEBFF220485
:100BF60060DED3EB9FEA9EE99DE8C2E78CF0C2F780
:100C060095F0400CE8CCF8E9CDF9EACEFAEBCFFB4B
:100C1600120F6785D0F05804700320D5B3E804702E
:100C2600075002B2D5020FA692D5EC0460F7E4CCC9
:100C3600C0E0C398F8603B94186008400DD0E0FB14
:100C4600020F7EE4FBFAC9FC8028E830E406E4C91A
:100C5600FBE4CAFCE830E305E4C9CACBFCE8540768
:100C66006010F8C3E913F9EA13FAEB13FBEC13FC73
:100C7600D8F130F52FC3E49CFCEF9BFFEE9AFEED16
:100C860099FDD0E0FBEF4E4D4C701222DB03020FB4
:100C9600A3EC2CFCEF33FFEE33FEED33FDED30E736
:100CA600EB020F7EEF2BFFEE3AFEED39FDD0E0FBB7
:100CB60050130BBB0003020FA6ED13FDEE13FEEF60
:080CC60013FFEC13FC020F7E8A
:100CCE00EC4D6011E8497017ED33EC3304600DE420
:100CDE00FCFFFEFD22E933E8330470F8020F9C128C
:100CEE000F6758046009E4CC24815006285009028D
:100CFE000FA6284003020FA3C0E0EB4A7044B98050
:100D0E0006D0E0FB020F92EF4E701CBD8008EBFF89
:100D1E00EAFEE9FD80EBE98DF0A4FEE5F0020DB7E9
:100D2E00E9CDF9EAFEEBFFEF89F0A4FCE5F0CE8900
:100D3E00F0A42EFFE435F0CD89F0A42DFEE435F0BD
:100D4E008067EF4E7005BD80D780C3EF8BF0A4ACEB
:100D5E00F0EE8BF0A42CFCE435F0F8EF8AF0A42C26
:100D6E00E5F038FCE433CB8DF0A42CFCE5F03BF839
:100D7E00EE8AF0A42CFCE5F038F8E433CF89F0A429
:100D8E002CFCE5F038CF3400CE89F0A42FFFE5F02F
:100D9E003EFEE433C98DF0A42EFEE5F039CD8AF087
:100DAE00A42FFFE5F03EFEE43DFD33D0E0FB5007FF
:100DBE000BBB000F020FA6EC2CFCEF33FFEE33FE45
:060DCE00ED33FD020F7E73
:100DD400020FA6EC5D046005E859047003020F9C41
:100DE400120F67580460F6EC4860F2EC7004FDFEE4
:100DF400FF22C860DB2481C85009C39860025006F2
:100E0400020FA39850CAF582E9294B4A7005AB82B8
:100E1400020F9275F0007C1A7880C3EF9BEE9AED76
:100E240099400DC3EF9BFFEE9AFEED99FDE842F069
:100E3400DC23ACF0D0E0FFD0E0FED0E0FDAB8220BC
:100E4400E7101BEB60BAEC2CFCEF33FFEE33FEED46
:100E540033FD020F7EE803F830E705C0F075F000BB
:100E6400EF2FFFEE33FEED33FD40B830E7C280AA2A
:100E740074F8CC6480CCC86480C8F582046043C331
:100E8400EB9FF5F0EA9E42F0E99D42F0E89C45F0C4
:100E940060305018E5825FFFE582F42B5582FB50E9
:100EA400210ABA001D09B90019088016E5825BFB06
:100EB400E582F42F5582FF50090EBE00050DBD00DA
:100EC400010CC3EB9FF5F0EA9E42F0E99D42F0E885
:0D0ED4009C45F06007CC4820E701B3EC22FC
:100EE100ED33EC33600A047003BD8004ECB2E7FC1F
:010EF10022DE
:100EF20075F020800E75F010800575F0087D007E7B
:100F0200007F003392D530D5031211EAEC33401042
:100F1200EF33FFEE33FEED33FDEC33FCD5F0ED2283
:0E0F2200E5F0247EA2D513CC92E7CDCEFF22BF
:100F3000EDD2E7CD33EC3392D524814006E4FFFEB9
:100F4000FDFC22FCE4CFCECDCC24E0501174FF8018
:100F5000EDC3CC13CCCD13CDCE13CECF13CF0470B5
:070F6000F030D5DE0211EABA
:10498700020F9C22EDA2E7D2E7F9EC3340F260F385
:10499700B4FF08ED547F70E8020FA6F82481C2E047
:1049A700C0E0F40428FAC313FCED92E7FD90003D44
:1049B700121298EEA2E7E9BA7F02C31334009400FB
:1049C700FA75F091A4E5F013F494FE8AF0A433E5A8
:1049D700F033248CD313FDE492E7FE7F007C3F7510
:1049E7008302ECC0E0F8EDC0E0F9EEC0E0FAEFC0FA
:1049F700E0FB8583F090003D12126C85F083120D69
:104A0700D7D0E0FBD0E0FAD0E0F9D0E0F8120BDD28
:104A1700ED6480FD30E7011CD583C7ED33CC33F857
:0C4A2700D0E0A2E71328C313CC13FD223B
:100F6700E9D2E7C933E833F892D5EDD2E7CD33ECD0
:070F770033FC5002B2D52249
:100F7E00EC30E7100FBF000C0EBE00080DBD0004D4
:100F8E000BEB6014A2D5EB13FCED92E7FD2274FF80
:100F9E00FCFDFEFF22E480F8A2D574FF13FC7D80D9
:030FAE00E480EFED
:104D4600023A98E493A3F8E493A34003F68001F2B1
:104D560008DFF48029E493A3F85407240CC8C3336E
:104D6600C4540F4420C8834004F456800146F6DF3D
:104D7600E4800B01020408102040809045F2E47E96
:104D8600019360BCA3FF543F30E509541FFEE49332
:104D9600A360010ECF54C025E060A840B8E493A3F9
:104DA600FAE493A3F8E493A3C8C582C8CAC583CA24
:104DB600F0A3C8C582C8CAC583CADFE9DEE780BEDC
:0146D20000E7
:100FB100E709F608DFFA8046E709F208DFFA803E22
:100FC10088828C83E709F0A3DFFA8032E309F6080F
:100FD100DFFA8078E309F208DFFA807088828C8377
:100FE100E309F0A3DFFA806489828A83E0A3F6082B
:100FF100DFFA805889828A83E0A3F208DFFA804C05
:1010010080D280FA80C680D4806980F280338010DB
:1010110080A680EA809A80A880DA80E280CA803344
:1010210089828A83ECFAE493A3C8C582C8CCC583BC
:10103100CCF0A3C8C582C8CCC583CCDFE9DEE7808C
:101041000D89828A83E493A3F608DFF9ECFAA9F00B
:10105100EDFB2289828A83ECFAE0A3C8C582C8CC61
:10106100C583CCF0A3C8C582C8CCC583CCDFEADE7A
:10107100E880DB89828A83E493A3F208DFF980CCDC
:1010810088F0EF60010E4E60C388F0ED2402B404D5
:101091000050B9F582EB2402B4040050AF2323457C
:0610A10082239010017390
:1010A700BB010689828A83E0225002E722BBFE0247
:0910B700E32289828A83E493227A
:1010C000BB010CE58229F582E5833AF583E02250E5
:1010D00006E92582F8E622BBFE06E92582F8E2222F
:0D10E000E58229F582E5833AF583E4932249
:1010ED00BB010689828A83F0225002F722BBFE01E2
:0210FD00F322DC
:1010FF00F8BB010DE58229F582E5833AF583E8F027
:10110F00225006E92582C8F622BBFE05E92582C8D2
:02111F00F222BA
:10112100EF8DF0A4A8F0CF8CF0A428CE8DF0A42EE2
:02113100FE229C
:10113300BC000BBE0029EF8DF084FFADF022E4CCA0
:10114300F875F008EF2FFFEE33FEEC33FCEE9DEC69
:10115300984005FCEE9DFE0FD5F0E9E4CEFD22EDAF
:10116300F8F5F0EE8420D21CFEADF075F008EF2FF9
:10117300FFED33FD4007985006D5F0F222C398FDEA
:051183000FD5F0EA2287
:10118800C2D5EC30E709B2D5E4C39DFDE49CFCEE82
:1011980030E715B2D5E4C39FFFE49EFE121133C3B6
:1011A800E49DFDE49CFC800312113330D507C3E4B1
:0611B8009FFFE49EFE22F1
:1011BE00C5F0F8A3E028F0C5F0F8E58215827002BC
:0611CE001583E038F02259
:1011D400A3F8E0C5F025F0F0E582158270021583CE
:0611E400E0C838F0E8222B
:10519300C2D5E830E70FB2D5E4C39BFBE49AFAE447
:1051A30099F9E498F8EC30E717B2D51251C9121304
:1051B3004BE4C39BFBE49AFAE499F9E498F880037F
:1051C30012134B30D50DE4C39FFFE49EFEE49DFD17
:0451D300E49CFC223A
:0E11EA00C3E49FFFE49EFEE49DFDE49CFC2216
:1011F800EB9FF5F0EA9E42F0E99D42F0EC6480C86E
:0612080064809845F0220D
:10120E00BB010789828A8302126C5005E9F802132A
:10121E00DDBBFE05E9F80213E989828A830213F524
:10122E00BB010789828A830212985005E9F80214DD
:0A123E003BBBFE05E9F8021447224D
:10124800BB010DE58229F582E5833AF58302129800
:101258005007E92582F802143BBBFE07E92582F80E
:041268000214472203
:0C126C00E0FCA3E0FDA3E0FEA3E0FF22F5
:10127800BB010789828A830214125005E9F8021417
:1012880005BBFE05E9F802141E89828A8302142B25
:0C129800ECF0A3EDF0A3EEF0A3EFF022C9
:1012A400A8828583F0D083D0821212BB1212BB12A3
:1012B40012BB1212BBE473E493A3C583C5F0C583C8
:1012C400C8C582C8F0A3C583C5F0C583C8C582C894
:0112D40022F7
:1012D500BB010789828A830212A45005E9F802142A
:0A12E50053BBFE05E9F802146C2269
:1012EF00BB010789828A8302148E5005E9F8021424
:1012FF0085BBFE05E9F802149789828A830214A040
:10130F0075F008758200EF2FFFEE33FECD33CDCC95
:10131F0033CCC58233C5829BED9AEC99E582984018
:10132F000CF582EE9BFEED9AFDEC99FC0FD5F0D6F5
:10133F00E4CEFBE4CDFAE4CCF9A88222B800C1B91F
:10134F000059BA002DEC8BF084CFCECDFCE5F0CB5D
:10135F00F97818EF2FFFEE33FEED33FDEC33FCEB96
:10136F0033FB10D703994004EB99FB0FD8E5E4F951
:10137F00FA227818EF2FFFEE33FEED33FDEC33FC3E
:10138F00C933C910D7059BE99A4007EC9BFCE99A32
:10139F00F90FD8E0E4C9FAE4CCFB2275F010EF2F77
:1013AF00FFEE33FEED33FDCC33CCC833C810D70777
:1013BF009BEC9AE899400AED9BFDEC9AFCE899F8B2
:0E13CF000FD5F0DAE4CDFBE4CCFAE4C8F92245
:0C13DD00E6FC08E6FD08E6FE08E6FF223C
:0C13E900E2FC08E2FD08E2FE08E2FF2240
:1013F500E493FC740193FD740293FE740393FF223E
:0D140500E6FB08E6F908E6FA08E6CBF82257
:0C141200E0F8A3E0F9A3E0FAA3E0FB225D
:0D141E00E2FB08E2F908E2FA08E2CBF8224E
:10142B00E493F8740193F9740293FA740393FB2217
:0C143B00ECF608EDF608EEF608EFF622DD
:0C144700ECF208EDF208EEF208EFF222E1
:10145300D083D082E493F608740193F60874029360
:09146300F608740393F674047397
:10146C00D083D082E493F208740193F2087402934F
:09147C00F208740393F274047386
:09148500E6FB08E6FA08E6F9228C
:09148E00E0FBA3E0FAA3E0F9225F
:09149700E2FB08E2FA08E2F92286
:0C14A000E493FB740193FA740293F922A8
:00000001FF
