:1051B600FF02F6FF0316FF05B6FF0036FF0036FFB7
:1051C60002F6FF0316FF0036FF0036FF0036657253
:0251D600720065
:0A538700E22401F218E23400F222E1
:1038A900E4F5B175B201C2B0121513124EDA125114
:1038B900651252177800121348000000009000D3D7
:1038C900E070149000E3E004F0E0D3940640037440
:1038D90006F01251F88005E49000E3F09000E3E06F
:1038E900B4061474301239D77BFF7A5179D47D012B
:1038F9007F0612510980FE74401239D79000E2E028
:10390900B4100040030239B2903918F8282873021C
:10391900394802394D02395202395702395C0239A4
:103929006102396602396B02397002397502397AD6
:1039390002397F0239840239890239B20239A71260
:1039490042CC8065124C7C806012300F805B122E55
:103959006D805612479E80511243A4804C12360B3B
:1039690080471246168042123D0A803D122CBB80C8
:1039790038124CEF8033123C03802E1231B080296B
:103989007BFF7A5179C57DF0124014BF010990007F
:10399900D37401F01251F8E49000E2F0800B7BFF40
:1039A9007A5179B67D051240149000D3E0B4010F25
:1039B9009000E2E0640D6003023900F002390090E2
:0E39C90000E2E0640E6003023900F0023900F3
:0E39D70078BBF2C2007B80E4FDFF124B612240
:1052170043891175B802758DEC758B77758C64753C
:0D5227008A64D2AFD2A9D28CD2ABD28E2233
:03001B0002410D92
:10410D00C0E0C0F0C083C082C0D075D000C000C078
:10411D0001C002C003C004C005C006C007758D3CB8
:10412D00758BAF7823125387C308E2947E18E294FF
:10413D0004400B7404F208747EF2D2B08002C2B057
:10414D009000D2E004F070069000D1E004F0D3901E
:10415D0000D2E094E89000D1E0940340077403F09E
:10416D00A37484F09000EEE004F070069000EDE092
:10417D0004F0D39000EEE094159000EDE094004033
:10418D0018E4F0A304F0781B12538708E2B4630916
:10419D0018E2B40D04E4F208F29000CCE004F0E073
:1041AD00B43C067401F01252F59000CCE0B4150346
:1041BD001252CC75E13C9000EDE0FEA3E0FF7C00D7
:1041CD007D0A1211C6ED4C7002B2B1D007D006D0E7
:1041DD0005D004D003D002D001D000D0D0D082D0F1
:0641ED0083D0F0D0E032A7
:03000B000252346A
:10523400C0E0C0D075D000C0007816E2F58C08E25A
:0B524400F58AB2B5D000D0D0D0E03227
:0300330002509BDD
:10509B00C0E0C0D075D000C000C006C007C2D87831
:1050AB003BE2FE08E2F5EAEEF5FA7818E2FE08E2DA
:1050BB00FF783CE22FF218E23EF2B2B7D007D006EF
:0750CB00D000D0D0D0E0328C
:0300030002524F57
:10524F00C0E0C083C0829000E5E004F070069000DB
:0B525F00E4E004F0D082D083D0E03205
:03000000024BF0C0
:0C4BF000787FE4F6D8FD758120024C3778
:10500E00C283C294AF068FA0D295125318C295C216
:10501E0082C292227A002FFFEA35F0FED3EF94403F
:10502E00EE64809480222FFFEA33FED3EF9480EE5D
:10503E006480948022F218E2FA3400F2021167F5CD
:09504E008274053EF583E493220F
:1052B600EF1FAA0670011E4A600BE4FDEDC3947D44
:0552C60050EE0D80F721
:0152CB0022C0
:0F531800E4FF00000000000000000FEFB403F3FB
:015327002263
:0F526A00E2FF12000EED2440FF12000E08E2FFDB
:0C527900D282C292D283C294125014223E
:0D528500E2FF125354AF0512535408E2FF2C
:0C529200C282D292D283C2941250142225
:0D000E00AE07125318D282C29212500E2279
:0D535400AE07125318C282D29212500E22E0
:084A370078BEEFF278C0EBF24B
:104A3F00ED75F008A4FF08E2FC1250224003024A71
:104A4F00CD18E2FF78BEE2F91250345071EC5407E2
:104A5F00706CED24B878C5F2AD01E4FC78C1E213B7
:104A6F001313541FFFECC39F505478BEE2FFC3EDE6
:104A7F009FFF78C0E2FEEFC39E503678C2E2FB087C
:104A8F0008E2F92401300006125043F4800312505B
:104A9F004378C6F2EDC394407FC0500A12000E78DF
:104AAF00C512526A800812535478C51252850D8070
:0E4ABF00B978BEE2FD78C5E204F20C024A6B43
:014ACD0022C6
:094B610078B9EDF208EBF2AC07A3
:104B6A0018E275F008A4FF78BBE2FD1250225075D6
:104B7A0018E2FFEC125034506CED5407706778B9A4
:104B8A00E224B8FDAB04E4FA78BBE2131313541F12
:104B9A00FFEAC39F504FC3EB9CFF78BAE2FEEFC314
:104BAA009E503C30000479FF8002E4F9EBC3944044
:104BBA007FC0501612000EAF0512000EEB2440FF04
:104BCA0012000EAF011252798012125354AF05121D
:104BDA005354AF03125354AF011252920B80B7AB26
:054BEA00040D0A80A388
:014BEF0022A3
:06499D0078BEEBF2A90751
:1049A300ED75F008A42410FFE41250274003024AD7
:1049B30036E92408FFE41250375078ED24B878BF65
:1049C300F2AD01E4FCE478C1F2C3ED99C39408505D
:1049D30055EC75F008A4FBAAF078BEE275F010A4BC
:1049E3002BFFE5F03AFE78C1E27A002FFFEA3EFEA4
:1049F30074562F30000812504DF418F280051250EF
:104A03004D18F2EDC394407FC0500A12000E78BFD8
:104A130012526A800812535478BF12528578C1E249
:104A230004F20D0249CCAD0178BFE204F20CEC6450
:034A33000270927C
:014A3600225D
:104EDA007F647E001252B6C293125318D2937F3E59
:104EEA0012000E7F3E1253547FC012000E7FC01272
:104EFA0053547FB812000E7FB81253547F401200E9
:104F0A000E7F401253547F3F12000E7F3F125354BC
:0F4F1A0078BB7440F2C2007B80E4FDFF024B6164
:1000360000000000000000000000000000000000BA
:1000460000000000000000000000000000000000AA
:100056000000FE020A126282621A02FF020000001B
:1000660080403F20100806010618003F4080E0004F
:10007600202020BEAAAAAAAAAAAAAABF2230200085
:10008600008080AFAAAAAAFFAAAAAAAF8080000011
:10009600100C04555555857F8555555504140C008F
:1000A6000404020209092A4CA819090202040400E0
:1000B600404244CC00F4949494FF949494F6040043
:1000C6000040201F20514844427F42444C6120009A
:1000D6001010D0FF90108848A8090A08A84CC8003C
:1000E600040300FF808140402116081661C04000CD
:1000F600000204EC4020F84F4849FE48684C0800CE
:1001060002027F000000FF2222223F22233220002B
:10011600202424A4FE232200FC04040404FE04007C
:1001260010080601FF0142201B110101093360007E
:100136000080402098868080838C9020C08080003C
:1001460001008040201F004080403F000001000069
:1001560000022222322EA262222291090100000010
:10016600000042221A43827E02020A136600000041
:1001760010925430FF509432D8171010F018100017
:1001860002824E3322528E402314081661C040006C
:10019600101494F494DF94D4907F901214101000ED
:1001A6000201FF4A4A7F4A4A60100F3442817000BA
:1001B60002F2121212FA969292F2121212FB120026
:1001C60000FF4040407F4848487F404040FF0000D5
:1001D6000000FE0282828282FE828282C382000048
:1001E60040300F40404040407F4042444C60400019
:1001F600001010101010FF1010101010F810000052
:100206000080808060180700204080403F0000008A
:100216000000F8494A4C48F8484C4A49FC08000096
:1002260010101712121212FF1212121213181000C7
:10023600804020F80710D01011161010D8100000BA
:10024600000000FF202020232C203827203020000B
:10025600807000FF102808E81F08E808088C0800CE
:10026600000000FF2018878041320F3241C1400054
:1002760020100C03FAAAAAAAAAAAAAFA0302000044
:100286000020908886472A12122A464280808000E3
:10029600404042CC0040A09F8181819FA020200049
:1002A6000000007FA09040432C10282641C040004B
:1002B600001017D55557557D555755D517100000C1
:1002C6004040407F555555555555557F4060400037
:1002D6002424A4FEA322207E42424242427F020000
:1002E600080601FF0043414949497F494D694100DC
:1002F600104C2404F4844D562424148424540C00F5
:100306000001FD414041417F41414141FC00000067
:100316000282F24E43E242FA020202FF028000002B
:1003260001007F20207F080909090D49817F01000E
:100336000000C04040407F48484848E84C0800005C
:1003460080403704146404142464041720C0000099
:10035600101091D63098000808F8080808FC080024
:10036600020100FF0182402018074080403F000044
:10037600242820FF3028445454547F5454D6440033
:10038600080403FF010200FF1515151595FF01006E
:100396000000FC242424FCA5A6A4FC243426040086
:1003A60040209F804242262A122A264240C0400010
:1003B6001010F01F10F04060584740405060C000D9
:1003C60040221508166100FE4242424242FF0200E8
:1003D600804020F80704E4A4A4BFA4A4F6240000E7
:1003E600000000FF40407F4A4A4A4A4A7F40400098
:1003F6000000FE02E2A2B2AEA2A2A2A2F322000076
:1004060040300F40231A42827E02020A1360000027
:1004160040445465C664D64440FC4442C36240002E
:10042600201149817F01052918070000FF000000FF
:100436001022640CC0445454547F5454D644400093
:100446000404FE010000FF15151555957F010000F7
:100456000010E1CE0C8044E4F45DCF46D474E6444B
:10046600000438FC6780603F1F00FF007FFFC070FC
:10047600002020FFBFB5B5B5B5B5B5BFFFA030208C
:100486000080809FAFAAAAFFFFAAAABF8FC08000E4
:100496000000C4743C14FCFD0706FCFC9424E644EE
:1004A600000180808143452D39192D6743C1C04025
:1004B600004046DCE84080898A8EF8FC8F8AC88036
:1004C6000040E03F1F3060E0D8CEC7C1C6DCF85020
:1004D6000080BF9E9292BEDFC2BF9EF2D2BEDF8276
:1004E6000004FC7C4A4AF97D08FC79494AFA7E0AEE
:1004F60000000000008080000000000000000000F6
:100506000000000000313100000000000000000083
:100516001022640C80444464554E445466C4000062
:100526000404FE010080403F00FF003F4040700091
:1005360010101011D630980000FF40800000000017
:1005460008040201FF01020000FF00000103000091
:10055600804020F847309294909F90D4925030007B
:10056600000000FF04044464544C445464C6040070
:100576001022640C8000FE9292929292FF0200007A
:100586000404FE01407E42427E427E42427E40009C
:100596000000FC242424FCA5A6A4FC243426040084
:1005A60040209F804242262A122A264240C040000E
:1005B60080808080808080808080808080C0800075
:1005C6000000000000000000000000000000000025
:1005D60000000808080808080808080C08000000B9
:1005E600101010101010101010101010101810000D
:1005F6000000FE22222222FE22222222FF020000E8
:1006060000000702020202FF0202020207000000C7
:10061600807000FF10081C2424252634A4140C0026
:100626004020180708B041310F01013F41417000D9
:10063600000000F112141010101412F9100000003E
:100646002018003B4141454959414173000830009B
:100656002030AC633008E80808FF0808E80C0800FA
:100666002267221212000702023F424247407000F0
:100676001021620680FE929292929292FF020000F0
:100686000404FE0100FE8444207F88848680E00006
:1006960080804020504844434448502040C0400099
:1006A600000000FE42424242424242FF0200000077
:1006B60000101012945010FF105094921810000061
:1006C6000484844524140C070C142445C4460400F1
:1006D600202222FE2222FE232200FC0000FF000030
:1006E600404C4A4948484B7E4848484A4C6B400073
:1006F60000040404040404FC0404040406040000C6
:10070600202020202020203F2020202020302000D4
:100716000002048C407EC24242C2427F02000000B8
:100726000202FF8040300F00003F40404040700012
:100736001010D0FF9050444444C4444644604000E6
:10074600040300FF00110846807F00020C18000019
:100756000000000000000000000000000000000093
:10076600000038FCFC3800000000000D0D00000001
:1007760000003C24243C00000000000000000000B3
:1007860020F8F820F8F82000020F0F020F0F0200E1
:10079600387C444747CC98000306041C1C0703001A
:1007A60030300080C06030000C060301000C0C00E5
:1007B60080D87CE4BCD84000070F0808070F080063
:1007C60000101E0E000000000000000000000000E7
:1007D6000000F0F80C040000000003070C080000FD
:1007E6000000040CF8F000000000080C07030000ED
:1007F60080A0E0C0C0E0A080000203010103020067
:10080600008080E0E080800000000003030000001C
:1008160000000000000000000000101E0E00000096
:100826008080808080808000000000000000000042
:1008360000000000000000000000000C0C0000009A
:1008460000000080C06030000C06030100000000BC
:10085600F8FC04C424FCF800070F0908080F070079
:10086600001018FCFC0000000008080F0F08080024
:10087600080C84C4643C18000E0F0908080C0C0010
:10088600080C444444FCB800040C0808080F070090
:10089600C0E0B098FCFC8000000000080F0F0800C4
:1008A6007C7C4444C4C48400040C0808080F070078
:1008B600F0F84C4444C08000070F0808080F0700F2
:1008C6000C0C0484C47C3C0000000F0F00000000E8
:1008D600B8FC444444FCB800070F0808080F07009A
:1008E600387C444444FCF800000808080C07030060
:1008F6000000003030000000000000060600000086
:100906004848B0000000000002020100000000009C
:10091600C8A89000000000000000000000000000D1
:1009260040404040404040000202020202020200F3
:100936000008183060C0800000080C0603010000A3
:10094600181C04C4E43C18000000000D0D00000053
:10095600F0F808C8C8F8F000070F080B0B0B0100E9
:10096600E0F0988C98F0E0000F0F0000000F0F00E9
:1009760004FCFC4444FCB800080F0F08080F0700ED
:10098600F0F80C04040C180003070C08080C060009
:1009960004FCFC040CF8F000080F0F080C07030019
:1009A60004FCFC44E40C1C00080F0F08080C0E00A5
:1009B60004FCFC44E40C1C00080F0F0800000000B7
:1009C600F0F80C84848C980003070C0808070F00C5
:1009D600FCFC404040FCFC000F0F0000000F0F0025
:1009E600000004FCFC0400000000080F0F080000D3
:1009F60000000004FCFC0400070F08080F070000B5
:100A060004FCFCC0F03C0C00080F0F00010F0E00A8
:100A160004FCFC0400000000080F0F08080C0E0080
:100A2600FCFC387038FCFC000F0F0000000F0F00B4
:100A3600FCFC3870E0FCFC000F0F0000000F0F00FC
:100A4600F0F80C040CF8F00003070C080C07030080
:100A560004FCFC44447C3800080F0F08000000002A
:100A6600F8FC040404FCF800070F080E3C3F2700BE
:100A760004FCFC44C4FC3800080F0F00000F0F00F4
:100A8600183C6444C49C1800060E0808080F0700AA
:100A9600001C0CFCFC0C1C000000080F0F080000DA
:100AA600FCFC000000FCFC00070F0808080F07000C
:100AB600FCFC000000FCFC000103060C0603010020
:100AC600FCFC008000FCFC00030F0E030E0F03006D
:100AD6000C3CF0C0F03C0C000C0F0300030F0C00A4
:100AE600003C7CC0C07C3C000000080F0F080000E2
:100AF6001C0C84C4643C1C000E0F0908080C0E0074
:100B06000000FCFC0404000000000F0F08080000B1
:100B16003870E0C0800000000000000103070E00EE
:100B260000000404FCFC0000000008080F0F000091
:100B3600080C0603060C0800000000000000000078
:100B4600000000000000000020202020202020209F
:100B56000000030704000000000000000000000081
:100B660000A0A0A0E0C00000070F0808070F0800BB
:100B760004FCFC2060C08000080F0708080F07006F
:100B8600C0E0202020604000070F0808080C040081
:100B960080C06024FCFC0000070F0808070F08004F
:100BA600C0E0A0A0A0E0C000070F0808080C0400E1
:100BB60040F8FC440C180000080F0F080000000065
:100BC600C0E02020C0E02000276F48487F3F00009B
:100BD60004FCFC4020E0C000080F0F00000F0F00CF
:100BE600000020ECEC0000000000080F0F080000D9
:100BF6000000000020ECEC0000307040407F3F0019
:100C060004FCFC80C0602000080F0F01030E0C00DE
:100C1600000004FCFC0000000000080F0F080000A4
:100C2600E0E060C060E0C0000F0F000F000F0F0093
:100C360020E0C02020E0C000000F0F00000F0F00D2
:100C4600C0E0202020E0C000070F0808080F0700BA
:100C560020E0C02020E0C000407F7F48080F07004A
:100C6600C0E02020C0E02000070F08487F7F40003A
:100C760020E0C0602060C000080F0F0800000000E0
:100C860040E0A02020604000040C09090B0E04007F
:10254400000000000000000000000000000000FF88
:1025540001D6FF01F6FF0036FF0036FF003670613A
:1025640000FF0196FF01B6FF0116FF0036FF00369B
:10257400FF0036FF02F6FF0316FF05D6FF0036FF05
:102584000036636D3C00FF06F6FF0716FF0036FFBA
:102594000036FF0036FF0736FF0716FF0036FF0040
:1025A40036FF0036FF01D6FF01F6FF04F6FF0036C2
:1025B400FF0036FF05F6FF0616FF04F6FF0036FFA0
:1025C4000036FF0576FF0596FF0036FF0036FF0054
:1025D400363A006D3B2F73006D3B2F6D696E004BD7
:1025E4005061002500224300202D2D2020202000B2
:1025F4003A00FF0636FF0076FF0036FF0036FF0084
:1026040036FF06F6FF0716FF0036FF0036FF0036DA
:10261400FF0736FF0716FF0036FF0036FF0036FFC0
:102624000736FF0656FF0036FF0036FF0036FF046C
:1026340036FF0096FF0036FF0036FF00364F464651
:1026440020004F4E2020006D3B003A00FF0516FF8E
:1026540000B6FF0036FF0036FF00366D2F7300FF13
:102664000096FF0336FF00D6FF00F6FF0036FF0298
:10267400F6FF0316FF05D6FF0036FF00366D2F73F5
:1026840000FF0376FF0396FF00D6FF00F6FF003637
:10269400FF02F6FF0316FF05D6FF0036FF00366D76
:1026A4002F7300FF0536FF0556FF0156FF0176FF25
:1026B4000036FF02F6FF0316FF05D6FF0036FF00C3
:1026C40036FF0116FF0136FF0156FF0176FF003683
:1026D400FF02F6FF0316FF05D6FF0036FF0036FFA4
:1026E4000256FF0276FF0356FF03B6FF03D6FF032D
:1026F400F6FF03D6FF0036FF0036FF0036FF041650
:10270400FF03D6FF0036FF0036FF0036FF02F6FF58
:102714000316FF05D6FF0036FF0036FF0216FF0240
:1027240036FF0036FF0036FF0036FF02F6FF0316C1
:10273400FF05D6FF0036FF00366D3B2F73202000C7
:102744006D3B2F6D696E00FF0516FF0076FF06B620
:10275400FF06D6FF0036FF02F6FF0316FF05D6FF7D
:102764000036FF0036FF06F6FF0716FF0516FF00CA
:1027740076FF0036FF0736FF0716FF0516FF0076C3
:10278400FF0036FF0436FF0096FF0036FF0036FFD9
:102794000036FF02F6FF0316FF05D6FF0036FF00E2
:1027A400364F464620004F4E202000FF0076FF02A1
:1027B400D6FF0036FF0036FF0036FF02F6FF031691
:1027C400FF05D6FF0036FF00366D3B2F7320200037
:1027D4006D3B2F6D696E004F4B202020004E4F2023
:0727E4002020006572720065
:10447C00810900810A00840B00000000840F0000F9
:08448C000000811300811400FF
:10224E00785B12130B785BE4FFFE7D207C41E2FB92
:10225E0008E2F908E2FA08E2CBF822786DE2FC080F
:10226E00E2FD08E2FE08E2FF227CBC7F0A7ED77DFB
:10227E00239000C7E0F8A3E0F9A3E0FAA3E0FB1275
:10228E000C9D9000E9E0F8A3E0F9A3E0FAA3E0FBCF
:10229E002208E2FF08E2CFF0A3EFF078BB7440F221
:1022AE00C2007B80E4FDFF22120D8E120FF0785FCC
:1022BE00EEF208EFF278747401F2E4FB22120D8E46
:1022CE00E4FBFA79487843120C9DA804A905AA06E6
:1022DE00AB077F007E247DF47C48120E97A804A9DC
:1022EE0005AA06AB07229000E6E0FCA3E0FDE4029F
:1022FE000FB77401F29000EFE0FCA3E0FDA3E0FE47
:10230E00A3E0FF22786EE2FB08E2FA08E2F92278F7
:10231E0070E2FE08E2FF7C000211C67DFE7BFF7EAE
:10232E00007F0F021141E49000D1F0A3F022D39070
:10233E0000EEE094059000EDE0940022125057ACB0
:10234E0000AD01AE02AF0322120FF078717405F2E8
:10235E000822120D8E7B007A40791C7846020E9769
:10236E007D39781AE2FE08E2FF7C000211C67F007A
:10237E007E807D927C43020E97120D8E020FF0240A
:10238E000475F008A4FF08E225E0FD229000E2E0CB
:10239E0004F0227F807E017D807C47120C9979802B
:1023AE007843E4FBFA020E97E4FAF9F8125057EF6D
:1023BE002430221212757B667AA679CA7842229050
:1023CE0000EDE0FEA3E0FF7C007D0A1211C6ED4C8D
:1023DE0022785A12130BE4FFFE7D207C4122E4FF8B
:1023EE00FE7D487C44120E977862227E00CFCDCFC0
:1023FE00CECCCE1211C6EF243022EFF208EDF20849
:10240E00EBF208EAF208E9F2227F007E807D887CFA
:10241E0043787C22E0FEA3E0FFEEF2FE08EFF2FF2F
:10242E0022120D8E9000D71212FFE4FFFE7DA07CCB
:10243E00419000D722E0FFF208EFF27BFF22E4FF8B
:10244E00FE7DC87C4222E4120FB779C87842E4FBC5
:10245E00FA020E9708E214F2E2C36480948022E23C
:10246E002401F218E23400F222E4FFFE7D707C4279
:10247E007870221212757B007A8079887843020C6C
:10248E009D781BE2940A18E2940022E2FE08E2FF15
:10249E0078657401F20822E2FE08E2FFEEF0A3EF87
:1024AE00F0227DFE7BFF7E000211417A00795E7B79
:1024BE00FEE4FD7F07229000D2E094849000D1E0EC
:1024CE00940322F27870E2FE08E2FF227BFF7D0188
:1024DE007F062212130B7F6F7E127D837C3A2212AF
:1024EE000C9D9000EF1212FF7824227FCD7ECC7DC2
:1024FE00CC7C3D9000D722785BEEF208EFF2227F83
:10250E00A47E707D7D7C3F9000D7227FAE7E477D7E
:10251E00817C3F9000D722C3ED9414EC94002212DC
:10252E000C9D782412130B781E229000E90212FFE4
:06253E009000D70212FF1D
:1051D800D3EF9400EE6480948040147D647C00EDED
:0F51E8001D70011CED4C70F7EF1F70E41E80E18D
:0151F7002295
:104F7800125191EF60297808E204F2E2D364809438
:104F8800944003740BF27808E2D36480948A400654
:104F98007F017E0080047F2C7E011251D88004E4BA
:104FA8007808F27808E2D36480948A40067F0A7E03
:0A4FB8000080047FE87E031251D848
:014FC20022CC
:10530700D31224C44008E49000E2F07F01227F001A
:015317002273
:0D3765007870EEF208EFF208EDF208EBF2DA
:10377200787A7C007A2579447F061224B0E4FB1221
:1037820024D27C277D1012240178751224D17C2743
:103792007D101211C67E037FE81223FB7876122475
:1037A200D17C037DE81211C67F641223F97877F287
:1037B2007D6412231D7F0A1223F97878F27D0A12A2
:1037C200231DED24307879F27872E2FFC374059FED
:1037D200247AF8742EF2E4FF747A2FF8E2700D74F2
:1037E200752BF8E2FE747A2FF8EEF20B0FEFB406A7
:1037F200E7E4FF7872E2FEC374049EC36480F8EFCC
:10380200648098500E747A2FF8E2B430067420F275
:103812000F80E0D3EE648094807873E275F0084004
:103822001B12384E12238D787EE2FBC20012499D94
:103832007873E2240512238F787F800812384E12A3
:0B384200238D787EE2FBC20012499D3E
:10384D0022A4FF08E225E0FD787AE2FBC2001249CE
:10385D009D7873E20475F008A4FF08E225E0FD7879
:10386D007BE2FBC20012499D7873E2240275F008D9
:10387D00A4FF08E225E0FD787CE2FBC20012499D21
:10388D007873E2240375F008A4FF08E225E0FD78C3
:0C389D007DE2FBC20012499D7873E2221C
:0551090078B812240833
:10510E00E408F278BA122314121167FB601A08E24F
:10511E00FF78B8E22F12238FC20012499D78BDE2AC
:08512E0004F21812246D80DB6D
:015136002256
:054FC30078B81224087B
:104FC800E408F2F278BDE2FFC394055038EFC45408
:104FD800F0FF78B8E275F008A42F12239378C17413
:104FE80010F278BA12231412137B78C212240EC25C
:104FF800007B10124A3778BCE2240312247078BD73
:05500800E204F280BF8C
:01500D002280
:05333A00786D12130B79
:10333F0078737C007A25794A7F091224B07FFF7E4B
:10334F00C97D9A7C3B786D12225CD312125F4009C3
:10335F00786D1213483B9AC9FF7B007AE179F578B3
:10336F0005C000122269D0001223BA7873F27B00D5
:10337F007AE179F57805C000122269D00012234A4C
:10338F007B807A96799878001223BA7874F27B80D2
:10339F007A9679987800C000122269D00012234AD9
:1033AF007B407A42790F78001223BA7875F27B400E
:1033BF007A42790F7800C000122269D00012234A96
:1033CF007BA07A86790178001223BA7876F27BA0F7
:1033DF007A8679017800C000122269D00012234A40
:1033EF00E47B107A271223B87877F2E47B107A27E0
:1033FF00F9F8C000122269D00012234AE47BE87A60
:10340F00031223B87878F2E47BE87A03F9F8C00066
:10341F00122269D00012234A7B641223B67879F204
:10342F00E47B64FAF9F8C000122269D00012234A33
:10343F007B0A1223B6787AF2E47B0AFAF9F8C00015
:10344F00122269D000125057EB2430787BF2E40837
:10345F00F2787CE2FFC364809488501274732FF863
:10346F00E2B4300A7420F2787CE204F280E3E4786C
:10347F007CF2787CE2FE7871E22E12238F74732E29
:10348F00F8E2FBC20012499D787CE204F2E2C364C9
:05349F0080948940DD6E
:0134A4002205
:0534A500786E12240EF8
:1034AA00787F12134800000000787412226B787B30
:1034BA001224E1787B12225C120F345009787B12B5
:1034CA0013480000000078781223141241F378712F
:1034DA00122314121295123E0F787F12130B9000CA
:1034EA00E8E060030235759000D4E09000E0B40192
:1034FA000E1222F7787F12225C12236002355312D1
:10350A0022F7787F12225C122360C004C005C0062D
:10351A00C00778711223141223C1120E97D003D058
:10352A0002D001D000120D8EC004C005C006C0072B
:10353A0078781223141224811222EB12237CD003EE
:10354A00D002D001D000120D8E12231212129590C1
:10355A0000D51222F71223121212DF120F34600260
:10356A00500302360A9000D50236019000D4E0904A
:10357A0000E0B401151222F7787F12225C12236050
:10358A00E4FBFA797078420235E51222F7787F1265
:10359A00225C122360E4FBFA79707842120D8EC025
:1035AA0004C005C006C00778711223141223C11281
:1035BA000E97D003D002D001D000120D8EC004C0E5
:1035CA0005C006C00778781223141224811222EB50
:1035DA0012237CD003D002D001D000120D8E122308
:1035EA00121212951222F41223121212DF120F343F
:1035FA00600E400C9000E61222F712231212129566
:01360A00229D
:102A8B00C312248F5018780AE270137815E2FF6096
:102A9B0003B40203121C66780A7401F2800AD31283
:102AAB00248F4004E4780AF212236E12252540038A
:102ABB00022CAD7809E26003022CAD04F2124E89B0
:102ACB0078781224E1787812225C120F345009784E
:102ADB0078121348000000007BFE7A00797C1241CB
:102AEB00F3787412130B123E0FC004C005C006C05E
:102AFB00079000E01222F7D003D002D001D00012D1
:102B0B002360787012130B9000E8E09000EF6003E5
:102B1B00022BB4122306787012225C1224ED1222BF
:102B2B005CC000C001C002C00312241712225C1249
:102B3B000C9D1222EB12237CC004C005C006C007FB
:102B4B001223C4C000787412226BD000120E977837
:102B5B007012225C120D8ED003D002D001D0001265
:102B6B000D8ED003D002D001D00012252D12225C85
:102B7B00C000C001C002C00312241712225C120C49
:102B8B009D1222EB12237CC004C005C006C00712A5
:102B9B0023C4C000787412226BD000120E97787089
:102BAB0012225C120D8E022C83122293C000C001E4
:102BBB00C002C00312247712225C120D8ED003D0F8
:102BCB0002D001D0001224ED12225CC000C001C063
:102BDB0002C0031223C4C000787412226BD00012FF
:102BEB000E97C004C005C006C00712247712225CE2
:102BFB00120D8ED003D002D001D000120D8EC00466
:102C0B00C005C006C00712241712225C120C9D12BD
:102C1B0022EB12237CD003D002D001D000120D8EF8
:102C2B00D003D002D001D00012252D12225CC0009F
:102C3B00C001C002C0031223C4C000787412226BFF
:102C4B00D000120E97C004C005C006C0071224772F
:102C5B0012225C120D8ED003D002D001D000120DC7
:102C6B008EC004C005C006C00712241712225C12C6
:102C7B000C9D1222EB12237CD003D002D001D0008A
:102C8B00120D8E787812225C120D8E79C878421252
:102C9B0023B0D003D002D001D000120C9D781E02BD
:0F2CAB00130B12236ED31225264004E47809F28E
:012CBA0022F7
:104CEF001246DB120FF0785AEE1224457A257953CB
:104CFF00E4FDFF124FC37A2579621224DA125109AB
:104D0F00785AE2FE08E2FF1222C3FD1237657815CA
:104D1F00E2FF6003B40203122A8B125191EFB40128
:104D2F000912239A1252E27F00221223CD700F1222
:104D3F0046DB120FF0785A1222BEFD123765124F62
:094D4F0078125307EF60C77F00E2
:014D58002238
:104616009000E0785B12242208EEF208EFF21246D0
:10462600BA1222C3FD1237657815E2FF6003B402A1
:1046360003122A8B125191785AEFF2BF0109122305
:104646009A1252E27F0022785B1224997427F208AC
:104656007410F2E4FBFD124ACE785BEEF208EFF23C
:10466600785AE26402703E1223359000E012229FCF
:10467600124B617BFF7A2579777D0A124014EF7021
:1046860011785D9000E01224A5785BEEF208EFF257
:104696008003121C661222A9124B611246BA12221C
:1046A600C3FD123765124F78125307EF70030246A7
:0346B6002E7F0054
:1046B900227BFF7A257965E4FDFF124FC37BFF7AE0
:1046C9002579867D017F05125109785BE2FE08E2B2
:0246D900FF22BE
:1048F900785D7C007A25798A122329786C7C007A84
:104909002579991223299000D4E07BFEB401067A17
:1049190000795D80047A00796CE4FDFF124FC39041
:1049290000E8E07BFF70097A2579D7FD7F0C8008C4
:104939007A2579DCE4FD7F0A1251097A2579A87D67
:10494900011249937A2579E37D017F0D1251097A84
:104959002579B77D021249937A2579E77D027F0F80
:104969001251097BFF7A2579C67D03E4FF124FC3F3
:104979007BFF7A2579D57D037F041251097BFF7A64
:0A4989002579E97D037F0E02510934
:0A4993007BFFE4FF124FC37BFF22FD
:0427EB00785DEFF234
:1027EF00124E89786612130B787174FEF20874001A
:1027FF00F208745EF2786612226B787412130B78FB
:10280F007874FEF2087400F208746AF27BFE7A00A4
:10281F0079621234A5786A1222551223877874745C
:10282F0003F27B087D01123765E4FFFE7D807C3F5C
:10283F00785E12225C120F34500D7D01122A7FC276
:10284F00DEC2AED2B780221223E4785E12225C126F
:10285F00238778747401F27B07FD123765D2DED2BD
:10286F00AE785E12226B124F29E4FFFEFDFC7866F4
:10287F0012225C120F34402B7F837E007DC87C4276
:10288F00786612225C120F3450191223E478661204
:10289F00225C12238778747402F27B097D01123750
:1028AF006580057D02122A7F785DE270177813E24A
:1028BF0004F2780B12226B786212225C120C9D7854
:1028CF000B12130B7813E2640A600A785DE264015D
:1028DF006003022A7E785DE2B4010C780F12226B3E
:1028EF00786212130B802EE47813F2FBFA792078BA
:1028FF0041C000780B12226BD000120E9778621233
:10290F00130B786212226B780F12130B780B1213C2
:10291F0048000000007814E204F2E26404600A78D0
:10292F005DE264016003022A7EE4785DF27814F2BE
:10293F009000E8E060030229CB12244D7862122246
:10294F005C122387E47874F27B067D021237659060
:10295F0000D51222F71222EB1223EC12225C122264
:10296F00CB1223A1120FF07816EFF29000D512229E
:10297F00F71222EB1223EC12225C120D8EE4FBFAFB
:10298F0079487843120C9D120FF0AB07AA06EA3371
:10299F0095E0F9F87F207EA17D077C00125057C388
:1029AF0074039FFFE49EFE74019DFDE49CFCE4FB19
:1029BF007A01F9F81250577817EBF2221222F478B5
:1029CF006212225C120F34600A40081222F47862FD
:1029DF0012130B12244C786212225C120F34501512
:1029EF0012244C786212225C122387E47874F27BF3
:1029FF00047D0280307F9A7EF97D797C4478621263
:102A0F00225C120F34600B4009786212134844792C
:102A1F00F99A1223E4786212225C122387E4787405
:102A2F00F27B047D011237657BFF7A2579F4E4FD93
:102A3F007F041251091222F41222EB1223EC1222FC
:102A4F005C1222CB1223A1120FF07816EFF2122292
:102A5F00F41222EB1223EC12225C1222CB7F807E27
:0F2A6F00017D807C47120C99120FF07817EFF25F
:0D2A7E00227BFF7A2579EC7F051251092299
:103F1300786D7C007DFE7BFF7A2579F612232D7860
:103F23007C7C007DFE7BFF7A26790512232D788B1E
:103F33007C007DFE7BFF7A26791412232D789A7CF0
:103F4300007DFE7BFF7A26792312232D78A97C003E
:103F53007DFE7BFF7A26793212232D1222A9124B82
:103F6300617BFE7A00796DE4FDFF124FC37BFF7A1C
:103F730026794EE4FD7F041251097815E2B4010954
:103F83007BFF7A267941E4800B7815E2700E7BFF84
:103F93007A267946FD7F07125109800A7A0079A9AA
:103FA3001224BD124FC37A00797C7D0112400C7D2F
:103FB30001123FFA7D017F041251097A00798B7D4A
:103FC3000212400C7D02123FFA7D027F0412510956
:103FD3007BFE7A00799A7D03E4FF124FC37BFF7A5D
:103FE30026794B7D037F0E1251097BFF7A26794E8A
:073FF3007D037F0402510968
:103FFA007BFF7A26794B7F0E1251097BFF7A26794D
:0A400A004E227BFEE4FF124FC3229A
:1042CC00E4785AF20804F208F21248F97F0102432A
:1042DC003B7815E2FF6003B40203122A8B12519152
:1042EC00EFB40117C31224C49000E24005740FF020
:1042FC008003E004F01252E27F00227D1E12237034
:10430C001225255038785BE2B4010E1222A9124B0B
:10431C00611248F97F011227EBE4785BF20804F292
:10432C00785AE2701012233C500B7401F2E4FF1225
:10433C0027EB0242DD12233C409702439D785CE25E
:10434C00B401091222A9124B61123F13785B74015C
:10435C00F2E408F2785AE2703012233C502B12230C
:10436C00001223567401F212333A782412226B1283
:10437C0023567402F212333A781E12226B12235611
:10438C007403F212333A0242DD12233C5003024210
:08439C00DDE4785AF20242DD73
:104C7C007BFF7A267950E4FDFF124FC37A26795FC9
:104C8C001224DA125109123E0F1223DF785A122223
:104C9C005C122387785E1222BE7D0112376578156F
:104CAC00E2FF6003B40203122A8B125191EFB4019C
:104CBC000912239A1252E27F00221223CD7018128D
:104CCC003E0F1223DF785A12225C122387785E1271
:104CDC0022BE7D01123765124F78125307EF60BE6A
:024CEC007F0047
:014CEE0022A3
:10300F00E47860F208F278641213480000000012AE
:10301F00318512225C12238778681222BE7D01123D
:10302F0037657815E2FF6003B40203122A8B125141
:10303F0091785BEFF2BF010912239A1252E27F00DF
:10304F0022785BE264026003023157122335125279
:10305F00E21222A9124B617BFF7A2679727D0A1246
:10306F004014EF6401600302313E785AF2785AE25D
:10307F00C364809485507A78B274FEF2087400F2BB
:10308F00087462F27BFE7A007960124D59EF705727
:10309F00785AE204F2D37861E2946618E26480947D
:1030AF008650077406F2087466F2C37861E2949A48
:1030BF0018E2648094B940077439F208749AF27870
:1030CF006412225CC000C001C002C0037860E2FC41
:1030DF0008E2FDEC120FB7D003D002D001D00012DE
:1030EF000C9D786412130B7FF47E011251D80230BD
:1030FF007C786412226B79A0784012245C78641279
:10310F00130B7F7B7EC27D9E7C3D786412225C1206
:10311F000D8E7B007AC0791E78C4120C9D12253853
:10312F009000E91223069000C71212FF121C6612BC
:10313F0022A9124B6112318512225C122387786803
:10314F001222BE7D011237651223CD701A123E0F67
:10315F00785C1223E1785C12225C12238778681264
:10316F0022BE7D01123765124F78125307EF70039D
:05317F000230317F0069
:10318400227BFF7A267963E4FDFF124FC37BFF7A2B
:103194002679817D017F06125109123E0F785C1257
:0C31A400130BE4FFFE7D207C41785C22D0
:102E6D009000D7122306786112130B1230027BFFEC
:102E7D007A2679A37D017F06125109123E0F122287
:102E8D004E1222B67D011237657815E2FF6003B44C
:102E9D000203122A8B125191785AEFF2BF011112CF
:102EAD00239A786112226B12253E1252E27F002284
:102EBD00785AE264047058122335122FF37C3D7852
:102ECD005B12225C120C9D785B12225C120E9790A5
:102EDD0000D712229312242F122293120F34400A7C
:102EED009000D712131741A000001224F91222935B
:102EFD00120F346002500A9000D71213173DCCCC3C
:102F0D00CD123E0F12224E1222B67D011237657878
:102F1D005AE264057058122335122FF37CBD785B8D
:102F2D0012225C120C9D785B12225C120E9790009F
:102F3D00D712229312242F122293120F34400A908B
:102F4D0000D712131741A000001224F91222931278
:102F5D000F346002500A9000D71213173DCCCCCD20
:102F6D00123E0F12224E1222B67D01123765785A8B
:102F7D00E2640270489000D1F0A31222A8124B61B6
:102F8D007BFF7A2679947D0A124014EF700A7861DE
:102F9D0012226B12253E800E121C669000D7122352
:102FAD0006786112130B1222A9124B611230021214
:102FBD003E0F12224E1222B67D011237659000EDA2
:102FCD00E07004A3E06401700E123E0F12224E1247
:102FDD0022B67D01123765124F78125307EF700339
:052FED00022E967F009A
:102FF20022123E0F785B12130B7FCD7ECC7DCC224A
:0D3002007BFF7A267985E4FDFF124FC32283
:1043A40012244C9000DB12229312238712250590CD
:1043B40000DB1223060812130B1244681222C37D79
:1043C400021237657815E2FF6003B40203122A8BE8
:1043D400125191785AEFF2BF010912239A1252E254
:1043E4007F0022785B122499E4F20874C8F2E4FB9B
:1043F4007D02124ACE122505785AE26402705612E2
:10440400233508E2FC08E2FD1224549000DB12126A
:10441400FF1222A9124B617BFF7A2679B67D0A121C
:104424004014EF701C785D12226B9000DB1212FFB7
:1044340012244C9000DB122293122387122505804C
:1044440003121C661222A9124B611244681222C381
:104454007D02123765124F78125307EF700302433F
:03446400C87F000E
:10446700227BFF7A2679A7E4FDFF124FC3785BE230
:05447700FE08E2FF2237
:10479E009000F3785B1224431248469000F3E0FF3A
:1047AE007E001222C3FD1237657815E2FF6003B456
:1047BE000203122A8B125191785AEFF2BF0109129D
:1047CE00239A1252E27F0022785BE2FF7E001224CF
:1047DE009EE4F2087413F2E4FBFD124ACE785BEF0E
:1047EE00F218E26402704212233508E29000F312CE
:1047FE0022A8124B617BFF7A2679D47D0A124014CF
:10480E00EF700B785CE29000F3F018F28003121C4C
:10481E00661222A9124B617BFF124846785BE2FFBB
:10482E007E001222C3FD123765124F78125307EF26
:07483E0070030247B77F0081
:0C484500227A2679C5E4FDFF124FC32241
:10360B009000D7122306785B12130B9000E912235C
:10361B0006785F12130B123758122277120F346091
:10362B002C402A7C3C122279120F34502012250D8B
:10363B00122293120F346015401312251912229384
:10364B00120F3450087BFF7A2679F280067BFF7AC3
:10365B002779017D01E4FF124FC37815E2FF600368
:10366B00B40203122A8B125191785AEFF2BF01095F
:10367B0012239A1252E27F0022785AE2640260030C
:10368B000237497FE17E6F1253287863EFF27FE2B6
:10369B007E6F125328AD077863E275F064A47C004B
:1036AB002DFDEC35F0FC1224549000C71212FF12C2
:1036BB0023349000D71213173F8000009000C712DD
:1036CB0023061225381222A9124B617BFF7A277928
:1036DB00107D0A124014EF7012785B12226B1225C8
:1036EB003E785F12226B1225388003121C66122261
:1036FB00A9124B61123758122277120F34603240E5
:10370B00307F0A7ED77D237C3C12227F120F3450F0
:10371B002012250D122293120F346015401312251F
:10372B0019122293120F3450087BFF7A2679F280FC
:10373B00067BFF7A2779017D01E4FF124FC3124FFD
:0C374B0078125307EF70030236657F0010
:0E375700227BFF7A2679E3E4FDFF124FC322A6
:103D0A009000E8785B122443123DF7B401067A2743
:103D1A00794480047A27793D123E077815E2FF60DC
:103D2A0003B40203122A8B125191785AEFF2BF019F
:103D3A000912239A1252E27F0022785AE26404702E
:103D4A002212233508E204F2E2B40202E4F2785BBA
:103D5A00E27BFFB401067A27794480047A27793D09
:103D6A00123E07785AE2640570241223351224623F
:103D7A0050037401F2785BE27BFFB401067A27797B
:103D8A004480047A27793D7D017F03125109785ACC
:103D9A00E26402704912233508E29000E81222A870
:103DAA00124B617BFF7A27792E7D0A124014EF703D
:103DBA000B785CE29000E8F018F28003121C66129D
:103DCA0022A9124B617BFF123DF7B401067A2779CB
:103DDA004480047A27793D7D017F03125109124FED
:0C3DEA0078125307EF7003023D257F00A4
:103DF600227A27791FE4FDFF124FC3785BE27BFF2F
:093E0600227D017F031251092203
:103C03009000D4E0FF785B122445123CF2B4010625
:103C13007A27796980047A277978123D027815E248
:103C2300FF6003B40203122A8B125191785AEFF208
:103C3300BF010912239A1252E27F0022785AE264EA
:103C430004702212233508E204F2E2B40202E4F221
:103C5300785BE27BFFB401067A27796980047A27CF
:103C63007978123D02785AE26405702412233512E2
:103C7300246250037401F2785BE27BFFB401067A9D
:103C830027796980047A2779787D01E4FF124FC38D
:103C9300785AE26402704912233508E29000D41284
:103CA30022A8124B617BFF7A27795A7D0A124014AE
:103CB300EF700B785CE29000D4F018F28003121CD2
:103CC300661222A9124B617BFF123CF2B401067A01
:103CD30027796980047A2779787D01E4FF124FC33D
:0E3CE300124F78125307EF7003023C207F004F
:103CF100227A27794BE4FDFF124FC3785BE27BFF09
:093D0100227D01E4FF124FC322F0
:1031B000E4785DF2087C007DFE7BFF7A277987FE4C
:1031C0007F0F1211417815E2FF785BF208EFF212DF
:1031D0003F13785BE2FF6003B40203122A8B785D31
:1031E000E2702F12233C502A12230012235674013E
:1031F000F212333A782412226B1223567402F2121E
:10320000333A781E12226B1223567403F212333AA9
:10321000800912233C4004E4785DF2125191785AFF
:10322000EFF2BF010912239A1252E27F0022785A6C
:10323000E26404703512233508E204F2E2B40302BA
:10324000E4F2785BE2B401097BFF7A2779A5E48098
:103250000B785BE2700E7BFF7A2779AAFD7F07125D
:10326000510980061224B9124FC3785AE2640570DE
:103270003312233512246250037402F2785BE2B4F5
:1032800001097BFF7A2779A5E4800B785BE2700E59
:103290007BFF7A2779AAFD7F071251098006122445
:1032A000B9124FC3785AE26402600302332B12232F
:1032B0003508E27815F21222A9124B617BFF7A27BA
:1032C00079967D0A124014EF700B785CE27815F263
:1032D000785BF28025785BE2B4021C9000EF121359
:1032E0001700000000782412134800000000781E28
:1032F00012134800000000121C661222A9124B6132
:10330000123F131223031223567401F212333A7838
:103310002412226B1223567402F212333A781E12D0
:10332000226B1223567403F212333A124F7812535F
:0933300007EF70030231D27F00A7
:013339002271
:102CBB009000D5785B122422785FEEF208EFF29049
:102CCB0000E6E0FEA3E0FF785D1224277861EE12A8
:102CDB002445122E4E7007122E42785B8003122E63
:102CEB005FE2FE08E2FF1222C3FD1237657815E2A0
:102CFB00FF6003B40203122A8B125191785AEFF240
:102D0B00BF010912239A1252E27F0022785AE26421
:102D1B000470471223359000E8E07016785C12249B
:102D2B006DD3081224914006E4F208740AF2785B22
:102D3B00801C785EE22405122470D308E294E81814
:102D4B00E2940340077403F20874E8F2785DE2FE44
:102D5B0008E2FF1222C3FD123765785AE264057050
:102D6B004E1223359000E8E0701D785CE224FFF2F0
:102D7B0018E234FFF208E2700218E27006785BF298
:102D8B000804F2785B801C785EE224FBF218E234D4
:102D9B00FFF208E2700218E27007785DF208740522
:102DAB00F2785DE2FE08E2FF1222C3FD123765786E
:102DBB005AE26402707212233508E2FF08E29000B7
:102DCB00D5CFF0A3EFF09000E612229F124B617B60
:102DDB00FF7A2779BE7D0A124014EF7025785F9039
:102DEB0000D51224A508E2FC08E2FD9000E6ECF009
:102DFB00A3EDF0785BEEF208EFF208ECF208EDF2DF
:102E0B008003121C661222A9124B617BFF122E4EFD
:102E1B007007122E42785B8003122E5FE2FE08E2EF
:102E2B00FF1222C3FD123765124F78125307EF7052
:062E3B0003022CF87F00E9
:102E4100227A2779CD7D017F05125109227A2779CE
:102E5100AFE4FDFF124FC39000E8E07BFF227A2729
:0C2E610079D47D017F05125109785D22B3
:04401400786DEDF2E4
:10401800E4786FF2FDFF124FC3786FE2FF7E001263
:1040280022C3FD1237651252E27815E2FF6003B42D
:104038000203122A8B125191786EEFF2BF0412120A
:10404800233408E204F2E2FF7E001222C3FD123795
:1040580065786EE2B4051212233408E214F2E2FF26
:104068007E001222C3FD123765786EE26402706921
:104078001252E2122334786DE2FF786FE2B5070F2F
:104088007A2779DB1240FC9000E27401F0FF227A73
:104098002779E11240FC786FE2FF7E001222C3FD0F
:1040A8001237659000E2E0640D702E9000DFE004A6
:1040B800F0E0B405037404F0121C669000DFE0C35E
:1040C800940340151222A9124B617BFF7A2779E7E6
:1040D8007D017F0612510980FE786EE2B401061256
:1040E80052E27F0022124F78125307EF700302400A
:0340F800317F0015
:1040FB00227BFF7D01E4FF1251097FE87E03125101
:02410B00D822B8
:104494004100E2004200D103844100F3054100D30E
:1044A400004100DF004100E3004200E0003241002F
:1044B400E8014100D4008115004400EF0000000031
:1044C4004400E9000000004400C70000000044006C
:1044D400D73F8000004200D500014200E60064821C
:1044E4001600004400DB3F800000822800004200E8
:1044F400E400004100CB014100CC00821A0000829C
:09450400220000841E00000000EA
:0E533800E47822F208F2229000D1F0A3F022D5
:10519100E4FF3080077822F208F27F0430810512A3
:1051A10053387F0530B3051253387F0230B40512EE
:0451B10053387F01EF
:0151B50022D7
:104ACE007861EEF208EFF208EDF208EBF212519176
:104ADE00EF6404702612533F7862E22401F218E26A
:104AEE003400F27866E2FE08E2FFD37862E29F18A5
:104AFE00E29E4004E4F208F2124B4B125191EF6425
:104B0E0005703212533F7862E224FFF218E234FF4E
:104B1E00F2E2FE08E2FFE4FCFD7BFF7AFFF9F8C348
:104B2E0012125F700D7866E2FF08E27861CFF2082C
:104B3E00EFF2124B4B7861E2FE08E2FF227861E25F
:104B4E00FE08E2FF08E2FD08E2FB08E27874F212CA
:034B5E0037652296
:1052E20020800920B40620B303308106E412533F24
:0352F20080EE2229
:1039E500785BEFF2FB18E2FF3395E0FE7C007D6427
:1039F5001211B4EBFD3395E0FCEF2DFDEE3CFC120E
:103A05000FB7E4FBFA79C8784222120D8E9000E9CF
:103A15001212FF9000E9E0FCA3E0FDA3E0FEA3E0A5
:103A2500FF120FF0AB07AA067C007D6412121B780B
:103A350080EFF27C007D64AF03AE0212121B788129
:103A4500EDF218E2FF22785CE2FC120FBC7B007AF3
:103A550040791C7846020D8E785DE2FC120FBC7B26
:103A6500007A2479747849020D8E120FF07B007A62
:103A7500E179F57805125057AC00AD01AE02AF0300
:103A85007B407A42790F78001250577883EFF278AD
:103A950080E2FF7DEE229000E9E0FCA3E0FDA3E0DB
:103AA500FEA3E0FF22FDEE3CFC120FB7E4FBFA7922
:103AB5007A7844120E979000D70212FF785AE2FCEA
:103AC500020FBC120E979000DB0212FFFFEE3C9036
:103AD50000E0F0A3EFF07FF422120E979000E902C8
:103AE50012FF120E979000C70212FF120C9D900054
:043AF500EF0212FFCB
:101513007E6A121B407FF17E6A125328785BEFF2DA
:1015230018E2640A60030216FD08E2640A6003021B
:1015330016FD7E6F121B4A7FFA121ADD123AD17E14
:101543006F1253289000F3EFF07E6F121B407FF170
:10155300121ADD123A00123ADE7E6F121B547E6FAE
:10156300121AFE123A00123AE77E6F121B827E6F46
:10157300121B1F123AAA7E6F121B9D7FF37E6F12FE
:1015830053281239E5123AC87E6F121C5B7E6F1224
:101593001C29EFF07E6F121BA77E6F121B5E90005B
:1015A300E6F0A3EFF07F007E681253289000D3EF9C
:1015B300F07E6F121C4E7E6F1253287815EFF27F68
:1015C300017E681253289000E3EFF07E6F121BED4B
:1015D3007E6F121BE37FEC121BF77FEB121B8C1247
:1015E3003A07120D8EC004C005C006C007123AC1E7
:1015F300D003D002D001D000120C9DC004C005C09E
:1016030006C007123A4BD003D002D001D000120C0F
:101613009DC004C005C006C007123A5DD003D002C6
:10162300D001D000123AF07E6F121C0B7FE6121C21
:101633001F7FE7121BF77FE8121B8C123A07120D6C
:101643008EC004C005C006C007123AC1D003D00241
:10165300D001D000120C9DC004C005C006C0071203
:101663003A4BD003D002D001D000120C9DC004C06D
:1016730005C006C007123A5DD003D002D001D000E6
:10168300120C9D782412130B7FD17E6F125328788E
:101693005AEFF27FD2121C1F7FD37E6F125328782A
:1016A3005CEFF27FD47E6F121C35123A07120D8E57
:1016B300C004C005C006C007123AC1D003D002D08F
:1016C30001D000120C9DC004C005C006C007123A29
:1016D3004BD003D002D001D000120C9DC004C00532
:1016E300C006C007123A5DD003D002D001D0001269
:1016F3000C9D781E12130B02178F9000E07427F0D5
:10170300A37410F0E49000F3F09000E912131700B3
:101713000000009000C7121317411000009000D77B
:101723001213173F8000009000DB1213173F800055
:10173300009000E87401F09000D5E4F0A304F09069
:1017430000E6E4F0A37464F0E49000D3F09000E3C7
:10175300F09000DFF09000D4F09000EF1213170028
:10176300000000782412134800000000781E1213B2
:101773004800000000E47815F2C2AF7FF07E6F12DC
:10178300536E7F017E681219B4121BB19000E0E022
:10179300F47003A3E0F460030219B19000F3E0F4E2
:1017A30060030219B19000E8E0FF3395E0FEEFF427
:1017B3004E60030219B19000D5E0F47003A3E0F486
:1017C30060030219B19000E6E0F47003A3E0F46053
:1017D300030219B19000D3E0F460030219B17E64EF
:1017E300121B4A7FFA121C01FB18E2FF3395E0FE3D
:1017F3007C007D641211B4EBFD3395E0FCEF2D12F8
:101803003AD17E641253289000F3EFF07FF0121C5C
:10181300447FF17E641253281239E5123ADE7E6466
:10182300121B547E64121AFE123A00123AE77E64C7
:10183300121B827E64121B1F123AAA7E64121B9D26
:101843007FF37E641253281239E5123AC87E64127C
:101853001C5B7E64121C29EFF07E64121BA77E645E
:10186300121B5E9000E6F0A3EFF07E64121C4E7E26
:10187300641253287815EFF27E64121BED7E641216
:101883001BE37FEC121C157FEB121BD2123A0712DB
:101893000D8EC004C005C006C007123AC1D003D0E4
:1018A30002D001D000120C9DC004C005C006C007C1
:1018B300123A4BD003D002D001D000120C9DC004C9
:1018C300C005C006C007123A5DD003D002D001D0D4
:1018D30000123AF07FE6121C447FE7121C017FE8F6
:1018E300121C157FE9121BD2123A07120D8EC00487
:1018F300C005C006C007123AC1D003D002D001D040
:1019030000120C9DC004C005C006C007123A4BD09C
:1019130003D002D001D000120C9DC004C005C00644
:10192300C007123A5DD003D002D001D000120C9D43
:10193300782412130B7E64121C0B7FE47E64125313
:1019430028785BEFF27FE37E64125328785CEFF232
:101953007FE07E64121C35123A07120D8EC004C05C
:1019630005C006C007123AC1D003D002D001D0008F
:10197300120C9DC004C005C006C007123A4BD00329
:10198300D002D001D000120C9DC004C005C006C017
:1019930007123A5DD003D002D001D000120C9D781B
:1019A3001E12130B7FF07E6F1219B4121BB1D2AF4C
:1019B3002212536E7F017E6812536E7D007C68E4B1
:1019C300FF12529E7D017C68E4FF12529E7DF07CE3
:1019D3006FE4FF12529E7DF17C6FE4FF12529E7DF5
:1019E300E17C6F7F0912529E7DE27C6FE4FF12520D
:1019F3009E7DFB7C6F7F0A12529E7DFC7C6FE4FF11
:101A030012529E7DF27C6F7F0112529E7DF37C6F9A
:101A1300E4FF12529E9000F3E0FF7DF47C6F1252BC
:101A23009E7DF97C6F7F6412529E7DFA7C6FE4FF8A
:101A330012529E9000D5A3E0FF7DF87C6F12529E58
:101A43007DF57C6F7F0112529E7DF67C6FE4FF1261
:101A5300529E7DF77C6FE4FF12529E7DEF7C6FE414
:101A6300FF12529E7DEA7C6FE4FF12529E7DEE7C54
:101A73006FE4FF12529E7DED7C6FE4FF12529E7D58
:101A8300EC7C6FE4FF12529E7DEB7C6FE4FF1252FD
:101A93009E7DE57C6FE4FF12529E7DE67C6FE4FF42
:101AA30012529E7DE77C6FE4FF12529E7DE87C6FAD
:101AB300E4FF12529E7DD17C6FE4FF12529E7DD2D1
:101AC3007C6FE4FF12529E7DD37C6FE4FF12529E23
:101AD3007DD47C6FE4FF12529E227E6F12532878CE
:101AE3005BEFF2FB18E2FF3395E0FE7C007D6412AE
:101AF30011B4EBFD3395E0FCEF2D227FE212532866
:101B0300785BEFF2FB18E2FF3395E0FE7C007D6427
:101B13001211B4EBFD3395E0FCEF2D227FFC125341
:101B230028785BEFF2FB18E2FF3395E0FE7C007D43
:101B3300641211B4EBFD3395E0FCEF2D227FF0121C
:101B43005328785AEFF2227FF9125328785AEFF28A
:101B5300227FE1125328785AEFF2227FF61253289C
:101B6300785BEFF2FB18E2FF3395E0FE7C007D64C7
:101B73001211B4EBFD3395E0FCEF2DFFEE3C227F19
:101B8300FB125328785AEFF2227E6F125328785DA6
:101B9300EFF2785BE2FC120FBC227FF2125328783B
:101BA3005AEFF2227FF5125328785AEFF2227FF090
:101BB3007E6A12536E7FF17E6A12536E7DF07C6AE9
:101BC3007F0A12529E7DF17C6A7F0A12529E227E08
:101BD30064125328785DEFF2785BE2FC120FBC22AB
:101BE3007FED125328785BEFF2227FEE12532878B1
:101BF3005AEFF2227E6F125328785CEFF2227E6452
:101C0300125328785BEFF2227FE5125328785AEFBC
:101C1300F2227E64125328785CEFF2227E6F125315
:101C230028785BEFF2227FF81253289000D5E4F076
:101C3300A322125328785DEFF2785BE2FC120FBC0B
:101C4300227E64125328785AEFF2227FEF12532830
:101C53009000D4EFF07FEA227FF71253289000E838
:031C6300EFF0227D
:1051F8007F007E6812536E9000D3E0FF7D007C68CC
:0F52080012529E9000E3E0FF7D017C6802529EEF
:101C66007E6F1221D0123A437DF97C6F12529E7D0F
:101C7600FA1221A8123A9B123A07123A0F7DF01275
:101C86002246121E947DE1122246121FC97DFB7C5C
:101C96006F12529E7C6F1220FC123A407DF27C6FCE
:101CA60012529E7DF31221A89000DB123A9E123A40
:101CB60007123AC87C6F12220B7C6F12216A7DF5DF
:101CC6007C6F12529E7DF61221B27C6F1222167C18
:101CD6006F1222217C6F121DFC123A6F7C6F12521A
:101CE6009E7DED1221B27C6F1221BC7C6F121F0CFF
:101CF6007DE57C6F12529E7DE61221F778827DE7A4
:101D060012222C7DE87C6F1220417DD17C6F12520D
:101D16009E7DD21221F77882E2FF7DD37C6F12522C
:101D26009E78837DD412222C9000D3E06003021D9E
:101D3600FB7E641221D0123A437DF97C6412529ED6
:101D46007DFA12219E123A9B123A07123A0F7DF043
:101D5600122234121E947DE1122234121FC97DFB19
:101D66007C6412529E7C641220FC123A407DF27C06
:101D76006412529E7DF31221C69000DB123A9E1227
:101D86003A07123AC87C6412220B7C6412216A7DDF
:101D9600F57C6412529E7DF61221C67C64122216D0
:101DA6007C641222217C64121DFC123A6F7C641240
:101DB600529E7DED12223C7C641221BC7C64121F73
:101DC6000C7DE67C6412529E7DE712219E7DE81210
:101DD60022017DE97C641220417DE57C6412529EDD
:101DE6007DE412223C7DE31222017883E2FF7DE04E
:051DF6007C6412529E06
:101DFB00227815E2FF7DEA12529E9000EFE0FCA3E1
:101E0B00E0FDA3E0FEA3E0FF120FF0E47B64FAF920
:101E1B00F81250577880EBF29000EFE0FCA3E0FD56
:101E2B00A3E0FEA3E0FF120FF0E47B107A27F9F892
:101E3B00125057AC00AD01AE02AF03E47B64FAF96C
:101E4B00F81250577881EFF29000EFE0FCA3E0FD21
:101E5B00A3E0FEA3E0FF120FF07B407A42790F78EC
:101E6B0000125057AC00AD01AE02AF03E47B107A09
:101E7B0027F9F81250577882EFF29000EFE0FCA3AD
:101E8B00E0FDA3E0FEA3E0FF227881E2FF7DF112EB
:101E9B00529E9000E9E0FCA3E0FDA3E0FEA3E0FF6F
:101EAB00E4FBFA79C87842120E979000E91212FF00
:101EBB009000C7E0FCA3E0FDA3E0FEA3E0FFE4FB82
:101ECB00FA79C87842120D8E9000C71212FF90005B
:101EDB00C7E0FCA3E0FDA3E0FEA3E0FF120FF0AB15
:101EEB0007AA067C007D6412121B7880EFF27C003F
:101EFB007D64AF03AE0212121B7881EDF218E2FF84
:101F0B00227883E2FF7DEB12529E7824E2FC08E2FA
:101F1B00FD08E2FE08E2FF120FF0E47B64FAF9F829
:101F2B001250577880EBF27824E2FC08E2FD08E2CD
:101F3B00FE08E2FF120FF0E47B107A27F9F812503B
:101F4B0057AC00AD01AE02AF03E47B64FAF9F812B3
:101F5B0050577881EFF27824E2FC08E2FD08E2FEAC
:101F6B0008E2FF120FF07B407A42790F7800125093
:101F7B0057AC00AD01AE02AF03E47B107A27F9F842
:101F8B001250577882EFF27824E2FC08E2FD08E267
:101F9B00FE08E2FF120FF07B007AE179F57805126B
:101FAB005057AC00AD01AE02AF037B407A42790FC4
:101FBB0078001250577883EFF27880E2FF22788115
:101FCB00E2FF7DE212529E9000C7E0FCA3E0FDA36E
:101FDB00E0FEA3E0FFE4FBFA79C87842120E97907B
:101FEB0000C71212FF9000D7E0FCA3E0FDA3E0FEB8
:101FFB00A3E0FFE4FBFA797A7844120D8E9000D7B8
:10200B001212FF9000D7E0FCA3E0FDA3E0FEA3E0DB
:10201B00FF120FF0AB07AA067C007D6412121B782F
:10202B0080EFF27C007D64AF03AE0212121B78814D
:10203B00EDF218E2FF227883E2FF12529E781EE245
:10204B00FC08E2FD08E2FE08E2FF120FF0E47B64FD
:10205B00FAF9F81250577880EBF2781EE2FC08E29E
:10206B00FD08E2FE08E2FF120FF0E47B107A27F97D
:10207B00F8125057AC00AD01AE02AF03E47B64FA2B
:10208B00F9F81250577881EFF2781EE2FC08E2FD66
:10209B0008E2FE08E2FF120FF07B407A42790F78DC
:1020AB0000125057AC00AD01AE02AF03E47B107AC7
:1020BB0027F9F81250577882EFF2781EE2FC08E20B
:1020CB00FD08E2FE08E2FF120FF07B007AE179F5E2
:1020DB007805125057AC00AD01AE02AF037B407ACE
:1020EB0042790F78001250577883EFF27880E2FF35
:1020FB00227881E2FF7DFC12529E9000D7E0FCA378
:10210B00E0FDA3E0FEA3E0FFE4FBFA797A7844124A
:10211B000E979000D71212FF9000DBE0FCA3E0FDBE
:10212B00A3E0FEA3E0FFE4FBFA79C87842120D8E20
:10213B009000DB1212FF9000DBE0FCA3E0FDA3E0BC
:10214B00FEA3E0FF120FF0AB07AA067C007D641222
:10215B00121B7880EFF27C007D64AF03AE022290FD
:10216B0000D5A3E0FF7DF812529E9000E6E0FAA3A3
:10217B00E0FB7C007D64FFAE021211C67880EFF2AB
:10218B007C007D64AF03AE021211C67881EDF218AC
:10219B00E2FF227881E2FF7C6412529E227881E278
:1021AB00FF7C6F12529E227881E2FF7C6F12529E4F
:1021BB00227882E2FF7DEC12529E227881E2FF7C34
:1021CB006412529E227FEF12536E9000E0E0FAA34E
:1021DB00E0FB7C007D64FFAE021211C67880EFF24B
:1021EB007C007D64AF03AE021211C6227881E2FF40
:1021FB007C6F12529E227882E2FF7C6412529E22E6
:10220B009000F3E0FF7DF412529E229000E8E0FF75
:10221B007DF712529E229000D4E0FF7DEF12529E6A
:10222B0022E2FF7C6F12529E227C6412529E7C64CF
:10223B00227881E2FF7C6412529E227C6F12529EA6
:03224B007C6F2283
:0C537B008FE4EEF5E375E64675E6B92216
:0D536100E4F5E7F5E5F5E675E380F5E422F7
:0F53280075E78275E50112537B00AFE212536106
:015337002253
:10529E00AB0775E78275E5028DE4ECF5E3AF038F9E
:0852AE00E2125380000253617B
:0D536E0075E78275E50312537B0002536161
:10450D008C2A00000000000000000000000084362E
:07451D0000000000813A00DC
:104E2D0078A8E2FB08E2FA08E2F912129578A8E2F6
:104E3D00FB08E2FA08E2F922789BE2FB08E2F908A6
:104E4D00E2FA08E2CBF82212130B7897E2FC08E2A3
:104E5D00FD08E2FE08E2FF22E0F8A3E0F9A3E0FA84
:104E6D00A3E0FB22EBF208EAF208E9F222E4FBFAF6
:0C4E7D007841020E97121275E4FBFA2235
:10001E00E4FFFE00000000000FBF00010EEF640CB5
:03002E004E70F021
:0100310022AC
:10513700E4FDD29012001E7C80ECD394004019C28B
:105147009012001E12001E309103ED4CFDD29012FA
:0D515700001EECC313FC80E112001EAF052A
:015164002228
:054D590078AF124E715D
:104D5E00E478B5F2C296D29012513778AF124E3C2B
:104D6E00EF12118012513778AF124E3C900001EFC6
:104D7E0012119212513778B2124E3CEF121180126C
:104D8E00513778B2124E3C900001EF121192D2962A
:104D9E0078AF124E3C121167FF54C064C06004EF2E
:104DAE0030E60578B57401F2121167543F12118086
:044DBE0078B5E2FFE3
:014DC20022CE
:053AF90078A8124E71D7
:103AFE0078ADE2FE08E2AA06F978B2E4124E727BC5
:103B0E00FE7A0079AB124D59EF6003023C02D37876
:103B1E00ACE2946618E26480948650077406F2084C
:103B2E007466F2C378ACE2949A18E2648094B94059
:103B3E00077439F208749AF278ABE2FC08E2FDECF5
:103B4E00120FB77B7B7AC2799E783D120D8E7B0069
:103B5E007AC0791E78C4120C9D9000E9124E65123F
:103B6E000C99124E2D124E8279207841120D8E1222
:103B7E000FF07C007D0A12121BAC06AD07EC120F83
:103B8E00B7124E2D124E82F9F8120F346011400FFB
:103B9E00124E3A121275120FA1124E3A12129512BD
:103BAE004E3A124E8279FE7843120F34500A124E5C
:103BBE003A12136143FE000078ADE2FE08E278058A
:103BCE00CEC313CE13D8F9FF78ADEEF208EFF2FDA7
:103BDE00AC06E4120FB77BF07A1679C8783D120D59
:103BEE008EE4FBFA794878C2120C9D124E3A900080
:043BFE00041212AFEC
:013C0200229F
:1046DB00789B12134800000000E4789FF27BFE7A6F
:1046EB000079A0123AF978A0124E59783AE225E0F7
:1046FB0025E0242AF812130B783AE204F2E2B40311
:10470B0002E4F2E4789FF2789FE2FFC36480948323
:10471B005021124E45C000EF25E025E0242AF81267
:10472B004E59D000120C9D789B12130B789FE2040C
:10473B00F280D4789B124E59E4FBFA794078401200
:10474B000E97789B12130B9000F3E0FFC374149F2A
:10475B00FDE49400FCE4120FB7124E45120D8EC00F
:10476B0004C005C006C0079000F3E0FCE4120FBCC8
:10477B007836124E47120D8ED003D002D001D000E6
:10478B00120C9D79A0124E7A7897124E54783612ED
:02479B004E547A
:01479D0022F9
:103E0F00E47895F208F21246DB120FF07887EEF2A3
:103E1F0008EFF2124E89788912130B7F6F7E127D95
:103E2F00837C3A7889124E47120F345009788912E1
:103E3F001348000000007BFE7A00798D1241F37861
:103E4F009112130B7FAE7E2A7D7B7C3C7889124EBC
:103E5F0047120D8EA804A905AA06AB077FDF7E4F78
:103E6F007D5D7C40120C997891124E47120D8EC0D9
:103E7F0004C005C006C0077F337E937D887C4378DE
:103E8F008D124E47120C9DA804A905AA06AB07D0A8
:103E9F0007D006D005D004120E97C004C005C00687
:103EAF00C0077888E225E0FD18E233FC120FB7D087
:103EBF0003D002D001D000120E971248559000D7B0
:103ECF00124E65120D8E9000DB124E65120D8E781C
:103EDF008312130BE4FFFE7D207C417883124E4743
:103EEF00120D8E120FF07895EEF208EFF2FDAC0680
:103EFF00EC120FB77920124E7A788312130B788356
:033F0F00124E59F6
:013F1200228C
:10516500E4F5D8F5E9F5F9F5D9783BE2FE08E2F57D
:10517500EAEEF5FA7818E2FE08E2FF783CE22FF253
:0C51850018E23EF275DA49D2DED2AE220A
:104F2900786E12130BE4FFFE7D487C44786EE2FB39
:104F390008E2F908E2FA08E2CBF8120D8EE4FBFA6E
:104F490079C87842120E97E4FBFA79487843120C33
:104F59009DA804A905AA06AB077F007E247DF47CE1
:0F4F690048120E97120FF07818EEF208EFF222AE
:10452400943D0000000000000000000000000000B6
:0F453400000000000000845100000000815500CD
:1050D200120C9D78ABE2FB08E2FA08E2F922121305
:1050E2000B789EE2FC08E2FD08E2FE08E2FF22786D
:1050F2009AE2FB08E2F908E2FA08E2CBF822EBF2C4
:0751020008EAF208E9F222BD
:054DC30078B21251005E
:104DC800E478B8F2C297D29012513778B21250D71D
:104DD800EF12118012513778B21250D7900001EFBC
:104DE80012119212513778B51250D7EF1211801262
:104DF800513778B51250D7900001EF121192D2971F
:104E080078B21250D7121167FF54C064C06004EF23
:104E180030E60578B87401F2121167543F12118018
:044E280078B8E2FF75
:014E2C002263
:05454A0078AB125100E6
:10454F0078B574FEF2087400F20874B0F27BFE7A4C
:10455F000079AE124DC3EF6003024615D378AFE278
:10456F00946618E26480948650077406F2087466A5
:10457F00F2C378AFE2949A18E2648094B94007745A
:10458F0039F208749AF278AEE2FC08E2FDEC120FF1
:10459F00B77B0F7A457901783C120D8E7B177AD94C
:1045AF00794E78C11250D21212951250D51212753F
:1045BF00E4FBFAF9F8120F346011400F1250D512C4
:1045CF001275120FA11250D512129578B0E2FE0893
:1045DF00E27805CEC313CE13D8F979B1F3EE19F300
:1045EF0078B0E2FC08E2FDE4120FB77BF07A16799F
:1045FF00C8783D120D8EE4FBFA794878C21250D27A
:06460F009000041212AF3E
:014615002282
:0541F300789712510055
:1041F8000812134800000000E478A2F27BFE7A005F
:1042080079A312454A78A71250E578971250D71229
:10421800129578A31250E57855E225E025E0243D73
:10422800F812130B7855E204F2E2B40502E4F2E462
:1042380078A2F278A2E2FFC36480948550211250DC
:10424800F1C000EF25E025E0243DF81250E5D0004C
:10425800120C9D789A12130B78A2E204F280D4789B
:104268009A1250E5E4FBFA79A07840120E97789AF2
:1042780012130B9000F3E0FFC374149FFDE4940045
:10428800FCE4120FB71250F1120D8EC004C005C025
:1042980006C0079000F3E0FCE4120FBC78511250FE
:1042A800F3120D8ED003D002D001D000120C9DE481
:1042B800FBFA79A07841120E97789E1250E0785157
:0342C8001250E0B1
:0142CB0022D0
:06454300845642F0000066
:0E5346007897E2FC08E2FD08E2FE08E2FF2292
:1052F5009000CB7401F0E49000E4F0A3F0D288D2E2
:02530500A822DC
:1052CC009000E4E0FFA3E07828CFF208EFF2E4903E
:0652DC0000CBF0C2A82285
:104E89009000CBE0703DD37829E294E918E29403CD
:104E990040077403F20874E9F27828E2FC08E2FD9D
:104EA900E4120FB7E4FBFA794978C3120C9DE4FBCD
:104EB900FAF97841120E97789712130B1253467824
:104EC9005680077856125348789712130B12534697
:014ED90022B6
:100C960002105CE86480F8E933E83360110460F020
:100CA600ED33EC337009E8FCE9FDEAFEEBFF2204C4
:100CB60060DED3EB9FEA9EE99DE8C2E78CF0C2F7BF
:100CC60095F0400CE8CCF8E9CDF9EACEFAEBCFFB8B
:100CD60012102785D0F05804700320D5B3E80470AD
:100CE600075002B2D502106692D5EC0460F7E4CC48
:100CF600C0E0C398F8603B94186008400DD0E0FB54
:100D060002103EE4FBFAC9FC8028E830E406E4C998
:100D1600FBE4CAFCE830E305E4C9CACBFCE85407A7
:100D26006010F8C3E913F9EA13FAEB13FBEC13FCB2
:100D3600D8F130F52FC3E49CFCEF9BFFEE9AFEED55
:100D460099FDD0E0FBEF4E4D4C701222DB030210F2
:100D560063EC2CFCEF33FFEE33FEED33FDED30E7B5
:100D6600EB02103EEF2BFFEE3AFEED39FDD0E0FB35
:100D760050130BBB0003021066ED13FDEE13FEEFDE
:080D860013FFEC13FC02103E08
:100D8E00EC4D6011E8497017ED33EC3304600DE45F
:100D9E00FCFFFEFD22E933E8330470F802105C120A
:100DAE00102758046009E4CC24815006285009020B
:100DBE001066284003021063C0E0EB4A7044B9800D
:100DCE0006D0E0FB021052EF4E701CBD8008EBFF08
:100DDE00EAFEE9FD80EBE98DF0A4FEE5F0020E7768
:100DEE00E9CDF9EAFEEBFFEF89F0A4FCE5F0CE8940
:100DFE00F0A42EFFE435F0CD89F0A42DFEE435F0FD
:100E0E008067EF4E7005BD80D780C3EF8BF0A4AC2A
:100E1E00F0EE8BF0A42CFCE435F0F8EF8AF0A42C65
:100E2E00E5F038FCE433CB8DF0A42CFCE5F03BF878
:100E3E00EE8AF0A42CFCE5F038F8E433CF89F0A468
:100E4E002CFCE5F038CF3400CE89F0A42FFFE5F06E
:100E5E003EFEE433C98DF0A42EFEE5F039CD8AF0C6
:100E6E00A42FFFE5F03EFEE43DFD33D0E0FB50073E
:100E7E000BBB000F021066EC2CFCEF33FFEE33FEC3
:060E8E00ED33FD02103EF1
:100E9400021066EC5D046005E85904700302105CFE
:100EA400121027580460F6EC4860F2EC7004FDFE62
:100EB400FF22C860DB2481C85009C3986002500631
:100EC4000210639850CAF582E9294B4A7005AB8237
:100ED40002105275F0007C1A7880C3EF9BEE9AEDF5
:100EE40099400DC3EF9BFFEE9AFEED99FDE842F0A9
:100EF400DC23ACF0D0E0FFD0E0FED0E0FDAB8220FC
:100F0400E7101BEB60BAEC2CFCEF33FFEE33FEED85
:100F140033FD02103EE803F830E705C0F075F00039
:100F2400EF2FFFEE33FEED33FD40B830E7C280AA69
:100F340074F8CC6480CCC86480C8F582046043C370
:100F4400EB9FF5F0EA9E42F0E99D42F0E89C45F003
:100F540060305018E5825FFFE582F42B5582FB5028
:100F6400210ABA001D09B90019088016E5825BFB45
:100F7400E582F42F5582FF50090EBE00050DBD0019
:100F8400010CC3EB9FF5F0EA9E42F0E99D42F0E8C4
:0D0F94009C45F06007CC4820E701B3EC223B
:100FA100ED33EC33600A047003BD8004ECB2E7FC5E
:010FB100221D
:100FB20075F020800E75F010800575F0087D007EBA
:100FC200007F003392D530D503121251EC3340101A
:100FD200EF33FFEE33FEED33FDEC33FCD5F0ED22C3
:0E0FE200E5F0247EA2D513CC92E7CDCEFF22FF
:100FF000EDD2E7CD33EC3392D524814006E4FFFEF9
:10100000FDFC22FCE4CFCECDCC24E0501174FF8057
:10101000EDC3CC13CCCD13CDCE13CECF13CF0470F4
:07102000F030D5DE02125191
:1048510002105C22EDA2E7D2E7F9EC3340F260F3FB
:10486100B4FF08ED547F70E8021066F82481C2E0BD
:10487100C0E0F40428FAC313FCED92E7FD78971227
:10488100130BEEA2E7E9BA7F02C31334009400FAD6
:1048910075F091A4E5F013F494FE8AF0A433E5F0E9
:1048A10033248CD313FDE492E7FE7F007C3F7583B4
:1048B10002ECC0E0F8EDC0E0F9EEC0E0FAEFC0E0D4
:1048C100FB88F078971212D3A8F0120E97D0E0FB74
:1048D100D0E0FAD0E0F9D0E0F8120C9DED6480FD53
:1048E10030E7011CD583CAED33CC33F8D0E0A2E721
:0848F1001328C313CC13FD22B0
:10102700E9D2E7C933E833F892D5EDD2E7CD33EC0F
:0710370033FC5002B2D52288
:10103E00EC30E7100FBF000C0EBE00080DBD000413
:10104E000BEB6014A2D5EB13FCED92E7FD2274FFBF
:10105E00FCFDFEFF22E480F8A2D574FF13FC7D8018
:03106E00E480EF2C
:104BFC000238A9E493A3F8E493A34003F68001F2EE
:104C0C0008DFF48029E493A3F85407240CC8C333B9
:104C1C00C4540F4420C8834004F456800146F6DF88
:104C2C00E4800B010204081020408090447CE47E58
:104C3C00019360BCA3FF543F30E509541FFEE4937D
:104C4C00A360010ECF54C025E060A840B8E493A344
:104C5C00FAE493A3F8E493A3C8C582C8CAC583CA6F
:104C6C00F0A3C8C582C8CAC583CADFE9DEE780BE27
:014549000071
:10107100E709F608DFFA8046E709F208DFFA803E61
:1010810088828C83E709F0A3DFFA8032E309F6084E
:10109100DFFA8078E309F208DFFA807088828C83B6
:1010A100E309F0A3DFFA806489828A83E0A3F6086A
:1010B100DFFA805889828A83E0A3F208DFFA804C44
:1010C10080D280FA80C680D4806980F2803380101B
:1010D10080A680EA809A80A880DA80E280CA803384
:1010E10089828A83ECFAE493A3C8C582C8CCC583FC
:1010F100CCF0A3C8C582C8CCC583CCDFE9DEE780CC
:101101000D89828A83E493A3F608DFF9ECFAA9F04A
:10111100EDFB2289828A83ECFAE0A3C8C582C8CCA0
:10112100C583CCF0A3C8C582C8CCC583CCDFEADEB9
:10113100E880DB89828A83E493A3F208DFF980CC1B
:1011410088F0EF60010E4E60C388F0ED2402B40414
:101151000050B9F582EB2402B4040050AF232345BB
:0611610082239010C1730F
:10116700BB010689828A83E0225002E722BBFE0286
:09117700E32289828A83E49322B9
:10118000BB010689828A83F0225002F722BBFE014E
:02119000F32248
:10119200F8BB010DE58229F582E5833AF583E8F093
:1011A200225006E92582C8F622BBFE05E92582C83F
:0211B200F22227
:1011B400EF8DF0A4A8F0CF8CF0A428CE8DF0A42E4F
:0211C400FE2209
:1011C600BC000BBE0029EF8DF084FFADF022E4CC0D
:1011D600F875F008EF2FFFEE33FEEC33FCEE9DECD6
:1011E600984005FCEE9DFE0FD5F0E9E4CEFD22ED1C
:1011F600F8F5F0EE8420D21CFEADF075F008EF2F66
:10120600FFED33FD4007985006D5F0F222C398FD56
:051216000FD5F0EA22F3
:10121B00C2D5EC30E709B2D5E4C39DFDE49CFCEEEE
:10122B0030E715B2D5E4C39FFFE49EFE1211C6C38F
:10123B00E49DFDE49CFC80031211C630D507C3E48A
:06124B009FFFE49EFE225D
:10505700C2D5E830E70FB2D5E4C39BFBE49AFAE484
:1050670099F9E498F8EC30E717B2D512508D12137E
:10507700D7E4C39BFBE49AFAE499F9E498F8800330
:105087001213D730D50DE4C39FFFE49EFEE49DFDC8
:04509700E49CFC2277
:0E125100C3E49FFFE49EFEE49DFDE49CFC22AE
:10125F00EB9FF5F0EA9E42F0E99D42F0EC6480C806
:06126F0064809845F022A6
:10127500BB010789828A830214755005E9F80214B7
:1012850069BBFE05E9F80212D389828A83021481BB
:10129500BB010789828A830212FF5005E9F802140F
:0A12A500C7BBFE05E9F802130B2297
:1012AF00BB010DE58229F582E5833AF5830212FF32
:1012BF005007E92582F80214C7BBFE07E92582F81B
:0412CF0002130B22D9
:0C12D300E2FC08E2FD08E2FE08E2FF2257
:1012DF00BB010789828A8302149E5005E9F8021424
:1012EF0091BBFE05E9F80214AA89828A830214B71A
:0C12FF00ECF0A3EDF0A3EEF0A3EFF02262
:0C130B00ECF208EDF208EEF208EFF2221E
:10131700A8828583F0D083D08212132E12132E1247
:10132700132E12132EE473E493A3C583C5F0C5836C
:10133700C8C582C8F0A3C583C5F0C583C8C582C820
:011347002283
:10134800D083D082E493F208740193F20874029374
:09135800F208740393F2740473AB
:10136100BB010789828A830213175005E9F8021429
:0A137100D3BBFE05E9F80213482281
:10137B00BB010789828A830214F55005E9F8021430
:10138B00ECBBFE05E9F80214FE89828A830215077D
:10139B0075F008758200EF2FFFEE33FECD33CDCC09
:1013AB0033CCC58233C5829BED9AEC99E58298408C
:1013BB000CF582EE9BFEED9AFDEC99FC0FD5F0D669
:1013CB00E4CEFBE4CDFAE4CCF9A88222B800C1B993
:1013DB000059BA002DEC8BF084CFCECDFCE5F0CBD1
:1013EB00F97818EF2FFFEE33FEED33FDEC33FCEB0A
:1013FB0033FB10D703994004EB99FB0FD8E5E4F9C5
:10140B00FA227818EF2FFFEE33FEED33FDEC33FCB1
:10141B00C933C910D7059BE99A4007EC9BFCE99AA5
:10142B00F90FD8E0E4C9FAE4CCFB2275F010EF2FEA
:10143B00FFEE33FEED33FDCC33CCC833C810D707EA
:10144B009BEC9AE899400AED9BFDEC9AFCE899F825
:0E145B000FD5F0DAE4CDFBE4CCFAE4C8F922B8
:0C146900E6FC08E6FD08E6FE08E6FF22AF
:0C147500E0FCA3E0FDA3E0FEA3E0FF22EA
:10148100E493FC740193FD740293FE740393FF22B1
:0D149100E6FB08E6F908E6FA08E6CBF822CB
:0C149E00E0F8A3E0F9A3E0FAA3E0FB22D1
:0D14AA00E2FB08E2F908E2FA08E2CBF822C2
:1014B700E493F8740193F9740293FA740393FB228B
:0C14C700ECF608EDF608EEF608EFF62251
:1014D300D083D082E493F608740193F608740293E0
:0914E300F608740393F674047317
:0914EC00E6FB08E6FA08E6F92225
:0914F500E0FBA3E0FAA3E0F922F8
:0914FE00E2FB08E2FA08E2F9221F
:0C150700E493FB740193FA740293F92240
:00000001FF
