:10535800FF02F6FF0316FF04F6FF0036FF0036FFD4
:1053680002F6FF0316FF0036FF0036FF00366572AF
:025378007200C1
:103D8500E4F5B175B201C2B0121800125174123FB8
:103D9500C91253B99000CD1212C300000000900063
:103DA5007CE0701490008EE004F0E0D394064003AC
:103DB5007406F012539A8005E490008EF090008E00
:103DC500E0B406147430123E9E7BFF7A5379767DFB
:103DD500017F061252CD80FE7440123E9E90008DEA
:103DE500E0B410004002C17D903DF325E073C1139E
:103DF500C118C11DC122C127C12CC131C136C13B6A
:103E0500C140C145C14AC14FC154C17DC1721246AD
:103E1500388065124BAF80601231EF805B122D4BFD
:103E250080561249A68051124800804C1235808078
:103E350047121F288042124000803D123000803812
:103E4500124D7F803312411B802E1233CF80297B88
:103E5500FF7A5379677DF0124236BF010990007CE5
:103E65007401F012539AE490008DF0800B7BFF7A79
:103E75005379587D0512423690007CE0B4010D90CF
:103E8500008DE0640D6002A1DDF0A1DD90008DE004
:093E9500640E6002A1DDF0A1DD64
:0F3E9E00900061F0C2007B80E4FDFF124CE72230
:1053B90043891175B802758DEC758B77758C647599
:0D53C9008A64D2AFD2A9D28CD2ABD28E2290
:03001B0002444359
:10444300C0E0C0F0C083C082C0D075D000C000C03F
:1044530001C002C003C004C005C006C007758D3C7F
:10446300758BAF900098E004F07006900097E0041D
:10447300F0C3900098E0947E900097E09404400B82
:104483007404F0A3747EF0D2B08002C2B090007BBB
:10449300E004F0700690007AE004F0D390007BE033
:1044A30094E890007AE0940340077403F0A37484C3
:1044B300F09000A3E004F070069000A2E004F0D3B3
:1044C3009000A3E094159000A2E094004026E4F04D
:1044D300A304F0900090E004F0700690008FE004D5
:1044E300F090008FE0B40D0CA3E0B4630790008F4D
:1044F300E4F0A3F0900072E004F0E0B43C06740131
:10450300F0125480900072E0B4150312545675E112
:104513003C9000A2E0FEA3E0FF7C007D0A12112282
:10452300ED4C7002B2B1D007D006D005D004D00351
:10453300D002D001D000D0D0D082D083D0F0D0E050
:014543003245
:03000B0002540C90
:10540C00C0E0C083C082900078E0F58CA3E0F58A00
:09541C00B2B5D082D083D0E03299
:0300330002528DE9
:10528D00C0E0C083C082C0D075D000C006C007C2C8
:10529D00D89000DDE0FEA3E0F5EAEEF5FA90007E91
:1052AD00E0FEA3E0FF9000DEE02FF09000DDE03E99
:1052BD00F0B2B7D007D006D0D0D082D083D0E032B4
:030003000253D6CF
:1053D600C0E0C083C08290009AE004F0700690009E
:0B53E60099E004F0D082D083D0E032C8
:03000000024E0DA0
:0C4E0D00787FE4F6D8FD758120024E5439
:1017B700C283C294AF068FA0D2951254A3C295C21A
:1017C70082C292227A002FFFEA35F0FED3EF9440CF
:1017D700EE64809480222FFFEA33FED3EF9480EEED
:1017E70064809480221211C3A9F0FA021096F58240
:0817F70074043EF583E4932223
:102FEA00EF1FAA0670011E4A600BE4FDEDC3947838
:052FFA0050EE0D80F710
:012FFF0022AF
:0F54A300E4FF00000000000000000FEFB402F370
:0154B20022D7
:0F53F100E0FF12000EED2440FF12000EA3E0FFBC
:0C540000D282C292D283C2941217BD2245
:0D542500E0FF1254D2AF051254D2A3E0FFF5
:0C543200C282D292D283C2941217BD2213
:0D000E00AE071254A3D282C2921217B7227D
:0D54D200AE071254A3C282D2921217B72265
:0A4A6900900064EFF0900066EBF09F
:104A7300ED75F008A4FFA3E0FC1217CB4002610B15
:104A8300900066E0FF900064E0F91217DD5079ECC6
:104A930054077074ED24B890006BF0AD01E4FC9002
:104AA3000067E0131313541FFFECC39F505A900089
:104AB30064E0FFC3ED9FFF900066E0FEEFC39E50EE
:104AC30039900068E0FBA3E475F00130000612178B
:104AD300ECF480031217EC90006CF0EDC394407F6C
:104AE300C0500B12000E90006B1253F18009125448
:104AF300D290006B1254250D80B4900064E0FD90B9
:084B0300006BE004F00C41A27C
:014B0B002287
:0A4CE70090005FEDF0A3EBF0AC07C6
:104CF10090005FE075F008A4FF900061E0FD1217DD
:104D0100CB507A900060E0FFEC1217DD506FED544C
:104D110007706A90005FE024B8FDAB04E4FA9000EC
:104D210061E0131313541FFFEAC39F5050C3EB9C60
:104D3100FF900060E0FEEFC39E503C30000479FF1D
:104D41008002E4F9EBC394407FC0501612000EAF0D
:104D51000512000EEB2440FF12000EAF01125400A9
:104D610080121254D2AF051254D2AF031254D2AFF3
:0D4D7100011254320B80B6AB040D0A80A174
:014D7E002212
:074B0C00900064EBF0A90723
:104B1300ED75F008A42410FFE41217D0400261AE33
:104B2300E92408FFE41217E0400261AEED24B890D7
:104B33000065F0AD01E4FCE4900067F0C3ED99C3B8
:104B430094085059EC75F008A4FBAAF0900064E0B7
:104B530075F010A42BFFE5F03AFE900067E07A00B1
:104B63002FFFEA3EFE74962F3000061217F5F480ED
:104B7300031217F5900066F0EDC394407FC0500B0D
:104B830012000E9000651253F180091254D2900066
:104B930065125425900067E004F00D613FAD01906C
:0B4BA3000065E004F00CEC6402708C74
:014BAE0022E4
:105174007F647E00122FEAC2931254A3D2937F3E1F
:1051840012000E7F3E1254D27FC012000E7FC01256
:1051940054D27FB812000E7FB81254D27F4012004E
:1051A4000E7F401254D27F3F12000E7F3F1254D222
:1051B4009000617440F0C2007B80E4FDFF024CE784
:1000360000000000000000000000000000000000BA
:1000460000000000000000000000000000000000AA
:100056000000FE020A126282621A02FF020000001B
:1000660080403F20100806010618003F4080E0004F
:10007600202020BEAAAAAAAAAAAAAABF2230200085
:10008600008080AFAAAAAAFFAAAAAAAF8080000011
:10009600100C04555555857F8555555504140C008F
:1000A6000404020209092A4CA819090202040400E0
:1000B600404244CC00F4949494FF949494F6040043
:1000C6000040201F20514844427F42444C6120009A
:1000D6001010D0FF90108848A8090A08A84CC8003C
:1000E600040300FF808140402116081661C04000CD
:1000F600000204EC4020F84F4849FE48684C0800CE
:1001060002027F000000FF2222223F22233220002B
:10011600202424A4FE232200FC04040404FE04007C
:1001260010080601FF0142201B110101093360007E
:100136000080402098868080838C9020C08080003C
:1001460001008040201F004080403F000001000069
:1001560000022222322EA262222291090100000010
:10016600000042221A43827E02020A136600000041
:1001760010925430FF509432D8171010F018100017
:1001860002824E3322528E402314081661C040006C
:10019600101494F494DF94D4907F901214101000ED
:1001A6000201FF4A4A7F4A4A60100F3442817000BA
:1001B60002F2121212FA969292F2121212FB120026
:1001C60000FF4040407F4848487F404040FF0000D5
:1001D6000000FE0282828282FE828282C382000048
:1001E60040300F40404040407F4042444C60400019
:1001F600001010101010FF1010101010F810000052
:100206000080808060180700204080403F0000008A
:100216000000F8494A4C48F8484C4A49FC08000096
:1002260010101712121212FF1212121213181000C7
:10023600804020F80710D01011161010D8100000BA
:10024600000000FF202020232C203827203020000B
:10025600807000FF102808E81F08E808088C0800CE
:10026600000000FF2018878041320F3241C1400054
:1002760020100C03FAAAAAAAAAAAAAFA0302000044
:100286000020908886472A12122A464280808000E3
:10029600404042CC0040A09F8181819FA020200049
:1002A6000000007FA09040432C10282641C040004B
:1002B600001017D55557557D555755D517100000C1
:1002C6004040407F555555555555557F4060400037
:1002D6002424A4FEA322207E42424242427F020000
:1002E600080601FF0043414949497F494D694100DC
:1002F600104C2404F4844D562424148424540C00F5
:100306000001FD414041417F41414141FC00000067
:100316000282F24E43E242FA020202FF028000002B
:1003260001007F20207F080909090D49817F01000E
:100336000000C04040407F48484848E84C0800005C
:1003460080403704146404142464041720C0000099
:10035600101091D63098000808F8080808FC080024
:10036600020100FF0182402018074080403F000044
:10037600242820FF3028445454547F5454D6440033
:10038600080403FF010200FF1515151595FF01006E
:100396000000FC242424FCA5A6A4FC243426040086
:1003A60040209F804242262A122A264240C0400010
:1003B6001010F01F10F04060584740405060C000D9
:1003C60040221508166100FE4242424242FF0200E8
:1003D600804020F80704E4A4A4BFA4A4F6240000E7
:1003E600000000FF40407F4A4A4A4A4A7F40400098
:1003F6000000FE02E2A2B2AEA2A2A2A2F322000076
:1004060040300F40231A42827E02020A1360000027
:1004160040445465C664D64440FC4442C36240002E
:10042600201149817F01052918070000FF000000FF
:100436001022640CC0445454547F5454D644400093
:100446000404FE010000FF15151555957F010000F7
:100456001022640C80444464554E445466C4000023
:100466000404FE010080403F00FF003F4040700052
:1004760010101011D630980000FF408000000000D8
:1004860008040201FF01020000FF00000103000052
:10049600804020F847309294909F90D4925030003C
:1004A600000000FF04044464544C445464C6040031
:1004B6001022640C8000FE9292929292FF0200003B
:1004C6000404FE01407E42427E427E42427E40005D
:1004D6000000FC242424FCA5A6A4FC243426040045
:1004E60040209F804242262A122A264240C04000CF
:1004F60080808080808080808080808080C0800036
:1005060000000000000000000000000000000000E5
:1005160000000808080808080808080C0800000079
:1005260010101010101010101010101010181000CD
:100536000000FE22222222FE22222222FF020000A8
:1005460000000702020202FF020202020700000088
:10055600807000FF10081C2424252634A4140C00E7
:100566004020180708B041310F01013F414170009A
:10057600000000F112141010101412F910000000FF
:100586002018003B4141454959414173000830005C
:100596002030AC633008E80808FF0808E80C0800BB
:1005A6002267221212000702023F424247407000B1
:1005B6001021620680FE929292929292FF020000B1
:1005C6000404FE0100FE8444207F88848680E000C7
:1005D60080804020504844434448502040C040005A
:1005E600000000FE42424242424242FF0200000038
:1005F60000101012945010FF105094921810000022
:100606000484844524140C070C142445C4460400B1
:10061600202222FE2222FE232200FC0000FF0000F0
:10062600404C4A4948484B7E4848484A4C6B400033
:1006360000040404040404FC040404040604000086
:10064600202020202020203F202020202030200095
:100656000002048C407EC24242C2427F0200000079
:100666000202FF8040300F00003F404040407000D3
:100676001010D0FF9050444444C4444644604000A7
:10068600040300FF00110846807F00020C180000DA
:100696000000000000000000000000000000000054
:1006A600000038FCFC3800000000000D0D000000C2
:1006B60000003C24243C0000000000000000000074
:1006C60020F8F820F8F82000020F0F020F0F0200A2
:1006D600387C444747CC98000306041C1C070300DB
:1006E60030300080C06030000C060301000C0C00A6
:1006F60080D87CE4BCD84000070F0808070F080024
:1007060000101E0E000000000000000000000000A7
:100716000000F0F80C040000000003070C080000BD
:100726000000040CF8F000000000080C07030000AD
:1007360080A0E0C0C0E0A080000203010103020027
:10074600008080E0E08080000000000303000000DD
:1007560000000000000000000000101E0E00000057
:100766008080808080808000000000000000000003
:1007760000000000000000000000000C0C0000005B
:1007860000000080C06030000C060301000000007D
:10079600F8FC04C424FCF800070F0908080F07003A
:1007A600001018FCFC0000000008080F0F080800E5
:1007B600080C84C4643C18000E0F0908080C0C00D1
:1007C600080C444444FCB800040C0808080F070051
:1007D600C0E0B098FCFC8000000000080F0F080085
:1007E6007C7C4444C4C48400040C0808080F070039
:1007F600F0F84C4444C08000070F0808080F0700B3
:100806000C0C0484C47C3C0000000F0F00000000A8
:10081600B8FC444444FCB800070F0808080F07005A
:10082600387C444444FCF800000808080C07030020
:100836000000003030000000000000060600000046
:100846004848B0000000000002020100000000005D
:10085600C8A8900000000000000000000000000092
:1008660040404040404040000202020202020200B4
:100876000008183060C0800000080C060301000064
:10088600181C04C4E43C18000000000D0D00000014
:10089600F0F808C8C8F8F000070F080B0B0B0100AA
:1008A600E0F0988C98F0E0000F0F0000000F0F00AA
:1008B60004FCFC4444FCB800080F0F08080F0700AE
:1008C600F0F80C04040C180003070C08080C0600CA
:1008D60004FCFC040CF8F000080F0F080C070300DA
:1008E60004FCFC44E40C1C00080F0F08080C0E0066
:1008F60004FCFC44E40C1C00080F0F080000000078
:10090600F0F80C84848C980003070C0808070F0085
:10091600FCFC404040FCFC000F0F0000000F0F00E5
:10092600000004FCFC0400000000080F0F08000093
:1009360000000004FCFC0400070F08080F07000075
:1009460004FCFCC0F03C0C00080F0F00010F0E0069
:1009560004FCFC0400000000080F0F08080C0E0041
:10096600FCFC387038FCFC000F0F0000000F0F0075
:10097600FCFC3870E0FCFC000F0F0000000F0F00BD
:10098600F0F80C040CF8F00003070C080C07030041
:1009960004FCFC44447C3800080F0F0800000000EB
:1009A600F8FC040404FCF800070F080E3C3F27007F
:1009B60004FCFC44C4FC3800080F0F00000F0F00B5
:1009C600183C6444C49C1800060E0808080F07006B
:1009D600001C0CFCFC0C1C000000080F0F0800009B
:1009E600FCFC000000FCFC00070F0808080F0700CD
:1009F600FCFC000000FCFC000103060C06030100E1
:100A0600FCFC008000FCFC00030F0E030E0F03002D
:100A16000C3CF0C0F03C0C000C0F0300030F0C0064
:100A2600003C7CC0C07C3C000000080F0F080000A2
:100A36001C0C84C4643C1C000E0F0908080C0E0034
:100A46000000FCFC0404000000000F0F0808000072
:100A56003870E0C0800000000000000103070E00AF
:100A660000000404FCFC0000000008080F0F000052
:100A7600080C0603060C0800000000000000000039
:100A86000000000000000000202020202020202060
:100A96000000030704000000000000000000000042
:100AA60000A0A0A0E0C00000070F0808070F08007C
:100AB60004FCFC2060C08000080F0708080F070030
:100AC600C0E0202020604000070F0808080C040042
:100AD60080C06024FCFC0000070F0808070F080010
:100AE600C0E0A0A0A0E0C000070F0808080C0400A2
:100AF60040F8FC440C180000080F0F080000000026
:100B0600C0E02020C0E02000276F48487F3F00005B
:100B160004FCFC4020E0C000080F0F00000F0F008F
:100B2600000020ECEC0000000000080F0F08000099
:100B36000000000020ECEC0000307040407F3F00D9
:100B460004FCFC80C0602000080F0F01030E0C009F
:100B5600000004FCFC0000000000080F0F08000065
:100B6600E0E060C060E0C0000F0F000F000F0F0054
:100B760020E0C02020E0C000000F0F00000F0F0093
:100B8600C0E0202020E0C000070F0808080F07007B
:100B960020E0C02020E0C000407F7F48080F07000B
:100BA600C0E02020C0E02000070F08487F7F4000FB
:100BB60020E0C0602060C000080F0F0800000000A1
:100BC60040E0A02020604000040C09090B0E040040
:1024FC00000000000000000000000000000000FFD1
:10250C0001D6FF01F6FF0036FF0036FF0036706182
:10251C0000FF0196FF01B6FF0116FF0036FF0036E3
:10252C00FF0036FF02F6FF0316FF0516FF0036FF0D
:10253C000036636D3C00FF0636FF0656FF0036FF83
:10254C000036FF0036FF0676FF0656FF0036FF000A
:10255C0036FF0036FF01D6FF01F6FF0036FF0036CE
:10256C00FF0036FF0536FF0556FF0036FF0036FF2D
:10257C000036FF04B6FF04D6FF0036FF0036FF001E
:10258C00363A006D3B2F73006D3B2F6D696E004B1F
:10259C005061002500224300202D2D2020202000FA
:1025AC003A00FF0576FF0076FF0036FF0036FF008D
:1025BC0036FF0636FF0656FF0036FF0036FF0036A4
:1025CC00FF0676FF0656FF0036FF0036FF0036FF8B
:1025DC000676FF0596FF0036FF0036FF0036FF0437
:1025EC0036FF0096FF0036FF0036FF00364F46469A
:1025FC0020004F4E2020006D3B003A00FF0456FF98
:10260C0000B6FF0036FF0036FF00366D2F7300FF5B
:10261C000096FF0336FF00D6FF00F6FF0036FF02E0
:10262C00F6FF0316FF0516FF0036FF00366D2F73FD
:10263C0000FF0376FF0396FF00D6FF00F6FF00367F
:10264C00FF02F6FF0316FF0516FF0036FF00366D7E
:10265C002F7300FF0476FF0496FF0156FF0176FFEF
:10266C000036FF02F6FF0316FF0516FF0036FF00CB
:10267C0036FF0116FF0136FF0156FF0176FF0036CB
:10268C00FF02F6FF0316FF0516FF0036FF0036FFAC
:10269C000256FF0276FF0356FF03B6FF03D6FF0375
:1026AC00F6FF03D6FF0036FF0036FF0036FF041698
:1026BC00FF03D6FF0036FF0036FF0036FF02F6FFA1
:1026CC000316FF0516FF0036FF0036FF0216FF0249
:1026DC0036FF0036FF0036FF0036FF02F6FF03160A
:1026EC00FF0516FF0036FF00366D3B2F73202000D0
:1026FC006D3B2F6D696E00FF0456FF0076FF05F6EB
:10270C00FF0616FF0036FF02F6FF0316FF0516FF45
:10271C000036FF0036FF0636FF0656FF0456FF0054
:10272C0076FF0036FF0676FF0656FF0456FF00764E
:10273C00FF0036FF0436FF0096FF0036FF0036FF21
:10274C000036FF02F6FF0316FF0516FF0036FF00EA
:10275C00364F464620004F4E202000FF0076FF02E9
:10276C00D6FF0036FF0036FF0036FF02F6FF0316D9
:10277C00FF0516FF0036FF00366D3B2F732020003F
:10278C006D3B2F6D696E004F4B202020004E4F206B
:07279C0020200065727200AD
:104724004100C1004100C2004400C3000000004435
:0E47340000C7000000004100CB004100CC0097
:102800007FCD7ECC7DCC900001E0F8A3E0F9A3E081
:10281000FAA3E0FB120BDD900001E0F8A3E0F9A3BE
:10282000E0FAA3E0FB120DD7900082E0F8A3E0F9F4
:10283000A3E0FAA3E0FB120CCE9000821212B77D47
:10284000A0900082E4FFFE7C41E0F8A3E0F9A3E061
:10285000FAA3E0FB227B667AA679CA784290001F31
:10286000E0FCA3E0FDA3E0FEA3E0FF22CFF0A3EF96
:10287000F09000617440F0C2007B80E4FDFF221202
:102880000CCE120F1F900005EEF0A3EFF090001F8A
:102890007401F0E4FB22120CCEE4FBFA7948784391
:1028A000120BDDA804A905AA06AB077F007E247DD4
:1028B000F47C48120DD7A804A905AA06AB0722E4A8
:1028C00090007AF0A3F02290009BE0FCA3E0FDE4EE
:1028D000020EE690001BE0FEA3E0FF7C0002112246
:1028E000D39000A3E094059000A2E0940022900011
:1028F00014E0FBA3E0FAA3E0F9227D017BFF7E0058
:102900007F0F021070120F1F9000177405F0A322A2
:102910007D3990008FE0FEA3E0FF7C0002112212BF
:1029200051C4AC00AD01AE02AF0322120CCE7B004D
:102930007A40791C7846020DD77F007E807D927C9C
:1029400043020DD7120CCE020F1F9000001212B7D7
:10295000E4FFFE7D207C4122240475F008A4FFA33F
:10296000E025E0FD2290008DE004F022E4FFFE7DF2
:10297000487C44120DD7900008227C277D109000DF
:102980001BE0FEA3E0FF0211227F807E017D807CA0
:1029900047120BD979807843E4FBFA020DD7E4FAA9
:1029A000F9F81251C4EF243022EFF0A3EDF0A3EBBD
:1029B000F0A3EAF0A3E9F0227F007E807D887C43CB
:1029C00090002722900001EEF0A3EFF02274252F53
:1029D000F582E43400F583227E00CFCDCFCECCCE7D
:1029E000121122EF243022E4FFFE7DC87C4222E453
:1029F000FFFE7D707C4290001B229000A2E0FEA3AF
:102A0000E0FF7C007D0A121122ED4C22900001EEC5
:102A1000F0A3EFF022E0FEA3E0FF90000B7401F0C2
:102A2000A322120BDD90009E22E014F0E0C364802C
:102A30009480221211FD7B667AA679CA7842020D33
:102A4000D71211FD7B007A8079887843020BDD7DF7
:102A5000017BFF7E000210707B0190002E04F0A32A
:102A600022900001EEF0A3EFF02279C87842E4FB57
:102A7000FA020DD77A0079047B01E4FD7F072290EA
:102A80000080F0A3EFF02290007BE0948490007A25
:102A9000E0940322900090E0940A90008FE094006C
:102AA00022120BDD9000A81212B79000A422120B84
:102AB000DD9000A41212B7900093227BFF7D017F6E
:102AC00006227B007AE179F5780590001322121234
:102AD000B77F6F7E127D837C3A227FCD7ECC7DCC0A
:102AE0007C3D900082227F0A7ED77D237C3C900033
:102AF0006D227FA47E707D7D7C3F900082227FAE20
:102B00007E477D817C3F9000822274192FF582746C
:102B1000003EF58322C3ED9414EC9400229000C093
:0E2B2000E0D36480948A227BFFE4FD7F0422D0
:10537A00D3EF9400EE6480948040147D647C00ED49
:0F538A001D70011CED4C70F7EF1F70E41E80E1E9
:0153990022F1
:10520800125335EF60259000C0E004F0E0D36480CD
:1052180094944003740BF0122B1D40067F017E000E
:1052280080047F2C7E0112537A8005E49000C0F040
:10523800122B1D40067F0A7E0080047FE87E031241
:02524800537A97
:01524A002241
:10549200D3122A874008E490008DF07F01227F001A
:0154A20022E7
:0E3AE80090001BEEF0A3EFF0A3EDF0A3EBF0C7
:103AF60078257C007A2479FC7F06122A4FE4FB1293
:103B0600297AEF2430900020F012297A7E037FE88C
:103B16001229DA900021F07C037DE812297E7F6469
:103B26001229D8900022F07D641228D37F0A122928
:103B3600D8900023F07D0A1228D3ED24309000247B
:103B4600F090001DE0FF3395E0FEC374059FFFE48F
:103B56009EFE74252FF58274003EF583742EF0E4E4
:103B6600FF1229CDE0701274202BF582E43400F5A3
:103B760083E0FE1229CDEEF00B0FEFB406E3E4FF6F
:103B860090001DE0FEC374049EC36480F8EF648059
:103B96009850101229CDE0B430091229CD7420F0C6
:103BA6000F80DDD3EE6480948090001EE075F008EF
:103BB600401E123BE7122958900029E0FBC2001272
:103BC6004B0C90001EE0240512295A90002A800909
:103BD600123BE7122958900029E0FBC200124B0C59
:103BE60022A4FFA3E025E0FD900025E0FBC2001221
:103BF6004B0C90001EE00475F008A4FFA3E025E03E
:103C0600FD900026E0FBC200124B0C90001EE02443
:103C16000275F008A4FFA3E025E0FD900027E0FB75
:103C2600C200124B0C90001EE0240375F008A4FF9E
:103C3600A3E025E0FD900028E0FBC200124B0C90AB
:043C4600001EE0225A
:0652CD0090005E1229A909
:1052D300E4A3F09000601228F1121096FB60249072
:1052E3000063E0FF90005EE02F12295AC200124BC8
:1052F3000C900063E004F0900061E475F00112117A
:03530300AD80D0AA
:015306002284
:0650CF0090005E1229A909
:1050D500E4A3F0F0900063E0FFC39405503FEFC4F4
:1050E50054F0FF90005EE075F008A42F12295E9041
:1050F50000677410F09000601228F11213329000CE
:10510500681229AFC2007B10124A69900061E475EC
:0D511500F0031211AD900063E004F080B7CC
:01512200226A
:063800009000131212B744
:1038060078197C007A2579027F09122A4F7FFF7E7C
:10381600C97D9A7C3B900013122849D31211E740C8
:103826000A9000131212C33B9AC9FF122AC2122829
:10383600601229A2900019F0122AC21228601229D9
:103846001F7B807A96799878001229A290001AF048
:103856007B807A9679987800900013122860122956
:103866001F7B407A42790F78001229A290001BF044
:103876007B407A42790F7800900013122860122953
:103886001F7BA07A86790178001229A290001CF08D
:103896007BA07A867901780090001312286012299D
:1038A6001FE47B107A271229A090001DF0E47B10FC
:1038B6007A27F9F890001312286012291FE47BE892
:1038C6007A031229A090001EF0E47BE87A03F9F847
:1038D60090001312286012291F7B6412299E900003
:1038E6001FF0E47B64FAF9F890001312286012299D
:1038F6001F7B0A12299E900020F0E47B0AFAF9F851
:103906009000131228601251C4EB2430900021F06D
:10391600E4A3F0900022E0FFC364809488501AEF7D
:103926003395E0FE122B0AE0B4300E122B0A7420F7
:10393600F0900022E004F080DAE4900022F090009B
:1039460022E0FE900017E02E12295AEEFB3395E096
:10395600FA74192BF58274003AF583E0FBC2001263
:103966004B0C900022E004F0E0C36480948940CEC2
:01397600222E
:063977009000141229AFBC
:10397D009000251212C30000000090001A1228605A
:10398D00900021122ACE900021122849120E745057
:10399D000A9000211212C30000000090001EE0F9F1
:1039AD00A3E0FAA3E090002EC91229B090001712DF
:1039BD0028F1123C4A9000251212B790009DE0604C
:1039CD0002415290007DE090008BB4010E1228CA86
:1039DD0090002512284912292B41321228CA900035
:1039ED002512284912292BC004C005C006C0079016
:1039FD0000171228F1122A33D003D002D001D000C3
:103A0D00120CCEC004C005C006C00790001E1228BF
:103A1D00F1122A411228B6122939D003D002D00151
:103A2D00D000120CCE1228EE12124D9000801228EA
:103A3D00CA1228EE121297120E746002500241E75C
:103A4D0090008041DE90007DE090008BB401151256
:103A5D0028CA90002512284912292BE4FBFA797007
:103A6D00784241C21228CA90002512284912292BEA
:103A7D00E4FBFA79707842120CCEC004C005C00682
:103A8D00C0079000171228F1122A33D003D002D0AC
:103A9D0001D000120CCEC004C005C006C0079000B6
:103AAD001E1228F1122A411228B6122939D003D03C
:103ABD0002D001D000120CCE1228EE12124D122897
:103ACD00C71228EE121297120E74600E400C900061
:0A3ADD009B1228CA1228EE12124DA7
:013AE70022BC
:102B2E00C3122A94501B9000C2E07015900073E0FF
:102B3E00FF6003B402031220009000C27401F08003
:102B4E000BD3122A944005E49000C2F01229101201
:102B5E002B154002A13C9000C1E06002A13C04F0A4
:102B6E001227A3900023122ACE9000231228491276
:102B7E000E74500A9000231212C300000000900041
:102B8E002E7401F0A37400F0A37427F07B017A0079
:102B9E00791F123C4AC004C005C006C00790008BC6
:102BAE001228CAD003D002D001D00012292B9000D7
:102BBE001B1212B790009DE09000A8600281531284
:102BCE00286090001B122849122AA1122849C00021
:102BDE00C001C002C0031229B8122849120BDD121F
:102BEE0028B6122939C004C005C006C007122855E0
:102BFE00120DD790001B122849120CCED003D00212
:102C0E00D001D000120CCED003D002D001D00012D1
:102C1E002AAE122849C000C001C002C0031229B852
:102C2E00122849120BDD1228B6122939C004C0052C
:102C3E00C006C007122855120DD790001B12284946
:102C4E00120CCEA110122849C000C001C002C00350
:102C5E001229EF122849120CCED003D002D001D087
:102C6E0000122AA1122849C000C001C002C00312DE
:102C7E002855120DD7C004C005C006C0071229EF93
:102C8E00122849120CCED003D002D001D000120C63
:102C9E00CEC004C005C006C0071229B812284912BA
:102CAE000BDD1228B6122939D003D002D001D00084
:102CBE00120CCED003D002D001D000122AAE1228B0
:102CCE0049C000C001C002C003122855120DD7C062
:102CDE0004C005C006C0071229EF122849120CCEF7
:102CEE00D003D002D001D000120CCEC004C005C05B
:102CFE0006C0071229B8122849120BDD1228B61287
:102D0E002939D003D002D001D000120CCE9000236E
:102D1E00122849120CCE79C87842122998D003D0C5
:102D2E0002D001D000120BDD9000930212B71229CF
:0C2D3E0010D3122B164005E49000C1F0E9
:012D4A002266
:104D7F00E4900002124E02EEF0A3EFF07BFF7A25D3
:104D8F00790BE4FDFF1250CF7A25791A122ABB1244
:104D9F0052CD900000E0FEA3E0FF12288DFD123AE5
:104DAF00E8900073E0FF6003B40203122B2E12533E
:104DBF0035EFB4010C1228BF1229651247EA7F00A4
:104DCF0022900002E070161228E050119000027439
:104DDF0001124E02122888FD123AE8800A1228E0CA
:104DEF004005E4900002F0125208125492EF60B1A5
:024DFF007F0033
:0C4E010022F0124544120F1F9000002206
:101F280090008BE0FEA3E0FF1229C4A3EEF0A3EF1C
:101F3800F0121FDC12288DFD123AE8900073E0FFC2
:101F48006003B40203122B2E125335900000EFF0F9
:101F5800BF010C1228BF1229651247EA7F002290A0
:101F68000001122A157427F0A37410F0E4FBFD1287
:101F78004C4C1229C4900000E0640270491228C039
:101F8800900001E0FFA3E090008B12286C124CE750
:101F98007BFF7A25792F7D0A124236EF7015900063
:101FA80003E0FEA3E0FF90008BEEF0A3EFF0122910
:101FB800C48003122000122871124CE7121FDC1291
:101FC800288DFD123AE8125208125492EF7002E17D
:031FD800437F0044
:101FDB00227BFF7A25791DE4FDFF1250CF7BFF7A20
:101FEB0025793E7D017F051252CD900001E0FEA3C5
:031FFB00E0FF22E2
:1048E20078037C007A2579421228FA78127C007AC1
:1048F2002579511228FA90007DE07B01B401067AF5
:1049020000790380047A007912E4FDFF1250CF90FF
:10491200009DE07BFF70097A25798FFD7F0C80086E
:104922007A257994E4FD7F0A1252CD7A25798D1287
:104932002B271252CD7A2579607D0112499E7D0185
:104942001249907A25799B7D017F0D1252CD7A25ED
:10495200796F7D0212499E7D021249907A25799FD4
:104962007D027F0F1252CD7BFF7A25797E7D03E493
:10497200FF1250CF7BFF7A25798D7D037F0412527F
:0E498200CD7BFF7A2579A17D037F0E0252CDF9
:104990007BFF7A25798D7F041252CD7BFF227BFF2E
:0649A000E4FF1250CF22DB
:0514EF00900003EFF086
:1014F4001227A390000C1212B79000177401F0A3E6
:101504007400F0A37404F090000C12286090001A88
:101514001212B790001E7401F0A37400F0A37410AB
:10152400F07B017A0079081239777D20900010123F
:10153400284412294490001F7403F07B087D011293
:101544003AE8E4FFFE7D807C3F90000412284912B3
:101554000E74500D7D011217ABC2DEC2AED2B7803D
:101564002512295090000412284912294490001F82
:101574007401F07B07FD123AE8D2DED2AE9000048B
:10158400122860125123E4FFFEFDFC90000C122887
:1015940049120E74402E7F837E007DC87C429000E9
:1015A4000C122849120E74501B12295090000C1270
:1015B400284912294490001F7402F07B097D01120E
:1015C4003AE880057D021217AB900003E0701B908F
:1015D40000CBE004F09000C31228609000081228A9
:1015E40049120BDD9000C31212B79000CBE0640ADD
:1015F400600A900003E064016002E1AA900003E045
:10160400B4010E9000C71228609000081212B7802F
:101614002DE49000CBF0FBFA792078419000C312BE
:1016240028601229731212B79000081228609000E3
:10163400C71212B79000C31212C30000000090003A
:10164400CCE004F0E06404600A900003E06401600C
:1016540002E1AAE4900003F09000CCF090009DE039
:101664006002C1EF1229E8900008122849122944A7
:10167400E490001FF07B067D02123AE8900080128D
:1016840028CA1228B612296C12284912289612293F
:1016940089120F1F900078EFF09000801228CA1270
:1016A40028B612296C122849120CCEE4FBFA7948A8
:1016B4007843120BDD120F1FAB07AA06EA3395E03D
:1016C400F9F87F207EA17D077C001251C4C3740306
:1016D4009FFFE49EFE74019DFDE49CFCE4FB7A0103
:1016E400F9F81251C4900079EBF0221228C7900047
:1016F40008122849120E74600B40091228C7900082
:10170400081212B71229E7900008122849120E7421
:1017140050171229E7900008122849122944E4902E
:10172400001FF07B047D0280347F9A7EF97D797CF2
:1017340044900008122849120E74600C400A90006C
:10174400081212C34479F99A1229509000081228F9
:1017540049122944E490001FF07B047D01123AE809
:101764007A2579AC122B271252CD1228C71228B62B
:1017740012296C122849122896122989120F1F90D7
:101784000078EFF01228C71228B612296C122849E3
:101794001228967F807E017D807C47120BD9120F20
:0617A4001F900079EFF038
:0D17AA00227BFF7A2579A47F051252CD2203
:1043400078137C007D017BFF7A2579AE1228FE78F8
:10435000227C007D017BFF7A2579BD1228FE783111
:104360007C007D017BFF7A2579CC1228FE78407C89
:10437000007D017BFF7A2579DB1228FE784F7C00D7
:104380007D017BFF7A2579EA1228FE122871124CF2
:10439000E77B017A007913E4FDFF1250CF7BFF7AAF
:1043A000267906E4FD7F041252CD900073E0B4013B
:1043B000097BFF7A2579F9E4800C900073E0700E98
:1043C0007BFF7A2579FEFD7F071252CD800A7A00A5
:1043D000794F122A781250CF7A0079227D01124447
:1043E0003B7D011244297D017F041252CD7A007970
:1043F000317D0212443B7D021244297D027F04126A
:1044000052CD7B017A0079407D03E4FF1250CF7BCF
:10441000FF7A2679037D037F0E1252CD7BFF7A2629
:0944200079067D037F040252CDF0
:104429007BFF7A2679037F0E1252CD7BFF7A26799C
:0A44390006227B01E4FF1250CF229F
:10463800E4900000F0A304F0A3F01248E27F01C167
:10464800B1900073E0FF6003B40203122B2E1253E3
:1046580035EFB4011AC3122A8790008D4005740FF4
:10466800F08003E004F01228BF1247EA7F00227DA1
:104678001E122912122B15503C900001E0B4010EB5
:10468800122871124CE71248E27F011214EFE490ED
:104698000001F0A304F0900000E070121228E0502E
:1046A8000D9000007401F0E4FF1214EFC1491228C4
:1046B800E0408EE11D900002E0B401091228711259
:1046C8004CE71243409000017401F0E4A3F090001D
:1046D80000E0703A1228E050359000007401F09024
:1046E80000A81228601229057401F0123800900001
:1046F800A41228601229057402F012380090009361
:104708001228601229057403F0123800C1491228D2
:0C471800E05002C149E4900000F0C149EB
:104BAF007BFF7A267908E4FDFF1250CF7A2679171A
:104BBF00122ABB1252CD90002E7401F0A37400F094
:104BCF00A3740AF07B017A007906123C4A12294A33
:104BDF009000001228491229449000041228887D61
:104BEF0001123AE8900073E0FF6003B40203122B46
:104BFF002E125335EFB4010C1228BF12296512473C
:104C0F00EA7F00221229FA7028122A587400F0A3A2
:104C1F00740AF07A007906123C4A12294A90000071
:104C2F001228491229449000041228887D01123A53
:0C4C3F00E8125208125492EF60AA7F00A5
:014C4B002246
:1031EF00E4900006F0A3F090000A1212C300000052
:1031FF000012338E12284912294490000E1228888B
:10320F007D01123AE8900073E0FF6003B4020312ED
:10321F002B2E125335900001EFF0BF010C1228BF77
:10322F001229651247EA7F0022900001E0640260D4
:10323F000261501228C01247EA122871124CE77B24
:10324F00FF7A26792A7D0A124236EF640160026105
:10325F0036900000F0900000E0C364809485400237
:10326F0041F59000587401F0A37400F0A37408F0B6
:10327F007B017A007906124F0FEF7061900000E02A
:10328F0004F0D3900007E09466900006E064809409
:10329F008650077406F0A37466F0C3900007E0949D
:1032AF009A900006E0648094B940077439F0A374D3
:1032BF009AF090000A122849C000C001C002C00352
:1032CF00900006E0FCA3E0FDEC120EE6D003D00266
:1032DF00D001D000120BDD90000A1212B77FF47EDE
:1032EF000112537A416490000A12286079A0784045
:1032FF00122A6E90000A1212B77F7B7EC27D9E7CCF
:10330F003D90000A122849120CCE7B007AC0791E1C
:10331F0078C4122A221212B790009E1228609000D1
:10332F006D1212B7122000122871124CE712338E51
:10333F0012284912294490000E1228887D01123A52
:10334F00E81229FA702B122A587400F0A37414F0A3
:10335F007A007910123C4A90000212294D90000217
:10336F0012284912294490000E1228887D01123A22
:0E337F00E8125208125492EF700241147F00BF
:10338D00227BFF7A26791BE4FDFF1250CF7BFF7A5B
:10339D002679397D017F061252CD90002E7401F0F1
:1033AD00A37400F0A37414F07B017A007910123C21
:1033BD004A9000021212B7E4FFFE7D207C4190007E
:0233CD000222DA
:102D4B009000821228609000071212B7122F317B6D
:102D5B00FF7A26795B7D017F061252CD122EC412AB
:102D6B00284912287F7D01123AE8900073E0FF603A
:102D7B0003B40203122B2E125335900000EFF0BF59
:102D8B0001181228BF1229659000071228609000C5
:102D9B00821212B71247EA7F0022900000E064040F
:102DAB00703F1228C0122EEC7C3D122800120E74BC
:102DBB00400A9000821212C341A00000122ADA12BC
:102DCB002849120E746002500A9000821212C33D01
:102DDB00CCCCCD122EC412284912287F7D01123A79
:102DEB00E8900000E06405703F1228C0122EEC7CC6
:102DFB00BD122800120E74400A9000821212C341B9
:102E0B00A00000122ADA122849120E746002500A2E
:102E1B009000821212C33DCCCCCD122F091228493F
:102E2B0012287F7D01123AE8900000E06402704A9C
:102E3B0090007AF0A3122870124CE77BFF7A267968
:102E4B004C7D0A124236EF700B90000712286090EF
:102E5B000082800C122000900082122860900007E4
:102E6B001212B7122871124CE7122F31122F0912BE
:102E7B00284912287F7D01123AE89000A2E07004E5
:102E8B00A3E064017025122A587400F0A3740FF0AC
:102E9B007A00790B123C4A90000112294D900001E7
:102EAB0012284912287F7D01123AE8125208125457
:082EBB0092EF7002A1757F0087
:102EC3002290002E7401F0A37400F0A3740FF07B22
:102ED300017A00790B123C4A9000011212B7E4FF09
:102EE300FE7D207C41900001227B0190002E04F0A6
:102EF300A37400F0A3740FF07A00790B123C4A908C
:102F030000011212B72290002E7401F0A37400F096
:102F1300A3740FF07B017A00790B123C4A900001F5
:102F23001212B7E4FFFE7D207C41900001227BFF5B
:0B2F33007A26793DE4FDFF1250CF220A
:104800001229E7900086122849122944122A619041
:1048100000861228609000031212B71248CD1228A9
:104820008D7D02123AE8900073E0FF6003B402034A
:10483000122B2E125335900000EFF0BF010C1228FE
:10484000BF1229651247EA7F0022900001122A1543
:10485000E4F0A374C8F0E4FB7D02124C4C122A6110
:10486000900000E0640270571228C09000011228E6
:10487000CA122A6A9000861212B7122871124CE7E7
:104880007BFF7A26796E7D0A124236EF701D90000A
:10489000031228609000861212B71229E790008652
:1048A000122849122944122A61800312200012287A
:1048B00071124CE71248CD12288D7D02123AE8128F
:0C48C0005208125492EF700201267F0093
:1048CC00227BFF7A26795FE4FDFF1250CF90000126
:0648DC00E0FEA3E0FF2254
:1049A6009000AEE0900001F0A3F0124A5C9000AED9
:1049B600E0FF7E0012288DFD123AE8900073E0FFBA
:1049C6006003B40203122B2E125335900000EFF051
:1049D600BF010C1228BF1229651247EA7F002290F8
:1049E6000001E0FF7E00122A1AE4F0A37413F0E43B
:1049F600FBFD124C4C900001EFF0900000E06402C9
:104A060070461228C0900001E09000AE1228701285
:104A16004CE77BFF7A26798C7D0A124236EF700EC0
:104A2600900002E09000AEF0900001F080031220AA
:104A360000122871124CE7124A5C900001E0FF7EDA
:104A46000012288DFD123AE8125208125492EF70A5
:054A56000221C17F00F8
:0E4A5B00227BFF7A26797DE4FDFF1250CF22E8
:103580009000821228609000011212B790009E12E3
:1035900028609000051212B71236F8122849122A34
:1035A00022122849120E7460334031122AE6122882
:1035B00049122A22122849120E745020122AF2129D
:1035C0002849120E7460154013122AFE122849125F
:1035D0000E7450087BFF7A2679AA80067BFF7A2634
:1035E00079B97D01E4FF1250CF900073E0FF6003D2
:1035F000B40203122B2E125335900000EFF0BF01DE
:103600000C1228BF1229651247EA7F0022900000A1
:10361000E064026002C1EA7FE17E6F1254B3900061
:1036200009EFF07FE27E6F1254B3AD07900009E01E
:1036300075F064A47C002DFDEC35F0FCE4120EE680
:10364000122A6A90006D1212B71228BF90008212DF
:1036500012C33F80000090006D12286090009E12FF
:1036600012B7122871124CE77BFF7A2679C87D0ABF
:10367000124236EF701A90000112286090008212F8
:1036800012B790000512286090009E1212B78003B6
:10369000122000122871124CE71236F81228491233
:1036A0002A22122849120E7460334031122AE6127F
:1036B0002849122A22122849120E745020122AF286
:1036C000122849120E7460154013122AFE1228495E
:1036D000120E7450087BFF7A2679AA80067BFF7A47
:1036E0002679B97D01E4FF1250CF1252081254928C
:0736F000EF7002A1E97F0069
:1036F700227BFF7A26799BE4FDFF1250CF7F0A7E5B
:09370700D77D237CBC90006D22EB
:1040000090009DE0900001F0A3F0124100B4010681
:104010007A2679FC80047A2679F512411390007390
:10402000E0FF6003B40203122B2E12533590000000
:10403000EFF0BF010C1228BF1229651247EA7F007A
:1040400022900000E0640470251228C0900001E076
:1040500004F0E0B40202E4F0900001E07BFFB40160
:10406000067A2679FC80047A2679F51241139000AD
:1040700000E0640570281228C0900001122A29501F
:10408000037401F0900001E07BFFB401067A267909
:10409000FC80047A2679F57D017F031252CD9000D1
:1040A00000E06402704C1228C0900001E090009D76
:1040B000122870124CE77BFF7A2679E67D0A1242BD
:1040C00036EF700E900002E090009DF0900001F03D
:1040D0008003122000122871124CE7124100B40133
:1040E000067A2679FC80047A2679F57D017F031211
:0F40F00052CD125208125492EF7002011D7F0040
:1040FF00227BFF7A2679D7E4FDFF1250CF90000183
:0C410F00E07BFF227D017F031252CD22D5
:10411B0090007DE0900001F0A3F012421BB4010669
:10412B007A27792180047A27793012422E900073F6
:10413B00E0FF6003B40203122B2E125335900000E4
:10414B00EFF0BF010C1228BF1229651247EA7F005E
:10415B0022900000E0640470251228C0900001E05A
:10416B0004F0E0B40202E4F0900001E07BFFB40144
:10417B00067A27792180047A27793012422E900013
:10418B0000E0640570281228C0900001122A295003
:10419B00037401F0900001E07BFFB401067A2779EC
:1041AB002180047A2779307D01E4FF1250CF9000F3
:1041BB0000E06402704C1228C0900001E090007D7A
:1041CB00122870124CE77BFF7A2779127D0A124274
:1041DB0036EF700E900002E090007DF0900001F041
:1041EB008003122000122871124CE712421BB401FB
:1041FB00067A27792180047A2779307D01E4FF1232
:0F420B0050CF125208125492EF700221387F00E8
:10421A00227BFF7A277903E4FDFF1250CF90000139
:0C422A00E07BFF227D01E4FF1250CF2258
:1033CF00E4900003F078047C007D017BFF7A27797D
:1033DF003FFE7F0F121070900073E0900001F0A37A
:1033EF00F0124340900001E0FF6003B40203122B80
:1033FF002E900003E0702E1228E0502990000374E5
:10340F0001F09000A812286012290512356C1228BD
:10341F00601229051235761228601229057403F0FF
:10342F00123800800A1228E04005E4900003F012E1
:10343F005335900000EFF0BF010C1228BF12296521
:10344F001247EA7F0022900000E0640470391228CE
:10345F00C0900001E004F0E0B40302E4F09000013A
:10346F00E0B401097BFF7A27795DE4800C900001BD
:10347F00E0700E7BFF7A277962FD7F071252CD80B5
:10348F0006122A741250CF900000E06405703812B3
:10349F0028C0900001122A2950037402F0900001F5
:1034AF00E0B401097BFF7A27795DE4800C9000017D
:1034BF00E0700E7BFF7A277962FD7F071252CD8075
:1034CF0006122A741250CF900000E064026002A12D
:1034DF005E1228C0900001E0900073122870124C09
:1034EF00E77BFF7A27794E7D0A124236EF700E90F6
:1034FF000002E0900073F0900001F080289000012E
:10350F00E0B4021E9000A81212C300000000900049
:10351F00A41212C3000000009000931212C3000007
:10352F000000122000122871124CE7124340900045
:10353F00A812286012290512356C1228601229056D
:10354F001235761228601229057403F01238001212
:0C355F005208125492EF700261F37F00DA
:10356B00227401F01238009000A4227402F0123879
:05357B00009000932206
:10300000900080E0FEA3E0FF122A0C900005EEF095
:10301000A3EFF090009BE0FEA3E0FF900003EEF032
:10302000A3EFF0900007EEF0A3EFF01231CD70089F
:103030001231C190000180031231E0E0FEA3E0FFF5
:1030400012288DFD123AE8900073E0FF6003B4028D
:1030500003122B2E125335900000EFF0BF010C121B
:1030600028BF1229651247EA7F0022900000E06421
:103070000470621228C090009DE07028900002E069
:1030800004F07006900001E004F0D3900002E09498
:103090000A900001E094004006E4F0A3740AF09066
:1030A00000018025900004E02405F0900003E03446
:1030B00000F0D3A3E094E8900003E0940340077489
:1030C00003F0A374E8F0900003E0FEA3E0FF1228F1
:1030D0008DFD123AE8900000E0640570561228C099
:1030E00090009DE07021900002E024FFF09000012C
:1030F000E034FFF0E07002A3E07007900001F0A35D
:1031000004F09000018020900004E024FBF0900087
:1031100003E034FFF0E07002A3E07008900003F0D9
:10312000A37405F0900003E0FEA3E0FF12288DFDDC
:10313000123AE8900000E0640270781228C0900013
:1031400001E0FFA3E0CF122A7F900003E0FFA3E09D
:1031500090009B12286C124CE77BFF7A2779767DD2
:103160000A124236EF7027900005E0FEA3E0FFEE62
:10317000122A7F900007E0FCA3E0FD90009BECF09A
:10318000A3EDF0122A0CA3ECF0A3EDF080031220C3
:1031900000122871124CE71231CD70081231C19023
:1031A000000180031231E0E0FEA3E0FF12288DFD54
:1031B000123AE8125208125492EF700201477F004F
:1031C000227A2779857D017F051252CD227BFF7AF5
:1031D000277967E4FDFF1250CF90009DE07BFF222E
:0F31E0007A27798C7D017F051252CD9000032252
:05423600900018EDF0FE
:10423B00E490001AF0FDFF1250CF90001AE0FF7EC1
:10424B000012288DFD123AE81247EA900073E0FF46
:10425B006003B40203122B2E125335900019EFF0AA
:10426B00BF04141228BF90001AE004F0E0FF7E0098
:10427B0012288DFD123AE8900019E0B405141228AB
:10428B00BF90001AE014F0E0FF7E0012288DFD12A3
:10429B003AE8900019E06402706C1247EA1228BFEA
:1042AB00900018E0FF90001AE0B5070F7A2779937A
:1042BB0012432F90008D7401F0FF227A2779991207
:1042CB00432F90001AE0FF7E0012288DFD123AE872
:1042DB0090008DE0640D702E90008AE004F0E0B445
:1042EB0005037404F012200090008AE0C39403408D
:1042FB0015122871124CE77BFF7A27799F7D017F7E
:10430B00061252CD80FE900019E0B401091228BFAD
:10431B001247EA7F0022125208125492EF700241A8
:03432B00567F00BA
:10432E00227BFF7D01E4FF1252CD7FE87E03125304
:02433E007A22E1
:1047420041008D0042007A03844100AE0541007CA5
:104752000041008A0041008E0042008B003241007D
:104762009D0141007D00410073004400A80000004B
:104772000044009E0000000044006D000000004460
:1047820000823F800000420080000142009B0064E2
:1047920042007800004400863F8000004200AC00E6
:1047A2000042009900004100710141007200420084
:0F47B2008F0000420097000044009300000000B9
:10546D00E4900097F0A3F02290007AF0A3F0900062
:03547D0008E02222
:10533500E4FF30800512546E7F0430810512546DF0
:105345007F0530B30512546D7F0230B40512546DDC
:025355007F01D6
:015357002233
:104C4C00900007EEF0A3EFF0A3EDF0A3EBF01253FE
:104C5C0035EF6404702912547504F0700690000747
:104C6C00E004F090000CE0FEA3E0FFD3900008E01D
:104C7C009F900007E09E4004E4F0A3F0124CCF128A
:104C8C005335EF6405703312547524FFF090000710
:104C9C00E034FFF0E0FEA3E0FFE4FCFD7BFF7AFFD5
:104CAC00F9F8C31211E7700F90000CE0FFA3E0902D
:104CBC000007CFF0A3EFF0124CCF900007E0FEA35B
:104CCC00E0FF22900007E0FEA3E0FFA3E0FDA3E0DD
:0B4CDC00FBA3E090001FF0123AE8225A
:1047EA0020800920B40620B303308109E490007ABE
:0647FA00F0A3F080EB22A9
:104E9900900002E0FBA3E0FAA3E0F922FDEE3CFC5E
:104EA900120EE679C87842E4FBFA020DD7900003A6
:104EB900EF1210EE9000027401F0A322900001EFAE
:104EC9000210EE900002EF0210EE90008BFFEE3C14
:104ED900F0A3EFF0229000010210AF90000202103F
:104EE900AF9000030210AF900086E0FCA3E0FDA3A1
:104EF900E0FEA3E0FF229000860212B77400F0A33F
:064F090074A8F07FEE2207
:101800007E6C121E647FF17E6C1254B3900001EF67
:10181000F0900000E0640A60022179A3E0640A60AD
:101820000221797E6F121E6F7FFA121D9F124ED316
:101830007E6F121F127E6F121E647FF1121D9F12A7
:101840004EA590009E1212B77E6F121EA97E6F12D7
:101850001DC3124EA590006D1212B77E6F121EB4FA
:101860007E6F121DF8FDEE3CFC120EE6797A78448C
:10187000124EB09000821212B77E6F121EE37E6F7E
:10188000121E1C124EA5124EFF7E6F121F1D7E6F80
:10189000121EF9EFF07E6F121EEE7E6F121E409048
:1018A000009B124ED67F007E6A1254B390007CEFEC
:1018B000F07E6F121F057E6F1254B3900073EFF02D
:1018C0007F017E6A1254B390008EEFF0124EBD126B
:1018D0004F05121DE7EF1210DC7FED121DE7124ECF
:1018E000C57FEC7E6F1254B3124E99124ECC7FEB33
:1018F0007E6F1254B3124E99124EB67400F0A37458
:10190000A4F07FE57E6F1254B3124E99EF1210DCF3
:101910007FE67E6F1254B3124E99124EC57FE77E5A
:101920006F1254B3124E99124ECC7FE87E6F125450
:10193000B3124E99124EB67400F0A37493F07FD197
:101940007E6F1254B3124E99EF1210DC7FD27E6F6D
:101950001254B3124E99124EC57FD37E6F1254B3F8
:10196000124E99124ECC7FD47E6F1254B3124E9900
:10197000900003EF1210EE410E90008B7427F0A33D
:101980007410F0E49000AEF090009E1212C30000BC
:10199000000090006D1212C34110000090008212EE
:1019A00012C33F8000009000861212C33F800000E7
:1019B00090009D7401F0900080E4F0A304F090008A
:1019C0009BE4F0A37464F0E490007CF090008EF04F
:1019D00090008AF090007DF09000A81212C30000E1
:1019E00000009000A41212C30000000090009312A7
:1019F00012C300000000E4900073F0C2AF7FF07EDD
:101A00006F1254EC7F017E6A121BBB121E7A90008B
:101A10008BE0F47003A3E0F4600261B89000AEE0E4
:101A2000F4600261B890009DE0FF3395E0FEEFF4B2
:101A30004E600261B8900080E0F47003A3E0F460AF
:101A40000261B890009BE0F47003A3E0F4600261CF
:101A5000B890007CE0F4600261B87E68121E6F7F6F
:101A6000FA121EBF124ED37E68121F127FF07E68DC
:101A70001254B3900000EFF07FF1121EBF124EA57A
:101A800090009E1212B77E68121EA97E68121DC3B6
:101A9000124EA590006D1212B77E68121EB47E68B9
:101AA000121DF8FDEE3CFC120EE6E4FBFA797A78A2
:101AB00044120DD79000821212B77E68121EE37E88
:101AC00068121E1C124EA5124EFF7E68121F1D7E4C
:101AD00068121EF9EFF07E68121EEE7E68121E403C
:101AE000FFEE3C90009BF0A3EFF07E68121F057E96
:101AF000681254B3900073EFF0124EBD124F057E82
:101B0000681254B3124E99EF1210DC7FED7E68120A
:101B100054B3124E99124EC57FEC7E681254B31224
:101B20004E99124ECC7FEB7E681254B3124E99122E
:101B30004EB67400F0A374A4F07FE67E681254B32E
:101B4000124E99EF1210DC7FE77E681254B3124EEA
:101B500099124EC57FE87E681254B3124E99124E08
:101B6000CC7FE97E681254B3124E99124EB67400BF
:101B7000F0A37493F07FE57E681254B3124E99EF90
:101B80001210DC7FE47E681254B3124E99124EC5D7
:101B90007FE37E681254B3124E99124ECC7FE07EE2
:101BA000681254B3124E99900003EF1210EE7FF0BA
:0A1BB0007E6F121BBB121E7AD2AF2B
:101BBA00221254EC7F017E6A1254EC7D007C6AE4A6
:101BCA00FF12543E7D017C6AE4FF12543E7DF07C94
:101BDA006FE4FF12543E7DF17C6FE4FF12543E7DA8
:101BEA00E17C6F7F0912543E7DE27C6FE4FF125460
:101BFA003E7DFB7C6F7F0A12543E7DFC7C6FE4FFC6
:101C0A0012543E7DF27C6F7F0112543E7DF37C6F4D
:101C1A00E4FF12543E9000AEE0FF7DF47C6F125454
:101C2A003E7DF97C6F7F6412543E7DFA7C6FE4FF3F
:101C3A0012543E900080A3E0FF7DF87C6F12543E60
:101C4A007DF57C6F7F0112543E7DF67C6FE4FF12B6
:101C5A00543E7DF77C6FE4FF12543E7DEF7C6FE4C7
:101C6A00FF12543E7DEA7C6FE4FF12543E7B017AF8
:101C7A000079A8900002EBF0A3EAF0A3E9F01210B1
:101C8A0096FF7DEE7C6F12543E900002E0FBA3E0CB
:101C9A00FAA3E0F99000011210AFFF7DED7C6F12FC
:101CAA00543E900002E0FBA3E0FAA3E0F9900002A0
:101CBA001210AFFF7DEC7C6F12543E900002E0FBE5
:101CCA00A3E0FAA3E0F99000031210AFFF7DEB7CCA
:101CDA006F12543E7B017A0079A4900002EBF0A3C4
:101CEA00EAF0A3E9F0121096FF7DE57C6F12543EEC
:101CFA00900002E0FBA3E0FAA3E0F99000011210C1
:101D0A00AFFF7DE67C6F12543E900002E0FBA3E039
:101D1A00FAA3E0F99000021210AFFF7DE77C6F1280
:101D2A00543E900002E0FBA3E0FAA3E0F99000031E
:101D3A001210AFFF7DE87C6F12543E7B017A007966
:101D4A0093900002EBF0A3EAF0A3E9F0121096FFD9
:101D5A007DD17C6F12543E900002E0FBA3E0FAA30F
:101D6A00E0F99000011210AFFF7DD27C6F12543E51
:101D7A00900002E0FBA3E0FAA3E0F990000212103F
:101D8A00AFFF7DD37C6F12543E900002E0FBA3E0CC
:101D9A00FAA3E0F9227E6F1254B3900001EFF0FB30
:101DAA00900000E0FF3395E0FE7C007D6412111084
:101DBA00EBFD3395E0FCEF2D227FE21254B3900045
:101DCA0001EFF0FB900000E0FF3395E0FE7C007D20
:101DDA0064121110EBFD3395E0FCEF2D227E6F1299
:101DEA0054B3900002E0FBA3E0FAA3E0F9227FFCDF
:101DFA001254B3900001EFF0FB900000E0FF33951E
:101E0A00E0FE7C007D64121110EBFD3395E0FCEFDF
:101E1A002D227FF31254B3900001EFF0FB900000E3
:101E2A00E0FF3395E0FE7C007D64121110EBFD3378
:101E3A0095E0FCEF2D227FF61254B3900001EFF0EB
:101E4A00FB900000E0FF3395E0FE7C007D641211F8
:101E5A0010EBFD3395E0FCEF2D227FF01254B39086
:101E6A000000EFF0227FF91254B3900000EFF02245
:101E7A009000031210AFFF7DD47C6F12543E7FF0A6
:101E8A007E6C1254EC7FF17E6C1254EC7DF07C6C0B
:101E9A007F0A12543E7DF17C6C7F0A12543E227FE7
:101EAA00E11254B3900000EFF0227FFB1254B3907A
:101EBA000000EFF0227E681254B3900001EFF0FBAD
:101ECA00900000E0FF3395E0FE7C007D6412111063
:101EDA00EBFD3395E0FCEF2D227FF21254B3900014
:101EEA0000EFF0227FF51254B3900000EFF0227F4A
:101EFA00F81254B3900080E4F0A3227FEF1254B397
:101F0A0090007DEFF07FEA227FF41254B39000AE86
:0E1F1A00EFF0227FF71254B390009DEFF022FB
:10539A007F007E6A1254EC90007CE0FF7D007C6AFC
:0F53AA0012543E90008EE0FF7D017C6A02543E5B
:102000007E6F122457A3EDF07C6F1224077C6F12B1
:102010002382121177A3EDF07C6F1224317C6F12B2
:1020200021DB7DE11224EC1222567DFB1224EC12FE
:1020300022D17DF27C6F12543E7C6F122412124E1C
:10204000F0124EAC124EFF7C6F1224897C6F12236B
:102050004C7DF57C6F12543E7C6F1224947C6F1281
:1020600024A97C6F1224BE7C6F1223DE7DEE122326
:10207000D4124E9C124EDE7DED1223D4124E9C12D1
:102080004EE47C6F1223FD124E9C124EEA7C6F12BE
:10209000243C7C6F12247F124E9C124EDE7C6F1209
:1020A000241D124E9C124EE47C6F122427124E9C6B
:1020B000124EEA7DE87C6F1224C97DD11224B4123D
:1020C0004E9C124EDE7DD21224B4124E9C124EE46F
:1020D000FF7DD37C6F12543E90002D124E9C124E09
:1020E000EAFF7DD47C6F12543E90007CE0600221B8
:1020F000DA7E68122457A3EDF07C681224077C680E
:10210000122382121177A3EDF07C681224317C68CF
:102110001221DB7DE11224F41222567DFB1224F4FD
:102120001222D17DF27C6812543E7C681224121275
:102130004EF0124EAC124EFF7C681224897C68125D
:10214000234C7DF57C6812543E7C681224947C6894
:102150001224A97C681224BE7C681223DE7DEE1254
:10216000249F124E9C124EDE7DED12249F124E9C37
:10217000124EE47C681223FD124E9C124EEA7C68DB
:1021800012243C7C6812241D124E9C124EDE7C6888
:10219000122427124E9C124EE47DE81224E2124EC5
:1021A0009C124EEA7DE97C681224C97C6812247F67
:1021B000124E9C124EDE7DE41224E2124E9C124E10
:1021C000E4FF7DE37C6812543E90002D124E9C1279
:0A21D0004EEAFF7DE07C6812543EE9
:1021DA002290002CE0FF7DF112543E90009EE0FC1C
:1021EA00A3E0FDA3E0FEA3E0FFE4FBFA79C878428E
:1021FA00120DD790009E1212B790006DE0FCA3E07A
:10220A00FDA3E0FEA3E0FFE4FBFA79C87842120CD2
:10221A00CE90006D1212B790006DE0FCA3E0FDA312
:10222A00E0FEA3E0FF120F1FAB07AA067C007D6445
:10223A0012117790002BEFF07C007D64AF03AE02A1
:10224A00121177A3EDF090002BE0FF2290002CE012
:10225A00FF7DE212543E90006DE0FCA3E0FDA3E096
:10226A00FEA3E0FFE4FBFA79C87842120DD790008A
:10227A006D1212B7900082E0FCA3E0FDA3E0FEA37A
:10228A00E0FFE4FBFA797A7844120CCE90008212CD
:10229A0012B7900082E0FCA3E0FDA3E0FEA3E0FFFA
:1022AA00120F1FAB07AA067C007D641211779000FB
:1022BA002BEFF07C007D64AF03AE02121177A3ED21
:1022CA00F090002BE0FF2290002CE0FF7DFC1254DE
:1022DA003E900082E0FCA3E0FDA3E0FEA3E0FFE461
:1022EA00FBFA797A7844120DD79000821212B790CD
:1022FA000086E0FCA3E0FDA3E0FEA3E0FFE4FBFA16
:10230A0079C87842120CCE9000861212B7900086D5
:10231A00E0FCA3E0FDA3E0FEA3E0FF120F1FAB0762
:10232A00AA067C007D6412117790002BEFF07C00E6
:10233A007D64AF03AE02121177A3EDF090002BE09B
:10234A00FF22900080A3E0FF7DF812543E90009B8C
:10235A00E0FAA3E0FB7C007D64FFAE02121122903A
:10236A00002BEFF07C007D64AF03AE02121122A3B2
:10237A00EDF090002BE0FF2290002CE0FF7DFA1296
:10238A00543E90009EE0FCA3E0FDA3E0FEA3E0FF24
:10239A00E4FBFA79C87842120CCE90009E1212B76A
:1023AA0090009EE0FCA3E0FDA3E0FEA3E0FF120F75
:1023BA001FAB07AA067C007D6412117790002BEFF1
:1023CA00F07C007D64AF03AE0222FF7C6F12543EA4
:1023DA0090002D22900073E0FF7DEA12543E7B01AB
:1023EA007A0079A890002DEBF0A3EAF0A3E9F012A5
:1023FA00109622FF7DEC12543E90002D2290002B65
:10240A00E0FF7DF912543E2290002CE0FF7DF3128A
:10241A00543E22FF7DE612543E90002D22FF7DE7B6
:10242A0012543E90002D2290002BE0FF7DF01254B2
:10243A003E22FF7DEB12543E7B017A0079A4900084
:10244A002DEBF0A3EAF0A3E9F0121096227FEF1227
:10245A0054EC90008BE0FAA3E0FB7C007D64FFAEB5
:10246A000212112290002BEFF07C007D64AF03AEC4
:10247A000212112222FF7DE512543E90002D229075
:10248A0000AEE0FF7DF412543E2290002CE0FF7D66
:10249A00F612543E22FF7C6812543E90002D229080
:1024AA00009DE0FF7DF712543E22FF7C6F12543EDE
:1024BA0090002D2290007DE0FF7DEF12543E22FF16
:1024CA0012543E7B017A00799390002DEBF0A3EA37
:1024DA00F0A3E9F012109622FF7C6812543E900095
:1024EA002D227C6F12543E7C6F227C6812543E7CF3
:0224FA00682256
:0C54F9008FE4EEF5E375E64675E6B92297
:0D54DF00E4F5E7F5E5F5E675E380F5E42278
:0F54B30075E78275E5011254F900AFE21254DF7C
:0154C20022C7
:10543E00AB0775E78275E5028DE4ECF5E3AF038FFC
:08544E00E21254FE000254DFDB
:0D54EC0075E78275E5031254F9000254DFE4
:1047C1004C00AF00000000000000000000000044A9
:0A47D10000BB000000004100BF0023
:10506F0090004EE0FBA3E0FAA3E0F912124D90007E
:10507F004EE0FBA3E0FAA3E0F922900037E0F8A39B
:10508F00E0F9A3E0FAA3E0FB221212B790003DE093
:10509F00FCA3E0FDA3E0FEA3E0FF22EBF0A3EAF008
:1050AF00A3E9F022E4FBFA7841020DD7E0FF339534
:1050BF00E0FEEF78022224AFF58274003EF58322E2
:10001E00E4FFFE00000000000FBF00010EEF640CB5
:03002E004E70F021
:0100310022AC
:10530700E4FDD29012001E7C80ECD394004019C2B9
:105317009012001E12001E309103ED4CFDD2901228
:0D532700001EECC313FC80E112001EAF0558
:015334002256
:064F0F009000551250AAAB
:104F1500E490005BF0C296D29012530790005512B0
:104F25005080EF1210DC12530790005512508090FC
:104F35000001EF1210EE125307900058125080EF47
:104F45001210DC125307900058125080900001EFA8
:104F55001210EED296900055125080121096FF5402
:104F6500C064C06004EF30E60690005B7401F01287
:0C4F75001096543F1210DC90005BE0FF2F
:014F8100220D
:063EAD0090004E1250AA25
:103EB300900053E0FEA3E0AA06F9900058E41250E4
:103EC300AB7B017A007951124F0FEF6002E1C8D347
:103ED300900052E09466900051E06480948650070D
:103EE3007406F0A37466F0C3900052E0949A9000B5
:103EF30051E0648094B940077439F0A3749AF09048
:103F03000051E0FCA3E0FDEC120EE67B7B7AC27964
:103F13009E783D120CCE7B007AC0791E78C4120BBA
:103F2300DD90009E12508C120BD912506F1211FDAE
:103F3300E4FBFA79207841120CCE120F1F7C007D2E
:103F43000A121177AC06AD07EC120EE612506F128F
:103F530011FD7BCD7ACC79CC783D120E74600C4088
:103F63000A12507D1212F40000000012507D12114B
:103F7300FDE4FBFA79FE7843120E74500A12507D69
:103F83001212F443FE0000900053E0FEA3E0780514
:103F9300CEC313CE13D8F9FF900053EEF0A3EFF086
:103FA300FDAC06E4120EE67BF07A1679C8783D1272
:103FB3000CCEE4FBFA794878C2120BDD12507D90E7
:053FC30000041212676A
:013FC80022D6
:104544009000411212C300000000E4900045F07B8B
:10455400017A007946123EAD90004612509EC00486
:10456400C005C006C0079000BF1250BBC333CE3392
:10457400CED8F91250C5D007D006D005D0041212F7
:10458400B79000BFE004F0E0B40302E4F0E490006C
:1045940045F090004112509EC004C005C006C007FB
:1045A400A31250BBC333CE33CED8F91250C5125028
:1045B4008CD007D006D005D004120BDD9000411238
:1045C40012B7900045E004F0E0B403C69000411235
:1045D400509EE4FBFA79407840120DD790004112C6
:1045E40012B79000AEE0FFC374149FFDE49400FC86
:1045F400E4120EE690004112508C120CCEC004C09E
:1046040005C006C0079000AEE0FCE4120EEB90007B
:10461400BB12508C120CCED003D002D001D00012A9
:104624000BDD79A01250B390003D1250989000BB5E
:0346340012509889
:014637002260
:063C4A0090002B1250AAAD
:103C5000E490003BF0A3F0124544120F1F90003592
:103C6000EEF0A3EFF01227A39000371212B77F6F88
:103C70007E127D837C3A125089120E74500A900095
:103C8000371212C30000000090002E125080125014
:103C90000090002B12508012124D7FAE7E2A7D7B49
:103CA0007C3C125089120CCEA804A905AA06AB07C9
:103CB0007FDF7E4F7D5D7C40120BD990002B125030
:103CC00080121297120CCEC004C005C006C0079027
:103CD000002E1250801211FD7B337A93798878433D
:103CE000120BDDA804A905AA06AB07D007D006D0A1
:103CF00005D004120DD7C004C005C006C00790004F
:103D000036E025E0FD900035E033FC120EE6D003EE
:103D1000D002D001D000120DD7122F429000821293
:103D2000508C120CCE90008612508C120CCE90004B
:103D3000311212B7E4FFFE7D207C41900031125019
:103D40008C120CCE120F1F90003BEEF0A3EFF0FD93
:103D5000AC06EC120EE679201250B390003112122C
:103D6000B77F0A7ED77D237C3C90003112508C12A5
:103D70000E74500A9000311212C30000000090002F
:043D80003112509E0E
:013D8400221C
:103FC900E4F5D8F5E9F5F9F5D99000DDE0FEA3E0CF
:103FD900F5EAEEF5FA90007EE0FEA3E0FF9000DE40
:103FE900E02FF09000DDE03EF075DA49D2DED2AE86
:013FF90022A5
:105123009000141212B7E4FFFE7D487C44900014F3
:10513300E0F8A3E0F9A3E0FAA3E0FB120CCEE4FB52
:10514300FA79C87842120DD7E4FBFA79487843120A
:105153000BDDA804A905AA06AB077F007E247DF416
:105163007C48120DD7120F1F90007EEEF0A3EFF0D4
:015173002219
:0747DB004400D500000000BE
:10524B00120BDD90004CE0FBA3E0FAA3E0F9221275
:10525B0012B7900040E0FCA3E0FDA3E0FEA3E0FF4B
:10526B0022E0F8A3E0F9A3E0FAA3E0FB020CCEEBFB
:10527B00F0A3EAF0A3E9F02290000412121DE4FB64
:02528B00FA2205
:064F820090005312527A68
:104F8800E4900059F0C297D2901253079000531240
:104F98005251EF1210DC12530790005312525190E5
:104FA8000001EF1210EE125307900056125251EF03
:104FB8001210DC125307900056125251900001EF64
:104FC8001210EED297900053125251121096FF54BD
:104FD800C064C06004EF30E6069000597401F01216
:0C4FE8001096543F1210DC900059E0FFBE
:014FF400229A
:0637100090004C12527AF9
:103716009000567401F0A37400F0A37451F07B017D
:103726007A00794F124F82EF6002E1FDD39000508C
:10373600E0946690004FE06480948650077406F02B
:10374600A37466F090004FE0FCA3E0FDEC120EE6D9
:103756007B0F7A457901783C120CCE7B177AD979A2
:103766004E78C112524B12124D12524E1211FDE4F6
:10377600FBFAF9F8120E74600C400A12524E12123D
:10378600F400000000900051E0FEA3E07805CEC3EF
:1037960013CE13D8F9F0EE900051F0E0FCA3E0FD53
:1037A600E4120EE67BF07A1679C8783D120CCEE468
:1037B600FBFA794878C212524B9000041212671233
:1037C600528379167843120E74500E12524E9000A0
:1037D6000412130E431600002212524E125283791F
:1037E6004878C2120E74600F400D12524E900004BB
:0737F60012130EC24800008F
:0137FD0022A9
:0650000090003D12527AFF
:105006007B017A0079441237109000481252609062
:10501600003D12525112124D9000AEE0FFC37414BF
:105026009FFDE49400FCE4120EE690004412526CDC
:10503600C004C005C006C0079000AEE0FCE4120E36
:10504600EB9000D512526CD003D002D001D00012E2
:105056000BDDE4FBFA79A07841120DD790004012DF
:08506600525A9000D512525A73
:01506E00221F
:0747E2004400D942F0000081
:0F54C30090003DE0FCA3E0FDA3E0FEA3E0FF228C
:105480009000717401F0E4900099F0A3F0D288D2FA
:02549000A82250
:10545600900099E0FFA3E09000ACCFF0A3EFF0E45A
:07546600900071F0C2A822C2
:1027A300900071E07043D39000ADE094E99000ACE9
:1027B300E0940340077403F0A374E9F09000ACE0E5
:1027C300FCA3E0FDE4120EE6E4FBFA794978C312B8
:1027D3000BDDE4FBFAF97841120DD790003D12129C
:1027E300B71254C39000D980099000D91254C690EF
:0827F300003D1212B71254C39D
:0127FB0022BB
:100BD600020F8BE86480F8E933E83360110460F0B3
:100BE600ED33EC337009E8FCE9FDEAFEEBFF220485
:100BF60060DED3EB9FEA9EE99DE8C2E78CF0C2F780
:100C060095F0400CE8CCF8E9CDF9EACEFAEBCFFB4B
:100C1600120F5685D0F05804700320D5B3E804703F
:100C2600075002B2D5020F9592D5EC0460F7E4CCDA
:100C3600C0E0C398F8603B94186008400DD0E0FB14
:100C4600020F6DE4FBFAC9FC8028E830E406E4C92B
:100C5600FBE4CAFCE830E305E4C9CACBFCE8540768
:100C66006010F8C3E913F9EA13FAEB13FBEC13FC73
:100C7600D8F130F52FC3E49CFCEF9BFFEE9AFEED16
:100C860099FDD0E0FBEF4E4D4C701222DB03020FB4
:100C960092EC2CFCEF33FFEE33FEED33FDED30E747
:100CA600EB020F6DEF2BFFEE3AFEED39FDD0E0FBC8
:100CB60050130BBB0003020F95ED13FDEE13FEEF71
:080CC60013FFEC13FC020F6D9B
:100CCE00EC4D6011E8497017ED33EC3304600DE420
:100CDE00FCFFFEFD22E933E8330470F8020F8B129D
:100CEE000F5658046009E4CC24815006285009029E
:100CFE000F95284003020F92C0E0EB4A7044B98072
:100D0E0006D0E0FB020F81EF4E701CBD8008EBFF9A
:100D1E00EAFEE9FD80EBE98DF0A4FEE5F0020DB7E9
:100D2E00E9CDF9EAFEEBFFEF89F0A4FCE5F0CE8900
:100D3E00F0A42EFFE435F0CD89F0A42DFEE435F0BD
:100D4E008067EF4E7005BD80D780C3EF8BF0A4ACEB
:100D5E00F0EE8BF0A42CFCE435F0F8EF8AF0A42C26
:100D6E00E5F038FCE433CB8DF0A42CFCE5F03BF839
:100D7E00EE8AF0A42CFCE5F038F8E433CF89F0A429
:100D8E002CFCE5F038CF3400CE89F0A42FFFE5F02F
:100D9E003EFEE433C98DF0A42EFEE5F039CD8AF087
:100DAE00A42FFFE5F03EFEE43DFD33D0E0FB5007FF
:100DBE000BBB000F020F95EC2CFCEF33FFEE33FE56
:060DCE00ED33FD020F6D84
:100DD400020F95EC5D046005E859047003020F8B63
:100DE400120F56580460F6EC4860F2EC7004FDFEF5
:100DF400FF22C860DB2481C85009C39860025006F2
:100E0400020F929850CAF582E9294B4A7005AB82C9
:100E1400020F8175F0007C1A7880C3EF9BEE9AED87
:100E240099400DC3EF9BFFEE9AFEED99FDE842F069
:100E3400DC23ACF0D0E0FFD0E0FED0E0FDAB8220BC
:100E4400E7101BEB60BAEC2CFCEF33FFEE33FEED46
:100E540033FD020F6DE803F830E705C0F075F000CC
:100E6400EF2FFFEE33FEED33FD40B830E7C280AA2A
:100E740074F8CC6480CCC86480C8F582046043C331
:100E8400EB9FF5F0EA9E42F0E99D42F0E89C45F0C4
:100E940060305018E5825FFFE582F42B5582FB50E9
:100EA400210ABA001D09B90019088016E5825BFB06
:100EB400E582F42F5582FF50090EBE00050DBD00DA
:100EC400010CC3EB9FF5F0EA9E42F0E99D42F0E885
:0D0ED4009C45F06007CC4820E701B3EC22FC
:100EE10075F020800E75F010800575F0087D007E8C
:100EF100007F003392D530D5031211D9EC33401065
:100F0100EF33FFEE33FEED33FDEC33FCD5F0ED2294
:0E0F1100E5F0247EA2D513CC92E7CDCEFF22D0
:100F1F00EDD2E7CD33EC3392D524814006E4FFFECA
:100F2F00FDFC22FCE4CFCECDCC24E0501174FF8029
:100F3F00EDC3CC13CCCD13CDCE13CECF13CF0470C6
:070F4F00F030D5DE0211D9DC
:102F3E00020F8B22EDA2E7D2E7F9EC3340F260F3F9
:102F4E00B4FF08ED547F70E8020F95F82481C2E0BB
:102F5E00C0E0F40428FAC313FCED92E7FD90003DA7
:102F6E001212B7EEA2E7E9BA7F02C313340094003F
:102F7E00FA75F091A4E5F013F494FE8AF0A433E50B
:102F8E00F033248CD313FDE492E7FE7F007C3F7573
:102F9E008302ECC0E0F8EDC0E0F9EEC0E0FAEFC05D
:102FAE00E0FB8583F090003D12128B85F083120DAD
:102FBE00D7D0E0FBD0E0FAD0E0F9D0E0F8120BDD8C
:102FCE00ED6480FD30E7011CD583C7ED33CC33F8BB
:0C2FDE00D0E0A2E71328C313CC13FD229F
:100F5600E9D2E7C933E833F892D5EDD2E7CD33ECE1
:070F660033FC5002B2D5225A
:100F6D00EC30E7100FBF000C0EBE00080DBD0004E5
:100F7D000BEB6014A2D5EB13FCED92E7FD2274FF91
:100F8D00FCFDFEFF22E480F8A2D574FF13FC7D80EA
:030F9D00E480EFFE
:104E1900023D85E493A3F8E493A34003F68001F2ED
:104E290008DFF48029E493A3F85407240CC8C3339A
:104E3900C4540F4420C8834004F456800146F6DF69
:104E4900E4800B0102040810204080904724E47E8E
:104E5900019360BCA3FF543F30E509541FFEE4935E
:104E6900A360010ECF54C025E060A840B8E493A325
:104E7900FAE493A3F8E493A3C8C582C8CAC583CA50
:104E8900F0A3C8C582C8CAC583CADFE9DEE780BE08
:0147E90000CF
:100FA000E709F608DFFA8046E709F208DFFA803E33
:100FB00088828C83E709F0A3DFFA8032E309F60820
:100FC000DFFA8078E309F208DFFA807088828C8388
:100FD000E309F0A3DFFA806489828A83E0A3F6083C
:100FE000DFFA805889828A83E0A3F208DFFA804C16
:100FF00080D280FA80C680D4806980F280338010ED
:1010000080A680EA809A80A880DA80E280CA803355
:1010100089828A83ECFAE493A3C8C582C8CCC583CD
:10102000CCF0A3C8C582C8CCC583CCDFE9DEE7809D
:101030000D89828A83E493A3F608DFF9ECFAA9F01C
:10104000EDFB2289828A83ECFAE0A3C8C582C8CC72
:10105000C583CCF0A3C8C582C8CCC583CCDFEADE8B
:10106000E880DB89828A83E493A3F208DFF980CCED
:1010700088F0EF60010E4E60C388F0ED2402B404E6
:101080000050B9F582EB2402B4040050AF2323458D
:061090008223900FF073B3
:10109600BB010689828A83E0225002E722BBFE0258
:0910A600E32289828A83E493228B
:1010AF00BB010CE58229F582E5833AF583E02250F6
:1010BF0006E92582F8E622BBFE06E92582F8E22240
:0D10CF00E58229F582E5833AF583E493225A
:1010DC00BB010689828A83F0225002F722BBFE01F3
:0210EC00F322ED
:1010EE00F8BB010DE58229F582E5833AF583E8F038
:1010FE00225006E92582C8F622BBFE05E92582C8E4
:02110E00F222CB
:10111000EF8DF0A4A8F0CF8CF0A428CE8DF0A42EF3
:02112000FE22AD
:10112200BC000BBE0029EF8DF084FFADF022E4CCB1
:10113200F875F008EF2FFFEE33FEEC33FCEE9DEC7A
:10114200984005FCEE9DFE0FD5F0E9E4CEFD22EDC0
:10115200F8F5F0EE8420D21CFEADF075F008EF2F0A
:10116200FFED33FD4007985006D5F0F222C398FDFB
:051172000FD5F0EA2298
:10117700C2D5EC30E709B2D5E4C39DFDE49CFCEE93
:1011870030E715B2D5E4C39FFFE49EFE121122C3D8
:10119700E49DFDE49CFC800312112230D507C3E4D3
:0611A7009FFFE49EFE2202
:1011AD00C5F0F8A3E028F0C5F0F8E58215827002CD
:0611BD001583E038F0226A
:1011C300A3F8E0C5F025F0F0E582158270021583DF
:0611D300E0C838F0E8223C
:1051C400C2D5E830E70FB2D5E4C39BFBE49AFAE416
:1051D40099F9E498F8EC30E717B2D51251FA1213A2
:1051E4008EE4C39BFBE49AFAE499F9E498F880030B
:1051F40012138E30D50DE4C39FFFE49EFEE49DFDA3
:04520400E49CFC2208
:0E11D900C3E49FFFE49EFEE49DFDE49CFC2227
:1011E700EB9FF5F0EA9E42F0E99D42F0EC6480C87F
:0611F70064809845F0221F
:1011FD00BB010789828A8302128B5005E9F802141C
:10120D0020BBFE05E9F802142C89828A830214386A
:10121D00BB010DE58229F582E5833AF58302128B38
:10122D005007E92582F8021420BBFE07E92582F854
:10123D0002142CE58229F582E5833AF583021438F0
:10124D00BB010789828A830212B75005E9F802149F
:0A125D007EBBFE05E9F802148A22A8
:10126700BB010DE58229F582E5833AF5830212B7C2
:101277005007E92582F802147EBBFE07E92582F8AC
:0412870002148A22A1
:0C128B00E0FCA3E0FDA3E0FEA3E0FF22D6
:10129700BB010789828A830214555005E9F80214B5
:1012A70048BBFE05E9F802146189828A8302146E3D
:0C12B700ECF0A3EDF0A3EEF0A3EFF022AA
:1012C300A8828583F0D083D0821212DA1212DA1246
:1012D30012DA1212DAE473E493A3C583C5F0C5836B
:1012E300C8C582C8F0A3C583C5F0C583C8C582C875
:0112F30022D8
:1012F400BB010789828A830212C35005E9F80214EC
:0A13040096BBFE05E9F80214AF22C3
:10130E00BB010DE58229F582E5833AF5830212C30E
:10131E005007E92582F8021496BBFE07E92582F8EC
:04132E000214AF22D4
:10133200BB010789828A830214D15005E9F802149D
:10134200C8BBFE05E9F80214DA89828A830214E333
:1013520075F008758200EF2FFFEE33FECD33CDCC52
:1013620033CCC58233C5829BED9AEC99E5829840D5
:101372000CF582EE9BFEED9AFDEC99FC0FD5F0D6B2
:10138200E4CEFBE4CDFAE4CCF9A88222B800C1B9DC
:101392000059BA002DEC8BF084CFCECDFCE5F0CB1A
:1013A200F97818EF2FFFEE33FEED33FDEC33FCEB53
:1013B20033FB10D703994004EB99FB0FD8E5E4F90E
:1013C200FA227818EF2FFFEE33FEED33FDEC33FCFB
:1013D200C933C910D7059BE99A4007EC9BFCE99AEF
:1013E200F90FD8E0E4C9FAE4CCFB2275F010EF2F34
:1013F200FFEE33FEED33FDCC33CCC833C810D70734
:101402009BEC9AE899400AED9BFDEC9AFCE899F86E
:0E1412000FD5F0DAE4CDFBE4CCFAE4C8F92201
:0C142000E6FC08E6FD08E6FE08E6FF22F8
:0C142C00E2FC08E2FD08E2FE08E2FF22FC
:10143800E493FC740193FD740293FE740393FF22FA
:0D144800E6FB08E6F908E6FA08E6CBF82214
:0C145500E0F8A3E0F9A3E0FAA3E0FB221A
:0D146100E2FB08E2F908E2FA08E2CBF8220B
:10146E00E493F8740193F9740293FA740393FB22D4
:0C147E00ECF608EDF608EEF608EFF6229A
:0C148A00ECF208EDF208EEF208EFF2229E
:10149600D083D082E493F608740193F6087402931D
:0914A600F608740393F674047354
:1014AF00D083D082E493F208740193F2087402930C
:0914BF00F208740393F274047343
:0914C800E6FB08E6FA08E6F92249
:0914D100E0FBA3E0FAA3E0F9221C
:0914DA00E2FB08E2FA08E2F92243
:0C14E300E493FB740193FA740293F92265
:00000001FF
