:10515B00FF02F6FF0316FF05B6FF0036FF0036FF12
:10516B0002F6FF0316FF0036FF0036FF00366572AE
:02517B007200C0
:0A532C00E22401F218E23400F2223C
:10393300E4F5B175B201C2B0121513124E911250D3
:10394300E51251BC7800121348000000009000C437
:10395300E070149000D4E004F0E0D39406400374C4
:1039630006F012519D8005E49000D4F09000D4E05D
:10397300B406147430123A617BFF7A5179797D0170
:103983007F0612508980FE7440123A619000D3E0A2
:10399300B410004003023A3C9039A2F8282873027D
:1039A30039D20239D70239DC0239E10239E6023968
:1039B300EB0239F00239F50239FA0239FF023A040F
:1039C300023A09023A0E023A13023A3C023A31121F
:1039D300417C8065124BC880601231FF805B1230DE
:1039E3005D8056124642805112425F804C123695DA
:1039F30080471244C98042123D94803D122EAB8011
:103A030038124CAE8033123C8D802E122CDB802971
:103A13007BFF7A51796A7DF0123F99BF01099000CB
:103A2300C47401F012519DE49000D3F0800B7BFF2E
:103A33007A51795B7D05123F999000C4E0B4010F80
:103A43009000D3E0640D600302398AF002398A9052
:0E3A530000D3E0640E600302398AF002398A63
:0E3A61007899F2C2007B80E4FDFF124AAD228C
:1051BC0043891175B802758DEC758B77758C647598
:0D51CC008A64D2AFD2A9D28CD2ABD28E228F
:03001B000240960A
:10409600C0E0C0F0C083C082C0D075D000C000C0F0
:1040A60001C002C003C004C005C006C007758D3C30
:1040B600758BAF782212532CC308E2947E18E294D3
:1040C60004400B7404F208747EF2D2B08002C2B0CF
:1040D6009000C3E004F070069000C2E004F0D390B4
:1040E60000C3E094E89000C2E0940340077403F034
:1040F600A37484F09000DFE004F070069000DEE028
:1041060004F0D39000DFE094159000DEE0940040C8
:1041160018E4F0A304F0781A12532C08E2B46309E9
:1041260018E2B40D04E4F208F29000BDE004F0E0F9
:10413600B43C067401F01252999000BDE0B4150328
:1041460012527175E13C9000DEE0FEA3E0FF7C00B8
:104156007D0A1211C6ED4C7002B2B1D007D006D05E
:1041660005D004D003D002D001D000D0D0D082D068
:0641760083D0F0D0E0321E
:03000B000251D9C6
:1051D900C0E0C0D075D000C0007815E2F58C08E2B7
:0B51E900F58AB2B5D000D0D0D0E03283
:0300330002505226
:10505200C0E0C0D075D000C000C006C007C2D8787A
:105062002DE2FE08E2F5EAEEF5FA7817E2FE08E232
:10507200FF782EE22FF218E23EF2B2B7D007D00646
:07508200D000D0D0D0E032D5
:030003000251F4B3
:1051F400C0E0C083C0829000D6E004F07006900046
:0B520400D5E004F0D082D083D0E0326F
:03000000024B3C74
:0C4B3C00787FE4F6D8FD758120024B83E1
:104FC500C283C294AF068FA0D2951252BCC295C2BD
:104FD50082C292227A002FFFEA35F0FED3EF944089
:104FE500EE64809480222FFFEA33FED3EF9480EEA7
:104FF5006480948022F218E2FA3400F2021167F517
:095005008274053EF583E4932258
:10525B00EF1FAA0670011E4A600BE4FDEDC3947D9F
:05526B0050EE0D80F77C
:01527000221B
:0F52BC00E4FF00000000000000000FEFB403F358
:0152CB0022C0
:0F520F00E2FF12000EED2440FF12000E08E2FF36
:0C521E00D282C292D283C294124FCB22E3
:0D522A00E2FF1252F9AF051252F908E2FF3F
:0C523700C282D292D283C294124FCB22CA
:0D000E00AE071252BCD282C292124FC52220
:0D52F900AE071252BCC282D292124FC522E3
:08498100789CEFF2789EEBF246
:10498900ED75F008A4FF08E2FC124FD94003024A72
:104999001718E2FF789CE2F9124FEB5071EC5407BB
:1049A900706CED24B878A3F2AD01E4FC789FE213B2
:1049B9001313541FFFECC39F5054789CE2FFC3EDBF
:1049C9009FFF789EE2FEEFC39E503678A0E2FB0877
:1049D90008E2F92401300006124FFAF48003124F5D
:1049E900FA78A4F2EDC394407FC0500A12000E7801
:1049F900A312520F80081252F978A312522A0D807D
:0E4A0900B9789CE2FD78A3E204F20C0249B5F4
:014A1700227C
:094AAD007897EDF208EBF2AC077A
:104AB60018E275F008A4FF7899E2FD124FD95075F7
:104AC60018E2FFEC124FEB506CED540770677897C5
:104AD600E224B8FDAB04E4FA7899E2131313541FE9
:104AE600FFEAC39F504FC3EB9CFF7898E2FEEFC3EB
:104AF6009E503C30000479FF8002E4F9EBC39440F9
:104B06007FC0501612000EAF0512000EEB2440FFB8
:104B160012000EAF0112521E80121252F9AF051288
:104B260052F9AF031252F9AF011252370B80B7ABED
:054B3600040D0A80A33C
:014B3B002257
:0648E700789CEBF2A9072A
:1048ED00ED75F008A42410FFE4124FDE40030249D9
:1048FD0080E92408FFE4124FEE5078ED24B8789D3E
:10490D00F2AD01E4FCE4789FF2C3ED99C394085035
:10491D0055EC75F008A4FBAAF0789CE275F010A494
:10492D002BFFE5F03AFE789FE27A002FFFEA3EFE7C
:10493D0074562F300008125004F418F280051250EE
:10494D000418F2EDC394407FC0500A12000E789DFA
:10495D0012520F80081252F9789D12522A789FE256
:10496D0004F20D024916AD01789DE204F20CEC64DF
:03497D0002709233
:014980002214
:104E91007F647E0012525BC2931252BCD2937F3E5A
:104EA10012000E7F3E1252F97FC012000E7FC01217
:104EB10052F97FB812000E7FB81252F97F401200EA
:104EC1000E7F401252F97F3F12000E7F3F1252F9BE
:0F4ED10078997440F2C2007B80E4FDFF024AAD85
:1000360000000000000000000000000000000000BA
:1000460000000000000000000000000000000000AA
:100056000000FE020A126282621A02FF020000001B
:1000660080403F20100806010618003F4080E0004F
:10007600202020BEAAAAAAAAAAAAAABF2230200085
:10008600008080AFAAAAAAFFAAAAAAAF8080000011
:10009600100C04555555857F8555555504140C008F
:1000A6000404020209092A4CA819090202040400E0
:1000B600404244CC00F4949494FF949494F6040043
:1000C6000040201F20514844427F42444C6120009A
:1000D6001010D0FF90108848A8090A08A84CC8003C
:1000E600040300FF808140402116081661C04000CD
:1000F600000204EC4020F84F4849FE48684C0800CE
:1001060002027F000000FF2222223F22233220002B
:10011600202424A4FE232200FC04040404FE04007C
:1001260010080601FF0142201B110101093360007E
:100136000080402098868080838C9020C08080003C
:1001460001008040201F004080403F000001000069
:1001560000022222322EA262222291090100000010
:10016600000042221A43827E02020A136600000041
:1001760010925430FF509432D8171010F018100017
:1001860002824E3322528E402314081661C040006C
:10019600101494F494DF94D4907F901214101000ED
:1001A6000201FF4A4A7F4A4A60100F3442817000BA
:1001B60002F2121212FA969292F2121212FB120026
:1001C60000FF4040407F4848487F404040FF0000D5
:1001D6000000FE0282828282FE828282C382000048
:1001E60040300F40404040407F4042444C60400019
:1001F600001010101010FF1010101010F810000052
:100206000080808060180700204080403F0000008A
:100216000000F8494A4C48F8484C4A49FC08000096
:1002260010101712121212FF1212121213181000C7
:10023600804020F80710D01011161010D8100000BA
:10024600000000FF202020232C203827203020000B
:10025600807000FF102808E81F08E808088C0800CE
:10026600000000FF2018878041320F3241C1400054
:1002760020100C03FAAAAAAAAAAAAAFA0302000044
:100286000020908886472A12122A464280808000E3
:10029600404042CC0040A09F8181819FA020200049
:1002A6000000007FA09040432C10282641C040004B
:1002B600001017D55557557D555755D517100000C1
:1002C6004040407F555555555555557F4060400037
:1002D6002424A4FEA322207E42424242427F020000
:1002E600080601FF0043414949497F494D694100DC
:1002F600104C2404F4844D562424148424540C00F5
:100306000001FD414041417F41414141FC00000067
:100316000282F24E43E242FA020202FF028000002B
:1003260001007F20207F080909090D49817F01000E
:100336000000C04040407F48484848E84C0800005C
:1003460080403704146404142464041720C0000099
:10035600101091D63098000808F8080808FC080024
:10036600020100FF0182402018074080403F000044
:10037600242820FF3028445454547F5454D6440033
:10038600080403FF010200FF1515151595FF01006E
:100396000000FC242424FCA5A6A4FC243426040086
:1003A60040209F804242262A122A264240C0400010
:1003B6001010F01F10F04060584740405060C000D9
:1003C60040221508166100FE4242424242FF0200E8
:1003D600804020F80704E4A4A4BFA4A4F6240000E7
:1003E600000000FF40407F4A4A4A4A4A7F40400098
:1003F6000000FE02E2A2B2AEA2A2A2A2F322000076
:1004060040300F40231A42827E02020A1360000027
:1004160040445465C664D64440FC4442C36240002E
:10042600201149817F01052918070000FF000000FF
:100436001022640CC0445454547F5454D644400093
:100446000404FE010000FF15151555957F010000F7
:100456000010E1CE0C8044E4F45DCF46D474E6444B
:10046600000438FC6780603F1F00FF007FFFC070FC
:10047600002020FFBFB5B5B5B5B5B5BFFFA030208C
:100486000080809FAFAAAAFFFFAAAABF8FC08000E4
:100496000000C4743C14FCFD0706FCFC9424E644EE
:1004A600000180808143452D39192D6743C1C04025
:1004B600004046DCE84080898A8EF8FC8F8AC88036
:1004C6000040E03F1F3060E0D8CEC7C1C6DCF85020
:1004D6000080BF9E9292BEDFC2BF9EF2D2BEDF8276
:1004E6000004FC7C4A4AF97D08FC79494AFA7E0AEE
:1004F60000000000008080000000000000000000F6
:100506000000000000313100000000000000000083
:100516001022640C80444464554E445466C4000062
:100526000404FE010080403F00FF003F4040700091
:1005360010101011D630980000FF40800000000017
:1005460008040201FF01020000FF00000103000091
:10055600804020F847309294909F90D4925030007B
:10056600000000FF04044464544C445464C6040070
:100576001022640C8000FE9292929292FF0200007A
:100586000404FE01407E42427E427E42427E40009C
:100596000000FC242424FCA5A6A4FC243426040084
:1005A60040209F804242262A122A264240C040000E
:1005B60080808080808080808080808080C0800075
:1005C6000000000000000000000000000000000025
:1005D60000000808080808080808080C08000000B9
:1005E600101010101010101010101010101810000D
:1005F6000000FE22222222FE22222222FF020000E8
:1006060000000702020202FF0202020207000000C7
:10061600807000FF10081C2424252634A4140C0026
:100626004020180708B041310F01013F41417000D9
:10063600000000F112141010101412F9100000003E
:100646002018003B4141454959414173000830009B
:100656002030AC633008E80808FF0808E80C0800FA
:100666002267221212000702023F424247407000F0
:100676001021620680FE929292929292FF020000F0
:100686000404FE0100FE8444207F88848680E00006
:1006960080804020504844434448502040C0400099
:1006A600000000FE42424242424242FF0200000077
:1006B60000101012945010FF105094921810000061
:1006C6000484844524140C070C142445C4460400F1
:1006D600202222FE2222FE232200FC0000FF000030
:1006E600404C4A4948484B7E4848484A4C6B400073
:1006F60000040404040404FC0404040406040000C6
:10070600202020202020203F2020202020302000D4
:100716000002048C407EC24242C2427F02000000B8
:100726000202FF8040300F00003F40404040700012
:100736001010D0FF9050444444C4444644604000E6
:10074600040300FF00110846807F00020C18000019
:100756000000000000000000000000000000000093
:10076600000038FCFC3800000000000D0D00000001
:1007760000003C24243C00000000000000000000B3
:1007860020F8F820F8F82000020F0F020F0F0200E1
:10079600387C444747CC98000306041C1C0703001A
:1007A60030300080C06030000C060301000C0C00E5
:1007B60080D87CE4BCD84000070F0808070F080063
:1007C60000101E0E000000000000000000000000E7
:1007D6000000F0F80C040000000003070C080000FD
:1007E6000000040CF8F000000000080C07030000ED
:1007F60080A0E0C0C0E0A080000203010103020067
:10080600008080E0E080800000000003030000001C
:1008160000000000000000000000101E0E00000096
:100826008080808080808000000000000000000042
:1008360000000000000000000000000C0C0000009A
:1008460000000080C06030000C06030100000000BC
:10085600F8FC04C424FCF800070F0908080F070079
:10086600001018FCFC0000000008080F0F08080024
:10087600080C84C4643C18000E0F0908080C0C0010
:10088600080C444444FCB800040C0808080F070090
:10089600C0E0B098FCFC8000000000080F0F0800C4
:1008A6007C7C4444C4C48400040C0808080F070078
:1008B600F0F84C4444C08000070F0808080F0700F2
:1008C6000C0C0484C47C3C0000000F0F00000000E8
:1008D600B8FC444444FCB800070F0808080F07009A
:1008E600387C444444FCF800000808080C07030060
:1008F6000000003030000000000000060600000086
:100906004848B0000000000002020100000000009C
:10091600C8A89000000000000000000000000000D1
:1009260040404040404040000202020202020200F3
:100936000008183060C0800000080C0603010000A3
:10094600181C04C4E43C18000000000D0D00000053
:10095600F0F808C8C8F8F000070F080B0B0B0100E9
:10096600E0F0988C98F0E0000F0F0000000F0F00E9
:1009760004FCFC4444FCB800080F0F08080F0700ED
:10098600F0F80C04040C180003070C08080C060009
:1009960004FCFC040CF8F000080F0F080C07030019
:1009A60004FCFC44E40C1C00080F0F08080C0E00A5
:1009B60004FCFC44E40C1C00080F0F0800000000B7
:1009C600F0F80C84848C980003070C0808070F00C5
:1009D600FCFC404040FCFC000F0F0000000F0F0025
:1009E600000004FCFC0400000000080F0F080000D3
:1009F60000000004FCFC0400070F08080F070000B5
:100A060004FCFCC0F03C0C00080F0F00010F0E00A8
:100A160004FCFC0400000000080F0F08080C0E0080
:100A2600FCFC387038FCFC000F0F0000000F0F00B4
:100A3600FCFC3870E0FCFC000F0F0000000F0F00FC
:100A4600F0F80C040CF8F00003070C080C07030080
:100A560004FCFC44447C3800080F0F08000000002A
:100A6600F8FC040404FCF800070F080E3C3F2700BE
:100A760004FCFC44C4FC3800080F0F00000F0F00F4
:100A8600183C6444C49C1800060E0808080F0700AA
:100A9600001C0CFCFC0C1C000000080F0F080000DA
:100AA600FCFC000000FCFC00070F0808080F07000C
:100AB600FCFC000000FCFC000103060C0603010020
:100AC600FCFC008000FCFC00030F0E030E0F03006D
:100AD6000C3CF0C0F03C0C000C0F0300030F0C00A4
:100AE600003C7CC0C07C3C000000080F0F080000E2
:100AF6001C0C84C4643C1C000E0F0908080C0E0074
:100B06000000FCFC0404000000000F0F08080000B1
:100B16003870E0C0800000000000000103070E00EE
:100B260000000404FCFC0000000008080F0F000091
:100B3600080C0603060C0800000000000000000078
:100B4600000000000000000020202020202020209F
:100B56000000030704000000000000000000000081
:100B660000A0A0A0E0C00000070F0808070F0800BB
:100B760004FCFC2060C08000080F0708080F07006F
:100B8600C0E0202020604000070F0808080C040081
:100B960080C06024FCFC0000070F0808070F08004F
:100BA600C0E0A0A0A0E0C000070F0808080C0400E1
:100BB60040F8FC440C180000080F0F080000000065
:100BC600C0E02020C0E02000276F48487F3F00009B
:100BD60004FCFC4020E0C000080F0F00000F0F00CF
:100BE600000020ECEC0000000000080F0F080000D9
:100BF6000000000020ECEC0000307040407F3F0019
:100C060004FCFC80C0602000080F0F01030E0C00DE
:100C1600000004FCFC0000000000080F0F080000A4
:100C2600E0E060C060E0C0000F0F000F000F0F0093
:100C360020E0C02020E0C000000F0F00000F0F00D2
:100C4600C0E0202020E0C000070F0808080F0700BA
:100C560020E0C02020E0C000407F7F48080F07004A
:100C6600C0E02020C0E02000070F08487F7F40003A
:100C760020E0C0602060C000080F0F0800000000E0
:100C860040E0A02020604000040C09090B0E04007F
:10256100000000000000000000000000000000FF6B
:1025710001D6FF01F6FF0036FF0036FF003670611D
:1025810000FF0196FF01B6FF0116FF0036FF00367E
:10259100FF0036FF02F6FF0316FF05D6FF0036FFE8
:1025A1000036636D3C00FF06F6FF0716FF0036FF9D
:1025B1000036FF0036FF0736FF0716FF0036FF0023
:1025C10036FF0036FF01D6FF01F6FF04F6FF0036A5
:1025D100FF0036FF05F6FF0616FF04F6FF0036FF83
:1025E1000036FF0576FF0596FF0036FF0036FF0037
:1025F100363A006D3B2F73006D3B2F6D696E004BBA
:102601005061002500224300202D2D202020200094
:102611003A00FF0636FF0076FF0036FF0036FF0066
:1026210036FF06F6FF0716FF0036FF0036FF0036BD
:10263100FF0736FF0716FF0036FF0036FF0036FFA3
:102641000656FF0736FF0036FF0036FF0036FF044F
:1026510036FF0096FF0036FF0036FF00364F464634
:1026610020004F4E2020006D3B003A00FF0516FF71
:1026710000B6FF0036FF0036FF00366D2F7300FFF6
:102681000096FF0336FF00D6FF00F6FF0036FF027B
:10269100F6FF0316FF05D6FF0036FF00366D2F73D8
:1026A10000FF0376FF0396FF00D6FF00F6FF00361A
:1026B100FF02F6FF0316FF05D6FF0036FF00366D59
:1026C1002F7300FF0536FF0556FF0156FF0176FF08
:1026D1000036FF02F6FF0316FF05D6FF0036FF00A6
:1026E10036FF0116FF0136FF0156FF0176FF003666
:1026F100FF02F6FF0316FF05D6FF0036FF0036FF87
:102701000256FF0276FF0356FF03B6FF03D6FF030F
:10271100F6FF03D6FF0036FF0036FF0036FF041632
:10272100FF03D6FF0036FF0036FF0036FF02F6FF3B
:102731000316FF05D6FF0036FF0036FF0216FF0223
:1027410036FF0036FF0036FF0036FF02F6FF0316A4
:10275100FF05D6FF0036FF00366D3B2F73202000AA
:102761006D3B2F6D696E00FF0516FF0076FF06B603
:10277100FF06D6FF0036FF02F6FF0316FF05D6FF60
:102781000036FF0036FF06F6FF0716FF0516FF00AD
:1027910076FF0036FF0736FF0716FF0516FF0076A6
:1027A100FF0036FF0636FF0076FF0036FF0036FFDA
:1027B1000036FF0436FF0096FF0036FF0036FF00AB
:1027C10036FF02F6FF0316FF05D6FF0036FF00367F
:1027D1004F464620004F4E2020006D3B003A00FF3F
:1027E1000076FF02D6FF0036FF0036FF0036FF02FB
:1027F100F6FF0316FF05D6FF0036FF00366D3B2FAF
:10280100732020006D3B2F6D696E004F4B202020FF
:0B281100004E4F202020006572720076
:10458E00810900810A00840B00000000840F0000E6
:05459E00000081130084
:10224E00784912130B7849E4FFFE7D207C41E2FBB6
:10225E0008E2F908E2FA08E2CBF8227CBC7F0A7E9B
:10226E00D77D239000B8E0F8A3E0F9A3E0FAA3E04D
:10227E00FB120C9D9000DAE0F8A3E0F9A3E0FAA3BC
:10228E00E0FB227878E2FC08E2FD08E2FE08E2FFBD
:10229E002208E2FF08E2CFF0A3EFF074307899F253
:1022AE00C2007B80E4FDFF22120D8E120FF0784DDE
:1022BE00EEF208EFF2787F7401F2E4FB22120D8E3B
:1022CE00E4FBFA79487843120C9DA804A905AA06E6
:1022DE00AB077F007E247DF47C48120E97A804A9DC
:1022EE0005AA06AB07229000D1E0FCA3E0FDE402B4
:1022FE000FB79000E0E0FCA3E0FDA3E0FEA3E0FF3B
:10230E00227DFE7BFF7E007F0F021141787BE2FE75
:10231E0008E2FF7C000211C6785CE2FB08E2FA08D4
:10232E00E2F922E49000C2F0A3F0227819E2FE084E
:10233E00E2FF7C000211C612500EAC00AD01AE02DF
:10234E00AF0322120D8E7B007A40791C7846020E66
:10235E00977F007E807D927C43020E97120D8E0237
:10236E000FF0240475F008A4FF08E225E0FD2278A2
:10237E0019E2FE08E2FF7C000211C69000D3E004D1
:10238E00F0227F807E017D807C47120C99798078C7
:10239E0043E4FBFA020E97D39000DFE09405900021
:1023AE00DEE0940022E4FAF9F812500EEF24302207
:1023BE001212757B667AA679CA7842229000DEE008
:1023CE00FEA3E0FF7C007D0A1211C6ED4C22784878
:1023DE0012130BE4FFFE7D207C4122E4FFFE7D48BC
:1023EE007C44120E977850227E00CFCDCFCECCCE2D
:1023FE001211C6EF243022EFF208EDF208EBF208CC
:10240E00EAF208E9F2227F007E807D887C4378879D
:10241E0022E0FEA3E0FFEEF2FE08EFF2FF22120D25
:10242E008E9000C81212FFE4FFFE7DA07C4190004A
:10243E00C822E0FFF208EFF27BFF22E4FFFE7DC828
:10244E007C4222E4120FB779C87842E4FBFA020EFE
:10245E009708E214F2E2C36480948022E22401F22F
:10246E0018E23400F222E4FFFE7D707C42787B227B
:10247E00120FF0787C7405F208227BFF7A2779D14F
:10248E00E4221212757B007A8079887843020C9DC3
:10249E00781AE2940A18E2940022E2FE08E2FF782B
:1024AE00537401F20822E2FE08E2FFEEF0A3EFF011
:1024BE00227A00795A7BFEE4FD7F07229000C3E06A
:1024CE0094849000C2E0940322F2787BE2FE08E24C
:1024DE00FF227BFF7D017F06227BFF7A2779D622A2
:1024EE0012130B7F6F7E127D837C3A22120C9D900D
:1024FE0000E01212FF7823227FCD7ECC7DCC7C3D76
:10250E009000C8227849EEF208EFF2227FA47E7086
:10251E007D7D7C3F9000C8227FAE7E477D817C3FD3
:10252E009000C822C3ED9414EC940022120C9D78F6
:10253E002312130B781D227DFE7BFF7E00021141BC
:10254E007BFFE4FD7F04229000DA0212FF9000C8A8
:03255E000212FF67
:10517D00D3EF9400EE6480948040147D647C00ED48
:0F518D001D70011CED4C70F7EF1F70E41E80E1E8
:01519C0022F0
:104F2F00125111EF60297808E204F2E2D364809401
:104F3F00944003740BF27808E2D36480948A40069D
:104F4F007F017E0080047F2C7E0112517D8004E45E
:104F5F007808F27808E2D36480948A40067F0A7E4C
:0A4F6F000080047FE87E0312517DEC
:014F79002215
:1052AB00D31224CA4008E49000D3F07F01227F0080
:0152BB0022D0
:0D37EF00787BEEF208EFF208EDF208EBF245
:1037FC0078857C007A2579617F06122545E4FB12D9
:10380C0024D87C277D101223FE78801224D77C27A5
:10381C007D101211C67E037FE81223F878811224E2
:10382C00D77C037DE81211C67F641223F67882F2EE
:10383C007D6412231A7F0A1223F67883F27D0A1212
:10384C00231AED24307884F2787DE2FFC374059F4F
:10385C002485F8742EF2E4FF74852FF8E2700D7451
:10386C00802BF8E2FE74852FF8EEF20B0FEFB40606
:10387C00E7E4FF787DE2FEC374049EC36480F8EF36
:10388C00648098500E74852FF8E2B430067420F2E0
:10389C000F80E0D3EE64809480787EE275F008406F
:1038AC001B1238D81223707889E2FBC2001248E749
:1038BC00787EE22405122372788A80081238D81296
:0B38CC0023707889E2FBC2001248E77D
:1038D70022A4FF08E225E0FD7885E2FBC20012483A
:1038E700E7787EE20475F008A4FF08E225E0FD789A
:1038F70086E2FBC2001248E7787EE2240275F008F0
:10390700A4FF08E225E0FD7887E2FBC2001248E742
:10391700787EE2240375F008A4FF08E225E0FD782D
:0C39270088E2FBC2001248E7787EE22232
:055089007896122405D9
:10508E00E408F27898122328121167FB601A08E2DE
:10509E00FF7896E22F122372C2001248E7789BE245
:0850AE0004F21812246A80DBF1
:0150B60022D7
:054F7A007896122405E9
:104F7F00E408F2F2789BE2FFC394055038EFC45473
:104F8F00F0FF7896E275F008A42F122376789F74BD
:104F9F0010F2789812232812137B78A012240BC2D8
:104FAF00007B10124981789AE2240312246D789BBA
:054FBF00E204F280BFD6
:014FC40022CA
:05352A00787812130B7C
:10352F00787E7C007A2579677F091225457FFF7E9B
:10353F00C97D9A7C3B787812225CD312125F4009C6
:10354F0078781213483B9AC9FF7B007AE179F578B6
:10355F0005C000122291D0001223B7787EF27B00B3
:10356F007AE179F57805C000122291D00012234537
:10357F007B807A96799878001223B7787FF27B80D8
:10358F007A9679987800C000122291D000122345C4
:10359F007B407A42790F78001223B77880F27B4014
:1035AF007A42790F7800C000122291D00012234581
:1035BF007BA07A86790178001223B77881F27BA0FD
:1035CF007A8679017800C000122291D0001223452B
:1035DF00E47B107A271223B57882F2E47B107A27E6
:1035EF00F9F8C000122291D000122345E47BE87A4B
:1035FF00031223B57883F2E47BE87A03F9F8C0006D
:10360F00122291D0001223457B641223B37884F2E7
:10361F00E47B64FAF9F8C000122291D0001223451E
:10362F007B0A1223B37885F2E47B0AFAF9F8C0001B
:10363F00122291D00012500EEB24307886F2E4085B
:10364F00F27887E2FFC3648094885012747E2FF85B
:10365F00E2B4300A7420F27887E204F280E3E4786F
:10366F0087F27887E2FE787CE22E122372747E2E28
:10367F00F8E2FBC2001248E77887E204F2E2C36483
:05368F0080948940DD7C
:013694002213
:0533A000785C12240B13
:1033A500786212229378691224EE786912225C12EF
:1033B5000F3450097869121348000000007866122E
:1033C5002328124A18785F1223281212959000D9E3
:1033D500E060030234789000C5E0B4011C12440398
:1033E500C004C005C006C0071222F4D003D002D025
:1033F50001D000122351023456124403C004C00503
:10340500C006C0071222F4D003D002D001D00012AA
:103415002351C004C005C006C007785F12232812D7
:1034250023BE120E97D003D002D001D000120D8E0C
:10343500C004C005C006C007786612232812249070
:103445001222EB12235FD003D002D001D000120D5F
:103455008E1223261212959000C61222F7122326E9
:103465001212DF120F34600250030235299000C694
:103475000235209000C5E0B40123124403C004C006
:1034850005C006C0071222F4D003D002D001D00037
:10349500122351E4FBFA7970784202350112440394
:1034A500C004C005C006C0071222F4D003D002D064
:1034B50001D000122351E4FBFA79707842120D8E87
:1034C500C004C005C006C007785F1223281223BEBA
:1034D500120E97D003D002D001D000120D8EC00479
:1034E500C005C006C0077866122328122490122250
:1034F500EB12235FD003D002D001D000120D8E1243
:1035050023261212959000D71222F71223261212A3
:10351500DF120F34600E400C9000D71222F71223F1
:0435250026121295C3
:01352900227F
:102AAA00C312249E5018780AE270137814E2FF6069
:102ABA0003B40203121C66780A7401F2800AD31264
:102ACA00249E4004E4780AF27D3912233912253211
:102ADA004003022CCB7809E26003022CCB04F212E9
:102AEA004E4078831224EE788312225C120F3450FF
:102AFA00097883121348000000007BFE7A00798768
:102B0A00124A18787F12130B124403C004C005C07E
:102B1A0006C0071222F4D003D002D001D00012233B
:102B2A0051787B12130B9000D9E09000E060030209
:102B3A002BD2122303787B12225C1224FA12225C13
:102B4A00C000C001C002C00312241412225C120C7D
:102B5A009D1222EB12235FC004C005C006C00712F3
:102B6A0023C1C000787F122293D000120E97787B7F
:102B7A0012225C120D8ED003D002D001D000120DA9
:102B8A008ED003D002D001D00012253A12225CC0A6
:102B9A0000C001C002C00312241412225C120C9D50
:102BAA001222EB12235FC004C005C006C00712231D
:102BBA00C1C000787F122293D000120E97787B1240
:102BCA00225C120D8E022CA1122285C000C001C007
:102BDA0002C00312247412225C120D8ED003D0029A
:102BEA00D001D0001224FA12225CC000C001C00237
:102BFA00C0031223C1C000787F122293D000120EA4
:102C0A0097C004C005C006C00712247412225C12C1
:102C1A000D8ED003D002D001D000120D8EC004C098
:102C2A0005C006C00712241412225C120C9D12223F
:102C3A00EB12235FD003D002D001D000120D8ED048
:102C4A0003D002D001D00012253A12225CC000C083
:102C5A0001C002C0031223C1C000787F122293D0A0
:102C6A0000120E97C004C005C006C00712247412D1
:102C7A00225C120D8ED003D002D001D000120D8E2C
:102C8A00C004C005C006C00712241412225C120C2C
:102C9A009D1222EB12235FD003D002D001D0001282
:102CAA000D8E788312225C120D8E79C87842122317
:102CBA009FD003D002D001D000120C9D781D0213C0
:102CCA000B7D3912237DD31225334004E47809F2AF
:012CDA0022D7
:104CAE00124C3B120FF07848EE1224427A2579709E
:104CBE00E4FDFF124F7A7A25797F1224E012508993
:104CCE007848E2FE08E2FF1222C3FD1237EF781495
:104CDE00E2FF6003B40203122AAA125111EFB401CB
:104CEE00091223891252877F00221223CA700F12D3
:104CFE004C3B120FF078481222BEFD1237EF124FC6
:094D0E002F1252ABEF60C77F00C9
:014D17002279
:1044C9009000D1784912241F08EEF208EFF2124544
:1044D9006D1222C3FD1237EF7814E2FF6003B402B4
:1044E90003122AAA1251117848EFF2BF01091223C7
:1044F900891252877F002278491224A87427F2086A
:104509007410F2E4FBFD12479D7849EEF208EFF2D0
:104519007848E26402703E1223329000D112229F41
:10452900124AAD7BFF7A2579947D0A123F99EF7083
:1045390011784B9000D11224B47849EEF208EFF2C9
:104549008003121C661222A9124AAD12456D12226D
:10455900C3FD1237EF124F2F1252ABEF7003024413
:03456900E17F00EF
:10456C00227BFF7A257982E4FDFF124F7A7BFF7A5A
:10457C002579A37D017F051250897849E2FE08E276
:02458C00FF220C
:10484300784B7C007A2579A712230F785A7C007A5B
:104853002579B612230F9000C5E07BFEB401067ADA
:1048630000794B80047A00795AE4FDFF124F7A9065
:1048730000D9E07BFF70097A2579F4FD7F0C80086D
:104883007A2579F9E4FD7F0A1250897A2579C57D65
:10489300011248DD7A2679007D017F0D1250897A55
:1048A3002579D47D021248DD7A2679047D027F0FB3
:1048B3001250897BFF7A2579E37D03E4FF124F7A57
:1048C3007BFF7A2579F27D037F041250897BFF7A7F
:0A48D3002679067D037F0E0250894E
:0A48DD007BFFE4FF124F7A7BFF22FD
:04281C00784BEFF214
:10282000124E40785412130B785F74FEF208740055
:10283000F208744CF27854122293786212130B78D7
:102840006674FEF2087400F2087458F27BFE7A0097
:1028500079501233A0785812225512236A787F7467
:1028600003F27B087D011237EFE4FFFE7D807C3FA1
:10287000784C12225C120F34500D7D01122A9EC238
:10288000DEC2AED2B780221223E1784C12225C1253
:10289000236A787F7401F27B07FD1237EFD2DED214
:1028A000AE784C122293124EE0E4FFFEFDFC785409
:1028B00012225C120F34402B7F837E007DC87C4245
:1028C000785412225C120F3450191223E1785412FA
:1028D000225C12236A787F7402F27B097D01123731
:1028E000EF80057D02122A9E784BE270177813E282
:1028F00004F2780B122293785012225C120C9D780D
:102900000B12130B7813E26428600A784BE264011F
:102910006003022A9D784BE2B4010C780F122293D7
:10292000785012130B802EE47813F2FBFA7920789A
:1029300042C000780B122293D000120E97785012EA
:10294000130B7850122293780F12130B780B12137B
:1029500048000000009000D9E060030229E1122441
:102960004A785012225C12236AE4787FF27B067D5B
:10297000021237EF9000C61222F71222EB1223E95F
:1029800012225C1222CB122390120FF07815EFF274
:102990009000C61222F71222EB1223E912225C12D7
:1029A0000D8EE4FBFA79487843120C9D120FF0ABC0
:1029B00007AA06EA3395E0F9F87F207EA17D077C1F
:1029C0000012500EC374039FFFE49EFE74019DFD30
:1029D000E49CFCE4FB7A01F9F812500E7816EBF255
:1029E000229000D71222F7785012225C120F346026
:1029F0000D400B9000D71222F7785012130B1224BF
:102A000049785012225C120F345015122449785024
:102A100012225C12236AE4787FF27B047D0280300C
:102A20007F9A7EF97D797C44785012225C120F34B3
:102A3000600B400978501213484479F99A1223E147
:102A4000785012225C12236AE4787FF27B047D01C5
:102A50001237EF7A26791112254E1250899000D73D
:102A60001222F71222EB1223E912225C1222CB125D
:102A70002390120FF07815EFF29000D71222F71280
:102A800022EB1223E912225C1222CB7F807E017D91
:0D2A9000807C47120C99120FF07816EFF2BF
:0D2A9D00227BFF7A2679097F0512508922DD
:103E9900784B7C007DFE7BFF7A26791312231378F9
:103EA9005A7C007DFE7BFF7A2679221223137869DA
:103EB9007C007DFE7BFF7A26793112231378787C8A
:103EC900007DFE7BFF7A26794012231378877C00D8
:103ED9007DFE7BFF7A26794F12231374401222ABA1
:103EE900124AAD7BFE7A00794BE4FDFF124F7A7AD4
:103EF90026796B12254E1250897814E2B401097B98
:103F0900FF7A26795EE4800B7814E2700E7BFF7AE3
:103F1900267963FD7F07125089800A7A0079871212
:103F290024C3124F7A7A00795A7D01123F917D019B
:103F3900123F7F7D017F041250897A0079697D02E1
:103F4900123F917D02123F7F7D027F041250897BCF
:103F5900FE7A0079787D03E4FF124F7A7BFF7A2697
:103F690079687D037F0E1250897BFF7A26796B7DF4
:063F7900037F04025089E1
:103F7F007BFF7A2679687F0E1250897BFF7A26792C
:0A3F8F006B227BFEE4FF124F7A2242
:10417C00E47848F20804F208F21248437F01024145
:10418C00EF7814E2FF6003B40203122AAA12511151
:10419C00EFB40117C31224CA9000D34005740FF07A
:1041AC008003E004F01252877F00227D1E12237DD3
:1041BC00122532503C7849E2B401127899744012BD
:1041CC0022AD124AAD1248437F0112281CE47849F3
:1041DC00F20804F27848E270101223A5500B740117
:1041EC00F2E4FF12281C02418D1223A540930242D7
:1041FC0058784AE2B4010D789974401222AD124AF3
:10420C00AD123E9978497401F2E408F27848E270F4
:10421C00331223A5502E7401F212230012247E7443
:10422C0001F212352A782312229312247E7402F2A0
:10423C0012352A781D12229312247E7403F2123541
:10424C002A02418D1223A5500302418DE47848F2D5
:03425C0002418D8F
:104BC8007BFF7A26796DE4FDFF124F7A7A26797C8D
:104BD8001224E01250891244031223DC784812226E
:104BE8005C12236A784C1222BE7D011237EF7814CA
:104BF800E2FF6003B40203122AAA125111EFB401B2
:104C0800091223891252877F00221223CA701812B0
:104C180044031223DC784812225C12236A784C126F
:104C280022BE7D011237EF124F2F1252ABEF60BE3A
:024C38007F00FB
:014C3A002257
:1031FF00E4784EF208F278521213480000000012E1
:10320F00337512225C12236A78561222BE7D011288
:10321F0037EF7814E2FF6003B40203122AAA1251A7
:10322F00117849EFF2BF01091223891252877F00EB
:10323F00227849E2640260030233471223321252AA
:10324F00871222A9124AAD7BFF7A26798F7D0A1247
:10325F003F99EF6401600302332E7848F27848E219
:10326F00C364809485507A78B474FEF2087400F2C7
:10327F00087450F27BFE7A00794E124D18EF70579A
:10328F007848E204F2D3784FE2946618E2648094AF
:10329F008650077406F2087466F2C3784FE2949A68
:1032AF0018E2648094B940077439F208749AF2787E
:1032BF005212225CC000C001C002C003784EE2FC73
:1032CF0008E2FDEC120FB7D003D002D001D00012EC
:1032DF000C9D785212130B7FF47E0112517D023236
:1032EF006C785212229379A0784012245978521296
:1032FF00130B7F7B7EC27D9E7C3D785212225C1227
:10330F000D8E7B007AC0791E78C4120C9D12255544
:10331F009000DA1223039000B81212FF121C6612EB
:10332F0022A9124AAD12337512225C12236A785603
:10333F001222BE7D011237EF1223CA701A124403F4
:10334F00784A1223DE784A12225C12236A785612C8
:10335F0022BE7D011237EF124F2F1252ABEF7003C7
:05336F000232217F0085
:10337400227BFF7A267980E4FDFF124F7A7BFF7A65
:1033840026799E7D017F06125089124403784A12E1
:0C339400130BE4FFFE7D207C41784A22F0
:10305D009000C8122303784F12130B1231F27BFF2D
:10306D007A2679C07D017F061250891244031222FF
:10307D004E1222B67D011237EF7814E2FF6003B4D1
:10308D000203122AAA1251117848EFF2BF01111250
:10309D002389784F12229312255B1252877F0022CB
:1030AD007848E2640470581223321231E37C3D7883
:1030BD004912225C120C9D784912225C120E9790D7
:1030CD0000C812228512242C122285120F34400AB8
:1030DD009000C812131741A0000012250612228578
:1030ED00120F346002500A9000C81213173DCCCC59
:1030FD00CD12440312224E1222B67D011237EF7803
:10310D0048E2640570581223321231E37CBD7849D0
:10311D0012225C120C9D784912225C120E979000BF
:10312D00C812228512242C122285120F34400A90C7
:10313D0000C812131741A000001225061222851295
:10314D000F346002500A9000C81213173DCCCCCD3D
:10315D0012440312224E1222B67D011237EF784827
:10316D00E2640270489000C2F0A31222A8124AAD88
:10317D007BFF7A2679B17D0A123F99EF700A784F5D
:10318D0012229312255B800E121C669000C812232A
:10319D0003784F12130B1222A9124AAD1231F212FB
:1031AD00440312224E1222B67D011237EF9000DE3B
:1031BD00E07004A3E06401700E12440312224E125B
:1031CD0022B67D011237EF124F2F1252ABEF700363
:0531DD000230867F00B6
:1031E20022124403784912130B7FCD7ECC7DCC2270
:0D31F2007BFF7A2679A2E4FDFF124F7A22BE
:10425F001224499000CC12228512236A1225129043
:10426F0000CC1223030812130B1243231222C37D17
:10427F00021237EF7814E2FF6003B40203122AAA86
:10428F001251117848EFF2BF010912238912528798
:10429F007F002278491224A8E4F20874C8F2E4FBE4
:1042AF007D0212479D1225127848E2640270561261
:1042BF00233208E2FC08E2FD1224519000CC1212C6
:1042CF00FF1222A9124AAD7BFF7A2679D37D0A12FB
:1042DF003F99EF701C784B1222939000CC1212FF73
:1042EF001224499000CC12228512236A12251280C3
:1042FF0003121C661222A9124AAD1243231222C3C3
:10430F007D021237EF124F2F1252ABEF70030242A2
:03431F00837F0099
:10432200227BFF7A2679C4E4FDFF124F7A7849E2B4
:05433200FE08E2FF227D
:104642009000E478491224401246EA9000E4E0FF28
:104652007E001222C3FD1237EF7814E2FF6003B42A
:104662000203122AAA1251117848EFF2BF0109126D
:1046720023891252877F00227849E2FF7E001224AA
:10468200ADE4F2087413F2E4FBFD12479D7849EFA2
:10469200F218E26402704212233208E29000E4123D
:1046A20022A8124AAD7BFF7A2679F17D0A123F9940
:1046B200EF700B784AE29000E4F018F28003121CCB
:1046C200661222A9124AAD7BFF1246EA7849E2FF3E
:1046D2007E001222C3FD1237EF124F2F1252ABEFA0
:0746E200700302465B7F003C
:0C46E900227A2679E2E4FDFF124F7A22CB
:103695009000C8122303784912130B9000DA122305
:1036A50003784D12130B1237E2122269120F3460A0
:1036B5002C402A7C3C12226B120F34502012251A02
:1036C500122285120F346015401312252612228509
:1036D500120F3450087BFF7A27790F80067BFF7A1B
:1036E50027791E7D01E4FF124F7A7814E2FF60030B
:1036F500B40203122AAA1251117848EFF2BF010948
:103705001223891252877F00227848E264026003FF
:103715000237D37FE17E6F1252CC7851EFF27FE210
:103725007E6F1252CCAD077851E275F064A47C002F
:103735002DFDEC35F0FC1224519000B81212FF1249
:1037450023319000C81213173F8000009000B81273
:1037550023031225551222A9124AAD7BFF7A277938
:103765002D7D0A123F99EF70127849122293122586
:103775005B784D1222931225558003121C66122286
:10378500A9124AAD1237E2122269120F3460324093
:10379500307F0A7ED77D237C3C122271120F345074
:1037A5002012251A122285120F3460154013122596
:1037B50026122285120F3450087BFF7A27790F8055
:1037C500067BFF7A27791E7D01E4FF124F7A124F9F
:0C37D5002F1252ABEF70030236EF7F00A2
:0E37E100227BFF7A277900E4FDFF124F7A2247
:103D94009000D97849122440123E81B401067A2752
:103DA400796180047A27795A123E917814E2FF608F
:103DB40003B40203122AAA1251117848EFF2BF0188
:103DC400091223891252877F00227848E264047022
:103DD4002212233208E204F2E2B40202E4F2784945
:103DE400E27BFFB401067A27796180047A27795A45
:103DF400123E917848E26405702412233212245F43
:103E040050037401F27849E27BFFB401067A277902
:103E14006180047A27795A7D017F0312508978489A
:103E2400E26402704912233208E29000D91222A8F7
:103E3400124AAD7BFF7A27794B7D0A123F99EF70C6
:103E44000B784AE29000D9F018F28003121C661233
:103E540022A9124AAD7BFF123E81B401067A27796A
:103E64006180047A27795A7D017F03125089124FA9
:0C3E74002F1252ABEF7003023DAF7F0035
:103E8000227A27793CE4FDFF124F7A7849E27BFFE2
:093E9000227D017F0312508922FA
:103C8D009000C5E0FF7849122442123D7CB4010634
:103C9D007A27798680047A277995123D8C7814E2FB
:103CAD00FF6003B40203122AAA1251117848EFF2F1
:103CBD00BF01091223891252877F00227848E264DE
:103CCD0004702212233208E204F2E2B40202E4F29A
:103CDD007849E27BFFB401067A27798680047A273A
:103CED007995123D8C7848E26405702412233212C6
:103CFD00245F50037401F27849E27BFFB401067A28
:103D0D0027798680047A2779957D01E4FF124F7A11
:103D1D007848E26402704912233208E29000C5121D
:103D2D0022A8124AAD7BFF7A2779777D0A123F9937
:103D3D00EF700B784AE29000C5F018F28003121C68
:103D4D00661222A9124AAD7BFF123D7CB401067AA0
:103D5D0027798680047A2779957D01E4FF124F7AC1
:0E3D6D00124F2F1252ABEF7003023CAA7F00E0
:103D7B00227A277968E4FDFF124F7A7849E27BFFBC
:093D8B00227D01E4FF124F7A22AF
:102CDB00784B7C007DFE7BFF7A2779A41223137837
:102CEB005A7C007DFE7BFF7A2779B3122313786918
:102CFB007C007DFE7BFF7A2779C21223137814E2C6
:102D0B00FF7849F208EFF2122E977BFF7A2779DBD7
:102D1B007D017F0E1250897BFF7A2779DEE4FD7FE0
:102D2B00041250897849E2B401051224888008788E
:102D3B0049E270081224E7122EA48003122E891286
:102D4B002300122E6C7849E2FF6003B40203122AAF
:102D5B00AA7D0A122339ED4C7006122300122E6C39
:102D6B001251117848EFF2BF0109122389125287D1
:102D7B007F00227848E26404702812233208E204B0
:102D8B00F2E2B40302E4F27849E2B40105122488BA
:102D9B0080087849E270081224E7122EA4800312EF
:102DAB002E897848E26405702C12233212245F506E
:102DBB00037402F27849E2B4010512248880087882
:102DCB0049E2700B1224E7FD7F071250898006122F
:102DDB0024BF124F7A7848E26402707612233208CD
:102DEB00E27814F21222A9124AAD7BFE7A007969BD
:102DFB007D0A123F99EF700B784AE27814F278490A
:102E0B00F280257849E2B4021C9000E012131700FF
:102E1B00000000782312134800000000781D1213E5
:102E2B004800000000121C661222A9124AAD122E95
:102E3B00977849E2B4010512248880087849E2703A
:102E4B000B1224E7FD7F0712508980061224BF1254
:102E5B004F7A124F2F1252ABEF7003022D507F009F
:102E6B0022120FF0787C7406F2087401F212352AE4
:102E7B007BFF7A2779DB7D017F0E125089227BFE47
:102E8B007A00795AE4FD7F07124F7A227BFE7A0093
:102E9B00794BE4FDFF124F7A22FD7F0712508922F6
:102EAB009000C6784912241F784DEEF208EFF2908D
:102EBB0000D7E0FEA3E0FF784B122424784FEE12EC
:102ECB00244212303E7007123032784980031230A0
:102EDB004FE2FE08E2FF1222C3FD1237EF7814E235
:102EEB00FF6003B40203122AAA1251117848EFF2C1
:102EFB00BF01091223891252877F00227848E264AE
:102F0B000470471223329000D9E07016784A1224CD
:102F1B006AD3081224A04006E4F208740AF2784936
:102F2B00801C784CE2240512246DD308E294E81837
:102F3B00E2940340077403F20874E8F2784BE2FE64
:102F4B0008E2FF1222C3FD1237EF7848E2640570E6
:102F5B004E1223329000D9E0701D784AE224FFF222
:102F6B0018E234FFF208E2700218E270067849F2B8
:102F7B000804F27849801C784CE224FBF218E23406
:102F8B00FFF208E2700218E27007784BF208740542
:102F9B00F2784BE2FE08E2FF1222C3FD1237EF7804
:102FAB0048E26402707212233208E2FF08E29000DA
:102FBB00C6CFF0A3EFF09000D712229F124AAD7B41
:102FCB00FF7A2779EF7D0A123F99EF7025784D90A4
:102FDB0000C61224B408E2FC08E2FD9000D7ECF026
:102FEB00A3EDF07849EEF208EFF208ECF208EDF2FF
:102FFB008003121C661222A9124AAD7BFF12303ECF
:10300B0070071230327849800312304FE2FE08E22B
:10301B00FF1222C3FD1237EF124F2F1252ABEF707C
:06302B0003022EE87F0005
:10303100227A2779FE7D017F05125089227A27792C
:10304100E0E4FDFF124F7A9000D9E07BFF227A285D
:0C30510079057D017F05125089784B2223
:043F99007878EDF255
:103F9D00E4787AF2FDFF124F7A787AE2FF7E001212
:103FAD0022C3FD1237EF1252877814E2FF6003B47B
:103FBD000203122AAA1251117879EFF2BF041212DC
:103FCD00233108E204F2E2FF7E001222C3FD123714
:103FDD00EF7879E2B4051212233108E214F2E2FF10
:103FED007E001222C3FD1237EF7879E26402706D04
:103FFD001252871223317878E2FF787AE2B5070FF3
:10400D007A28790C1240859000D37401F0FF227A42
:10401D00287912124085787AE2FF7E001222C3FDC4
:10402D001237EF9000D3E0640D70329000D0E004B1
:10403D00F0E0B405037404F0121C669000D0E0C3E8
:10404D0094034019789974401222AD124AAD7BFF4A
:10405D007A2879187D017F0612508980FE7879E2E1
:10406D00B401061252877F0022124F2F1252ABEF6E
:07407D007003023FB67F0053
:10408400227BFF7D01E4FF1250897FE87E031251F9
:024094007D228B
:1045A3004100D3004200C203844100E4054100C43A
:1045B300004100D0004100D4004200D1003241004C
:1045C300D9014100C5008114004400E0000000004F
:1045D3004400DA000000004400B80000000044007A
:1045E300C83F8000004200C600014200D700648239
:1045F3001500004400CC3F800000822700004200E9
:10460300D500004100BC014100BD008219000082B9
:09461300210000841D00000000DC
:0F52DC00E49000C2F0A3F022E47821F208F2225D
:10511100E4FF3080077821F208F27F043081051224
:1051210052E47F0530B3051252E47F0230B4051218
:0451310052E47F01C4
:015135002257
:10479D00784FEEF208EFF208EDF208EBF21251113C
:1047AD00EF640470261252DD7850E22401F218E213
:1047BD003400F27854E2FE08E2FFD37850E29F18FD
:1047CD00E29E4004E4F208F212482D125111EF64FA
:1047DD000570457850E224FFF218E234FFF21252D0
:1047ED00DC9000D3E064056016E2FE08E2FFE4FC15
:1047FD00FD7BFF7AFFF9F8C312125F7018800978FC
:10480D0050E2700218E2700D7854E2FF08E2784F22
:10481D00CFF208EFF212482D784FE2FE08E2FF22A8
:10482D00784FE2FE08E2FF08E2FD08E2FB08E278BD
:06483D007FF21237EF22AA
:1052870020800920B40620B3033081051252DC8048
:02529700EF2204
:103A6F007849EFF2FB18E2FF3395E0FE7C007D64AE
:103A7F001211B4EBFD3395E0FCEF2DFDEE3CFC1283
:103A8F000FB7E4FBFA79C8784222120D8E9000DA54
:103A9F001212FF9000DAE0FCA3E0FDA3E0FEA3E02A
:103AAF00FF120FF0AB07AA067C007D6412121B7881
:103ABF008BEFF27C007D64AF03AE0212121B788C89
:103ACF00EDF218E2FF22784AE2FC120FBC7B007A7B
:103ADF0040791C7846020D8E784BE2FC120FBC7BAE
:103AEF00007A2479747849020D8E120FF07B007AD8
:103AFF00E179F5780512500EAC00AD01AE02AF03BF
:103B0F007B407A42790F780012500E788EEFF27860
:103B1F008BE2FF7DEE229000DAE0FCA3E0FDA3E054
:103B2F00FEA3E0FF22FDEE3CFC120FB7E4FBFA7997
:103B3F007A7844120E979000C80212FF7848E2FC80
:103B4F00020FBC120E979000CC0212FFFFEE3C90BA
:103B5F0000D1F0A3EFF07FF422120E979000DA025B
:103B6F0012FF120E979000B80212FF120C9D9000D8
:043B7F00E00212FF4F
:101513007E6A121B407FF17E6A1252CC7849EFF249
:1015230018E2640A60030216FD08E2640A6003021B
:1015330016FD7E6F121B4A7FFA121ADD123B5B7E89
:101543006F1252CC9000E4EFF07E6F121B407FF1DC
:10155300121ADD123A8A123B687E6F121B547E6F99
:10156300121AFE123A8A123B717E6F121B827E6F31
:10157300121B1F123B347E6F121B9D7FF37E6F1273
:1015830052CC123A6F123B527E6F121C5B7E6F126B
:101593001C29EFF07E6F121BA77E6F121B5E90005B
:1015A300D7F0A3EFF07F007E681252CC9000C4EF17
:1015B300F07E6F121C4E7E6F1252CC7814EFF27FC6
:1015C300017E681252CC9000D4EFF07E6F121BEDB7
:1015D3007E6F121BE37FEC121BF77FEB121B8C1247
:1015E3003A91120D8EC004C005C006C007123B4BD2
:1015F300D003D002D001D000120C9DC004C005C09E
:1016030006C007123AD5D003D002D001D000120C85
:101613009DC004C005C006C007123AE7D003D0023C
:10162300D001D000123B7A7E6F121C0B7FE6121C96
:101633001F7FE7121BF77FE8121B8C123A91120DE2
:101643008EC004C005C006C007123B4BD003D002B6
:10165300D001D000120C9DC004C005C006C0071203
:101663003AD5D003D002D001D000120C9DC004C0E3
:1016730005C006C007123AE7D003D002D001D0005C
:10168300120C9D782312130B7FD17E6F1252CC78EC
:1016930048EFF27FD2121C1F7FD37E6F1252CC7899
:1016A3004AEFF27FD47E6F121C35123A91120D8EDF
:1016B300C004C005C006C007123B4BD003D002D004
:1016C30001D000120C9DC004C005C006C007123A29
:1016D300D5D003D002D001D000120C9DC004C005A8
:1016E300C006C007123AE7D003D002D001D00012DF
:1016F3000C9D781D12130B02178F9000D17427F0E5
:10170300A37410F0E49000E4F09000DA12131700D1
:101713000000009000B8121317411000009000C899
:101723001213173F8000009000CC1213173F800064
:10173300009000D97401F09000C6E4F0A304F09087
:1017430000D7E4F0A37464F0E49000C4F09000D4F4
:10175300F09000D0F09000C5F09000E01213170055
:10176300000000782312134800000000781D1213B4
:101773004800000000E47814F2C2AF7FF07E6F12DD
:1017830053137F017E681219B4121BB19000D1E08C
:10179300F47003A3E0F460030219B19000E4E0F4F1
:1017A30060030219B19000D9E0FF3395E0FEEFF436
:1017B3004E60030219B19000C6E0F47003A3E0F495
:1017C30060030219B19000D7E0F47003A3E0F46062
:1017D300030219B19000C4E0F460030219B17E64FE
:1017E300121B4A7FFA121C01FB18E2FF3395E0FE3D
:1017F3007C007D641211B4EBFD3395E0FCEF2D12F8
:101803003B5B7E641252CC9000E4EFF07FF0121C3D
:10181300447FF17E641252CC123A6F123B687E64AD
:10182300121B547E64121AFE123A8A123B717E64B2
:10183300121B827E64121B1F123B347E64121B9D9B
:101843007FF37E641252CC123A6F123B527E6412C3
:101853001C5B7E64121C29EFF07E64121BA77E645E
:10186300121B5E9000D7F0A3EFF07E64121C4E7E35
:10187300641252CC7814EFF27E64121BED7E641274
:101883001BE37FEC121C157FEB121BD2123A911251
:101893000D8EC004C005C006C007123B4BD003D059
:1018A30002D001D000120C9DC004C005C006C007C1
:1018B300123AD5D003D002D001D000120C9DC0043F
:1018C300C005C006C007123AE7D003D002D001D04A
:1018D30000123B7A7FE6121C447FE7121C017FE86B
:1018E300121C157FE9121BD2123A91120D8EC004FD
:1018F300C005C006C007123B4BD003D002D001D0B5
:1019030000120C9DC004C005C006C007123AD5D012
:1019130003D002D001D000120C9DC004C005C00644
:10192300C007123AE7D003D002D001D000120C9DB9
:10193300782312130B7E64121C0B7FE47E64125215
:10194300CC7849EFF27FE37E641252CC784AEFF20F
:101953007FE07E64121C35123A91120D8EC004C0D2
:1019630005C006C007123B4BD003D002D001D00004
:10197300120C9DC004C005C006C007123AD5D0039F
:10198300D002D001D000120C9DC004C005C006C017
:1019930007123AE7D003D002D001D000120C9D7891
:1019A3001D12130B7FF07E6F1219B4121BB1D2AF4D
:1019B300221253137F017E681253137D007C68E467
:1019C300FF1252437D017C68E4FF1252437DF07C99
:1019D3006FE4FF1252437DF17C6FE4FF1252437DAB
:1019E300E17C6F7F091252437DE27C6FE4FF125268
:1019F300437DFB7C6F7F0A1252437DFC7C6FE4FFC7
:101A03001252437DF27C6F7F011252437DF37C6F50
:101A1300E4FF1252439000E4E0FF7DF47C6F125226
:101A2300437DF97C6F7F641252437DFA7C6FE4FF40
:101A33001252439000C6A3E0FF7DF87C6F1252431D
:101A43007DF57C6F7F011252437DF67C6FE4FF12BC
:101A530052437DF77C6FE4FF1252437DEF7C6FE4CA
:101A6300FF1252437DEA7C6FE4FF1252437DEE7C0A
:101A73006FE4FF1252437DED7C6FE4FF1252437D0E
:101A8300EC7C6FE4FF1252437DEB7C6FE4FF125258
:101A9300437DE57C6FE4FF1252437DE67C6FE4FFF8
:101AA3001252437DE77C6FE4FF1252437DE87C6F63
:101AB300E4FF1252437DD17C6FE4FF1252437DD287
:101AC3007C6FE4FF1252437DD37C6FE4FF125243D9
:101AD3007DD47C6FE4FF125243227E6F1252CC7886
:101AE30049EFF2FB18E2FF3395E0FE7C007D6412C0
:101AF30011B4EBFD3395E0FCEF2D227FE21252CCC3
:101B03007849EFF2FB18E2FF3395E0FE7C007D6439
:101B13001211B4EBFD3395E0FCEF2D227FFC125242
:101B2300CC7849EFF2FB18E2FF3395E0FE7C007DB1
:101B3300641211B4EBFD3395E0FCEF2D227FF0121C
:101B430052CC7848EFF2227FF91252CC7848EFF268
:101B5300227FE11252CC7848EFF2227FF61252CC68
:101B63007849EFF2FB18E2FF3395E0FE7C007D64D9
:101B73001211B4EBFD3395E0FCEF2DFFEE3C227F19
:101B8300FB1252CC7848EFF2227E6F1252CC784B84
:101B9300EFF27849E2FC120FBC227FF21252CC78AA
:101BA30048EFF2227FF51252CC7848EFF2227FF011
:101BB3007E6A1253137FF17E6A1253137DF07C6A9F
:101BC3007F0A1252437DF17C6A7F0A125243227EBE
:101BD300641252CC784BEFF27849E2FC120FBC222C
:101BE3007FED1252CC7849EFF2227FEE1252CC787D
:101BF30048EFF2227E6F1252CC784AEFF2227E64D3
:101C03001252CC7849EFF2227FE51252CC7848EF9A
:101C1300F2227E641252CC784AEFF2227E6F125285
:101C2300CC7849EFF2227FF81252CC9000C6E4F050
:101C3300A3221252CC784BEFF27849E2FC120FBC8C
:101C4300227E641252CC7848EFF2227FEF1252CCFC
:101C53009000C5EFF07FEA227FF71252CC9000D9B3
:031C6300EFF0227D
:10519D007F007E681253139000C4E0FF7D007C6891
:0F51AD001252439000D4E0FF7D017C6802524310
:101C66007E6F1221D0123ACD7DF97C6F1252437DE0
:101C7600FA1221A8123B25123A91123A997DF012D6
:101C86002246121E947DE1122246121FC97DFB7C5C
:101C96006F1252437C6F1220FC123ACA7DF27C6F9F
:101CA6001252437DF31221A89000CC123B28123A1F
:101CB60091123B527C6F12220B7C6F12216A7DF5CA
:101CC6007C6F1252437DF61221B27C6F1222167C73
:101CD6006F1222217C6F121DFC123AF97C6F125290
:101CE600437DED1221B27C6F1221BC7C6F121F0C5A
:101CF6007DE57C6F1252437DE61221F7788D7DE7F4
:101D060012222C7DE87C6F1220417DD17C6F12520D
:101D1600437DD21221F7788DE2FF7DD37C6F12527C
:101D260043788E7DD412222C9000C4E06003021DFD
:101D3600FB7E641221D0123ACD7DF97C64125243A7
:101D46007DFA12219E123B25123A91123A997DF0A4
:101D5600122234121E947DE1122234121FC97DFB19
:101D66007C641252437C641220FC123ACA7DF27CD7
:101D7600641252437DF31221C69000CC123B281206
:101D86003A91123B527C6412220B7C6412216A7DCA
:101D9600F57C641252437DF61221C67C641222162B
:101DA6007C641222217C64121DFC123AF97C6412B6
:101DB60052437DED12223C7C641221BC7C64121FCE
:101DC6000C7DE67C641252437DE712219E7DE8126B
:101DD60022017DE97C641220417DE57C6412524338
:101DE6007DE412223C7DE3122201788EE2FF7DE043
:051DF6007C6412524361
:101DFB00227814E2FF7DEA1252439000E0E0FCA34C
:101E0B00E0FDA3E0FEA3E0FF120FF0E47B64FAF920
:101E1B00F812500E788BEBF29000E0E0FCA3E0FDA3
:101E2B00A3E0FEA3E0FF120FF0E47B107A27F9F892
:101E3B0012500EAC00AD01AE02AF03E47B64FAF9B5
:101E4B00F812500E788CEFF29000E0E0FCA3E0FD6E
:101E5B00A3E0FEA3E0FF120FF07B407A42790F78EC
:101E6B000012500EAC00AD01AE02AF03E47B107A52
:101E7B0027F9F812500E788DEFF29000E0E0FCA3FA
:101E8B00E0FDA3E0FEA3E0FF22788CE2FF7DF112E0
:101E9B0052439000DAE0FCA3E0FDA3E0FEA3E0FFD9
:101EAB00E4FBFA79C87842120E979000DA1212FF0F
:101EBB009000B8E0FCA3E0FDA3E0FEA3E0FFE4FB91
:101ECB00FA79C87842120D8E9000B81212FF90006A
:101EDB00B8E0FCA3E0FDA3E0FEA3E0FF120FF0AB24
:101EEB0007AA067C007D6412121B788BEFF27C0034
:101EFB007D64AF03AE0212121B788CEDF218E2FF79
:101F0B0022788EE2FF7DEB1252437823E2FC08E24B
:101F1B00FD08E2FE08E2FF120FF0E47B64FAF9F829
:101F2B0012500E788BEBF27823E2FC08E2FD08E20C
:101F3B00FE08E2FF120FF0E47B107A27F9F812503B
:101F4B000EAC00AD01AE02AF03E47B64FAF9F812FC
:101F5B00500E788CEFF27823E2FC08E2FD08E2FEEB
:101F6B0008E2FF120FF07B407A42790F7800125093
:101F7B000EAC00AD01AE02AF03E47B107A27F9F88B
:101F8B0012500E788DEFF27823E2FC08E2FD08E2A6
:101F9B00FE08E2FF120FF07B007AE179F57805126B
:101FAB00500EAC00AD01AE02AF037B407A42790F0D
:101FBB00780012500E788EEFF2788BE2FF22788C3D
:101FCB00E2FF7DE21252439000B8E0FCA3E0FDA3D8
:101FDB00E0FEA3E0FFE4FBFA79C87842120E97907B
:101FEB0000B81212FF9000C8E0FCA3E0FDA3E0FED6
:101FFB00A3E0FFE4FBFA797A7844120D8E9000C8C7
:10200B001212FF9000C8E0FCA3E0FDA3E0FEA3E0EA
:10201B00FF120FF0AB07AA067C007D6412121B782F
:10202B008BEFF27C007D64AF03AE0212121B788C37
:10203B00EDF218E2FF22788EE2FF125243781DE296
:10204B00FC08E2FD08E2FE08E2FF120FF0E47B64FD
:10205B00FAF9F812500E788BEBF2781DE2FC08E2DD
:10206B00FD08E2FE08E2FF120FF0E47B107A27F97D
:10207B00F812500EAC00AD01AE02AF03E47B64FA74
:10208B00F9F812500E788CEFF2781DE2FC08E2FDA5
:10209B0008E2FE08E2FF120FF07B407A42790F78DC
:1020AB000012500EAC00AD01AE02AF03E47B107A10
:1020BB0027F9F812500E788DEFF2781DE2FC08E24A
:1020CB00FD08E2FE08E2FF120FF07B007AE179F5E2
:1020DB00780512500EAC00AD01AE02AF037B407A17
:1020EB0042790F780012500E788EEFF2788BE2FF68
:1020FB0022788CE2FF7DFC1252439000C8E0FCA3D7
:10210B00E0FDA3E0FEA3E0FFE4FBFA797A7844124A
:10211B000E979000C81212FF9000CCE0FCA3E0FDDC
:10212B00A3E0FEA3E0FFE4FBFA79C87842120D8E20
:10213B009000CC1212FF9000CCE0FCA3E0FDA3E0DA
:10214B00FEA3E0FF120FF0AB07AA067C007D641222
:10215B00121B788BEFF27C007D64AF03AE022290F2
:10216B0000C6A3E0FF7DF81252439000D7E0FAA31C
:10217B00E0FB7C007D64FFAE021211C6788BEFF2A0
:10218B007C007D64AF03AE021211C6788CEDF218A1
:10219B00E2FF22788CE2FF7C6412524322788CE2BD
:1021AB00FF7C6F12524322788CE2FF7C6F125243FA
:1021BB0022788DE2FF7DEC12524322788CE2FF7C79
:1021CB0064125243227FEF1253139000D1E0FAA313
:1021DB00E0FB7C007D64FFAE021211C6788BEFF240
:1021EB007C007D64AF03AE021211C622788CE2FF35
:1021FB007C6F12524322788DE2FF7C641252432291
:10220B009000E4E0FF7DF4125243229000D9E0FFEE
:10221B007DF7125243229000C5E0FF7DEF1252432F
:10222B0022E2FF7C6F125243227C641252437C6485
:10223B0022788CE2FF7C64125243227C6F12524351
:03224B007C6F2283
:0C5320008FE4EEF5E375E64675E6B92271
:0D530600E4F5E7F5E5F5E675E380F5E42252
:0F52CC0075E78275E50112532000AFE212530619
:0152DB0022B0
:10524300AB0775E78275E5028DE4ECF5E3AF038FF9
:08525300E2125325000253068C
:0D53130075E78275E5031253200002530672
:06461C00842900000000EB
:104DEC0078AAE2FB08E2FA08E2F912129578AAE234
:104DFC00FB08E2FA08E2F922788DE2FB08E2F908F6
:104E0C00E2FA08E2CBF82212130B7899E2FC08E2E2
:104E1C00FD08E2FE08E2FF22E0F8A3E0F9A3E0FAC5
:104E2C00A3E0FB22EBF208EAF208E9F22212127577
:044E3C00E4FBFA2277
:10001E00E4FFFE00000000000FBF00010EEF640CB5
:03002E004E70F021
:0100310022AC
:1050B700E4FDD29012001E7C80ECD394004019C20C
:1050C7009012001E12001E309103ED4CFDD290127B
:0D50D700001EECC313FC80E112001EAF05AB
:0150E40022A9
:054D180078B1124E30DD
:104D1D00E478B7F2C296D2901250B778B1124DFB2B
:104D2D00EF1211801250B778B1124DFB900001EFC8
:104D3D001211921250B778B4124DFBEF121180126E
:104D4D0050B778B4124DFB900001EF121192D2962C
:104D5D0078B1124DFB121167FF54C064C06004EFAF
:104D6D0030E60578B77401F2121167543F121180C5
:044D7D0078B7E2FF22
:014D8100220F
:053B830078AA124E308B
:103B880078AFE2FE08E2AA06F978B4E4124E317B77
:103B9800FE7A0079AD124D18EF6003023C8CD378A1
:103BA800AEE2946618E26480948650077406F208C0
:103BB8007466F2C378AEE2949A18E2648094B940CD
:103BC800077439F208749AF278ADE2FC08E2FDEC69
:103BD800120FB77B7B7AC2799E783D120D8E7B00DF
:103BE8007AC0791E78C4120C9D9000DA124E241205
:103BF8000C99124DEC124E3979207841120D8E1223
:103C08000FF07C007D0A12121BAC06AD07EC120FF8
:103C1800B7124DEC124E39F9F8120F346011400FFB
:103C2800124DF9121275120FA1124DF912129512B6
:103C38004DF9124E3979FE7843120F34500A124D5D
:103C4800F912136143FE000078AFE2FE08E278053E
:103C5800CEC313CE13D8F9FF78AFEEF208EFF2FD1A
:103C6800AC06E4120FB77BF07A1679C8783D120DCE
:103C78008EE4FBFA794878C2120C9D124DF9900037
:043C8800041212AF61
:013C8C002215
:104C3B00789D12134800000000E478A1F27BFE7A05
:104C4B000079A2123B8378A2124E18789D12130B97
:104C5B009000E4E0FFC374149FFDE49400FCE412A5
:104C6B000FB7789D124E06120D8EC004C005C006FC
:104C7B00C0079000E4E0FCE4120FBC7829124E064A
:104C8B00120D8ED003D002D001D000120C9DE4FB8C
:104C9B00FA79A07841120E977899124E137829124F
:024CAB004E13A6
:014CAD0022E4
:10440300124C3B120FF0788BEEF208EFF2124E4093
:10441300788D12130B7F6F7E127D837C3A124E04CC
:10442300120F345009788D121348000000007BFEF0
:104433007A007991124A18789512130B7FAE7E2A6F
:104443007D7B7C3C124E04120D8EA804A905AA069E
:10445300AB077FDF7E4F7D5D7C40120C9978951210
:104463004E06120D8EC004C005C006C0077F337E02
:10447300937D887C437891124E06120C9DA804A963
:1044830005AA06AB07D007D006D005D004120E97B5
:10449300C004C005C006C007788CE225E0FD18E221
:1044A30033FC120FB7D003D002D001D000120E9705
:1044B3001246F99000C8124E24120D8E9000CC12B1
:0544C3004E24120D8ED5
:0144C80022D1
:1050E500E4F5D8F5E9F5F9F5D9782DE2FE08E2F50C
:1050F500EAEEF5FA7817E2FE08E2FF782EE22FF2E3
:0C51050018E23EF275DA49D2DED2AE228A
:104EE000785C12130BE4FFFE7D487C44785CE2FBA7
:104EF00008E2F908E2FA08E2CBF8120D8EE4FBFAB8
:104F000079C87842120E97E4FBFA79487843120C7C
:104F10009DA804A905AA06AB077F007E247DF47C2A
:0F4F200048120E97120FF07817EEF208EFF222F8
:10462200942F0000000000000000000000000000C5
:09463200000000000000814300BB
:10513600120C9D78A9E2FB08E2FA08E2F922789CB3
:10514600E2FC08E2FD08E2FE08E2FF22EBF208EAD2
:05515600F208E9F2225D
:054D820078B01251524F
:104D8700E478B6F2C297D2901250B778B012513B7E
:104D9700EF1211801250B778B012513B900001EF1B
:104DA7001211921250B778B312513BEF12118012C1
:104DB70050B778B312513B900001EF121192D2977E
:104DC70078B012513B121167FF54C064C06004EF02
:104DD70030E60578B67401F2121167543F1211805C
:044DE70078B6E2FFB9
:014DEB0022A5
:0543370078A9125152AB
:10433C0078B374FEF2087400F20874AEF27BFE7A65
:10434C000079AC124D82EF6003024402D378ADE2E7
:10435C00946618E26480948650077406F2087466BA
:10436C00F2C378ADE2949A18E2648094B940077471
:10437C0039F208749AF278ACE2FC08E2FDEC120F08
:10438C00B77B0F7A457901783C120D8E7B177AD961
:10439C00794E78C11251361212951251391212758A
:1043AC00E4FBFAF9F8120F346011400F1251391274
:1043BC001275120FA112513912129578AEE2FE0845
:1043CC00E27805CEC313CE13D8F979AFF3EE19F317
:1043DC0078AEE2FC08E2FDE4120FB77BF07A1679B6
:1043EC00C8783D120D8EE4FBFA794878C21251362A
:0643FC009000041212AF54
:014402002297
:054A18007899125152D3
:104A1D000812134800000000E478A0F27BFE7A0033
:104A2D0079A112433778A5125146789912513B124C
:104A3D00129578A11251467843E225E025E0242F06
:104A4D00F812130B7843E204F2E2B40502E4F2E447
:104A5D0078A0F278A0E2FFC364809485502C789CF6
:104A6D00E2FB08E2F908E2FA08E2CBF8C000EF2514
:104A7D00E025E0242FF8125146D000120C9D789CB1
:104A8D0012130B78A0E204F280C9125144E4FBFA30
:0F4A9D0079A07840120E97789C12130B12514497
:014AAC0022E7
:06463B00844442F000007F
:0E52EB007899E2FC08E2FD08E2FE08E2FF22EC
:105299009000BC7401F0E49000D5F0A3F0D288D25C
:0252A900A82239
:105271009000D5E0FFA3E07827CFF208EFF2E490A9
:0652810000BCF0C2A822EF
:104E40009000BCE0703DD37828E294E918E2940326
:104E500040077403F20874E9F27827E2FC08E2FDE7
:104E6000E4120FB7E4FBFA794978C3120C9DE4FB16
:104E7000FAF97841120E97789912130B1252EB78C7
:104E800044800778441252ED789912130B1252EBBA
:014E900022FF
:100C960002105CE86480F8E933E83360110460F020
:100CA600ED33EC337009E8FCE9FDEAFEEBFF2204C4
:100CB60060DED3EB9FEA9EE99DE8C2E78CF0C2F7BF
:100CC60095F0400CE8CCF8E9CDF9EACEFAEBCFFB8B
:100CD60012102785D0F05804700320D5B3E80470AD
:100CE600075002B2D502106692D5EC0460F7E4CC48
:100CF600C0E0C398F8603B94186008400DD0E0FB54
:100D060002103EE4FBFAC9FC8028E830E406E4C998
:100D1600FBE4CAFCE830E305E4C9CACBFCE85407A7
:100D26006010F8C3E913F9EA13FAEB13FBEC13FCB2
:100D3600D8F130F52FC3E49CFCEF9BFFEE9AFEED55
:100D460099FDD0E0FBEF4E4D4C701222DB030210F2
:100D560063EC2CFCEF33FFEE33FEED33FDED30E7B5
:100D6600EB02103EEF2BFFEE3AFEED39FDD0E0FB35
:100D760050130BBB0003021066ED13FDEE13FEEFDE
:080D860013FFEC13FC02103E08
:100D8E00EC4D6011E8497017ED33EC3304600DE45F
:100D9E00FCFFFEFD22E933E8330470F802105C120A
:100DAE00102758046009E4CC24815006285009020B
:100DBE001066284003021063C0E0EB4A7044B9800D
:100DCE0006D0E0FB021052EF4E701CBD8008EBFF08
:100DDE00EAFEE9FD80EBE98DF0A4FEE5F0020E7768
:100DEE00E9CDF9EAFEEBFFEF89F0A4FCE5F0CE8940
:100DFE00F0A42EFFE435F0CD89F0A42DFEE435F0FD
:100E0E008067EF4E7005BD80D780C3EF8BF0A4AC2A
:100E1E00F0EE8BF0A42CFCE435F0F8EF8AF0A42C65
:100E2E00E5F038FCE433CB8DF0A42CFCE5F03BF878
:100E3E00EE8AF0A42CFCE5F038F8E433CF89F0A468
:100E4E002CFCE5F038CF3400CE89F0A42FFFE5F06E
:100E5E003EFEE433C98DF0A42EFEE5F039CD8AF0C6
:100E6E00A42FFFE5F03EFEE43DFD33D0E0FB50073E
:100E7E000BBB000F021066EC2CFCEF33FFEE33FEC3
:060E8E00ED33FD02103EF1
:100E9400021066EC5D046005E85904700302105CFE
:100EA400121027580460F6EC4860F2EC7004FDFE62
:100EB400FF22C860DB2481C85009C3986002500631
:100EC4000210639850CAF582E9294B4A7005AB8237
:100ED40002105275F0007C1A7880C3EF9BEE9AEDF5
:100EE40099400DC3EF9BFFEE9AFEED99FDE842F0A9
:100EF400DC23ACF0D0E0FFD0E0FED0E0FDAB8220FC
:100F0400E7101BEB60BAEC2CFCEF33FFEE33FEED85
:100F140033FD02103EE803F830E705C0F075F00039
:100F2400EF2FFFEE33FEED33FD40B830E7C280AA69
:100F340074F8CC6480CCC86480C8F582046043C370
:100F4400EB9FF5F0EA9E42F0E99D42F0E89C45F003
:100F540060305018E5825FFFE582F42B5582FB5028
:100F6400210ABA001D09B90019088016E5825BFB45
:100F7400E582F42F5582FF50090EBE00050DBD0019
:100F8400010CC3EB9FF5F0EA9E42F0E99D42F0E8C4
:0D0F94009C45F06007CC4820E701B3EC223B
:100FA100ED33EC33600A047003BD8004ECB2E7FC5E
:010FB100221D
:100FB20075F020800E75F010800575F0087D007EBA
:100FC200007F003392D530D503121251EC3340101A
:100FD200EF33FFEE33FEED33FDEC33FCD5F0ED22C3
:0E0FE200E5F0247EA2D513CC92E7CDCEFF22FF
:100FF000EDD2E7CD33EC3392D524814006E4FFFEF9
:10100000FDFC22FCE4CFCECDCC24E0501174FF8057
:10101000EDC3CC13CCCD13CDCE13CECF13CF0470F4
:07102000F030D5DE02125191
:1046F50002105C22EDA2E7D2E7F9EC3340F260F359
:10470500B4FF08ED547F70E8021066F82481C2E01A
:10471500C0E0F40428FAC313FCED92E7FD78991282
:10472500130BEEA2E7E9BA7F02C31334009400FA33
:1047350075F091A4E5F013F494FE8AF0A433E5F046
:1047450033248CD313FDE492E7FE7F007C3F758311
:1047550002ECC0E0F8EDC0E0F9EEC0E0FAEFC0E031
:10476500FB88F078991212D3A8F0120E97D0E0FBCF
:10477500D0E0FAD0E0F9D0E0F8120C9DED6480FDB0
:1047850030E7011CD583CAED33CC33F8D0E0A2E77E
:084795001328C313CC13FD220D
:10102700E9D2E7C933E833F892D5EDD2E7CD33EC0F
:0710370033FC5002B2D52288
:10103E00EC30E7100FBF000C0EBE00080DBD000413
:10104E000BEB6014A2D5EB13FCED92E7FD2274FFBF
:10105E00FCFDFEFF22E480F8A2D574FF13FC7D8018
:03106E00E480EF2C
:104B4800023933E493A3F8E493A34003F68001F217
:104B580008DFF48029E493A3F85407240CC8C3336E
:104B6800C4540F4420C8834004F456800146F6DF3D
:104B7800E4800B010204081020408090458EE47EFA
:104B8800019360BCA3FF543F30E509541FFEE49332
:104B9800A360010ECF54C025E060A840B8E493A3F9
:104BA800FAE493A3F8E493A3C8C582C8CAC583CA24
:104BB800F0A3C8C582C8CAC583CADFE9DEE780BEDC
:014641000078
:10107100E709F608DFFA8046E709F208DFFA803E61
:1010810088828C83E709F0A3DFFA8032E309F6084E
:10109100DFFA8078E309F208DFFA807088828C83B6
:1010A100E309F0A3DFFA806489828A83E0A3F6086A
:1010B100DFFA805889828A83E0A3F208DFFA804C44
:1010C10080D280FA80C680D4806980F2803380101B
:1010D10080A680EA809A80A880DA80E280CA803384
:1010E10089828A83ECFAE493A3C8C582C8CCC583FC
:1010F100CCF0A3C8C582C8CCC583CCDFE9DEE780CC
:101101000D89828A83E493A3F608DFF9ECFAA9F04A
:10111100EDFB2289828A83ECFAE0A3C8C582C8CCA0
:10112100C583CCF0A3C8C582C8CCC583CCDFEADEB9
:10113100E880DB89828A83E493A3F208DFF980CC1B
:1011410088F0EF60010E4E60C388F0ED2402B40414
:101151000050B9F582EB2402B4040050AF232345BB
:0611610082239010C1730F
:10116700BB010689828A83E0225002E722BBFE0286
:09117700E32289828A83E49322B9
:10118000BB010689828A83F0225002F722BBFE014E
:02119000F32248
:10119200F8BB010DE58229F582E5833AF583E8F093
:1011A200225006E92582C8F622BBFE05E92582C83F
:0211B200F22227
:1011B400EF8DF0A4A8F0CF8CF0A428CE8DF0A42E4F
:0211C400FE2209
:1011C600BC000BBE0029EF8DF084FFADF022E4CC0D
:1011D600F875F008EF2FFFEE33FEEC33FCEE9DECD6
:1011E600984005FCEE9DFE0FD5F0E9E4CEFD22ED1C
:1011F600F8F5F0EE8420D21CFEADF075F008EF2F66
:10120600FFED33FD4007985006D5F0F222C398FD56
:051216000FD5F0EA22F3
:10121B00C2D5EC30E709B2D5E4C39DFDE49CFCEEEE
:10122B0030E715B2D5E4C39FFFE49EFE1211C6C38F
:10123B00E49DFDE49CFC80031211C630D507C3E48A
:06124B009FFFE49EFE225D
:10500E00C2D5E830E70FB2D5E4C39BFBE49AFAE4CD
:10501E0099F9E498F8EC30E717B2D5125044121310
:10502E00D7E4C39BFBE49AFAE499F9E498F8800379
:10503E001213D730D50DE4C39FFFE49EFEE49DFD11
:04504E00E49CFC22C0
:0E125100C3E49FFFE49EFEE49DFDE49CFC22AE
:10125F00EB9FF5F0EA9E42F0E99D42F0EC6480C806
:06126F0064809845F022A6
:10127500BB010789828A830214755005E9F80214B7
:1012850069BBFE05E9F80212D389828A83021481BB
:10129500BB010789828A830212FF5005E9F802140F
:0A12A500C7BBFE05E9F802130B2297
:1012AF00BB010DE58229F582E5833AF5830212FF32
:1012BF005007E92582F80214C7BBFE07E92582F81B
:0412CF0002130B22D9
:0C12D300E2FC08E2FD08E2FE08E2FF2257
:1012DF00BB010789828A8302149E5005E9F8021424
:1012EF0091BBFE05E9F80214AA89828A830214B71A
:0C12FF00ECF0A3EDF0A3EEF0A3EFF02262
:0C130B00ECF208EDF208EEF208EFF2221E
:10131700A8828583F0D083D08212132E12132E1247
:10132700132E12132EE473E493A3C583C5F0C5836C
:10133700C8C582C8F0A3C583C5F0C583C8C582C820
:011347002283
:10134800D083D082E493F208740193F20874029374
:09135800F208740393F2740473AB
:10136100BB010789828A830213175005E9F8021429
:0A137100D3BBFE05E9F80213482281
:10137B00BB010789828A830214F55005E9F8021430
:10138B00ECBBFE05E9F80214FE89828A830215077D
:10139B0075F008758200EF2FFFEE33FECD33CDCC09
:1013AB0033CCC58233C5829BED9AEC99E58298408C
:1013BB000CF582EE9BFEED9AFDEC99FC0FD5F0D669
:1013CB00E4CEFBE4CDFAE4CCF9A88222B800C1B993
:1013DB000059BA002DEC8BF084CFCECDFCE5F0CBD1
:1013EB00F97818EF2FFFEE33FEED33FDEC33FCEB0A
:1013FB0033FB10D703994004EB99FB0FD8E5E4F9C5
:10140B00FA227818EF2FFFEE33FEED33FDEC33FCB1
:10141B00C933C910D7059BE99A4007EC9BFCE99AA5
:10142B00F90FD8E0E4C9FAE4CCFB2275F010EF2FEA
:10143B00FFEE33FEED33FDCC33CCC833C810D707EA
:10144B009BEC9AE899400AED9BFDEC9AFCE899F825
:0E145B000FD5F0DAE4CDFBE4CCFAE4C8F922B8
:0C146900E6FC08E6FD08E6FE08E6FF22AF
:0C147500E0FCA3E0FDA3E0FEA3E0FF22EA
:10148100E493FC740193FD740293FE740393FF22B1
:0D149100E6FB08E6F908E6FA08E6CBF822CB
:0C149E00E0F8A3E0F9A3E0FAA3E0FB22D1
:0D14AA00E2FB08E2F908E2FA08E2CBF822C2
:1014B700E493F8740193F9740293FA740393FB228B
:0C14C700ECF608EDF608EEF608EFF62251
:1014D300D083D082E493F608740193F608740293E0
:0914E300F608740393F674047317
:0914EC00E6FB08E6FA08E6F92225
:0914F500E0FBA3E0FAA3E0F922F8
:0914FE00E2FB08E2FA08E2F9221F
:0C150700E493FB740193FA740293F92240
:00000001FF
